:100000000C945E020C9496020C9496020C94960248
:100010000C9496020C9496020C9496020C94960200
:100020000C9496020C9496020C9461280C94392935
:100030000C9416280C9496020C9496020C9496023A
:100040000C9496020C9496020C9496020C949602D0
:100050000C9496020C943D280C9496020C949602F3
:100060000C9496020C9496020C9496020C949602B0
:100070000C9496020C9496020C9496020C949602A0
:100080000C9496020C9496020C9496020C94960290
:100090000C9496020C9496020C9496020C94960280
:1000A0000C9496020C9496020C9496020501090297
:1000B000A10185020901A1000509190129081500FE
:1000C0002501950875018102050109300931158165
:1000D000257F95027508810609381581257F9501D0
:1000E00075088106050C0A38021581257F95017572
:1000F000088106C0C005010980A101850319012AF4
:10010000B700150126B700950175108100C0050CD8
:100110000901A101850419012AA002150126A002E6
:10012000950175108100C005010906A1018506052C
:100130000719E029E71500250195087501810205D9
:1001400007190029EF1500250195F07501810205B9
:10015000081901290595057501910295017503910D
:1001600001C00660FF0961A1010962150026FF00B8
:100170009520750881020963150026FF00952075FA
:10018000089102C005010906A101050719E029E748
:1001900015002501950875018102950175088101F9
:1001A0000507190029FF150026FF0095067508812F
:1001B000000508190129051500250195057501910E
:1001C00002950175039101C009025B00030100A0C3
:1001D000320904000001030101000921110100019D
:1001E00022440007058103080001090401000203FD
:1001F00000000009211101000122220007058203ED
:100200002000010705030320000109040200010387
:1002100000000009211101000122B6000705840336
:1002200020000112010002000000084C57E3E60024
:10023000010102000114034D006900630072006FA8
:100240000020005000610064000000180357006F98
:100250000072006B0020004C006F007500640065A8
:10026000007200000004030904000029003E0000A1
:10027000002C0C407E1B08E3006800AC00AE00AB15
:100280000020786A00A8000152010001000100016D
:100290000001000100010001000100010001000156
:1002A00000010001000100025201000100010001F3
:1002B0000001000100010001000100010001000136
:1002C00000010001000100035201000100010001D2
:1002D0000001000100010001000100010001000116
:1002E000000100007C037C0052DB00DC00B700B69C
:1002F00000010001000100010001000100010001F6
:1003000000010001000100010000010101010101E3
:1003100001010102020202020202020203030303BC
:10032000030303030404040404040405050505058C
:10033000060606060607070707070808080809094A
:1003400009090A0A0A0B0B0B0C0C0C0D0D0D0E0EF5
:100350000E0F0F0F10101111111212131314141588
:100360001516161717181819191A1A1B1B1C1D1DFC
:100370001E1E1F2020212222232424252626272852
:1003800029292A2B2C2D2D2E2F3031323233343582
:10039000363738393A3B3C3D3E3F40414243444585
:1003A000464748494A4C4D4E4F5051535455565864
:1003B000595A5B5D5E5F616264656668696B6C6D0E
:1003C0006F7072737577787A7B7D7E808283858784
:1003D000888A8C8E8F91939596989A9C9EA0A2A3C2
:1003E000A5A7A9ABADAFB1B3B5B7BABCBEC0C2C4C7
:1003F000C6C9CBCDCFD1D4D6D8DBDDDFE2E4E7E987
:10040000EBEEF0F3F5F8FAFDFF64321400000000A3
:1004100000000000000000000000000000000000DC
:1004200000000000000000000000000000000000CC
:100430007E0F00D4FFFFFFC700000078000000001F
:10044000000000002A2B280000000000000000002F
:100450000000000000000029000000002C1E3420D5
:10046000212224342627252E362D3738271E1F20FB
:100470002122232425263333362E37381F04050640
:100480000708090A0B0C0D0E0F1011121314151684
:100490001718191A1B1C1D2F3130232D3504050682
:1004A0000708090A0B0C0D0E0F1011121314151664
:1004B0001718191A1B1C1D2F3130354C11241FBE63
:1004C000CFEFDAE0DEBFCDBF04B603FE18C08091E7
:1004D0001E0390911F03A0912003B0912103873048
:1004E000904BA740B04B59F410921E0310921F037B
:1004F0001092200310922103E0E0F8E3099511E047
:10050000A0E0B1E0E8E3F6E502C005900D92A43B5F
:10051000B107D9F723E0A4EBB1E001C01D92AE31E1
:10052000B207E1F70E94C51F0C94962A0C940000B4
:10053000529A0895FC01CB013FB7F8948E0F9F1F8C
:10054000E817F90711F43FBF0895519168E02BB9FE
:10055000000000C057FF4BB9550F000000C000C09D
:1005600000C04BB900C06A9591F7EACFF894E82F24
:10057000E295EF70F0E041A18F7021E030E0B90129
:1005800002C0660F771F8A95E2F7CB01962F9095F0
:10059000942391A392A1892B82A378940895269AFB
:1005A0002E9A0895279A2F9A0895259A2D9A08959C
:1005B00026982E982E98089527982F982F9808956A
:1005C00025982D982D98089590E090938B00809316
:1005D0008A0090938D0080938C0090938900809383
:1005E000880008950F931F93CF93C82F811107C0E0
:1005F0000E94D8020E94DC020E94E0021DC0082F67
:1006000010E0C8019595879581708823D1F00E94EC
:10061000CF02C80195958795959587958170882318
:1006200099F00E94D20283E0169507958A95E1F72A
:1006300000FFE2CF0E94D5028C2FCF911F910F9126
:1006400008950E94D802E5CF0E94DC02ECCF80938F
:10065000D70208950E94F2028093D802089521E003
:1006600030E001C0220F8A95EAF78091D802822BF0
:100670000E942A03089521E030E0A90102C0440F3E
:10068000551F8A95E2F7CA0180959091D802892377
:100690000E942A0308959B01677091E001C0990FA1
:1006A0006A95EAF763E0369527956A95E1F7B9010F
:1006B000660F771F260F371FFA01E20FF31F40E086
:1006C00050E0682F70E08191DF0111979B01042EAB
:1006D00002C0369527950A94E2F7217021952827C4
:1006E000292328272C934F5F5F4F4330510559F73B
:1006F00008959C01A82FA77083E0369527958A95C9
:10070000E1F7C901880F991F820F931FFB01E80FC2
:10071000F91F40E050E080E0219130E00A2E02C055
:10072000369527950A94E2F721703327042E01C0ED
:10073000220F0A94EAF7822B4F5F5F4F4330510537
:1007400059F70895282F862F943068F4243050F4F8
:1007500034E0939FB0011124620F711D4DEA52E005
:100760000E944B0308959C5F9230E0F7622F70E087
:100770004AEA52E0F5CF282F943068F4843090F4A0
:1007800034E0939FC00111246DEA72E0820F911D45
:100790000E94790308959C5F923020F46AEA72E027
:1007A00090E0F6CF80E008959091D80221E030E00B
:1007B000F90101C0EE0F8A95EAF7D90102C0AA0F2C
:1007C000BB1F6A95E2F7EA2B01C0220F4A95EAF7B0
:1007D000892F8E23E81305C0892F822B0E942A03BC
:1007E00008952095822F8923F9CF8091DE02909180
:1007F000DD02981301C008958F5F8770FACF909142
:10080000D902809589238093D902282F277021113E
:100810000DC0891759F09091DB0292FF07C08695B1
:10082000869586950E943B031092D9020895809187
:10083000D4029091DC02892B5091D5025523C1F04E
:10084000909112019923A9F09091DA0297FF11C0BB
:100850009DE120EC31E040E0F90160812F5F3F4FE6
:1008600061114F5F9150C0F741111092D502852B55
:10087000089595E028EB31E0EECF982F9095809188
:10088000D40289238093D4020895803E9105D1F14A
:10089000C8F48133910509F47FC048F48932910589
:1008A00009F46FC08A32910509F47DC00895893337
:1008B0009105E1F082389105C9F08533910509F47D
:1008C0005BC00895843E9105D1F148F4823E9105C4
:1008D00031F1833E910541F181EE90E00895863E2D
:1008E0009105C1F1873E9105E1F108952091DA0269
:1008F0002370211165C02091DB0223FF14C089E21F
:1009000090E008952091DA0220FD43C03091DB028F
:1009100030FF09C024FF4EC080E090E00895209190
:10092000DA0222FDF7CF08952091DA0222FD45C0B8
:100930003091DB0230FD44C024FFF5CFEDCF209194
:10094000DB0221FFF0CF8091DA0284FDE5CF87EE54
:1009500090E008952091DA0223FFE5CF24FDDCCF5B
:10096000F6CF2091DA0223FD2EC03091DB0231FF59
:10097000E3CF84EE90E008952091DA0225FFD3CFF3
:10098000BECF2091DA0225FD21C02091DB0223FF9A
:10099000CACF89E390E008952091DA0226FFC3CF01
:1009A0008AE290E008952091DA0226FFBCCF81E32D
:1009B00090E0089583EE90E0089582EE90E008952F
:1009C00080EE90E0089586EE90E0089585E390E053
:1009D000AACF9091DA0292FF10C041E0282F247133
:1009E000243009F040E031E0282F2871283009F048
:1009F00030E0431711F02CE0822793FF10C041E054
:100A0000282F2471243109F040E031E0282F28718B
:100A1000283109F030E0431711F02CE082273091A3
:100A2000DB0230FF10C051E0282F2171213009F086
:100A300050E041E0282F2871283009F040E0541799
:100A400011F029E0822731FF10C041E0282F2171E9
:100A5000213109F040E031E0282F2871283109F0D8
:100A600030E0431711F029E0822794FD877E089536
:100A70001F93CF93DF930E944504EC01811522E57B
:100A8000920708F053C0811540E5940708F0DDC0D7
:100A9000803E9105F8F48D3C910508F0AEC0883A8F
:100AA000910580F4853A910508F099C0813091054F
:100AB00021F00497813A910550F4CE01DF91CF9156
:100AC0001F910895885A91094B9708F48BC0C0E094
:100AD000D0E0F3CF811550E49507F8F4C11580E21A
:100AE000D80708F0CBC0C83ED10538F3CE019A959F
:100AF00081159F4160F78D2F0E94E904182FCE01C8
:100B000099270E944504212F30E0322F2227E90146
:100B1000CC27DF71C82BD92BD0CF99270E94450451
:100B2000CC27DF70C82BD92BD06AC7CF803842E5DD
:100B30009407C8F5803652E5950708F067C0C034C1
:100B400082E5D807B0F08C2F86958695877020E2D5
:100B5000829FC0011124C37021E030E0A90102C0CE
:100B6000440F551FCA95E2F7EA01C82BD92BDC6860
:100B7000A4CFC03252E5D50708F041C08C2F86952E
:100B8000869520E2829FC0011124C37021E030E0ED
:100B9000A90102C0440F551FCA95E2F7EA01C82B0C
:100BA000D92BDD688ACF803C52E5950760F48F71C0
:100BB000C03AD24508F03FC090E0982F8827EC015A
:100BC000C46FD06A7ACF805C9245809708F07FCF5F
:100BD000DC2FCC27CC27DF71C06FD06A6ECFA497F3
:100BE000D0646BCFC85AD0E0CC0FDD1FC258DE4FA7
:100BF0000990D881C02DD46460CFD0655ECFCF710D
:100C0000D0E0DC2FCC27C16FD06A57CF8695869570
:100C1000877020E2829FC0011124C37021E030E080
:100C2000A90102C0440F551FCA95E2F7EA01C82B7B
:100C3000D92BDA6842CF0E94E904C82FD0E0DC2F1C
:100C4000CC27CC27DF71D06238CF8F710E94E904A6
:100C500065E0D695C7956A95E1F7CF70D0E0DC2FB7
:100C6000CC27282F30E084FF05C054E0220F331F2B
:100C70005A95E1F7C22BD32BD0691FCF8D2F8F71DF
:100C80000E94E904182FCE0199270E944504212FC4
:100C900030E0322F222722273F71282B392BE90100
:100CA000D2CF80E008950895A0E0B0E0EAE5F6E054
:100CB0000C94BF29E82FF0E0E75FFC4F711109C0E9
:100CC000E4918E2F7E2F6E2FCDB7DEB7EAE00C9425
:100CD000DB29262F30E0C72FD0E0F491EF2F86E0FC
:100CE000829F8001839F100D1124EE24EA94F12C41
:100CF000C801B7010E948229AB01220F331F65E5AD
:100D0000649FC001659F900D1124281B390B822F11
:100D1000880F280FC7018C1B9D0BF89FD001F99FEE
:100D2000B00D11248B2F2C9FB0012D9F700D11241D
:100D3000672F77275701A61AB70AFA9D6001FB9D16
:100D4000D00C11247D2D5701A21AB10895012C9FBA
:100D500050012D9FB00C3C9FB00C1124AB2CBB2438
:100D6000EA18FB08FE9DE001FF9DD00D11244330E1
:100D70005105C1F00C3F93E0190750F44130510583
:100D800009F4A1CF4230510589F07E2FED2F9BCF82
:100D90004430510571F046305105B9F3EB2F8D2DDC
:100DA0007F2F91CFED2D7B2F8F2F8DCF7B2F8D2FF1
:100DB0008ACF7D2FEB2FF8CFCF93DF93982F762F0D
:100DC000842FE901692F0E945406798368838A83FE
:100DD000DF91CF9108958091CC02843060F48370CC
:100DE00084608093CC028091CF02873918F086E925
:100DF0008093CF0208958032B0F383708C61F1CF7D
:100E00008091CC0280FD0AC0E1E3F2E01182108201
:100E10001282339682E0E934F807C1F768E070E0A7
:100E200081E392E00E94D00B0895EF92FF921F930E
:100E3000CF93DF93EC0181E3E82E82E0F82E10E0FF
:100E40004091CF02473908F046E98C8197016091C3
:100E5000CE02810F0E94DC06115E83E0E80EF11CD9
:100E6000183F71F70E9400079A818C8190FF08C09B
:100E70008F5F8C83DF91CF911F91FF90EF9008954A
:100E80008150F7CF409103015091040125E038E0F3
:100E9000429FC001439F900D529F900D1124875E89
:100EA000994C9093040180930301890F08950E9447
:100EB000B3070895962F2091C00223702223A1F03A
:100EC000882399F0833098F48F73880F880F2091CE
:100ED000C0022370822B8093C00210921301609194
:100EE000BF02692B6093BF02089581E0EECF82E0DC
:100EF000ECCF922F2091C0022370222371F08093B7
:100F0000C1026093C202473908F046E94093C30228
:100F10002091BF02292B2093BF020895519A10926D
:100F200020020895CF93DF93DC01FC01EE0FFF1F39
:100F3000EF01CA0FDB1FC450DE4F8981861306C044
:100F40008881841303C08A81821751F081E08093E5
:100F50002002EA0FFB1FE450FE4F6183408322838F
:100F6000DF91CF910895FF920F931F93CF93DF935B
:100F7000182F062FF42EC0E0D0E02F2D402F612F28
:100F8000CE010E9492072196CC30D105B1F7CDB7A2
:100F9000DEB7E5E00C94E029FA01882311F0099509
:100FA0000895FB01FCCF90E06623E9F0845D9E4F3D
:100FB000FC0180818F3FB1F0E82FE295EF70F0E007
:100FC00041A18F7021E030E0B90102C0660F771FA8
:100FD0008A95E2F7CB01962F9095942391A392A145
:100FE000892B82A30895865D9E4FE2CF90E0662311
:100FF000A9F0845D9E4FFC0120812F3F91F0E22FEC
:10100000E295EF70E05EF0E0808190E02F7002C02A
:10101000959587952A95E2F781700895865D9E4F94
:10102000EACF80E00895282F35EB2303C001112477
:1010300097FF04C080589109892F089580589F4FC9
:10104000FBCF8091B50280FD14C081FD14C082FDEC
:1010500016C08091B402882381F08E3180F420E59F
:10106000829FC00111246EE170E00E949629862FB4
:10107000089584E1089588E2089588E0089580E560
:1010800008958091B50280FD17C081FD17C082FDD3
:1010900019C08091B302882399F0883298F428E02F
:1010A000829FC001112468E270E00E9496296115B8
:1010B000710551F0862F089562E0FCCF64E0FACF0D
:1010C00061E0F8CF68E0F6CF81E00895E091A002FA
:1010D000F091A102309729F00190F081E02D09955F
:1010E000089580E00895A3E0B0E0E9E7F8E00C940B
:1010F000C7299C018091FA019091FB018217930707
:10110000A1F03093FB012093FA01E091A002F0914D
:10111000A102309751F083E089833B832A830084C6
:10112000F185E02DCE01019609952396E2E00C941D
:10113000E329A3E0B0E0EFE9F8E00C94C7299C01B3
:101140008091F8019091F90182179307A1F03093F3
:10115000F9012093F801E091A002F091A1023097EB
:1011600051F084E089833B832A830084F185E02D5C
:10117000CE01019609952396E2E00C94E329909123
:1011800012019923C1F09091DA0297FF14C0E82F61
:10119000E695E695E695803FF8F4F0E0E254FE4FE0
:1011A000877021E030E001C0220F8A95EAF7828142
:1011B000822B82830895A8EBB1E0EFEF90E02D91B0
:1011C000821751F0EF3F19F4211101C0E92F9F5F01
:1011D0009630A9F7EF3F09F408950E2E000CFF0B8F
:1011E000EA54FE4FE6CF909112019923E1F09091DD
:1011F000DA0297FF18C0E82FE695E695E695803F5E
:10120000F0F4F0E0E254FE4F877021E030E0A901F5
:1012100002C0440F551F8A95E2F7CA01809592815A
:10122000892382830895E8EBF1E09191891303C04B
:10123000DF0111971C9251E0EE3BF507B1F70895DD
:101240002FB7F8948091250290912602A091270251
:10125000B09128022FBF08950E9420092091B80262
:101260003091B902232B222321F0809372029093B4
:1012700073022091BA023091BB02232B222321F06A
:101280008093700290937102E091A002F091A1020C
:10129000309749F082E08093B6020680F781E02D16
:1012A00086EB92E0099508952091B8029091BB02D7
:1012B0003091BA02662309F45AC04091B902242B36
:1012C000292B232B222331F098E09093B40291E054
:1012D0009093B3028D3C41F40E9421088195809344
:1012E000B9020E942C090895E2E3E80FE231C8F741
:1012F000F0E0E856F54D0C94AA290E942108EFCFA2
:101300000E94210881958093B802EBCF0E942108AA
:10131000FACF0E9441088093BA02E3CF0E944108AD
:101320008195F9CF0E94410881958093BB02D9CF66
:101330000E944108FACF815D990B21E030E001C0A5
:10134000220F8A95EAF78091B702822B8093B70229
:10135000C8CF8091B50281608093B502C2CF8091E1
:10136000B5028260F9CF8091B5028460F5CF8D3CE3
:1013700059F48091B90287FF0DC01092B90222235F
:1013800059F41092B40208C08E3C81F48091B902E5
:1013900018169CF3222381F08091BA029091BB022F
:1013A000892B81119ECF1092B3029BCF8F3C41F4C9
:1013B00027FFF0CF1092B8028091B9028823E0CFC6
:1013C000803D19F41216B4F3E5CF893D29F41316C4
:1013D0000CF71092BA02DECF8A3D19F437FFDACF4C
:1013E000F8CF8B3D29F497FFD5CF1092BB02D2CF17
:1013F0008C3D19F41916CCF3CDCF9FE2980F98309D
:1014000090F4815D990B41E050E0BA0102C0660F93
:10141000771F8A95E2F7CB0180959091B7028923D7
:101420008093B702B7CF8D3D31F48091B5028E7FA6
:101430008093B502AFCF8E3D21F48091B5028D7FB0
:10144000F7CF8F3D09F0A6CF8091B5028B7FF0CF0B
:10145000A4E0B0E0EEE2FAE00C94C7298FB7F8946C
:1014600020912502309126024091270250912802B6
:1014700029833A834B835C838FBF69817A818B8117
:101480009C812496E2E00C94E3299C014FB7F894E8
:101490008091250290912602A0912702B091280206
:1014A0004FBF821B930B08958091F7010895FC01B3
:1014B0009B018091ED019091EE018617970740F016
:1014C000672B29F48091E8008E778093E800C901AA
:1014D00040E0009741F4411106C08091E80082FF8E
:1014E0002FC080E0089520917D022223A9F12530AC
:1014F000A9F12091E80023FD2DC02091E80022FDF4
:10150000ECCF2091E80020FFE4CF3091F300209150
:10151000F200009719F02830310558F041E02830EA
:10152000310509F040E02091E8002E772093E80093
:10153000D0CF41914093F10001972F5F3F4FE9CF0A
:1015400080917D02882341F0853041F08091E80050
:1015500083FFC3CF81E0089582E0089583E008957A
:101560008091E70187FF13C08091E80082FF06C0E9
:101570008091E8008B778093E80004C080917D0221
:101580008111F2CF089580917D028823D9F3809153
:10159000E80080FFF8CF8091E8008E77ECCF2091B3
:1015A000E4003091E50095E6A9018091EC0081709E
:1015B000882331F08091E80080FF06C080E0089524
:1015C0002091E80022FD1BC080917D02882391F0CC
:1015D000853091F08091EB0085FD10C02091E400F2
:1015E0003091E5004217530701F391509111DCCF80
:1015F00084E0089582E0089583E0089581E00895ED
:10160000E8EDF0E080818E7F80831092E2001092FE
:10161000DA001092E100A0EEB0E08C9181608C9332
:1016200080818F77808319BCA7EDB0E08C918E7F8D
:101630008C9380818F7E80831092E6010895982F8D
:10164000E42FE2709093E900891308C0762F242FCD
:1016500050E0E11111C091E0980FF4CF7091EC00CF
:101660002091ED005091F00021FD06C09F5F973062
:1016700049F78093E90008953091EB003E7F309365
:10168000EB003091ED003D7F3093ED003091EB00A9
:1016900031603093EB007093EC002093ED00509399
:1016A000F0002091EE0027FDE1CF0895A0E0B0E02A
:1016B000ECE5FBE00C94C129C8EDD0E088818F7E79
:1016C0008883E7EDF0E080818160808384E082BFE1
:1016D00081E08093E60188818E7F888302EE10E0AE
:1016E000F80110821092DA0081EEC82ED12CF6019A
:1016F000108288818F778883888180688883888139
:101700008F7D888319BC10927D021092E5011092A2
:1017100052021092E40190EEE92EF12CF701808143
:101720008B7F808388818160888342E060E080E0F5
:101730000E941F0BF60180818E7F8083F8018081DB
:1017400081608083808188608083F70180818E7FC3
:101750008083888180618883CDB7DEB7E8E00C9410
:10176000DD29E091DE029091DD0227E0E91302C05D
:1017700080E00895AE2FB0E02E9FF0011124E152D9
:10178000FD4F3181361306C03081381303C03581D7
:10179000341304C0FD013196E770E8CF81E008956D
:1017A0004BB12BB124604B7FFB01EE0FFF1F6E0F7F
:1017B0007F1F0E949A028FE594E00197F1F700C025
:1017C0000000089580912002882391F04BB12BB145
:1017D00022604D7F64E270E08CEF91E00E949A02FB
:1017E0008FE594E00197F1F700C00000109220020D
:1017F000089581E08093E00080E28093D800109209
:10180000C9008FE19EE40197F1F700C0000087E076
:1018100090EBDC0180931E0390931F03A0932003A1
:10182000B093210388E19CE00FB6F894A8958093CB
:1018300060000FBE90936000FFCF0F931F93CF9374
:10184000DF93EB018A0190917D02943079F58093CA
:10185000E9008FEF9091E80095FD07C095ED9A950E
:10186000F1F7000081508111F5CF8091E80085FFEC
:101870001DC00E94CF0A811114C08091E80085FD2F
:1018800006C08091E8008E778093E800F2CF8881CF
:101890008093F100015011090115110511F02196F5
:1018A000ECCF8091E8008E778093E800DF91CF91B4
:1018B0001F910F910895CF93DF93D82FC92F48E040
:1018C00050E0682F792F81E00E941D0C88E0ED2FF9
:1018D000FC2FAFEEB1E001900D928A95E1F7DF9118
:1018E000CF910895BC0140E250E084E00E941D0CBD
:1018F0000895BC0146E050E084E00E941D0C08956C
:10190000BC0143E050E084E00E941D0C08959091DA
:10191000DB0292FB222720F9281779F080FB92F94D
:101920009093DB026091DA027091DB0284E090E038
:101930000E94762A82E00E94FF0308951F93CF93AE
:10194000DF93C62F122F632F9C2F942B982B94304C
:10195000C0F428E0C29FE001112450E0440F551F5D
:10196000C40FD51F20E2829FC0011124C80FD91FC8
:10197000CE0188960E94582A612FCE0189960E9436
:10198000582ADF91CF911F9108951F93CF93DF9332
:10199000962F122F632F8430D0F49230C0F428E0B9
:1019A000829FE001112424E0929FC0011124C80FFE
:1019B000D91FC855DF4FCE01442369F00E94582A31
:1019C00081E090E0612F8C0F9D1F0E94582ADF91CB
:1019D000CF911F91089502960E94582A83E090E0CB
:1019E000F1CF8F929F92BF92CF92DF92EF92FF92B0
:1019F0000F931F93CF93DF9309EE12E0E12CF12CAC
:101A0000C0E04701D0E015C0F601259134914B2D7F
:101A10006D2F8C2F0E949E0C22E0C20ED11CB3941D
:101A200034E0B312F1CF84E0880E911CDF5FD43034
:101A300049F0C401880F991F9C0127593D4F690146
:101A4000B12CE2CFF8012591349141E060E08C2F78
:101A50000E94C50CF80132962591349140E060E077
:101A60008C2F0E94C50CF80134962591349141E0E9
:101A700061E08C2F0E94C50CF801369625913491B7
:101A800040E061E08C2F0E94C50C085F1F4FCF5FC4
:101A900030E1E30EF11CC43009F0B3CFDF91CF91F8
:101AA0001F910F91FF90EF90DF90CF90BF909F908C
:101AB0008F900895CF93DF93C8ECD0E060E0CE0123
:101AC0000E94582A2196C11584E0D807B9F7DF9102
:101AD000CF910895882381F064E284E290E00E942F
:101AE000582A65E085E290E00E94582A66E286E284
:101AF00090E00E94582A08956FEF84E290E00E94DF
:101B0000582A6FEF85E290E00E94582A6FEFEFCFDE
:101B100080E00E946A0D60E087E290E00E94582A0F
:101B20000E94F10C0E945A0D81E00E946A0D0895F6
:101B30000F931F93CF93DF93962F942B982B943072
:101B400018F528E0629FE001112450E0440F551F72
:101B5000C40FD51F30E2839FC0011124C80FD91FC5
:101B6000CE0188960E94342A082F10E0102F0027FB
:101B7000CE0189960E94342A9801282BC901DF9151
:101B8000CF911F910F91089580E090E0F8CF0F93CF
:101B90001F93CF93DF93843078F5623068F528E0A7
:101BA000829F8001112434E0639FB0011124060F4D
:101BB000171F08551F4FC8014423A1F00E94342A63
:101BC000C82FD0E0DC2FCC2781E090E0800F911F60
:101BD0000E94342A9E01282BC901DF91CF911F91C9
:101BE0000F91089502960E94342AC82FD0E0DC2F6E
:101BF000CC2783E090E0EACF80E090E0EECF743035
:101C000048F4982F962B943060F4462F672F0E944B
:101C1000980D08957D3F41F4623018F441E084301E
:101C200050F080E090E008957C3FD9F76230C8F72B
:101C30008430B8F740E00E94C70D0895A0E0B0E0FE
:101C4000E4E2FEE00C94C2297C010091D80280916C
:101C5000D702082BC3E0D0E010E0C8010C2E02C070
:101C6000959587950A94E2F780FD09C02197A8F71A
:101C7000D12C8D2DCDB7DEB7E7E00C94DE29DC2E1C
:101C8000B7018C2F0E94FF0D0E943805019771F358
:101C9000F0CF0F931F93CF93FC01858100811181B9
:101CA000882391F0662381F0C8010E941E0EC82F80
:101CB000682FC8010E94A203B8018C2F0E94FF0D5B
:101CC000CF911F910F910895C8010E94BB03C82FA7
:101CD000F3CFCF93DF93D82FC92F0E941E0E6D2F05
:101CE0007C2F0E94FF0D0E943805DF91CF9108954F
:101CF000FC0184818823A1F0808191810E94690E7A
:101D0000282F92959F70963091F060F4925F9F70AB
:101D1000923030F481E0203F79F030F4283E30F00A
:101D200080E004C09A5FF3CF243FD1F7089581E0AB
:101D3000283E18F0213FF9CF0895089584E290E0FD
:101D40000E94342A843289F485E290E00E94342A89
:101D5000853059F486E290E00E94342A91E0863280
:101D600009F090E0892F8170089580E0FCCF809188
:101D70001201882359F18091DA0287FF27C00E945F
:101D800017048093BF0140E250E060E872E08EEB00
:101D900091E00E94892A892BC1F080E2EEEBF1E00C
:101DA000A0E8B2E001900D928A95E1F7E091A002DF
:101DB000F091A102309749F086E08093BE01048043
:101DC000F581E02D8EEB91E0099508950E941704AE
:101DD0008093B60148E050E062EA72E086EB91E061
:101DE0000E94892A892B89F388E0E6EBF1E0A2EAD8
:101DF000B2E001900D928A95E1F7E091A002F09196
:101E0000A102309711F30280F381E02D86EB91E07F
:101E1000DBCFCF93C82F8823B1F18CEF8C0F813AA1
:101E2000A0F580911201882301F18091DA0287FFE9
:101E30001CC0EC2FE695E695E695F0E0E254FE4FE7
:101E4000828190E04C2F477021E030E002C0220FE9
:101E5000331F4A95E2F782239323892B79F08C2F45
:101E60000E94F3080E94B70E09C0E8EBF1E08191EF
:101E7000C817A9F321E0EE3BF207C9F78C2F0E94A7
:101E8000BF080E94B70ECF91089580E28C0F883072
:101E900068F4C77081E090E001C0880FCA95EAF746
:101EA000C091D402C82BC093D402EBCF8BE58C0F2A
:101EB000833038F42C2F2452330BC9010E9473084D
:101EC000E2CFE8E5EC0FEB3150F4F0E0EE0FFF1F4E
:101ED000E258FE4F808191810E949908D4CF83E31C
:101EE0008C0F833180F661E08C2F0E945409CBCF98
:101EF000882381F19CEF980F913A28F40E94F3080F
:101F00000E94B70E089590E2980F983050F48770B1
:101F100091E001C0990F8A95EAF7892F0E943D044C
:101F2000EFCF9BE5980F933028F480E090E00E947B
:101F30007308089598E5980F9B3128F480E090E0AD
:101F40000E949908089593E3980F933118F460E084
:101F50000E94540908951F93CF93DF93182FEB012C
:101F60000E94090F209739F4812F0E94780FDF918A
:101F7000CF911F9108958FE99FE00197F1F700C07D
:101F800000002197EFCF882339F09091D402892B5C
:101F90008093D4020E94B70E0895882321F00E94F6
:101FA0003D040E94B70E08950F931F93CF93DF93C4
:101FB000C62FD42F122F8823A9F06093C8020E9445
:101FC00020099093E2018093E101C77081E001C094
:101FD000880FCA95EAF70E94C30FDF91CF911F9136
:101FE0000F9108958091C802681336C08091E10175
:101FF0009091E2010E94450A883C910568F5CD1355
:102000000EC060E070E0812F0E94AB0FD77081E0BE
:1020100001C0880FDA95EAF70E94CD0FDECFC770B6
:1020200001E0802F01C0880FCA95EAF70E94CD0F0A
:1020300080E28D0F883050F48D2F877001C0000F23
:102040008A95EAF7802F0E94C30FDBCF60E070E033
:10205000812F0E94AB0FC1CFC77081E001C0880FF4
:10206000CA95EAF7D9CF1092D40280911201882341
:1020700039F18091DA0287FF23C0E0ECF1E08EE1D4
:10208000DF011D928A95E9F780E090E00E947308D5
:1020900080E090E00E9499081092DC020E94B70E46
:1020A00086E0E6EBF2E0DF011D928A95E9F71092F7
:1020B000B4021092B3021092B5020E942C09089546
:1020C000E8EBF1E086E0DCCF0E9433102FEF84E3F1
:1020D0009CE0215080409040E1F700C0000088E182
:1020E0009CE00FB6F894A895809360000FBE909383
:1020F0006000FFCFAAE2B0E0E0E8F0E10C94C6296E
:1021000087EE91E0FC0101962091F100208321E00F
:102110008F3E9207B9F78091E801893009F456C0E3
:10212000C8F4823009F4B3C0833009F482C081302E
:1021300071F18091E80083FFE7C08091E701909101
:10214000E8019A3008F0E0C0E92FF0E0E655F54DDF
:102150000C94AA298A3009F489C08B3051F78091F8
:10216000E701813231F78091EB019091EC01892BED
:1021700001F78091E800877F8093E8000E94B00A11
:102180008091E901809312010E943310D2CF809197
:10219000E701813A71F68091E800877F8093E8003B
:1021A0008091EB019091EC01892B61F060E080E07F
:1021B00090E070E00E94570A8091E8008B7780934E
:1021C000E800B7CF68E08FEE91E0F3CF8091E701B0
:1021D000813209F0AECF8091EB019091EC018D7FBF
:1021E000892B09F0A6CF8091E800877F8093E800D3
:1021F0008091E80082FF18C09091F3008091F20076
:10220000029731F48091F100813011F0863021F491
:102210008091F1008093F7018091E8008B778093A3
:10222000E8000E94B00A85CF80917D028111E0CF45
:1022300080CF8091E701813A09F07BCF8091EB015B
:102240009091EC01892B09F074CF8091E800877F91
:102250008093E8008091E80080FFFCCF809112011C
:102260008093F1008091E8008E77D9CF8091E701CB
:10227000813209F05ECF8091E800877F8093E8008B
:102280000E94B00A8091EA018093E30152CF8091CD
:10229000E701813A09F04DCF8091E800877F809374
:1022A000E8008091E80080FFFCCF8091E301D8CF67
:1022B000803889F0823841F58091EB018F7087304A
:1022C00018F58093E9008091EB0085FB882780F961
:1022D0001092E90006C08091E401909152029111A0
:1022E00082609091E800977F9093E8008093F100DE
:1022F0001092F1008091E8008E7723C0811116C002
:102300008091E901813011F18091E80083FF0AC0DA
:102310008091E800877F8093E8008091EB008062E5
:102320008093EB00AA96E3E00C94E229823061F7F7
:102330008091E901882389F01092E9008091E800FA
:10234000877F8093E8000E94B00ADECF81E093305F
:1023500009F080E080935202EFCF8091EB018F7003
:102360002FEF280F263080F68093E9002091EB00B4
:1023700020FFE2CF933031F48091EB0080628093B4
:10238000EB00DACF9091EB0090619093EB0021E0AD
:1023900030E0A90102C0440F551F8A95E2F740932F
:1023A000EA001092EA008091EB008860E8CF81118A
:1023B000ABCF1091E9011F778091E3008078812BEA
:1023C0008093E3008091E800877F8093E8000E947B
:1023D000B00A8091E80080FFFCCF8091E300806824
:1023E0008093E30083E0111101C082E080937D02BD
:1023F0008BCF8058823008F087CF4091E90150910F
:10240000EA014C3D83E0580799F583E08A838AE22C
:1024100089834FB7F894DE01139620E03EE051E245
:10242000E32FF0E050935700849120FF03C0829582
:102430008F703F5F8F708A30C8F0895C90E08D9319
:102440009D932F5F243161F74FBF8091E800877F14
:102450008093E8006AE270E0CE0101960E94570A7C
:102460008091E8008B778093E8004ECF805DE6CFC7
:102470008091EB019091EC01252F3327233031051A
:1024800009F44AC078F52130310509F479C08BE5AB
:1024900090E0E8ECF1E02230310509F035CF2091F1
:1024A000E800277F2093E8002091ED013091EE01B4
:1024B0008217930708F49C0140E02115310509F0CB
:1024C00064C0411162C08091E80082FDC9CF809153
:1024D0007D02882329F2853019F28091E80083FF7C
:1024E000F2CFBECF2132310509F43BC02232310593
:1024F00009F00ACF8330910508F006CFFC01EE0FFA
:10250000FF1FE25EFE4F0190F081E02D855E9E4F41
:10251000DC018C9190E011C0CA019927413089F00B
:1025200082309105B1F0892B09F0EECEE5E6F2E0BC
:10253000E4918E2F90E0E5E6F2E0009709F4E4CE16
:10254000AECFEBE4F2E0E4918E2F90E0EBE4F2E02A
:10255000F4CFE5E3F2E0E4918E2F90E0E5E3F2E0E2
:10256000ECCF8330910508F0CFCEFC01EE0FFF1FBA
:10257000EC5DFE4F0190F081E02D89E090E08FCF7F
:1025800082E190E0E3E2F2E08ACF80917D0288234D
:1025900009F466CF853009F463CF8091E80083FDAC
:1025A0005FCF8091E80082FD8ECF8091E80080FFB0
:1025B00084CF9091F3008091F2002115310519F03C
:1025C0008830910550F041E0089709F040E0809193
:1025D000E8008E778093E80070CF44914093F1003B
:1025E0003196215031090196E8CF803809F08CCE20
:1025F0008091E800877F8093E8008091E5018093D7
:10260000F10078CE811180CE1091E901123008F0EE
:102610007BCE8091E800877F8093E8001093E501EE
:102620000E94B00A1123D1F084E080937D0242E041
:1026300061EC81E00E941F0B42E261EC84E00E94A9
:102640001F0B42E261EC82E00E941F0B42E260EC51
:1026500083E00E941F0B80917D0256CE8091E300A3
:1026600087FDE2CF81E0E1CFA0E0B0E0EAE3F3E173
:102670000C94C1298901D42FC52F6B017C010E94C4
:10268000EB06A8016D2F7C2F88E090E00E946A2A5B
:1026900098014D2F5C2FB601C70100E20E94092A64
:1026A000622F83E290E00E94582ACDB7DEB7E8E0BF
:1026B0000C94DD298091D002833018F48F5F8093D1
:1026C000D0022091CC023091CD024091CE025091A7
:1026D000CF026091D0027091D1028091D20290918C
:1026E000D3020E94341308958091D002882319F0F8
:1026F00081508093D0022091CC023091CD02409144
:10270000CE025091CF026091D0027091D10280919F
:10271000D2029091D3020E9434130895A3E0B0E056
:10272000E4E9F3E10C94C329082FF62E142FE22ECE
:102730008091CC0280FF40C0E82FE695E695F0E05E
:10274000EE59FE4F90819093CA028C7F8430C1F580
:10275000473908F046E99E012F5F3F4F6F2D802FCC
:102760000E94DC068091CC0280FF0FC08B81998192
:102770002A81E1E3F2E0218390838283339632E081
:10278000E934F307C1F70E9400070093CD02F092ED
:10279000CE021093CF02EE2079F02091CC0260910E
:1027A000D0027091D102302F4F2D512F8091D20243
:1027B0009091D3020E9434132396E6E00C94DF2913
:1027C000923019F70091CD02E0CFECECF2E081817C
:1027D00021E043816281885F0E948E130895ECECB2
:1027E000F2E0818121E04381628188500E948E1352
:1027F0000895ECECF2E0628128E0620F08F46FEFDC
:1028000021E0438181810E948E130895ECECF2E077
:10281000628128E0621B08F460E021E0438181814D
:102820000E948E130895ECECF2E0438128E0420F01
:1028300008F44FEF21E0628181810E948E13089598
:10284000ECECF2E0438128E0421B08F440E021E098
:10285000628181810E948E13089548E050E067E113
:1028600070E080EC92E00E94482A1092BF02089526
:102870006091CC026695669570E041E050E085E09D
:1028800091E00E947C2A892B19F481E08093CB028D
:102890000E942009909359028093580208959091C4
:1028A000CC0290FF3BC08823D1F18830D0F58F73E4
:1028B000282F220F220F8091CC028370282B209387
:1028C000CC02662381F03091CD024091CE0250912E
:1028D000CF026091D0027091D1028091D20290918A
:1028E000D3020E9434136091CC026695669570E025
:1028F00041E050E085E091E00E947C2A892B99F02C
:102900001092CB0281E080935B0220E04091CF02E5
:102910006091CE028091CD020E948E13089581E0D5
:10292000C7CF87E0C5CF0E943814ECCF8091CC028E
:10293000869586958F5F883008F081E061E00E947F
:102940004F1408959091CC02969596958FEF890F2C
:10295000913009F487E061E00E944F140895ECEC97
:10296000F2E080818160808360E0869586950E9498
:102970004F1408958091CC0280FF09C086958695FA
:10298000825C8F73853018F40E949614089561E07C
:1029900082E00E944F140895A8E0B0E0E2EDF4E177
:1029A0000C94BA296C01DC0114968C91882309F4EB
:1029B000CAC061E0C6010E94490E8C01F601858102
:1029C000882309F46AC19801375720383105C8F0C7
:1029D0000034FEE71F0709F069C18091BE02811132
:1029E00006C081E08093BE0282EE0E94090F0E9421
:1029F00020099093BD028093BC028BE20E94090FD4
:102A000091C0003108F08EC08FEF93E00E94342A0D
:102A1000811188C028ECE22EF12C011153C01A82DA
:102A20001982FE01339686E0DF011D928A95E9F74F
:102A30005701BFEFAB1ABB0AC7010E94342A898332
:102A40001A82882309F46EC0813009F080C08701A2
:102A50000E5F1F4FC5010E94342A8A83882309F420
:102A600061C09FEF980F9330D8F5E3E0EE0EF11CB4
:102A7000C8010E94342A8B83882309F453C01C8226
:102A80008E010F5F1F4FD8018C91882389F281300E
:102A900009F0A0C011968C911197813009F059C0AE
:102AA0005801B2E0AB0EB11CF801828160E070E029
:102AB000893311F460E570E00E94AB0F85010F5F70
:102AC0001F4FE1CFE11424E0F20661F1C7010E943B
:102AD000342AD70111967D018111F4CF01509DCF89
:102AE0008430B9F492E0E92EF12CC8010F5F1F4F3A
:102AF0000E94342AE1E0F0E0EC0FFD1FEE0DFF1D17
:102B00008083882379F08C3731F4FE01EE0DFF1DB0
:102B100012827801B5CFFFEFEF1AFF0A27E0E21625
:102B2000F10419F78091D9028770882361F0D601EA
:102B300015968C91882339F08091DB0282FF03C0C7
:102B400082E00E94FF032896EFE00C94D6297501DD
:102B500097CF823049F45801F2E0AF0EB11C1296C3
:102B60008C910E94090FAACF833049F45801B2E03A
:102B7000AB0EB11CF80182810E94780F9FCF843088
:102B800019F00F5F1F4F9BCF12962C910E5F1F4FB6
:102B900080E090E06AE0A8014F5F5F4F2053330B65
:102BA0002A30310558F0009709F489CFAFE9BFE02A
:102BB0001197F1F700C000000197F5CF689FF00171
:102BC000699FF00D1124C9018E0F9F1FF80121810B
:102BD0008A01E1CFE82FF0E0E45CFB4F6490282FFE
:102BE00026952695269530E0F901E45DFB4FA490EB
:102BF0008770782EB12C082E02C0B594A7940A9441
:102C0000E2F7B1E0AB22BB24F901E45EFB4F849014
:102C1000912C02C0959487948A95E2F7E1E08E2288
:102C20009924F901E45FFB4F5490A114B104C1F45D
:102C30008114910421F560E070E0862D0E94AB0FB5
:102C4000E52DF0E0072C02C0F595E7950A94E2F730
:102C5000E0FF35CF60E070E08CE20E94AB0F2FCF39
:102C600081EE0E94090F8114910449F460E070E044
:102C7000862D0E94AB0F81EE0E94780FE1CF86EE89
:102C80000E94090F60E070E0862D0E94AB0F86EE77
:102C90000E94780FAB28A1F2EECF0034FEE71F07A9
:102CA00009F0ABC48BE20E94780F3CCFF801FE57CD
:102CB000E930F10508F065C0EC54F54D0C94AA29F3
:102CC0008091C00291E089278093C0021092130185
:102CD0008091BF0281608093BF0224CF8091C002A7
:102CE000869586958F5F833008F081E061E00E94D1
:102CF0005A0718CF9091C002969596958FEF890F3D
:102D00009130A1F782E0F2CF8091C10290E021E002
:102D10004091C3026091C20208960E94790702CFD7
:102D20008091C10221E04091C3026091C2028850AB
:102D3000990BF3CF6091C20220E1620F08F46FEFAC
:102D40008091C10221E04091C30290E0E6CF609102
:102D5000C20220E1621B08F460E0F2CF4091C3029E
:102D600020E1420F08F44FEF8091C10221E0609111
:102D7000C202EBCF4091C30220E1421B08F440E0C5
:102D8000F3CFF801E851FC47E730F10508F5E354CB
:102D9000F54D0C94AA2926E241EE61EE0E94D40F73
:102DA000C1CE27E245EE65EEF9CF26E241EE60EEB8
:102DB000F5CF27E245EE64EEF1CF26E241EE62EE7A
:102DC000EDCF27E245EE66EEE9CF28E241E0EBCF1A
:102DD0001092C802C80190578397B0F006313CE7C3
:102DE000130709F052C18091D4028A7A91E08111CF
:102DF00001C090E09093C9028111D5C089E20E9480
:102E0000BF080E94B70E8ECE84E090E00E94422A56
:102E10009093DB028093DA02F801E150F047E2324E
:102E2000F10520F4EC53F54D0C94AA298091DA02B7
:102E300081608093DA026091DA027091DB0284E0B3
:102E400090E00E94762A0E9433106CCE8091DB02C3
:102E500088608093DB02EFCF8091DA028260E9CF55
:102E60008091DA028460E5CF8091DA028860E1CF58
:102E70008091DB028160EDCF8091DB028260E9CF3F
:102E80008091DA028061D5CF8091DA028062D1CF61
:102E90008091DA028064CDCF0E9433108091DA02F3
:102EA0008068C7CF8091DA028C60C3CF8091DB024B
:102EB0008360CFCF8091DA028E7FBBCF8091DB021F
:102EC000877FC7CF8091DA028D7FB3CF8091DA02FE
:102ED0008B7FAFCF8091DA02877FABCF8091DB020F
:102EE0008E7FB7CF8091DB028D7FB3CF8091DA02E6
:102EF0008F7E9FCF8091DA028F7D9BCF8091DA0207
:102F00008F7B97CF0E9433108091DA028F7791CF19
:102F10008091DA02837F8DCF8091DB028C7F99CF05
:102F20008091DA0282FB992790F921E0922790FBA9
:102F300082F990FB83F97DCF8091DB02982F9095E9
:102F400091708E7F892B90FB81F983CF9091DA026B
:102F5000892F8F7B96FF80646CCF0E9433109091F5
:102F6000DA02892F97FB87F9805863CF61E08EE002
:102F700090E00E94582A5FCF60E0F9CF9091DA028A
:102F8000892F8F7E94FF806154CF9091DA02892F30
:102F90008E7F90FF81604DCF9091DB02892F877FDC
:102FA00093FF886056CF85E32ACF85E337C38091AE
:102FB000D4028272F801E052F847E531F10508F0D9
:102FC00091C0EA51F54D0C94AA298091CC0280FF62
:102FD00019C0282F2E7F2093CC023091CD02409132
:102FE000CE025091CF026091D0027091D1028091B7
:102FF000D2029091D3020E9434131092CB020E940D
:10300000000790CD81608093CC0261E08695869523
:103010000E944F1487CD42EA54E166E974E10E94B0
:10302000CC0780CD46E954E162EA74E1F8CF4FEE77
:1030300053E165EE73E1F3CF45EE53E16FEE73E1DB
:10304000EECF46E054E169EF73E1E9CF49EF53E198
:1030500066E074E1E4CF40E254E163E174E1DFCF84
:1030600043E154E160E274E1DACF44E753E16AE519
:1030700073E1D5CF4AE553E164E773E1D0CF61E076
:1030800081E0C6CF0E94BA144DCD07378CE71807F0
:1030900009F485C082E008379CE7190709F480C06D
:1030A0000A35ECE71E0709F4A2C008F085C001301C
:1030B0002CE7120709F499C003303CE7130709F421
:1030C0008EC001158CE71807C1F40E943310BFEFC2
:1030D000E4E3FCE0B150E040F040E1F700C0000064
:1030E0000E94F90B0737ACE71A0709F461C082E0C8
:1030F0000837BCE71B0709F45CC0F6018581E08056
:10310000F180882309F477C0C7010E941E0E182F92
:10311000682FC7010E94A203B701812F0E94FF0DF3
:103120000E943805E82E192FD6011596BC901597E8
:103130001696AC90A2948FE0A8228091D902877055
:10314000882309F1FB2CBB20F9F0892F807F803484
:1031500069F080E28E0D8830B0F0892F807E803259
:1031600029F4B1E0BE1578F4AA2069F08091DB0261
:1031700082FF09C082E00E94FF038091D90287701C
:10318000FF24F3948111F12CE12FE295EF70103CB4
:1031900008F098C0F0E0E550F54D0C94AA2981E0C4
:1031A0000E942F0343E062E081E00E94D403BACC86
:1031B00081E00E943B03F6CF0B359CE71907C9F06D
:1031C0000C35ACE71A0709F098CF8091DB0282FB3F
:1031D000882780F991E089270E94870C8ECF6FEFB6
:1031E0007FEF80E090E00E94762A0E94641081E0E8
:1031F000F3CF80E0F1CFC7010E94BB03182F8CCF23
:10320000012F0F70103110F00295007FBB20B9F034
:10321000002369F080E28E0D883010F0E11009C0C3
:103220008091D402802B8093D4020E94B70E8E2D01
:1032300041C08091DC02802B8093DC02F6CF8E2D82
:103240000E94780F0023F1F180E28E0D883010F09B
:10325000E11004C0802F0E943D0406C000958091BB
:10326000DC0280238093DC020E94B70E2BC0012F6A
:103270000F70107F103211F00295007FEE2051F098
:10328000E1E0EE1609F46CC0BB2009F478C0AA2076
:10329000D1F1CDCF8091DB0282FD31C0BB2069F03E
:1032A000002339F08091D402802B8093D4020E94B5
:1032B000B70E80E00E94090F05C080E00E94780FE1
:1032C0000111C8CFFF20B1F08091D90280FD12C05A
:1032D000D60115961C928695869586950E942F0399
:1032E000C6010E94CC148091D90286958695869558
:1032F0000E943B0360E0C6010E94490E24CCBB2023
:1033000099F0A11004C0802F0E94C30FDBCFF1E021
:10331000AF12D8CF8091D502902F9823091791F240
:10332000802B8093D502CECFA110CCCF802F0E94CE
:10333000CD0F9091D502802F8923882329F0802FEB
:10334000809589238093D5028091D602902F98236F
:10335000992309F4B7CF009508230093D602B2CF82
:10336000BB2029F025E02A1508F4ACCFCCCF34E0FF
:103370003A1508F4A7CF802F0E94CD0FA3CFAA2023
:10338000D1F389E3E81209C09FEFA7EEB3E09150B3
:10339000A040B040E1F700C000008E2D0E94780FE1
:1033A00091CF812F869586958370882369F081302F
:1033B00009F088CF8E2D912F9370B11002C080E05C
:1033C00090E00E9499087ECF8E2D912F9370B110BE
:1033D00002C080E090E00E94730874CF6B2D8E2DA8
:1033E0000E9454096FCF812F8370811137C0B110B3
:1033F0002AC04E2D429546954770440F440F2E2DFE
:103400002F70042E01C0220F0A94EAF79E2D9071AE
:10341000992341F08FE090E001C0880F4A95EAF7C8
:10342000982F9095169516951370123091F0892F5C
:10343000822B133031F08091D702113039F0292BD3
:1034400082230E9427030E9466083CCF822B892B8F
:10345000F8CF292B8091D7028227F3CFBB2069F1C7
:1034600010FFF1CF4E2D429546954770440F440F03
:103470002E2D2F70042E01C0220F0A94EAF79E2DE4
:103480009071992341F08FE090E001C0880F4A9538
:10349000EAF7982F9095169516951370123099F0BB
:1034A000892F822B133031F08091D802113041F0F6
:1034B000292B82230E942A03C6CF823020F2D2CF4A
:1034C000822B892BF7CF292B8091D8028227F2CF2C
:1034D0001F70BB2039F0812F0E942F038E2D0E9478
:1034E000C30FB1CF8E2D0E94CD0F812F0E943B03C1
:1034F000AACFE2EFEE16A9F1EE1588F0F0EFEF1685
:10350000D9F021EFE21609F443C0BB2009F462C0F0
:10351000AA2009F45CC08E2D0E94090F94CF33EFCE
:10352000E31631F184EFE81679F1B110F1CFA11073
:1035300060C0812F8F71DACFBB2081F094E09A15A3
:1035400008F481CF1F7181E090E0012E01C0880F47
:103550000A94EAF79091D8028927ACCFA5E0AA1681
:10356000EFCF812F8F71B110C1CF0E942F036BCF8E
:1035700080E0BB2009F49ECF1F7181E0012E01C0C5
:10358000880F0A94EAF796CF9091DB0292FD06C06D
:10359000812F8F71BB2009F4A9CFE7CFBB2061F049
:1035A000812F8F7192FFE1CFB8E08B9F90011124A2
:1035B00023602093D902D9CF81E00E94FF03E1E08C
:1035C000EA1508F040CF82E00E94FF033CCF812F34
:1035D0008F71CBCFAA2009F4ACCFF9E3EF1209C069
:1035E0002FEF37EE83E0215030408040E1F700C0FC
:1035F00000008E2D0E94780F26CFF801E851FC477D
:10360000E730F10508F4C3CB06312CE7120709F0C7
:10361000CECC8091C9028111C8CC89E20E94F30806
:10362000F0CB80911D03803178F480911C038823B6
:1036300059F0E091DE022091DD02309118034091B3
:10364000170357E02E1301C008956E2F70E05E9FA0
:10365000F0011124DF01A152BD4F14968C911497F3
:10366000882361F111968C911197831327C08C9157
:10367000841324C015968C91159781111FC0129642
:103680008D919C91A0911903B0911A038A1B9B0BF9
:10369000883C910598F480911D038F708061809320
:1036A0001D03EB51FD4F80818F708061808387E126
:1036B00093E00E94CC140E94F5030895FB0131961B
:1036C000E770C0CFADE0B0E0E8E6FBE10C94BB29C9
:1036D0008C0186E0F801DE01189601900D928A9522
:1036E000E1F7F8017080F580A280B380848197E1D2
:1036F000892E93E0992E60901B03611018C08823D7
:1037000099F0FF2009F413C1C8010E94780E8823A4
:1037100009F40DC187E0F801A7E1B3E001900D9233
:103720008A95E1F70E94111BFF24F39453C0D090B7
:103730001C032091190330911A03A501421B530B5E
:10374000DD2009F4C4C0483C510508F07AC0882344
:1037500059F380911803C180E0901D03FFE0FE152E
:1037600008F459C0C81215C080911703871111C001
:10377000F1104BC08E2D8F70806180931D0387E107
:1037800093E00E94CC1480911D03F8018683F12CF4
:1037900021C0F1103AC040E06C2D872D0E94B10B82
:1037A00040E06C2D872D0E94B10BF82E8111EFCFD8
:1037B000888599850E94690E292F22952F70903453
:1037C00070F49F702230A0F09923B1F0F801968137
:1037D000903190F48F2D2D96EEE00C94D7292A5F2E
:1037E0002F70223068F0C8010E94CC14FD2CF2CF5B
:1037F000992311F0882371F3805E883058F3F3CF5A
:10380000803F40F3815F8230F9CF80911D0381605A
:1038100080931D03BCCFC8123CC080911703871151
:1038200038C0F11036C0F801E682C8010E94CC14FD
:1038300087E0F801A7E1B3E001900D928A95E1F7E6
:1038400073CFE0901D03FFE0FE1550F087E193E099
:103850000E94CC1487E0F40111928A95E9F797CF82
:10386000882309F461CF90911803F801818198139E
:1038700010C08091170387110CC0F1100AC0E682B6
:10388000C8010E94CC1487E0F40111928A95E9F7EF
:103890004BCFC8010E94780E882309F448C0FF204E
:1038A00009F445C080911D03803208F433CF809124
:1038B0001703909118039A838983BC82AB826D822F
:1038C0001E82EF82CE0101960E94CC1423CF483C89
:1038D000510508F0BFCF882309F426CFFF2039F126
:1038E000909118038181981318C080911703871154
:1038F00014C080911D0380FD9BCF803108F498CFC8
:103900008683807F803F09F490CF8681982F907FB7
:10391000905F8F70892B868388CFC8010E94780EB4
:103920008111F8CE80911D03816080931D03C80131
:103930000E94CC14F9CEABE1B0E0E1EAFCE10C94DA
:10394000C6294E8B5F8B688F798F8A8F9B8F9111E1
:103950001092DC021D8A86E0FE017696DE011F963B
:1039600001900D928A95E1F78B89882329F061E017
:10397000CE010F960E94490E87E0FE013F96DE01C0
:10398000189601900D928A95E1F7CE0108960E9453
:10399000621B81112BC087E0FE013896DE01119673
:1039A00001900D928A95E1F72091DD024091DE02AF
:1039B0008C858823D9F030E0C9010196877099275A
:1039C00050E084179507E9F097E0929FD001939F0C
:1039D000B00D1124A152BD4FFE01319601900D9200
:1039E0009A95E1F78093DD020E94F50317E080913C
:1039F000DE029091DD02891312C06B96E3E00C9415
:103A0000E2290E9433101092DD021092DE0287E05C
:103A1000E7E1F3E0DF011D928A95E9F7E7CF189F10
:103A2000C001112481529D4F0E94621B882329F3FB
:103A30008091DE0290E00196877099278093DE02E4
:103A4000D6CFA6E0B0E0E7E2FDE10C94C5290E94E4
:103A500020098C0180917E0290917F02801791074E
:103A600079F019821A820E942009BC0149815A8189
:103A700080E090E00E949B1C10937F0200937E02E6
:103A80002696E4E00C94E1298F929F92AF92BF9228
:103A9000EF92FF920F931F93CF93DF93182F809194
:103AA0001101811345C02091C002237030E0409184
:103AB000100150E081E02417350709F480E081709F
:103AC000809302018091C50290910101981739F00D
:103AD0008093010140E060E080E00E9457071130D0
:103AE00049F1123009F465C01111D4C0809102016E
:103AF000882309F4D8C040E060E080E00E945707C6
:103B0000809100018F5F8093000182E08093130118
:103B100080910201882309F4CBC0DF91CF911F91DE
:103B20000F91FF90EF90BF90AF909F908F9008956E
:103B300081E0C5CF80910001C82FCC0FC80F03E0F2
:103B40000C0FA02E0D3010F09CE0A92E6091C10248
:103B50007091C2028091C3020E945406F62EE72E95
:103B6000B82ED0E0CA15A0F081E00C3008F080E05B
:103B7000909100019F5F909300018111CECF82E070
:103B800080931301809102018111C7CF1123C3CF0C
:103B9000FE01E25DFE4F80A59091010189238823FB
:103BA00031F02B2D4F2D6E2DCE010E9492072196C4
:103BB000D9CF809100018F5FD82FDD0FD80F809073
:103BC0002D0290902E02A0902F02B0903002809192
:103BD000290290912A02A0912B02B0912C02881503
:103BE0009905AA05BB0508F04EC00E9442079CE05B
:103BF000899F70011124EF2CFF0CFF08F701E25D93
:103C0000FE4F80A5909101018923882309F43BC0D0
:103C10000E94420781FD3AC00E944207C82F0E94BD
:103C2000420720E8829FC00111247FE7790F80912D
:103C3000C3026C2F0E945406462F672F282FC701FE
:103C40000E94920730E18091C402282F230F08F4CC
:103C50002FEF822F90E060E070E0839F612D939FB3
:103C6000600D711D112484EF91E00E948229860E5F
:103C7000971EA11CB11C8092290290922A02A09248
:103C80002B02B0922C0281E0DB3070CF80E070E03C
:103C9000C0E0CFCF809100018F5F8093000182E070
:103CA000809313013ACF809100018F5F80930001D0
:103CB00083E0F6CFCF930E94280A6093210270938D
:103CC0002202809323029093240280915102882340
:103CD00001F1C0E080911301823009F44FC008F077
:103CE0003EC0811140C0109200018091210290914C
:103CF0002202A0912302B091240280932D0290937E
:103D00002E02A0932F02B093300281E08093130122
:103D100028C040916C0250916D0260916E027091CA
:103D20006F022FB7F8948091250290912602A091FE
:103D30002702B09128022FBF841B950BA60BB70B4F
:103D400081369A4EA105B10520F6C091C0028C2F94
:103D50008370882309F4BDCFC695C695BBCF833049
:103D6000C1F0CF9108958C2F0E94441DCC23C9F33C
:103D700040E060E080E00E945707F3CFC09311015C
:103D80008091C0028370809310010E94E20B83E057
:103D9000BDCF8091BF0281110E942D1440912D0250
:103DA00050912E0260912F02709130022FB7F8943B
:103DB0008091250290912602A0912702B0912802BD
:103DC0002FBF841B950BA60BB70B4097A105B10520
:103DD00040F210921301C5CFA4E0B0E0E2EFFEE1A3
:103DE0000C94BD291A8219821C821B828AE6C82E75
:103DF00081E0D82E8E010F5F1F4FB12C4801EE24B9
:103E0000E394F12CF60181916F018F3F09F45AC0C0
:103E1000F894E82FE295EF70F0E021A18F70A701F0
:103E200002C0440F551F8A95E2F7CA01922F982BC2
:103E300091A392A18095892382A3789400C0E7E1A1
:103E4000F1E053E0B5121BC08FB187FB882780F9E2
:103E500091E08927A12C41E020E0882329F180E02E
:103E6000A82A2F5F440F3196243001F183E0B81265
:103E700009C0233039F48FB180958170EECFA12C29
:103E800041E020E0308180E03F3F51F3A32FA29535
:103E9000AF70A05EB0E08C9190E03F7002C095954D
:103EA00087953A95E2F7E9CF842FDACFF60131977B
:103EB00080818F3F11F00E94B602E0EAEA95F1F7A7
:103EC000F801A082B3940F5F1F4FF4E0BF129ACFA6
:103ED00044E050E0B40189E492E00E94892A892BF1
:103EE00059F189819A81AB81BC8180934902909379
:103EF0004A02A0934B02B0934C0281E08093E00110
:103F00000E9420099093DF018093DE018091BE0220
:103F1000882371F08091BC029091BD020E94450AF5
:103F2000813D974028F082EE0E94780F1092BE02E9
:103F30002496ECE00C94D9298091E001882331F398
:103F40008091DE019091DF010E94450A0597F0F211
:103F500044E050E069E472E089E792E00E94892A37
:103F6000892B81F08091490290914A02A0914B02E5
:103F7000B0914C028093790290937A02A0937B02D5
:103F8000B0937C021092E001C1CFCDB7DEB7E097CD
:103F90000FB6F894DEBF0FBECDBF85B7806885BF72
:103FA00085B7806885BF84B7877F84BF0FB6F894D4
:103FB000A8958091600088618093600010926000F5
:103FC0000FBE80E890E00FB6F89480936100909364
:103FD00061000FBE81E596E09093B5018093B40136
:103FE0000E94000B0E94560B8091E2008460809337
:103FF000E200789480917D02882399F08091E90015
:104000001091EC001795112717958F70182B1092AF
:10401000E9008091E80083FD0E947A101F701093E0
:10402000E90082E084BD93E095BD9AEF97BD80934F
:104030006E000E949E0E811102C00E94880DE3E670
:10404000F2E088E0DF011D928A95E9F782E0809333
:10405000620260E080E00E94D30761E080E00E949D
:10406000D30760E081E00E94D30761E081E00E9415
:10407000D307EFE8F1E03197F1F700C0000010E05E
:1040800080916202181708F4CAC081EF0E94B6023C
:1040900084EF0E94B60285EF0E94B60286EF0E946E
:1040A000B60284E30E94B60286E60E94B60287E664
:1040B0000E94B60286EC0E94B60284E0E9E7F2E0D4
:1040C000DF01282F1D922A95E9F7E9E4F2E0DF01EC
:1040D0001D928A95E9F780E090E00E94422A853E91
:1040E0009E4F21F40E949E0E811172C065EE7EEFFC
:1040F00080E090E00E94762A60E082E090E00E94FA
:10410000582A81E08093D70261E083E090E00E942A
:10411000582A60E074E184E090E00E94762A60E032
:1041200086E090E00E94582A60E087E090E00E94DC
:10413000582A40E050E0BA0188E090E00E946A2AE4
:1041400060E083E290E00E94582A60E08CE090E01A
:104150000E94582A60E08DE090E00E94582A19825F
:104160001A821B821C821D821E821F82188648E0D2
:1041700050E067E170E0CE0101960E94482A40E0DD
:1041800050E0BA018FE190E00E946A2A80E00E942C
:104190006A0D0E94880D40E050E0BA018FE090E087
:1041A0000E946A2A1092750210927602109277028B
:1041B0001092780281E08093750282E10E94E4020D
:1041C00041E050E060E070E083E190E00E946A2A04
:1041D00082E090E00E94342A8093530284E090E0D1
:1041E0000E94422A9093DB028093DA020E94EC1E26
:1041F000EFEFF6E721E0E150F0402040E1F700C0AA
:1042000000000E94EC1E8091790280FF1AC06FEFBF
:104210007FEF80E090E00E94762A0E94F90B60E038
:10422000812F0E94F607082F61E0812F0E94F60778
:10423000E12FF0E0E05AFD4F880F802B80831F5F55
:104240001FCF83E090E00E94342A0E9427038091D0
:10425000D8020E94F2020E948E0781E08093BF0282
:1042600048E050E067E170E080EC92E00E94242A90
:104270001092BF028091C0028430B8F489E080932C
:10428000C0028091140190911501A09116018093B4
:10429000C1029093C202A093C3028FE78093C4022D
:1042A0008FEF8093C5020E942D1480914D028111E1
:1042B00099C088E090E00E943C2A6B017C0183E277
:1042C00090E00E94342A282F30E040E050E060E087
:1042D00070E080E090E000E20E94EE29F22FA32E31
:1042E000B42EB52FA62FE72F9701860140E050E0AE
:1042F000BA01FC29A12AB22AB32BA42BE52B862BC9
:10430000972BF093CC02A092CD02B092CE02B09344
:10431000CF02A093D002E093D1028093D202909377
:10432000D302F43008F04CC02DE22093CC022FEFE2
:104330002093CD022093CE0226E92093CF02109243
:10434000D0022DE23FEF4FEF56E960E07E2F0E9452
:10435000341388E090E00E943C2A6B017C0183E2E8
:1043600090E00E94342A282F30E040E050E060E0E6
:1043700070E080E090E000E20E94EE295901B42F45
:10438000A52FF62FE72F9701860140E050E0BA01F4
:10439000AC28B12AB22BA32BF42BE52B862B972B21
:1043A000A092CC02B092CD02B093CE02A093CF02E5
:1043B000F093D002E093D1028093D2029093D30283
:1043C0000E94EB061092CB020E9498028091CC02D0
:1043D00080FF05C060E0869586950E944F1481E0BD
:1043E00080934D0289EA8093800089E08093810068
:1043F00083E190E00E943C2A6093750270937602FC
:10440000809377029093780267704BE4649FC001B9
:10441000112495958795959587950E94E40286E0ED
:1044200091E09093A1028093A002B8E1EB2EF12CD1
:1044300010E4612EDD24D39477247394CC24C394A8
:1044400080917D0213E0853009F4B4C00E94EC1E17
:1044500004E512E0F9E7AF2EF2E0BF2E28E532E0E6
:10446000D501F80191918D912E173F0709F424C1D0
:104470009817C1F3912CD5018D905D01F801319011
:104480008F01381429F13824512C44244394832D6E
:1044900084218823A9F059829A820E9420099C8352
:1044A0008B837D8291E0882D8421811101C090E071
:1044B0009E8349815A816B817C818D810E949B1CE6
:1044C0005394440CF4E05F12E2CFF80131978082FC
:1044D000939424E09212CFCF0E94280A60936C023A
:1044E00070936D0280936E0290936F02E9C0809189
:1044F0007D02843009F44FC00E94D8020E94DC0281
:104500000E94E0020E945A1E1092CB02809150023B
:1045100081110DC0C09250028091CC02982F9170F1
:1045200090934F028E7F8093CC020E94000780916F
:10453000510281110DC00E94441D10921101809101
:10454000C0028370809310010E94E20B109313014C
:10455000C092510210924E020FB6F894A895E092C4
:1045600060000FBE6092600083B7817F846083BF6C
:1045700083B7816083BF7894889583B78E7F83BF2C
:104580000FB6F894A89580916000886180936000D0
:10459000109260000FBE80915202882359F00E9451
:1045A000EC1EE9E7F2E0819181116EC082E0ED3707
:1045B000F807C9F780917D02853009F498CF0E94F1
:1045C00033100E9466081092500280914F028111B0
:1045D0000E94AF140E943814109251020E94D80217
:1045E0000E94DC020E94E0029FEFA9E6B8E1915030
:1045F000A040B040E1F700C000000E94CF02EFEF02
:10460000F1EE24E0E150F0402040E1F700C000006E
:104610000E94D2024FEF81EE94E0415080409040E2
:10462000E1F700C000000E94D502AFEFB1EEE4E078
:10463000A150B040E040E1F700C000000E94D80265
:10464000FFEF21EE44E0F15020404040E1F700C090
:1046500000000E94DC028FEF91EEA4E081509040B8
:10466000A040E1F700C000000E94E002BFEFE3ECD1
:10467000F9E0B150E040F040E1F700C00000809167
:10468000D8020E94F202E2CE80E189BD82E189BDBA
:1046900009B400FEFDCF8091D8008F7D8093D800B3
:1046A0008091E00082608093E0008091E00081FDD5
:1046B000FCCF0E9433107ECF9813DCCE0E94211DC8
:1046C0008091CB02882309F441C08091CA02E09115
:1046D000CC02E695E695E81BE0935A0200ED17E060
:1046E00073E5A72E76E0B72E823059F4E695F0E018
:1046F000E75FFB4FE4910E2F10E0E5E1AE2EE7E01F
:10470000BE2E80915B02882361F010925B020E94B2
:104710002009909359028093580210925D021092E2
:104720005C020E9420092091580230915902821B9C
:10473000930B8F3F9F4750F4200F311F3093590246
:104740002093580288E592E0F50109950E945A1ECF
:1047500080916B02882351F010926B028091650268
:1047600080936602809163028093640200E064E0BB
:10477000A62EB12C4EC061E0802F0E94F607882E35
:1047800060E0802F0E94F607880C8829E02FF0E077
:104790009F01205A3D4FD9014C91942F9370891756
:1047A000B9F1A42FAA0FAA0F8A2BD9018C93A82F95
:1047B000AF70B0E0A259BE4FE25AFD4F8C9190818C
:1047C000890F808384300CF464C0412F50E0292D80
:1047D00030E0BA016F5F7F4F637077272617370786
:1047E00081F04D595D4F902F9F77DA0114969C937D
:1047F0001F5F137010936502909163029F5F909307
:104800006302082E000C990BB5010E949629808343
:104810000F5F909066021091650280916202081706
:1048200008F4A9CF90E01CEF43E0B42E0DEF52E066
:10483000A52E8091660220916502281709F460C0B8
:10484000E82FF0E0E959FD4F9081992EE89497F810
:104850008F5F837080936602809164028F5F809384
:10486000640297FD2BC099A21AA30E942009BC01E3
:104870008BA39CA3BDA2DEA249A15AA183E091E033
:104880000E949B1C9FA218A70E942009282F83E04A
:104890002AC08D3F0CF0B5CF412F50E0292D30E0DC
:1048A000BA016F5F7F4F637077272617370709F4C8
:1048B000A8CF4D595D4F902F906897CF99A20AA32A
:1048C0000E942009BC018BA39CA3ADA2DEA249A13A
:1048D0005AA182E091E00E949B1C9FA208A70E941F
:1048E0002009282F82E0622F792F29A79AA78BA76A
:1048F0001CA64FA158A590E00E949B1C91E099CF67
:10490000992351F00E94280A60936C0270936D0203
:1049100080936E0290936F0286E0E6EBF2E0DE0198
:10492000119601900D928A95E1F7B090B70200912F
:10493000B8021091B9029090BA02A090BB021092F6
:10494000B8021092B9021092BA021092BB02812FE3
:10495000802B882379F080917202909173020E94DB
:10496000450A9C018091B40281115CC02B30310555
:1049700008F05EC0892D8A29882379F08091700221
:10498000909171020E94450A9C018091B3028111AD
:1049900088C02B30310508F08AC08091B7028B1196
:1049A00016C08091B802882311F0801310C0909136
:1049B000B902992311F091130AC02091BB02211171
:1049C00006C02091BA02211102C0892B81110E94D8
:1049D0002C0986E0FE013196A6EBB2E001900D9223
:1049E0008A95E1F70E94660890917402891721F078
:1049F000809374020E94280A80917D02843009F01D
:104A00001FCD83E08093E9008091E80082FF18CDFC
:104A10008091E80085FD84C08091E8008B778093C9
:104A2000E8000ECD2531310508F4A4CF8F3F19F0F1
:104A30008F5F8093B402002359F00E9421089FEFFA
:104A400010160CF491E0899F802D11248093B802F8
:104A5000112359F00E94210891E011160CF09FEFEC
:104A6000899F802D11248093B9028091B8028823F8
:104A700009F480CF8090B902882009F47BCF0E948E
:104A80001308811101C081E08093B802882D0E9433
:104A90001308882319F08093B9026CCFD092B90221
:104AA00069CF2135310508F478CF8F3F19F08F5F3A
:104AB0008093B302992059F00E9441089FEF191486
:104AC0000CF491E0899F802D11248093BA02AA20D2
:104AD00059F00E94410891E01A140CF09FEF899F51
:104AE000802D11248093BB028091BA02882309F49F
:104AF00054CFA090BB02AA2009F44FCF0E94130804
:104B0000811101C081E08093BA028A2D0E941308AE
:104B1000882319F08093BB0240CFD092BB023DCFD7
:104B20000E94CF0A30E2A32EB12C8E010F5F1F4FDF
:104B30008823D9F08091E8008B778093E800898101
:104B4000EFEFE80FE53158F5F0E0E95FF44D0C9434
:104B5000AA298091F100F8018083F1E0AF1AB10831
:104B6000A114B10439F30F5F1F4F8091E80085FD58
:104B7000F0CF8091E8008B778093E8000E94CF0A05
:104B8000882399F3D7CF1A828CE08B831AC08A814D
:104B9000833049F138F4813061F08230D9F08FEF01
:104BA00089830FC08430D9F71B821C821D821E822C
:104BB00008C00E94280A0E94B0296B837C838D83E1
:104BC0009E8340E250E0BE016F5F7F4F82E00E9413
:104BD0001D0C36CC87E290E00E94342A1B821C8296
:104BE0001D828E83EECF8B8190E0DE01149684309F
:104BF00091053CF7FC01FF27E758FD4F20812D93DD
:104C00000196F5CF8A818230B1F0853041F68091EE
:104C1000CC0280FF21C08E7F8093CC021092CB0209
:104C20000E9400078091C00291E089278093C00212
:104C300010921301C6CF8B819C81AD81BE818DA75F
:104C40009EA7AFA7B8ABBC01CD010E94B02987E2F7
:104C500090E00E94582AB5CF0E94AF14E3CF4C8158
:104C60006B818A810E94980D9827892798279E83B7
:104C70008D83A7CF2D813E813227232732274C8178
:104C80006B818A810E949E0C9CCF0E94F10C99CF6F
:104C90009A81923009F07FC0883009F43FC0893092
:104CA00009F466C08B818330A9F190F48130C9F09A
:104CB000823009F086CF8C81811125C08091CC0291
:104CC0008E7F8093CC021092CB020E94000779CF96
:104CD000843009F076CF20E04091CF026D818C8145
:104CE0000FC08C81A6E98A9FC00111246FEF70E08C
:104CF0000E948229462F20E06091CE028091CD0251
:104D00000E948E135ECF0E94AF1460E08C810E94DF
:104D10004F1457CF8C818093D00253CF8B81833037
:104D200019F160F48130A1F0823009F04ACF80910E
:104D3000CC0280FF86C08695869518C0843009F025
:104D400040CF8091CD028C838091CE028D8339CF6C
:104D50008091CF02BFEF8B9FC001112466E970E004
:104D60000E9482296C832DCF8091D0028C8329CF21
:104D70002091CC023091CD024091CE025091CF02D1
:104D80006091D0027091D1028091D2029091D302B1
:104D90000E94341316CF933009F06BC0883009F4A9
:104DA00041C0893009F462C08B818330B9F198F435
:104DB0008130D1F0823009F004CF8C819091C00213
:104DC000292F237081111EC02111109213019C7F85
:104DD0009093C002F6CE843009F0F3CE8C8120E0AF
:104DE0004091C3026D810AC04C8126E9429F412D4A
:104DF00011248091C10220E06091C20290E00E94E3
:104E00007907DFCE211102C0109213019C7F9160BF
:104E10009093C00260E00E945A07D3CE8C818093A9
:104E2000C402CFCE8B818330F1F068F48130A1F0E1
:104E3000823009F0C6CE8091C002982F93709111F4
:104E40007ACF80E093CF843009F0BBCE8091C1024D
:104E50008C838091C2027ACF8091C302EFEF8E9F44
:104E6000C00111247BCF8091C40280CF0E942D14F9
:104E7000A8CE911194CE8830E9F0893019F18B8158
:104E8000813009F09ECE8C81877090917502987F59
:104E9000982B90937502FBE48F9FC0011124959588
:104EA0008795959587950E94E4028091D8020E948B
:104EB000F20287CE8B81813009F083CE809175021A
:104EC000877054CF409175025091760260917702BD
:104ED0007091780283E190E00E946A2A72CE80E1AC
:104EE0008A836FCE83E08A8388E34FCE0A811B8159
:104EF0001027012710278C814801880E911C5E0124
:104F000025E0A20EB11C0815190509F45ACE80E05F
:104F1000083343E0140728F4C80188539F4F0E94C8
:104F2000342AD5018D935D010F5F1F4FECCF0A81AD
:104F30001B81102701271027FE0131965F018C810C
:104F40004F01880E911C8A149B0409F43ACE083351
:104F5000F3E01F0740F4D50114966C91C801885303
:104F60009F4F0E94582A0F5F1F4FBFEFAB1ABB0A1B
:104F7000EACF0E945A0D25CE84E0B2CF0A811B8170
:104F80001027012710278C814801880E911C5E0193
:104F9000E5E0AE0EB11C8016910609F412CE80E059
:104FA0000038110520F4C80188960E94342AD501E2
:104FB0008D935D010F5F1F4FEECF0A811B8110277C
:104FC00001271027FE0131965F018C814F01880E69
:104FD000911CA814B90409F4F4CD0038110538F473
:104FE000D50114966C91C80188960E94582A0F5FCB
:104FF0001F4FBFEFAB1ABB0AECCF41E08C81811190
:1050000001C040E06B818A810E94C70D2DCE2D81A9
:105010003E8132272327322741E08C81811101C054
:1050200040E06B818A810E94C50CCBCD1F921FB6D8
:105030001F9211248F939F93AF93BF9380914E0241
:10504000811113C08091250290912602A091270220
:10505000B09128024196A11DB11D80932502909325
:105060002602A0932702B0932802BF91AF919F918F
:105070008F911F901FBE1F90189578941F921FB696
:105080001F9211248F939F93AF93BF93809125021A
:1050900090912602A0912702B09128020196A11DAD
:1050A000B11D8093250290932602A0932702B0930E
:1050B0002802BF91AF919F918F911F901FBE1F90AB
:1050C00018951F920F920FB60F9211242F933F93B2
:1050D0004F935F936F937F938F939F93AF93BF9300
:1050E000EF93FF938091E10082FF09C08091E2007D
:1050F00082FF05C08091E1008B7F8093E100809169
:10510000DA0080FF24C08091D80080FF20C0809109
:10511000DA008E7F8093DA008091D90080FF9BC0F7
:1051200080E189BD82E189BD09B400FEFDCF81E047
:1051300080937D028091E601811109C00E94000BDD
:105140000E94560B8091E20084608093E20080917F
:10515000E10080FF17C08091E20080FF13C08091C2
:10516000E2008E7F8093E2008091E2008061809374
:10517000E2008091D80080628093D80019BC85E05D
:1051800080937D028091E10084FF29C08091E2003C
:1051900084FF25C080E189BD82E189BD09B400FE9C
:1051A000FDCF8091D8008F7D8093D8008091E10061
:1051B0008F7E8093E1008091E2008F7E8093E200F9
:1051C0008091E20081608093E2008091E501882374
:1051D00009F447C084E080937D0280917D02809134
:1051E000E10083FF27C08091E20083FF23C080910C
:1051F000E100877F8093E10082E080937D0210923E
:10520000E5018091E1008E7F8093E1008091E200D2
:105210008E7F8093E2008091E20080618093E200C3
:1052200042E060E080E00E941F0B8091F000886007
:105230008093F000FF91EF91BF91AF919F918F917B
:105240007F916F915F914F913F912F910F900FBE82
:105250000F901F90189519BC10927D021092E601D4
:1052600076CF8091E30087FF02C083E0B4CF81E076
:10527000B2CF1F920F920FB60F921124FF920F938D
:105280001F932F933F934F935F936F937F938F93CE
:105290009F93AF93BF93CF93DF93EF93FF9309EE69
:1052A00010E0F8018081C091EC00C795CC27C7952C
:1052B0008F70FC2EF82A1082C0EFD0E08881877FA3
:1052C000888378940E947A10F8011082888188601F
:1052D0008883CF2DCF70C083FF91EF91DF91CF9165
:1052E000BF91AF919F918F917F916F915F914F91FE
:1052F0003F912F911F910F91FF900F900FBE0F9034
:105300001F901895AA1BBB1B51E107C0AA1FBB1F0A
:10531000A617B70710F0A61BB70B881F991F5A9541
:10532000A9F780959095BC01CD01089597FB072EB4
:1053300016F4009407D077FD09D00E94822907FC5B
:1053400005D03EF4909581959F4F08957095619595
:105350007F4F0895EE0FFF1F0590F491E02D099403
:1053600069279627692778278727782708952F9216
:105370003F924F925F926F927F928F929F92AF92E5
:10538000BF92CF92DF92EF92FF920F931F93CF9332
:10539000DF93CDB7DEB7CA1BDB0B0FB6F894DEBFC9
:1053A0000FBECDBF09942A88398848885F846E84EF
:1053B0007D848C849B84AA84B984C884DF80EE8039
:1053C000FD800C811B81AA81B981CE0FD11D0FB642
:1053D000F894DEBF0FBECDBFED010895002E08305A
:1053E00090F0982F872F762F652F542F432F322F31
:1053F00022270850F4CF220F331F441F551F661F6A
:10540000771F881F991F0A95B2F7002D089597FD01
:105410001094002E083098F00850232F342F452F79
:10542000562F672F782F892F912DF4CF15949795AC
:1054300087957795679557954795379527950A9559
:10544000AAF71124002D0895DC01CB01FC01F99984
:10545000FECF06C0F2BDE1BDF89A319600B40D92C0
:1054600041505040B8F70895F999FECF92BD81BDE3
:10547000F89A992780B50895A6E1B0E044E050E09D
:105480000C94262AA8E1B0E042E050E00C94262AD1
:10549000DC01A40FB51F4150504048F0CB01840FF0
:1054A000951F2E910E94592A41505040D0F70895DF
:1054B000262FF999FECF92BD81BDF89A019700B4CD
:1054C000021639F01FBA20BD0FB6F894FA9AF99A6D
:1054D0000FBE08950396272F0E94592A0E94582A2A
:1054E000252F0E94592A242F0C94592A0196272FE0
:1054F0000E94592A0C94582AFC014150504030F027
:1055000001900616D1F73197CF0108958827992782
:105510000895FB01DC0104C08D910190801921F4F4
:1055200041505040C8F7881B990B0895F894FFCF5D
:105530007D09800986099B099B099B099B099B0999
:105540009B099B099B0989098E0992099809A90958
:10555000AF09B30958117E1184117E118411D7113E
:10556000F9118411F512021360166E167A1684165C
:1055700090169A16A716AE16BA16D516D916CB16C9
:10558000D116DD16E116E5165A17C51762172C1746
:105590003017661734176A1776174017BE17441767
:1055A0007A1748177E17A6174C178217AD17521790
:1055B0008817901738176E173C17721756178C17E5
:1055C0009C17B617BC1726175E17CC17E5170B18D4
:1055D000121817181C18211826182B1830183518EF
:1055E0003A183F1892159215421892159215921575
:1055F0009215921592150019001937193719D119FA
:10560000EE1962196219F319681A791A791AC32501
:10561000C72502262F263A2645264826482648260C
:10562000CF25CF256F27722776279727B927BC2745
:08563000BE27DD27FD27072836
:1056380000FF00390501540A5B0C720C790C800CD0
:10564800FFFF010300FFC8346667C64422B6840121
:105658006201AC00DA01F301130294309631FF0ABB
:105668000BFF0908070602030405FF0100FF7A4043
:105678006740542D672D852D982D981A7A1A671A28
:10568800541A67077A07040404040404040404048D
:1056980004040001020202020202F1F4F5F600FF1E
:1056A8000100010000FFFF0000010001FF00E2000F
:1056B800E900EA00B500B600B700CD008301CC00D0
:1056C8008A01920194012102230224022502260262
:1056D80027022A02B300B4006F0070009F01CB01BB
:0456E8009F02A0027B
:00000001FF
