:10000000E5C100001CC200001AC2000018C20000B6
:1000100016C2000014C2000012C2000010C200008C
:100020000EC200000CC200000C9471200C945921E7
:100030000C94262004C2000002C2000000C200008E
:10004000FEC10000FCC10000FAC10000F8C10000C0
:10005000F6C100000C944D20F2C10000F0C1000078
:10006000EEC10000ECC10000EAC10000E8C10000E0
:10007000E6C10000E4C10000E2C10000E0C10000F0
:10008000DEC10000DCC10000DAC10000D8C1000000
:10009000D6C10000D4C10000D2C10000D0C1000010
:1000A000CEC10000CCC10000CAC100000501090298
:1000B000A10185020901A1000509190129081500FE
:1000C0002501950875018102050109300931158165
:1000D000257F95027508810609381581257F9501D0
:1000E00075088106050C0A38021581257F95017572
:1000F000088106C0C005010980A10185031A01001D
:100100002AB70016010026B700950175108100C0BE
:10011000050C0901A101850419012AA00215012677
:10012000A002950175108100C005010906A1018595
:1001300006050719E029E7150025019508750181D5
:10014000020507190029EF1500250195F0750181B9
:10015000020508190129059505750191029501759A
:10016000039101C005010906A101050719E029E76E
:100170001500250195087501810295017508810119
:100180000507190029FF150026FF0095067508814F
:10019000000508190129051500250195057501912E
:1001A00002950175039101C009023B00020100A004
:1001B00032090400000103010100092111010001BD
:1001C000224400070581030800010904010001031E
:1001D00000000009211101000122B8000705820377
:1001E00020000112010002000000084C57E3E60065
:1001F000010102000114034D006900630072006FE9
:100200000020005000610064000000180357006FD8
:100210000072006B0020004C006F007500640065E8
:100220000072000000040309040001010101010142
:10023000010101020202020202020202030303039D
:10024000030303030404040404040405050505056D
:10025000060606060607070707070808080809092B
:1002600009090A0A0A0B0B0B0C0C0C0D0D0D0E0ED6
:100270000E0F0F0F10101111111212131314141569
:100280001516161717181819191A1A1B1B1C1D1DDD
:100290001E1E1F2020212222232424252626272833
:1002A00029292A2B2C2D2D2E2F3031323233343563
:1002B000363738393A3B3C3D3E3F40414243444566
:1002C000464748494A4C4D4E4F5051535455565845
:1002D000595A5B5D5E5F616264656668696B6C6DEF
:1002E0006F7072737577787A7B7D7E808283858765
:1002F000888A8C8E8F91939596989A9C9EA0A2A3A3
:10030000A5A7A9ABADAFB1B3B5B7BABCBEC0C2C4A7
:10031000C6C9CBCDCFD1D4D6D8DBDDDFE2E4E7E967
:10032000EBEEF0F3F5F8FAFDFF643214000029005B
:100330003E0000002C0C2B081B08E3006800500A4C
:100340004F0AAE0003526A00A80001520100A60045
:100350000F0801002C0C4E004B001B085009500ADE
:100360004F0A4F090052AD00AE0002523101260083
:10037000270001004A0050044F044D0010002C00DB
:100380002C030F0101525200510003520100427828
:10039000417E010001000100010001000100010097
:1003A000017C01000252037C007C0052B600B700C1
:1003B000DC00DB0001000100010001004F015001E1
:1003C0002D002E00010001000100010011241FBEBC
:1003D000CFEFDAE0DEBFCDBF04B603FE19C08091D7
:1003E0005E0390915F03A0916003B0916103873039
:1003F000904BA740B04B61F410925E0310925F03E4
:100400001092600310926103E0E0F8E3099500C0E8
:1004100011E0A0E0B1E0EEEAF5E402C005900D9233
:10042000A43EB107D9F723E0A4EEB1E001C01D92CC
:10043000AE35B207E1F70E94551B0C946922E0CD5E
:100440002FB7F894FC01B496DC0101963C9158E07A
:100450004BB9000000C037FF6BB9330F000000C07C
:1004600000C000C06BB900C05A9591F78E179F0766
:1004700059F72FBF0895529A0895FC01EE0FFF1F00
:10048000E80FF91FE65CFC4F6183408322830895E7
:10049000F894E82FE295EF70F0E041A18F7021E031
:1004A00001C0220F8A95EAF7922F9095942391A389
:1004B00092A1822F892B82A378940895269A2E9A4E
:1004C0000895279A2F9A0895259A2D9A0895269887
:1004D0002E982E98089527982F982F98089525984C
:1004E0002D982D98089590E090938B0080938A002A
:1004F00090938D0080938C00909389008093880066
:100500000895CF93DF93EC01009769F081FF0FC04E
:10051000D5DFC2FF0EC0D5DFC3FF07C0D5DFCE01D8
:10052000DF91CF910895D3DFD6DFD9DFF8CFCFDFCA
:10053000F0CFD1DFF1CF8093EC029093ED020895DC
:10054000E0DF8093EE029093EF02089521E030E027
:1005500002C0220F331F8A95E2F78091EE0290913C
:10056000EF02822B932BECCF21E030E002C0220F70
:10057000331F8A95E2F7209530958091EE02909195
:10058000EF0282239323DCCFCF93C1E061FDC4E06F
:1005900060FDCC0F62FDC29593E0769567959A95C4
:1005A000E1F7660F771F660F771F460F571FFA0197
:1005B00040E050E090E06191DF019C01042E02C018
:1005C000369527950A94E2F72695220B26272C23A9
:1005D00026272E934F5F5F4F4430510561F7CF912F
:1005E0000895A82FA77023E0969587952A95E1F79F
:1005F000880F991F880F991F680F791FFB0140E032
:1006000050E080E0219130E00A2E02C03695279517
:100610000A94E2F72170042E01C0220F0A94EAF72F
:10062000822B4F5F5F4F4430510561F70895282FAB
:10063000862F943060F4243048F434E0939FB00166
:100640001124620F711D40EC52E09ECF08959C5F13
:100650009230E0F7622F70E04CEB52E0F6CF94302E
:1006600060F4843088F444E0949F9001112460EC9D
:1006700072E0820F932F911DB4CF9C5F923020F4D3
:100680006CEB72E090E0F8CF80E00895E091FA0220
:100690009091F902E91302C080E008959F0157E0AC
:1006A000E59FF0011124E550FD4F5181561306C01E
:1006B0005081581303C05581541305C02F5F3F4F1D
:1006C000F901E770E7CF81E008958091FA02209167
:1006D000F902281301C0089501968770FACF90910E
:1006E000F002809589238093F002282F277061F40F
:1006F000891751F09091F70292FF06C08695869572
:10070000869532DF1092F00208958091E90290916F
:10071000F802892B9091EA029115C9F0892B9091EA
:100720001201913021F49091F60297FD11C096E0EC
:1007300028EE31E040E09150F90150812F5F3F4FAA
:1007400051114F5F9111F7CF41111092EA020895B4
:100750009EE120EF31E0EECF8095982F8091E90265
:1007600089238093E90208957430E0F4643008F03E
:100770003FC0843008F03FC024E0829FC0011124B4
:10078000870F911D880F991F880F991F860F911D44
:10079000FC01EE0FFF1FE45DFC4F85919591282F22
:1007A000822F08957D3F89F4623010F5843018F56A
:1007B000E62FF0E0E80FF11DE80FF11DEE0FFF1F2F
:1007C000EE0FFF1FE455FC4FE8CF7C3F89F4623009
:1007D00078F4843080F4E62FF0E0E80FF11DE80FA4
:1007E000F11DEE0FFF1FEE0FFF1FE255FC4FD5CF9F
:1007F00020E090E0D5CF21E0FCCF803E9105D1F103
:10080000C8F48133910509F481C048F48932910517
:1008100009F471C08A32910509F47FC008958933C3
:100820009105E1F082389105C9F08533910509F40D
:100830005DC00895843E9105D1F148F4823E910552
:1008400031F1833E910541F181EE90E00895863EBD
:100850009105C1F1873E9105F1F108952091F602CD
:10086000237009F064C02091F70223FF14C089E2CD
:1008700090E008952091F60220FD45C03091F702E6
:1008800030FF09C024FD24C083EE90E0089520913C
:10089000F60222FDF7CF08952091F60222FD44C012
:1008A0003091F70230FD43C024FFF5CF11C02091F5
:1008B000F70221FFF0CF8091F60284FD09C087EE98
:1008C00090E008952091F60223FFE5CF24FFF7CFB3
:1008D00080E090E008952091F60223FD2BC0309136
:1008E000F70231FFE1CF84EE90E008952091F60207
:1008F00025FFD1CFBCCF2091F60225FD1EC020914F
:10090000F70223FFC8CF89E390E008952091F60213
:1009100026FFC1CF8AE290E008952091F60226FFDB
:10092000BACF81E390E0089582EE90E0089580EEE2
:1009300090E0089586EE90E0089585E390E00895B4
:100940009091F60292FF10C041E0282F24712430CC
:1009500009F040E031E0282F2871283009F030E01C
:10096000431711F02CE0822793FF10C041E0282F9D
:100970002471243109F040E031E0282F287128311A
:1009800009F030E0431711F02CE082273091F70294
:1009900030FF10C051E0282F2171213009F050E0C4
:1009A00041E0282F2871283009F040E0541711F059
:1009B00029E0822731FF10C041E0282F2171213129
:1009C00009F040E031E0282F2871283109F030E0AB
:1009D000431711F029E0822794FF02C083FD877E30
:1009E00008950F931F93CF93DF9307DFEC01D23568
:1009F00008F04DC0D03508F0C3C0C03ED10530F579
:100A0000CD3CD10508F09AC0C83AD10578F4C53A72
:100A1000D10508F090C0C130D10599F1CE010497FD
:100A2000813A910570F1C0E0D0E02BC0CE01885A28
:100A300091094B97C0F7C85AD0E0CC0FDD1FC958B9
:100A4000DE4F0990D881C02DD4641BC0D03490F4FF
:100A5000D03208F0A8C0C83ED10598F0CE01915020
:100A60009F3108F78D2F6CDF082F8C2F90E0C5DEAB
:100A7000902B54C08C2F90E0C0DEDF70C82FD92B94
:100A8000D06ACE01DF91CF911F910F910895C038A8
:100A900082E5D807B8F5C03682E5D80708F056C019
:100AA000C03482E5D807C8F4C03282E5D80708F020
:100AB00047C08C2F8695869520E2829FC001112425
:100AC000C37021E030E002C0220F331FCA95E2F765
:100AD000E901C82BD92BDD68D4CF8C2F869586955C
:100AE000877020E2829FC0011124C37021E030E0B2
:100AF00002C0220F331FCA95E2F7E901C82BD92B98
:100B0000DC68BFCFC03C82E5D80750F48C2F8F71D2
:100B1000C03AD24580F5982F84EF906AEC01B1CFAE
:100B2000CE01805C9245809708F07DCFDC2FDF718D
:100B3000C0EFD06AA6CFA497D064A3CFD065A1CFD1
:100B40008C2F8F71D82FC1EFD06A9BCF8C2F8695B9
:100B50008695877020E2829FC0011124C37021E036
:100B600030E002C0220F331FCA95E2F7E901C82B1B
:100B7000D92BDA6886CFE4DEC0E0D82FD06281CFEF
:100B80008C2F8F71DDDE93E0CC0FDD1F9A95E1F79E
:100B9000DF70282F84FF04C090E1899F9001112409
:100BA000C22FD0696ECF8D2F8F71CADE082F8C2F88
:100BB00090E023DE902BEC01E1CFCF92DF92FF9209
:100BC0000F931F93CF93DF936C010091EE0210916E
:100BD000EF028091EC029091ED02082B192BCFE0EF
:100BE000D0E081E090E00C2E02C0880F991F0A949B
:100BF000E2F780239123892B61F4219790F7F12C60
:100C00008F2DDF91CF911F910F91FF90DF90CF90AB
:100C10000895FC2EB6018C2FA7DDE3DE019769F362
:100C2000EFCF1F93CF93DF93FC012581C081D1814A
:100C3000CE01211571F0611561F0BFDF182F682F0B
:100C4000CE01F5DCBE01812F8FDDDF91CF911F91A9
:100C5000089505DD182FF6CFCF93DF93EC01ADDFBC
:100C6000BE0182DDBEDEDF91CF910895FC012481BB
:100C7000211599F080819181EFDF282F92959F7047
:100C8000963099F060F4925F9F70923030F4203F7C
:100C9000B1F038F481E0283E38F080E008959A5FA2
:100CA000F3CF81E0243FC9F7089591E0213F09F097
:100CB00090E081E0283E08F080E0892B089581E0F3
:100CC000089580E008950895CF92DF92EF92FF9209
:100CD0001F93CF93DF93462F172FE82FF0E0E75DA8
:100CE000FD4F71110CC0E4918E2F7E2F6E2FDF917E
:100CF000CF911F91FF90EF90DF90CF900895F491E6
:100D0000EF2F86E0689FE00111242FEF30E0CE0145
:100D1000B9010E949C21DB01CA01880F991F65E57A
:100D20006A9FA0016B9F500D1124841B482F440F14
:100D3000480FC901811B9109F89F7001F99FF00CC0
:100D400011248F2D149FB0011124672F70E06901C9
:100D5000C61AD70AB601F69F6001F79FD00C11247E
:100D6000A330B10549F1B901641B7109AB01149FAE
:100D7000B001159F700D1124672F70E0261B370BF3
:100D8000F29FA001F39F500D1124752FCC3FD3404B
:100D900050F4A130B105A1F0129709F0A7CFEF2DC3
:100DA000852F7F2FA3CFA430B10569F0169709F4E2
:100DB0009DCF7F2D8D2D9ACF7D2DEF2D8F2F96CF0F
:100DC0007F2FED2D93CFE52F7F2DF8CFCF93DF939E
:100DD0008091D90280FD0BC0C0E0D0E020E040E06F
:100DE00060E0CE014ADB2196C830D105B9F7BCD40A
:100DF000DF91CF9108951092D8028091590281110C
:100E00000DC081E0809359028091D902982F917092
:100E1000909358028E7F8093D902D8CF0895FF9285
:100E20000F931F93CF93DF93EC01F12C00E010E0C0
:100E30007091DB028091DC02873908F086E96C81D1
:100E40006F0D42DF472F282FC80117DB0F5F1F4FA1
:100E50008FE1F80E0830110559F7B8DF8C819A81BF
:100E600090FF07C08F5F8C83CDB7DEB7E5E00C94B1
:100E7000F2218150F8CF2695E22F26FDE0959E2F96
:100E80009F7026FD9F5FE695E695E695E670F0E09B
:100E9000E15BFE4F3181399F302D912D1124329528
:100EA0003F709295907F392B9081930F27FD9195FC
:100EB00097FD9195990F292F3CE0239F020E20E08A
:100EC000211D1124620F089580915A028160809340
:100ED0005A020895E1C008959091E102937071F073
:100EE000833008F082E0880F880F9091E1029370C0
:100EF000892B8093E10210921401E6CF089580912E
:100F0000E102869586958F5F833008F081E0E4CF1B
:100F10008091E10286958695815009F482E0DCCFCC
:100F20009091E102937039F08093E2026093E302C2
:100F30001092E402C9CF0895E1EEF2E0818190E0E1
:100F400062810896EDCFE1EEF2E081816281885006
:100F5000990BE6CF6091E30220E1620F08F46FEF96
:100F60008091E20290E0DCCF6091E30220E1621B1D
:100F700008F460E08091E20290E0D2CFE1EEF2E08E
:100F8000238130E1230F08F42FEF8181628190E00B
:100F9000C7CFE1EEF2E0238130E1231B08F420E02B
:100FA0008181628190E0BCCF2091E50230E1230F86
:100FB00008F42FEF2093E50287CF2091E50230E17E
:100FC000231B08F420E02093E5027ECF81E090E02F
:100FD0002091E6022F3F09F080E0875E9E4FFC01E2
:100FE00080818093E60270CF81E090E02091E6025C
:100FF0002F3F09F080E0875E9E4FFC018081809347
:10100000E60262CF90E06115D1F0895E9E4FFC014F
:1010100080818F3F99F0E82FE295EF70F0E041A1D9
:101020008F7021E001C0220F8A95EAF7922F9095E8
:10103000942391A392A1822F892B82A308958B5E82
:101040009E4FE5CF90E06115A9F0895E9E4FFC01AF
:1010500020812F3F91F0E22FE295EF70E05EF0E00B
:10106000808190E02F7002C0959587952A95E2F7D0
:10107000817008958B5E9E4FEACF80E00895519A6B
:101080000895FC01EE0FFF1FE80FF91FE55DFD4F0E
:101090006183408322830895FF920F931F93CF9320
:1010A000DF93182F062FF42EC0E0D0E02F2D402F15
:1010B000612FCE01E6DF2196CC30D105B9F7CDB74F
:1010C000DEB7E5E00C94F221382F25EB3203C001A6
:1010D000112497FF04C080589109892F08958058E2
:1010E0009F4FFBCF8091CA0280FD14C081FD14C0C8
:1010F00082FD16C08091C902811581F08E3180F485
:1011000020E5829FC00111246EE170E00E94B021B1
:10111000862F089584E1089588E2089588E008956F
:1011200080E508958091CA0280FD17C081FD17C037
:1011300082FD19C08091C802811599F0883298F417
:1011400028E0829FC001112468E270E00E94B02173
:101150006115710551F0862F089562E0FCCF64E0BF
:10116000FACF61E0F8CF68E0F6CF81E00895E09132
:10117000B202F091B302309739F00190F081E02D86
:10118000309711F00995089580E00895A3E0B0E04C
:10119000ECECF8E00C94D921209127023091280240
:1011A00028173907B1F08093270290932802E09125
:1011B000B202F091B302309761F00084F185E02D26
:1011C000309739F023E029838A839B83CE010196EF
:1011D00009952396E2E00C94F521A3E0B0E0E3EF5B
:1011E000F8E00C94D921209125023091260228178D
:1011F0003907B1F08093250290932602E091B20264
:10120000F091B302309761F00084F185E02D3097C2
:1012100039F024E029838A839B83CE0101960995C6
:101220002396E2E00C94F52190911201913099F00F
:10123000A8EEB1E0EFEF90E02C91821759F01196F3
:10124000EF3F19F4211101C0E92F9F5F9630A1F7FC
:10125000EF3FC1F408959091F60297FFE9CFE82F90
:10126000E695E695E695803FA8F7F0E0E251FE4F5F
:10127000877021E001C0220F8A95EAF78281822BD4
:1012800082830895FE2FFF0FFF0BEA51FE4FF8CF28
:1012900090911201913021F49091F60297FD0CC0CB
:1012A000E8EEF1E09191891302C0DF011E9291E016
:1012B000EE3EF907B9F70895E82FE695E695E6952D
:1012C000803FC8F7F0E0E251FE4F9DEF81FD97EFC0
:1012D00080FF959582FD929582818923828308956E
:1012E0008091110108952FB7F89480912102909177
:1012F0002202A0912302B09124022FBF0895F3DFB0
:101300009C019091CD028091CE02982B21F02093E8
:101310007E0230937F029091CF028091D002982B71
:1013200021F020937C0230937D02E091B202F09193
:10133000B302309759F00680F781E02D309731F0F5
:1013400082E08093CB028BEC92E0099508956115C1
:1013500009F440C0E82FED5CE33148F4F0E0E559D2
:10136000FD4D0C94C321BEDE81958093CE02C7CF84
:10137000B9DEFBCFB7DE81958093CD02F8CFB2DE28
:10138000FBCFD0DE8093CF02F2CFCCDE8195FACFB7
:10139000C9DE81958093D002EACFC4DEFBCF815DA8
:1013A000990B21E001C0220F8A95EAF78091CC02C7
:1013B000822B8093CC02DBCF8091CA028160809324
:1013C000CA02D5CF8091CA028260F9CF8091CA0249
:1013D0008460F5CF4091CD028D3C59F48091CE02CE
:1013E00087FF0DC01092CE02411559F41092C90228
:1013F00008C08E3C81F48091CE0218169CF34115F2
:1014000081F08091CF029091D002892B09F0AFCF6B
:101410001092C802ACCF8F3C41F447FFF0CF10923E
:10142000CD028091CE028115E0CF803D19F41416D3
:10143000B4F3E5CF9091CF02893D29F41916FCF65B
:101440001092CF02DCCF8A3D19F497FFD8CFF8CFA6
:101450009091D0028B3D29F497FFD1CF1092D0020A
:10146000CECF8C3D19F41916CCF3C9CF982F915DCE
:10147000983078F4815D990B21E001C0220F8A95A4
:10148000EAF7822F80959091CC0289238093CC0239
:10149000B6CF8D3D31F48091CA028E7F8093CA020F
:1014A000AECF8E3D21F48091CA028D7FF7CF8F3D64
:1014B00009F0A5CF8091CA028B7FF0CF2FB7F894A7
:1014C0006091210270912202809123029091240266
:1014D0002FBF0895FC0120911702309118022617A2
:1014E000370748F06115710529F49091E8009E775F
:1014F0009093E8009B0190E02115310541F4911192
:1015000006C08091E80082FF32C080E0089580919B
:101510005E028115C1F18530C1F18091E80083FD43
:1015200030C08091E80082FDECCF8091E80080FF20
:10153000E3CF8091F3004091F200582F211531053F
:1015400019F04830510558F091E04830510509F044
:1015500090E04091E8004E774093E800CDCF819134
:101560008093F100215031094F5F5F4FE7CF8091A9
:101570005E02811541F0853041F08091E80083FFE3
:10158000C0CF81E0089582E0089583E00895982F08
:101590009093E900891771F07091EC002091ED00B3
:1015A0005091F00021FD09C09F5F973089F780932B
:1015B000E9000895762F242F50E03091EB003E7F14
:1015C0003093EB003091ED003D7F3093ED00309192
:1015D000EB0031603093EB007093EC002093ED0052
:1015E0005093F0002091EE0027FDDECF089580910A
:1015F000110287FF13C08091E80082FF06C080912E
:10160000E8008B778093E800089580915E02811155
:10161000F2CF089580915E028115D9F38091E800A0
:1016200080FFF8CF8091E8008E77ECCF2091E40026
:101630003091E50095E6A9012091EC00822F8170A0
:1016400020FF06C08091E80080FF06C080E008957A
:101650002091E80022FD1AC080915E02811589F078
:10166000853089F08091EB0085FD0FC02091E4006A
:101670003091E50042175307F9F29150E1F684E00A
:10168000089582E0089583E0089581E00895CF935E
:10169000DF93C8EDD0E088818F7E8883E7EDF0E0AE
:1016A00080818160808384E082BF81E0809310022A
:1016B00088818E7F8883E2EE10821092DA00A1EE9C
:1016C000B0E01C9288818F778883888180688883C6
:1016D00088818F7D888319BC10925E0210920F0260
:1016E00010925D0210920E02A0EE8C918B7F8C9373
:1016F00088818160888342E060E080E048DFA1EE7D
:10170000B0E08C918E7F8C93E2EEF0E0808181607E
:101710008083808188608083E0EE80818E7F8083FB
:10172000888180618883DF91CF910895E8EDF0E0B2
:1017300080818E7F80831092E2001092DA001092F6
:10174000E100A0EEB0E08C9181608C9380818F7776
:10175000808319BCA7ED8C918E7F8C9380818F7EC6
:1017600080831092100208956BB14BB144606B7F7F
:101770008AE393E00E9420028FE594E00197F1F75D
:1017800000C0000008956BB14BB142606D7F8BE2E9
:1017900092E00E9420028FE594E00197F1F700C0EB
:1017A0000000089581E08093E00080E28093D800FB
:1017B0001092C9008FE19EE40197F1F700C000008C
:1017C000A7E0B0EBCD0180935E0390935F03A093FD
:1017D0006003B093610388E19CE00FB6F894A8958C
:1017E000809360000FBE90936000FFCF0F931F9314
:1017F000CF93DF93EB018A0190915E02943059F50B
:101800008093E9008FEF9091E80095FD06C095ED7B
:101810009A95F1F700008150B1F78091E80085FFBB
:101820001AC004DF811112C08091E80085FD06C056
:101830008091E8008E778093E800F3CF88818093D1
:10184000F1000150104011F02196EECF8091E80098
:101850008E778093E800DF91CF911F910F910895CB
:10186000CF93DF93EC0148E050E0BC0181E0BEDFA4
:1018700088E0FE01A9E1B2E001900D928A95E1F7BE
:10188000DF91CF91089540E250E0BC0182E0AECFFD
:1018900046E050E0BC0182E0A9CF43E050E0BC014B
:1018A00082E0A4CF9091F70292FB222720F928171B
:1018B00079F080FB92F99093F7026091F6027091B3
:1018C000F70284E090E00E944B2282E00C946F03C8
:1018D00008950F93CF93DF93C9EDD2E048815981EA
:1018E0006A817B8188E090E00E9443226C81262FF0
:1018F00060E070E0CB01622F83E20E943122DF9131
:10190000CF910F9108958DE18093D9028FEF80934D
:10191000DA028093DB0286E98093DC021092DD021A
:1019200089ED92E0D6CF8091DD02833018F48F5F8D
:101930008093DD0289ED92E0CCCF8091DD028115AC
:1019400019F081508093DD0289ED92E0C2CFA0E0D2
:10195000B0E0EDEAFCE00C94D221082FF62E142F13
:10196000E22E8091D90280FF32C0E82FE695E695FD
:10197000F0E0E95AFE4F90819093D7028C7F84303B
:1019800059F5842F473908F086E9602F7F2D9CD9BF
:10199000D62EC72EB82E8091D90280FF0DC0C0E090
:1019A000D0E02B2D4C2D6D2DCE010E943D022196B5
:1019B000C830D105B1F70ADA0093DA02F092DB02FF
:1019C0001093DC02E11419F089ED92E082DFCDB7CB
:1019D000DEB7E9E00C94EE21923071F70091DA0263
:1019E000EBCFE9EDF2E0818121E043816281885F04
:1019F000AECFE9EDF2E0818121E043816281885040
:101A0000A6CFE9EDF2E0628128E0620F08F46FEF03
:101A100021E0438181819BCFE9EDF2E0628128E002
:101A2000621B08F460E021E04381818190CFE9ED01
:101A3000F2E0438128E0420F08F44FEF21E0628199
:101A4000818185CFE9EDF2E0438128E0421B08F473
:101A500040E021E0628181817ACF80911201813062
:101A600069F58091F60287FF29C00E948503809363
:101A7000EF0140E250E062E972E08EEE91E00E94F8
:101A80005C22892BD1F080E2EEEEF1E0A2E9B2E037
:101A900001900D928A95E1F7E091B202F091B302C4
:101AA000309759F00480F581E02D309731F086E0D1
:101AB0008093EE018EEE91E0099508950E948503D2
:101AC0008093E60148E050E064EB72E086EE91E03E
:101AD0000E945C22892B89F388E0E6EEF1E0A4EB1A
:101AE000B2E001900D928A95E1F7E091B202F09197
:101AF000B302309711F30280F381E02D3097E9F2C1
:101B000086EE91E0D9CFCF93C82F8115C1F08450D4
:101B1000813A70F580911201813021F48091F602B2
:101B200087FD0FC0E8EEF1E08081C817E9F031963B
:101B300081E0EE3EF807C1F78C2F76DB8EDFCF9188
:101B40000895EC2FE695E695E695F0E0E251FE4F1C
:101B5000828190E04C2F477021E001C0220F4A950E
:101B6000EAF78223892B41F38C2F92DB76DFE4CFD7
:101B70008C2F805E883060F4C77081E001C0880FD0
:101B8000CA95EAF7C091E902C82BC093E902D6CF03
:101B90008C2F855A833028F48C2F8452990BF6DAD7
:101BA000CECFEC2FE85AEB3148F4F0E0EE0FFF1FF8
:101BB000E355FE4F8081918110DBC1CF8C2F8D5C6E
:101BC000833108F0BCCF61E08C2FC1DBB8CF811529
:101BD00049F1982F9450913A10F45ADB3ECF982F48
:101BE000905E983058F4982F81E091FD84E090FD4C
:101BF000880F92FD82950E94AC03F0CF982F955AE2
:101C0000933018F480E090E0C1CA982F985A9B3125
:101C100018F480E090E0E1CA982F9D5C933110F4B5
:101C200060E095CB0895811531F09091E902982BF1
:101C30009093E90212CF0895811519F00E94AC0328
:101C40000CCF08951092E90280911201813001F5C4
:101C50008091F60287FF1CC0E0EFF1E08EE1119267
:101C60008A95E9F780E090E091DA80E090E0B5DADB
:101C70001092F802F2DEEBECF2E086E011928A9527
:101C8000E9F71092C9021092C8021092CA0237CB2B
:101C9000E8EEF1E086E0E3CFD5DF88E19CE00FB627
:101CA000F894A895809360000FBE90936000FFCFDA
:101CB000AAE2B0E0EEE5FEE00C94D82181E192E0EA
:101CC000FC0101962091F100208322E089319207E6
:101CD000B9F780911202893009F457C0C8F48230F4
:101CE00009F4B2C0833009F482C0813081F180915F
:101CF000E80083FFE6C080911102909112029A30B1
:101D000008F0DFC0E92FF0E0E258FD4D0C94C3214C
:101D10008A3009F489C08B3051F7809111028132E9
:101D200031F78091150290911602892B01F780916D
:101D3000E800877F8093E8005ADC81E090911302ED
:101D4000911101C080E0809312017CDFD0CF80919F
:101D50001102813A61F68091E800877F8093E80064
:101D60008091150290911602892B59F060E080E075
:101D700090E070E0AFDB8091E8008B778093E80023
:101D8000B6CF68E089E192E0F4CF80911102813210
:101D900009F0ADCF8091150290911602029708F0DC
:101DA000A6CF8091E800877F8093E8008091E800CB
:101DB00082FF18C02091F3008091F200922F0297C9
:101DC00031F48091F100813011F0863021F480915E
:101DD000F100809311018091E8008B778093E800F7
:101DE00006DC85CF80915E028111E0CF80CF8091AB
:101DF0001102813A09F07BCF809115029091160271
:101E0000892B09F074CF8091E800877F8093E800E8
:101E10008091E80080FFFCCF809112018093F10057
:101E20008091E8008E77DACF80911102813209F03B
:101E30005ECF8091E800877F8093E800D8DB8091B7
:101E400014028093100153CF80911102813A09F05E
:101E50004ECF8091E800877F8093E8008091E80072
:101E600080FFFCCF80911001D9CF803889F0823873
:101E700041F5809115028F70873018F58093E90045
:101E80008091EB0085FB882780F91092E90006C05D
:101E900080915D02880F90910E02892B9091E8004D
:101EA000977F9093E8008093F1001092F100809169
:101EB000E8008E7723C0811116C080911302813013
:101EC00009F18091E80083FF0AC08091E800877FD4
:101ED0008093E8008091EB0080628093EB00AA96EB
:101EE000E3E00C94F421823061F7809113028115B4
:101EF00079F01092E9008091E800877F8093E800F4
:101F000076DBDFCF933009F080E080935D02F1CF84
:101F1000809115028F70282F2150263090F68093E3
:101F2000E9002091EB0020FFE4CF933031F4809161
:101F3000EB0080628093EB00DCCF9091EB0090612E
:101F40009093EB0021E001C0220F8A95EAF72093DD
:101F5000EA001092EA008091EB008860EBCF8111DB
:101F6000B0CF809113028F77182F8091E300807893
:101F7000812B8093E3008091E800877F8093E800C5
:101F800036DB8091E80080FFFCCF8091E300806821
:101F90008093E30083E0111101C082E080935E0230
:101FA00090CF8058823008F08CCF2091130230916E
:101FB00014022C3D83E0380789F583E08A838AE2A6
:101FC00089834FB7F894DE01139620E03EE051E29A
:101FD000E32FF0E050935700849120FF03C08295D7
:101FE0008F703F5F8F708A30B8F0895C8D931D923F
:101FF0002F5F243169F74FBF8091E800877F80937E
:10200000E8006AE270E0CE01019664DA8091E800AF
:102010008B778093E80055CF805DE8CF832F90E0E9
:102020008330910519F160F48130910509F46CC099
:102030008230910509F045CF8BE3E8EAF1E029C051
:1020400020911502309116028132910509F453C096
:102050008232910509F035CF2130310508F45CC09A
:1020600009F02FCF88EBECEAF0E013C0822F90E06C
:10207000213099F182309105B9F1009709F021CF13
:10208000E5E2F2E0E4918E2FE5E2F2E0009709F458
:1020900018CF2091E800277F2093E80020911702B5
:1020A000309118028217930708F49C0140E0211533
:1020B0003105B1F5411134C08091E80082FDA6CF11
:1020C00080915E02811509F4A1CF853009F49ECF7D
:1020D0008091E80083FFF0CF99CFEBE0F2E0E4914C
:1020E0008E2FEBE0F2E0D2CFE5EFF1E0E4918E2F1E
:1020F000E5EFF1E0CBCF2130310550F009F0E1CE32
:1021000089E0E3EDF1E0C5CF82E1E3EEF1E0C1CF9C
:1021100089E0EAEBF1E0BDCF84E4E4E6F1E0B9CF99
:1021200080915E02811509F471CF853009F46ECF7C
:102130008091E80083FD6ACF8091E80082FDBCCFEA
:102140008091E80080FFB3CF4091F3008091F200CE
:10215000942F2115310519F08830910550F041E098
:10216000089709F040E08091E8008E778093E800BE
:102170009ECF44914093F100319621503109019650
:10218000E8CF803809F09DCE8091E800877F80936A
:10219000E80080910F028093F10089CE811191CEE9
:1021A00080911302182F823008F08BCE8091E800C6
:1021B000877F8093E80010930F0219DA111599F0C8
:1021C00084E080935E0242E061EC81E0E0D942E28B
:1021D00061EC82E0DCD980915E02843051F482E0CF
:1021E000809313016ECE8091E30087FDE9CF81E0FB
:1021F000E8CF81E0F5CF8F929F92AF92BF92CF92BE
:10220000DF92EF92FF920F9388E090E00E941822F5
:102210004B015C016093D9029092DA028093DB0259
:10222000B092DC021092DD021092DE021092DF0208
:102230001092E00283E290E00E9410229401A50136
:102240008092D9023093DA02A092DB025093DC0232
:102250008093DD021092DE021092DF021092E00203
:102260000F91FF90EF90DF90CF90BF90AF909F9035
:102270008F900895A0E0B0E0E0E4F1E10C94D32168
:102280008FE6E82E81E0F82EC4E8D2E0D12C01E000
:1022900010E0F70181917F018F3FC1F1F894E82FA1
:1022A000E295EF70F0E021A18F70402F01C0440F44
:1022B0008A95EAF7922F942B91A392A1842F80956F
:1022C000892382A3789400C0E3E7F1E041E0C12CC8
:1022D00020E08D2D833009F04DC0211145C08827A5
:1022E0007F9B8395811509F457C080E0C82A2F5F32
:1022F000440F3196243069F7F70182918F3F11F036
:102300000E94480280EA8A95F1F7C882D394219608
:102310008D2D843009F0BDCF44E050E064E872E0D8
:102320008CE892E00E945C22892BC1F180918402AA
:1023300090918502A0918602B091870280938C02D1
:1023400090938D02A0938E02B0938F0281E08093D0
:1023500083020E9473098093810290938202CDB719
:10236000DEB7E8E00C94EF21233021F48FB18095A3
:102370008170B8CF30813F3F09F4B7CFA32FA2952A
:10238000AF70A05EB0E08C9190E03F7002C0959578
:1023900087953A95E2F7ECCF842FA8CF80918302FE
:1023A0008115E9F2C0918102D09182020E947309E5
:1023B0008C1B9D0B059798F244E050E06CE872E0AE
:1023C00088E892E00E945C22892B81F080918C0247
:1023D00090918D02A0918E02B0918F02809388021D
:1023E00090938902A0938A02B0938B021092830289
:1023F000B6CF6091D9026695669570E041E050E0F5
:1024000085E091E00E944F22892B19F481E08093AE
:10241000D8020E947309809368029093690208951C
:102420009091D90290FF2CC0811559F1883058F550
:102430008F73880F880F9091D9029370892B8093A6
:10244000D902611519F089ED92E043DA6091D90261
:102450006695669570E041E050E085E091E00E946D
:102460004F22892B91F01092D80281E080936B0269
:1024700020E04091DC026091DB028091DA0267CAC1
:10248000089581E0D6CF87E0D4CFB3DFEECF80913F
:10249000D902869586958F5F883008F081E061E0EB
:1024A000BFCF8091D90286958695815009F487E047
:1024B00061E0B6CF1092590280915802811549F01F
:1024C0008091D90281608093D90260E086958695DB
:1024D000A7DF8FCF48E050E067E170E081EE92E047
:1024E0000E94222210925A02089585E08093E10210
:1024F0001092E2028FEF8093E3021092E4029FE7D2
:102500009093E5028093E602E5CFA0E0B0E0EBE82F
:10251000F2E10C94D3210E945E0AAB01BC0140930E
:102520004F025093500280935102709352021091C7
:10253000570280911401823009F415C1D0F4811141
:1025400020C01092000140935302509354026093B4
:102550005502709356028091E102837021F08091C0
:10256000E102869586958093570281E0809314015D
:1025700003C0833009F400C1CDB7DEB7E8E00C94A6
:10258000EF218091040118132AC09091E102937009
:102590002091030130E081E09217130609F480E0F6
:1025A000809302018091E60290910101981739F021
:1025B0008093010140E060E080E00E946A071230F1
:1025C00009F453C070F4111111C0809102018115FA
:1025D00059F040E060E080E00E946A0705C081E0B9
:1025E000DFCF1F3F09F484C080E01DC0809100014F
:1025F000C82FCC0FC80F0C2F0D5FF02E0D3010F030
:102600004CE0F42E6091E2027091E3028091E402CA
:102610000E946406E62ED72EC82ED0E0CF15A8F073
:1026200081E00C3008F7909100019F5F90930001CA
:10263000811195C082E08093140180910201811183
:102640008EC011117FC083E091CFFE01E55EFE4F89
:1026500080A590910101892331F02C2D4D2D6E2DF7
:10266000CE010E9441082196D9CF80910001C82F48
:10267000CC0FC80F0C2F0D5FF02E0D3010F03CE08A
:10268000F32E3091E5023695369521E0320F08F4AD
:102690003FEF409153025091540280E090E0439FFD
:1026A000040E811D539F800D911D1124850F911DD6
:1026B000E82ED0E0CF1508F0B3CFFE01E55EFE4F67
:1026C00080A590910101892389F06091E2027091C7
:1026D000E3028091E4022E2D4C2F0E943B070E94C2
:1026E0006406472F282FCE010E9441082196E2CF91
:1026F00090915402A0915502B0915602892F9A2FC1
:10270000AB2FA69597958795A695979587958370F6
:1027100090E0A0E0B0E082309105A105B105C1F0E4
:1027200083309105A105B105B1F040E060E010975C
:102730009040814091F464E180E00E946A0782E069
:102740008093140140E060E080E00E946A0714CFAB
:1027500044E160E0F1CF44E164E184E1EECF1115A2
:1027600009F40ACFEFCF109304018091E102837046
:102770008093030108D867CF80915A028111AADEA5
:10278000E0905302F09054020091550210915602CD
:102790000E945E0ADC01CB018E199F09A00BB10BD0
:1027A0004097A105B10508F4E7CE10921401E4CEDC
:1027B000FF920F931F93CF93DF93C62FD42FF22E48
:1027C0008115A9F06093D5020E94730980932902B4
:1027D00090932A0281E0C1FD84E0C0FD880FC2FD14
:1027E000829521DACDB7DEB7E5E00C94F221809135
:1027F000D502681330C00091290210912A020E946C
:102800007309801B910B883C910528F51D2F105EE4
:10281000CD1791F0C77001E0802F01C0880FCA95D5
:10282000EAF70ADA183040F48D2F877001C0000FE4
:102830008A95EAF7802FF7D98F2D65D98F2DC7D9C3
:1028400081E0D1FD84E0D0FD880FD2FD8295183063
:1028500048F6F2D9C7CF81E0C1FD84E0C0FD880F02
:10286000C2FD8295F6CFA0E0B0E0E9E3F4E10C947C
:10287000D3217C01FC018481811509F478C061E0D9
:10288000C7010E941106EC01C1348EE7D80709F098
:102890004FC0F7018581811559F18091D1028F5F79
:1028A0008770982F853010F080E090E02091D10261
:1028B000287F922B9093D1022FEF829FC001112489
:1028C00095958795959587950E9473024091D102C1
:1028D0005091D2026091D3027091D40283E190E0D2
:1028E0000E9443228091EE029091EF020E948102A9
:1028F000F7019581911509F480C41092D5029E01CB
:1029000030572332310508F086C484E090E00E94FD
:102910001D228093F6029093F702FE01E150F047EA
:10292000E232F10508F03FC0E857FD4D0C94C32199
:10293000FE01E851FC47E730F105D0F6E655FD4DC4
:102940000C94C32126E241EE61EEF701858130DF70
:102950008091F002877059F0F7018581811539F077
:102960008091F70282FF03C082E00E946F03CDB71F
:10297000DEB7E8E00C94EF2127E245EE65EEE5CF07
:1029800026E241EE60EEE1CF27E245EE64EEDDCFD8
:1029900026E241EE62EED9CF27E245EE66EED5CFD4
:1029A00028E241E0EBCF8091F60281608093F6024D
:1029B0006091F6027091F70284E090E00E944B2251
:1029C00041D9C6CF8091F70288608093F702F0CF9B
:1029D0008091F6028260EACF8091F6028460E6CFB1
:1029E0008091F6028860E2CF8091F7028160EDCF9E
:1029F0008091F7028260E9CF8091F6028061D6CFA4
:102A00008091F6028062D2CF8091F6028064CECFB0
:102A100019D98091F6028068C9CF8091F6028C6046
:102A2000C5CF8091F7028360D0CF8091F6028E7F70
:102A3000BDCF8091F702877FC8CF8091F6028D7F4E
:102A4000B5CF8091F6028B7FB1CF8091F602877F60
:102A5000ADCF8091F7028E7FB8CF8091F7028D7F46
:102A6000B4CF8091F6028F7EA1CF8091F6028F7D48
:102A70009DCF8091F6028F7B99CFE4D88091F602AA
:102A80008F7794CF8091F602837F90CF8091F70269
:102A90008C7F9BCF9091F602892F8B7F92FF846071
:102AA000877F92FF886082CF8091F702982F909560
:102AB00090FB80F990FB81F988CF9091F602892FE5
:102AC0008F7B96FF806472CFBDD89091F602892FDC
:102AD00097FB87F980586ACF61E08EE090E00E9412
:102AE000312266CF60E0F9CF9091F602892F8F7E78
:102AF00094FF80615BCF9091F602892F8E7F90FFCB
:102B0000816054CF9091F702892F877F93FF88606F
:102B10005CCF89E292C389E27BC38272FE01E052FC
:102B2000F847EB30F10508F0B8C0EF54FD4D0C94B8
:102B3000C3218091E9028272FE01E054F847EF3030
:102B4000F10508F0AAC0E454FD4D0C94C321809116
:102B5000D90280FF0CC08E7F8093D90289ED92E06C
:102B60000E94690C1092D8020E94E606F1CE8160A4
:102B70008093D90261E08695869552DCE9CE811575
:102B800021F08FDCE5CE8115E1F381DCE1CE81150A
:102B900029F00E94F90CDCCE8115D9F30E94F10CCA
:102BA000D7CE811529F00E940C0DD2CE8115D9F314
:102BB0000E94010DCDCE811529F00E94220DC8CEB4
:102BC0008115D9F30E94170DC3CE811529F00E94FB
:102BD0009D0CBECE8115D9F30E94930CB9CE809185
:102BE000E102837011F4109214018091E1028C7F54
:102BF00081608093E1020E946407AACE8091E10285
:102C0000837011F0109214018091E1028C7FF1CF5A
:102C10008091E10291E089278093E10210921401F2
:102C2000EACF811529F00E94880792CE8115D9F349
:102C30000E947F078DCE811529F00E94A30788CEC0
:102C40008115D9F30E949C0783CE811529F00E943B
:102C5000B4077ECE8115D9F30E94AA0779CE8115DB
:102C600029F00E94C90774CE8115D9F30E94BE07CE
:102C70006FCE811529F00E94DD076ACE8115D9F348
:102C80000E94D40765CE811529F00E94F40760CE1A
:102C90008115D9F30E94E6075BCE9E01205E324586
:102CA00020323105A0F4911124C0CF7181E090E071
:102CB00002C0880F991FCA95E2F7EC01682F83E0E4
:102CC00090E00E943122CE010E949B0241CE9115DC
:102CD00081F1CB358CE7D80711F1CC358CE7D807DB
:102CE00099F0CA358CE7D807C1F0C1308CE7D80716
:102CF000F1F0C3308CE7D807A1F0C115DC47C9F467
:102D00000E94220E0E94D20B8091F702002482FFC3
:102D10000394802D0E94520C1BCE81E0FBCF80E0FB
:102D2000F9CF6FEF7FEF80E090E00E944B220E948E
:102D30004C0EF70100811181911509F445C0C801BD
:102D40000E94DD05C82F682FC8010E941703B80133
:102D50008C2F0E94B4030E94F104D82FC92FF701D1
:102D6000D580068102950F708091F002877001F185
:102D7000CD2CD114F1F0892F807F803461F08D2F1C
:102D8000805E8830A8F0892F807E803221F4D23096
:102D900078F0011569F08091F70282FF09C082E0A6
:102DA0000E946F038091F0028770CC24C39481113C
:102DB000C12CEC2FE295EF70C03C08F06AC0F0E047
:102DC000E553FD4D0C94C321C8010E942F03C82F69
:102DD000BECF1C2F1F70C03110F01295107FD11480
:102DE000B9F0111569F08D2F805E883010F0D11187
:102DF00009C08091E902812B8093E9020E942D0D88
:102E00008D2F3FC08091F802812B8093F802F6CF7E
:102E10008D2F0E94E70D1115E1F18D2F805E883016
:102E200010F0D11104C0812F0E94AC0306C0109590
:102E30008091F80281238093F8020E942D0D29C011
:102E40001C2F1F70C07FC03211F01295107FD1303F
:102E500040F009F463C0D11409F46DC00115A9F163
:102E6000CFCF8091F70282FD2CC0D11469F01115EB
:102E700039F08091E902812B8093E9020E942D0DA7
:102E800080E00E94830D05C080E00E94E70D1111D3
:102E9000CACFC11409F4B8C08091F00280FDB4C05B
:102EA000F70115828695869586950E94A602C70130
:102EB000DADC8091F0028695869586950E94B402B0
:102EC000A3C0D11489F0013020F4812F0E94130E89
:102ED000E0CFF9F68091EA02912F98231917C9F2F1
:102EE000812B8093EA02D5CF0111D3CF812F0E948D
:102EF0001C0E9091EA02812F892329F0812F809561
:102F000089238093EA028091EB02912F982309F4A0
:102F1000C0CF109518231093EB02BBCFD11421F032
:102F2000063008F0B6CFD1CF053008F0B2CF812FF0
:102F30000E941C0EAECF0115D1F3D93349F48FEFA7
:102F400097EE23E0815090402040E1F700C0000060
:102F50008D2F0E94E70D9DCF8C2F869586958370CF
:102F6000813060F009F095CF8D2F9C2F9370D11098
:102F700002C080E090E00E94ED088BCF8D2F9C2F47
:102F80009370D11002C080E090E00E94C60881CF0B
:102F90006D2D8D2F0E94A7097CCF8C2F837009F097
:102FA0005DC0D1102FC04D2F429546954770440FFC
:102FB000440F2D2F2F7030E0042E02C0220F331F3C
:102FC0000A94E2F780E090E0D4FF09C08FE090E03F
:102FD00002C0880F991F4A95E2F780959095C69593
:102FE000C695C370C23089F1C33061F14091EC02E3
:102FF0005091ED02C13021F1822B932B8423952334
:103000000E949B020E94B70860E0C7010E9411065F
:10301000F7018581811509F4AACC0E945E0A6093AC
:10302000F2027093F3028093F4029093F502809180
:10303000F102811509F49BCC1092F1023BDA97CC96
:10304000242B352B822B932BDBCF822B932B2091A0
:10305000EC023091ED0282279327D2CFD11491F167
:10306000C0FFD0CF4D2F429546954770440F440F77
:103070002D2F2F7030E0042E02C0220F331F0A9430
:10308000E2F780E090E0D4FF09C08FE090E002C05A
:10309000880F991F4A95E2F780959095C695C69539
:1030A000C370C230B9F0C33091F04091EE0250913C
:1030B000EF02C13051F0822B932B842395230E9481
:1030C000A002A0CF823070F69DCF242B352B822B0F
:1030D000932BF5CF822B932B2091EE023091EF02B0
:1030E00082279327ECCFCF70D11439F08C2F0E9418
:1030F000A6028D2F0E94130E85CF8D2F0E941C0ECD
:103100008C2F0E94B4027ECFD23F99F170F4D03F51
:10311000C9F0D13F91F0D11409F45BC0011509F455
:1031200055C08D2F0E94830D6DCFD33F49F1D43F01
:1031300091F79091F70292FD31C08C2F8F71D114CD
:1031400001F31BC0D11499F0053008F05BCFCF71AB
:1031500081E090E002C0880F991FCA95E2F7EC0168
:103160008091EE029091EF028C279D27A8CF063028
:10317000ECCF8C2F8F71D110C4CF0E94A60242CF0A
:1031800080E090E0D11409F49ACFCF7181E090E013
:1031900002C0880F991FCA95E2F791CFD11461F050
:1031A0008C2F8F7192FFE9CF982F990F990F990F5C
:1031B00093609093F002E1CF81E00E946F030230B0
:1031C00008F420CF82E00E946F031CCF8C2F8F71F8
:1031D000D4CF011579F0D93349F48FEF97EE23E07E
:1031E000815090402040E1F700C000008D2F0E94E8
:1031F000E70D08CF8C2F8F7184CFC6318CE7D807AD
:1032000009F097CC8091D602811509F484CC85E32E
:103210000E94480914C08091E902C6312CE7D20708
:1032200009F07BCC8A7A91E0811101C090E0909303
:10323000D602811509F46DCC85E30E9414090E9421
:103240002D0D86CB80913903803170F48091380345
:10325000811551F0E091FA022091F9023091340386
:10326000409133032E1301C00895BF0187E0E89F0A
:10327000F0011124DF01A550BD4F14968C911497D5
:10328000811551F111968C911197831325C08C9162
:10329000841322C015968C91159781111DC012962A
:1032A0008D919D91A0913503B09136038A1B9B0BA4
:1032B000883C910588F4809139038F7080618093F8
:1032C0003903EF5FFC4F80818F708061808383E3DF
:1032D00093E0C9DA0C9465036F5F7F4FFB01E770E1
:1032E000C1CFADE0B0E0E7E7F9E10C94CE218C016D
:1032F00086E0F801DE01189601900D928A95E1F7BB
:10330000F801F580C48083E3882E83E0982E7090C6
:10331000370371101FC0C114D1F0F11409F414C1A6
:10332000C8010E943606811509F40EC187E0F80134
:10333000D40101900D928A95E1F78C2D813031F402
:1033400080913303909134030E942C067BDFFF248D
:10335000F39453C0E080A280B380D0903803809172
:103360003503909136039501281B390BD11409F4CC
:10337000B4C0283C310508F08CC0C11441F39091D1
:103380003403C18080913903803108F055C0C912DF
:1033900013C0909133039E110FC0F11047C08F707E
:1033A00080618093390383E393E05DDA8091390390
:1033B000F8018683F12C21C0F11038C040E06C2D5B
:1033C0008E2D0E94460340E06C2D8E2D0E944603F8
:1033D000F82E8111EFCF888599850E942C06292F20
:1033E00022952F70903468F49F70223090F09115E0
:1033F000A1F0F8019681903180F48F2D2D96EDE0AB
:10340000E9C72A5F2F70223060F0C8012CDAFD2C4A
:10341000F4CF911511F0811581F3805E883068F347
:10342000F4CF803F50F3815F8330F9CF809139032F
:10343000816080933903BECFC91207C090913303D6
:103440009E1103C0F11409F469C0C8010E94360638
:10345000811509F479C0F11409F476C0809139031B
:10346000803270F0209133033091340329833A8302
:10347000AB82BC827D821E828F83CE010196F3D9FE
:1034800087E0F801A3E3B3E001900D928A95E1F79C
:103490005DCF80913903803148F483E393E0E3D931
:1034A000F40187E011928A95E9F784CFC11409F4F9
:1034B0004ECF2091340391812913C7CF90913303CC
:1034C0009E11C3CFF110C1CF8683C801CCD9F401BE
:1034D00087E011928A95E9F73ACF283C310500F749
:1034E000C11409F434CFF11479F19091340381813E
:1034F000981320C0809133038E111CC08091390332
:1035000080FD0FC0803168F08683807F803F39F076
:103510008681982F907F905F8F70892B8683C8015A
:10352000A2D987E0F801A3E3B3E001900D928A9558
:10353000E1F70DCFC8010E9436068111A1CF80911D
:103540003903816080933903C8018DD900CFABE185
:10355000B0E0ECEAFAE12BC74E8B5F8B688F798F76
:103560008A8F192F9B8F91111092F8021D8A86E085
:10357000FE017696DE011F9601900D928A95E1F785
:103580000A8D011561F00B8B1C8B61E0CE010F964B
:103590000E94110661E0CE010F960E9411060B8B6E
:1035A0001C8B87E0FE013F96DE01189601900D927C
:1035B0008A95E1F7CE01089694DE81112EC0209104
:1035C000F9023091FA0287E0AE01485F5F4FFA01DD
:1035D00047505109DA0101900D928A95E1F78C85E7
:1035E0008115D9F0822F90E08395877090E0AC012F
:1035F00034171506D9F097E0929FD0011124A550F9
:10360000BD4F9E012F5F3F4FF90101900D929A959A
:10361000E1F74093F9020E9465038091FA029091CC
:10362000F902891310C06B96E4E0DDC60E94220EF9
:103630001092F9021092FA02E3E3F3E087E01192AC
:103640008A95E9F7EACF27E0829FC00111248550CF
:103650009D4F47DE811539F38091FA029091FB026C
:10366000019687708093FA02D8CFA6E0B0E0EAE333
:10367000FBE19DC60E9473098C018091900290919C
:1036800091028017910771F019821A820E947309C2
:10369000BC0149815A8180E090E059DF009390029B
:1036A000109391022696E4E09EC6CDB7DEB76497EC
:1036B0000FB6F894DEBF0FBECDBF85B7806885BF5B
:1036C00085B7806885BF84B7877F84BF0FB6F894BD
:1036D000A8958091600088618093600010926000DE
:1036E0000FBE80E890E00FB6F8948093610090934D
:1036F00061000FBE81E08093130181E696E0809324
:10370000E4019093E5010E94960B0E94470B809183
:10371000E20084608093E200789480915E028115DB
:1037200099F08091E9001091EC008F7010FB112747
:1037300017F9182B1092E9008091E80083FD0E9490
:10374000580E1F701093E90082E084BD93E095BD90
:103750009AEF97BD80936E00E3E7F2E098E0119254
:103760009A95E9F78093720210E060E0812F0E9441
:10377000020861E0812F0E940208812F11E0813050
:10378000A1F78FE891E00197F1F700C0000010E089
:1037900080917202181708F4ABC0AFE6EA2EA1E0E0
:1037A000FA2E03E711E0F70181917F018F3F11F0BD
:1037B0000E9448020E151F05B1F703E711E0F8015A
:1037C00081918F018F3F11F00E94480281E00737FD
:1037D0001807A9F787EF0E94480280EF0E9448026D
:1037E00010928C021092880210928D02109289021F
:1037F00010928E0210928A0210928F0210928B0207
:1038000083E190E015D66093D1027093D202809349
:10381000D3029093D40267702FEF629FC0011124EE
:1038200095958795959587950E94730280E090E025
:1038300004D6833E9E4FC1F163EE7EEF80E090E0C0
:103840002AD660E082E090E00CD681E090E08093A0
:10385000EC021092ED0261E083E003D660E074E1D7
:1038600084E090E018D60E94830C0E94751260E0FC
:1038700070E0AB018FE090E006D61092D10210927A
:10388000D2021092D3021092D40281E08093D1022E
:1038900082E10E94730241E050E060E070E083E169
:1038A00090E0F1D50E946A1282E090E0B9D5809351
:1038B000630284E090E0C1D58093F6029093F70212
:1038C0000E943A118FEF96E721E08150904020400E
:1038D000E1F700C000000E943A118091880280FF49
:1038E00019C06FEF7FEF80E090E0D5D50E94D20B3A
:1038F00060E0812F0E942208082F61E0812F0E9442
:103900002208E12FF0E0E059FD4F880F802B8083E3
:103910001F5F3ECF83E090E083D590E00E949B0242
:103920008091EE029091EF020E9481020E943F0876
:1039300081E080935A0248E050E067E170E081EE58
:1039400092E05ED510925A028091E102843010F428
:103950000E94751280915B0281112FC089ED92E067
:103960000E94FB108091D902843008F0A6C00E940A
:10397000830C89ED92E00E94FB108091D902843083
:1039800008F09BC0837084608093D9028091DC0230
:10399000873918F086E98093DC021092D8020E94E1
:1039A0003B028091D90280FF05C060E08695869534
:1039B0000E94101281E080935B0289EA809380006C
:1039C00089E08093810086E091E08093B202909339
:1039D000B30255245394CE0101968B8B9C8B80911E
:1039E0005E0200E110E4E2E1FE2E853009F4CBC076
:1039F0000E943A1174E6A72E72E0B72E88E892E092
:103A00001C01FC01D5019D91808128E632E02A1736
:103A10003B0709F415C131969817A9F30FE512E099
:103A2000912CF10181901F01F50161905F016814F3
:103A3000D1F16824E12CF12C77247394862D872111
:103A400041F1482C472061E0C62E0E2C01C0CC0C61
:103A50000A94EAF7F801808190E08C21892B91F497
:103A6000E9829A820E9473098B839C835D8291E034
:103A7000411001C090E09E8349815A816B817C8115
:103A80008D8165DD411005C0C094F80180818C21D5
:103A90008083770C8FEFE81AF80A84E0E816F104C7
:103AA00069F6F501829293940F5F1F4F892D843040
:103AB00009F0B7CF0E945E0AC6C08091D902803259
:103AC00008F464CF83708C615FCF80915E02843094
:103AD00069F10E9467020E946B020E946F020E94BD
:103AE00085120E94FB0610925C0288E190E00FB6FE
:103AF000F894A895809360000FBE1093600083B780
:103B0000817F846083BF83B7816083BF7894889509
:103B100083B78E7F83BF0FB6F894A895809160001D
:103B2000886180936000109260000FBE0E943A117D
:103B3000E8E8F2E0AFE5B2E080E021912D9391E07A
:103B4000211101C090E0892B92E0EC38F907A9F728
:103B50008115C9F080915D028115A9F009BDF9BCFC
:103B600009B400FEFDCF8091D8008F7D8093D800EE
:103B70008091E00082608093E0008091E00081FD10
:103B8000FCCF0E94220E80915E02853009F49DCF09
:103B90000E94220E0E94B7080E945A120E946702D9
:103BA0000E946B020E946F028FEF99E628E181501C
:103BB00090402040E1F700C000000E945E028FEFBD
:103BC00091EE24E0815090402040E1F700C00000D9
:103BD0000E9461028FEF91EE24E0815090402040DE
:103BE000E1F700C000000E9464028FEF91EE24E034
:103BF000815090402040E1F700C000000E94670221
:103C00008FEF91EE24E0815090402040E1F700C01A
:103C100000000E946B028FEF91EE24E081509040F3
:103C20002040E1F700C000000E946F028FEF93EC8C
:103C300029E0815090402040E1F700C00000D8CE3C
:103C40009813ECCE12DD8091D802811509F441C0A1
:103C50008091D702E091D902E695E695E81BE093C2
:103C60006A0200ED17E043E6E42E46E0F42E8230CF
:103C700059F4E695F0E0E75DFC4FE4910E2F10E07B
:103C80005FE0E52E57E0F52E80916B02811561F023
:103C900010926B020E9473098093680290936902EC
:103CA00010926C0210926D020E94730920916802BA
:103CB00030916902821B930B8F3F9F4750F4200F76
:103CC000311F209368023093690288E692E0F70181
:103CD00009950E94851280917B02811551F0809197
:103CE000750210927B02809376028091730280931A
:103CF000740200E04BC0F09076021091750261E012
:103D0000802F0E942208E82E60E0802F0E94220867
:103D1000EE0C8E29202F30E0D901A059BD4FEC9137
:103D20009E2F9370891789F1EE0FEE0FE82BEC931D
:103D3000EF70F0E0E15AFE4F22593D4F8081F901CA
:103D40009081890F84300CF44AC0412F50E0BA01B1
:103D50006395637070E0F616170679F04D585D4F65
:103D6000902F9F77FA0194831F5F13701093750251
:103D7000909173029F5F90937302982F990F990B04
:103D800064E070E0EDD2F90180830F5F80917202F0
:103D9000081708F4B0CF90E00DEF1CEF8091760289
:103DA00020917502281709F44EC0E82FF0E0E95879
:103DB000FD4FD080ED2CE894E7F88F5F83708093FF
:103DC0007602809174028F5F80937402D7FC17C0D3
:103DD000EF8218870E94730923E0F22E16C08D3FF0
:103DE00064F6412F50E0BA016395637070E0F616F7
:103DF000170619F24D585D4F902F9068B3CFEF82A0
:103E000008870E94730932E0F32EBC0189879A87E4
:103E1000FB865C864F8158858F2D91E098DBED867F
:103E2000D7FE0FC00E870E947309BC018F87988B45
:103E3000F98A1A8A4D855E858F2D90E088DB91E0A6
:103E4000ADCF1E87F0CF91110E945E0A86E0EBECA9
:103E5000F2E0AB89BC8901900D928A95E1F7B090B0
:103E6000CC02D090CD021091CE02C090CF02009132
:103E7000D0021092CD021092CE021092CF02109278
:103E8000D002812F8D2909F441C0E0907E02F0908C
:103E90007F020E9473098E199F099C019091C902AB
:103EA000911509F4CEC02531310580F19F3F19F0FD
:103EB0009F5F9093C902D11459F00E94720891E05B
:103EC0001D140CF09FEF899F802D11248093CD024B
:103ED000111559F00E94720891E011160CF09FEF35
:103EE000899F802D11248093CE028091CD0281156F
:103EF00069F0F090CE02F11449F00E9464088093BA
:103F0000CD028F2D0E9464088093CE02802F8C29D1
:103F100009F441C0E0907C02F0907D020E94730998
:103F20008E199F099C019091C802911509F484C0D3
:103F30002135310580F19F3F19F09F5F9093C802B2
:103F4000C11459F00E94920891E01C140CF09FEFEC
:103F5000899F802D11248093CF02011559F00E9472
:103F6000920891E010160CF09FEF899F802D11248C
:103F70008093D0028091CF02811569F0F090D00239
:103F8000F11449F00E9464088093CF028F2D0E94A3
:103F900064088093D0028091CC028B1119C080916B
:103FA000CD02811511F08D1113C02091CE02211583
:103FB00011F012130DC09091D002911511F0091358
:103FC00007C03091CF02311103C0822B892B11F031
:103FD0000E947F0986E0EB89FC89ABECB2E001909E
:103FE0000D928A95E1F70E94B70890918002891797
:103FF00021F0809380020E945E0A8091F10281117B
:10400000EECCC090F202D090F302E090F402F09077
:10401000F5020E945E0ADC01CB018C199D09AE09F4
:10402000BF09813A9B4BAD40B10508F4D8CC0E9442
:10403000FB065092F102D3CC2B30310508F07DCF36
:10404000AACF2B30310508F033CF60CF1F921FB6B7
:104050001F9211248F939F93AF93BF9380915C0223
:10406000811113C08091210290912202A09123021C
:10407000B09124024196A11DB11D8093210290931D
:104080002202A0932302B0932402BF91AF919F918B
:104090008F911F901FBE1F90189578941F921FB686
:1040A0001F9211248F939F93AF93BF93809121020E
:1040B00090912202A0912302B09124020196A11DA9
:1040C000B11D8093210290932202A0932302B0930A
:1040D0002402BF91AF919F918F911F901FBE1F909F
:1040E00018951F920F920FB60F9211242F933F93A2
:1040F0004F935F936F937F938F939F93AF93BF93F0
:10410000EF93FF938091E10082FF09C08091E2006C
:1041100082FF05C08091E1008B7F8093E100809158
:10412000DA0080FF24C08091D80080FF20C08091F9
:10413000DA008E7F8093DA008091D90080FFA9C0D9
:1041400080E189BD82E189BD09B400FEFDCF81E037
:1041500080935E0280911002811109C00E94960B2B
:104160000E94470B8091E20084608093E20080917E
:10417000E10080FF1AC08091E20080FF16C08091AC
:10418000E2008E7F8093E2008091E2008061809364
:10419000E2008091D80080628093D80019BC85E04D
:1041A00080935E0283E0809313018091E10084FF9D
:1041B0002FC08091E20084FF2BC080E189BD82E1A5
:1041C00089BD09B400FEFDCF8091D8008F7D80931A
:1041D000D8008091E1008F7E8093E1008091E20021
:1041E0008F7E8093E2008091E20081608093E20004
:1041F00080910F02811509F452C084E080935E0221
:1042000080915E02843009F052C082E080931301F5
:104210008091E10083FF2CC08091E20083FF28C0E1
:104220008091E100877F8093E10082E080935E02CD
:1042300010920F028091E1008E7F8093E1008091C7
:10424000E2008E7F8093E2008091E20080618093A3
:10425000E20042E060E080E00E94C70A8091F00046
:1042600088608093F00081E08093130180931201B5
:10427000FF91EF91BF91AF919F918F917F916F913E
:104280005F914F913F912F910F900FBE0F901F9014
:10429000189519BC10925E021092100268CF80919E
:1042A000E30087FF02C083E0A9CF81E0A7CF81E0D0
:1042B000ADCF1F920F920FB60F9211241F932F9321
:1042C0003F934F935F936F937F938F939F93AF939E
:1042D000BF93CF93DF93EF93FF93E9EEF0E08081FC
:1042E0001091EC008F7010FB112717F9182B10821A
:1042F000C0EFD0E08881877F888378940E94580E31
:10430000E9EEF0E010828881886088831F70108356
:10431000FF91EF91DF91CF91BF91AF919F918F91DD
:104320007F916F915F914F913F912F911F910F90CE
:104330000FBE0F901F901895AA1BBB1B51E107C021
:10434000AA1FBB1FA617B70710F0A61BB70B881F25
:10435000991F5A95A9F780959095BC01CD010895B4
:1043600097FB072E16F4009406D077FD08D0E4DF03
:1043700007FC05D03EF4909581959F4F0895709568
:1043800061957F4F0895EE0FFF1F0590F491E02D8A
:1043900009942F923F924F925F926F927F928F92E9
:1043A0009F92AF92BF92CF92DF92EF92FF920F93C4
:1043B0001F93CF93DF93CDB7DEB7CA1BDB0B0FB6CE
:1043C000F894DEBF0FBECDBF09942A88398848888B
:1043D0005F846E847D848C849B84AA84B984C88421
:1043E000DF80EE80FD800C811B81AA81B981CE0F18
:1043F000D11D0FB6F894DEBF0FBECDBFED010895FD
:10440000DC01CB01FC01F999FECF06C0F2BDE1BD94
:10441000F89A319600B40D9241505040B8F7089583
:10442000F999FECF92BD81BDF89A992780B508957C
:10443000A6E1B0E044E050E0E5CFA8E1B0E042E022
:1044400050E0E0CFDC01A40FB51F4150504040F0D8
:10445000CB01840F951F2E9105D041505040D8F7C5
:104460000895262FF999FECF92BD81BDF89A019744
:1044700000B4021639F01FBA20BD0FB6F894FA9AAC
:10448000F99A0FBE08950396272FECDFEADF252F58
:10449000E9DF242FE7CF0196272FE4DFE2CFFC01ED
:1044A0004150504030F001900616D1F73197CF01BE
:1044B0000895882799270895FB01DC0104C08D9198
:1044C0000190801921F441505040C8F7881B990B86
:1044D0000895F894FFCFB309B809BA09BF09CF0905
:1044E000CF09CF09CF09CF09CF09CF09CF09C1091A
:1044F000C509C809CD09DC09E209E609350F5B0FDA
:10450000610F5B0F610FAF0FD10F610FC110CE10A4
:1045100015157B151D15E814EC142115F01425153F
:104520003115FC14741500153515041539155D1574
:1045300008153D1564150D1542154A15F414291575
:10454000F8142D151115461554156C157215E21435
:1045500019158215C014C414A214BC14C814CC14A8
:10456000D014A715BF15C315C715CC15D115D61571
:10457000DB15E015E515EA15EF15FE150816111601
:1045800016161B16201625162A162F16341639163F
:104590003E1643164816E916E91620172017AC17E1
:0E45A000C81749174917CD17731884188418C7
:1045AE0000FF00FFFF017009300C430C480C4D0C4E
:1045BE00000001000394309631FF00FF0A0BFF0943
:1045CE0008070602030405FF0100FF7A4067405406
:1045DE002D672D852D982D981A7A1A671A541A67F9
:1045EE00077A070404040404040404040404040005
:1045FE003131295A1B750A00010202020202020021
:10460E00FF0100010000FFFF0000010001FF00F1AB
:10461E00F4F5F6346667C6E200E900EA00B500B6C6
:10462E0000B700CD008301CC008A019201940121D4
:10463E0002230224022502260227022A02B300B414
:10464E00006F0070009F01CB019F02A002E200E903
:10465E0000EA00B500B600B700CD008301CC008A99
:10466E00019201940121022302240225022602272F
:10467E00022A02B300B4006F0070009F01CB019FAD
:04468E0002A0020084
:00000001FF
