:100000000C94E5010C941D020C941D020C941D022D
:100010000C941D020C941D020C941D020C941D02E4
:100020000C941D020C941D020C94C6210C94AE225B
:100030000C947B210C941D020C941D020C941D0247
:100040000C941D020C941D020C941D020C941D02B4
:100050000C941D020C94A2210C941D020C941D0200
:100060000C941D020C941D020C941D020C941D0294
:100070000C941D020C941D020C941D020C941D0284
:100080000C941D020C941D020C941D020C941D0274
:100090000C941D020C941D020C941D020C941D0264
:1000A0000C941D020C941D020C941D020501090202
:1000B000A10185020901A1000509190129081500FE
:1000C0002501950875018102050109300931158165
:1000D000257F95027508810609381581257F9501D0
:1000E00075088106050C0A38021581257F95017572
:1000F000088106C0C005010980A101850319012AF4
:10010000B700150126B700950175108100C0050CD8
:100110000901A101850419012AA002150126A002E6
:10012000950175108100C005010906A1018506052C
:100130000719E029E71500250195087501810205D9
:1001400007190029EF1500250195F07501810205B9
:10015000081901290595057501910295017503910D
:1001600001C005010906A101050719E029E71500ED
:100170002501950875018102950175088101050722
:10018000190029FF150026FF009506750881000556
:10019000081901290515002501950575019102959C
:1001A0000175039101C009023B00020100A0320960
:1001B0000400000103010100092111010001224492
:1001C0000007058103080001090401000103000084
:1001D0000009211101000122B60007058203200059
:1001E0000112010002000000084C57E3E600010183
:1001F00002000114034D006900630072006F0020CB
:10020000005000610064000000180357006F007286
:10021000006B0020004C006F0075006400650072E8
:1002200000000004030904000101010101010101B2
:100230000102020202020202020203030303030399
:100240000303040404040404040505050505060667
:100250000606060707070707080808080909090925
:100260000A0A0A0B0B0B0C0C0C0D0D0D0E0E0E0FCB
:100270000F0F10101111111212131314141515165B
:10028000161717181819191A1A1B1B1C1D1D1E1ECC
:100290001F2020212222232424252626272829291D
:1002A0002A2B2C2D2D2E2F30313232333435363748
:1002B00038393A3B3C3D3E3F404142434445464746
:1002C00048494A4C4D4E4F50515354555658595A1F
:1002D0005B5D5E5F616264656668696B6C6D6F70C3
:1002E00072737577787A7B7D7E8082838587888A32
:1002F0008C8E8F91939596989A9C9EA0A2A3A5A769
:10030000A9ABADAFB1B3B5B7BABCBEC0C2C4C6C964
:10031000CBCDCFD1D4D6D8DBDDDFE2E4E7E9EBEE1D
:10032000F0F3F5F8FAFDFF643214000029003E00F6
:1003300000002C0C2B081B08E3006800500A4F0A31
:10034000AE0003526A00A80001520100A6000F0887
:1003500001002C0C4E004B001B085009500A4F0A9C
:100360004F0900524E004B000252010001000100F3
:1003700001000100A900AA000100AD00AC00AB0023
:10038000AE0001526A00A800035201004278417E8B
:100390000100010001000100010001000100017CD9
:1003A00001000252037C007C0052B600B700DC0062
:1003B000DB0001000100010001000100010001005B
:1003C0000100010001000100010011241FBECFEF58
:1003D000DAE0DEBFCDBF04B603FE18C080912F0364
:1003E00090913003A0913103B09132038730904B4C
:1003F000A740B04B59F410922F0310923003109283
:10040000310310923203E0E0F8E3099511E0A0E037
:10041000B1E0E4EEF8E402C005900D92A23EB1070F
:10042000D9F723E0A2EEB1E001C01D92AF32B207CE
:10043000E1F70E94061C0C9406240C940000529ACA
:100440000895FC01EE0FFF1FE80FF91FE55FFC4F59
:100450006183408322830895FF920F931F93CF936C
:10046000DF93182F062FF42EC0E0D0E02F2D402F61
:10047000612FCE010E9421022196CC30D105B1F727
:10048000CDB7DEB7E5E00C945023F894E82FE29561
:10049000EF70F0E041A18F7021E030E0B90102C0BF
:1004A000660F771F8A95E2F7CB01962F90959423DC
:1004B00091A392A1892B82A378940895269A2E9ACB
:1004C0000895279A2F9A0895259A2D9A0895269887
:1004D0002E982E98089527982F982F98089525984C
:1004E0002D982D98089590E090938B0080938A002A
:1004F00090938D0080938C00909389008093880066
:100500000895CF93DF93EC01009781F081FF15C030
:100510000E945E02C2FF14C00E946102C3FF0AC0B3
:100520000E946402CE01DF91CF9108950E9467027C
:100530000E946B020E946F02F5CF0E946702EACF11
:100540000E946B02EBCF9093BE028093BD02089590
:100550000E9481029093C0028093BF02089521E01F
:1005600030E002C0220F331F8A95E2F78091BF026C
:100570009091C002822B932B0E94A802089521E043
:1005800030E002C0220F331F8A95E2F720953095A4
:100590008091BF029091C002822393230E94A802FF
:1005A00008959B01677091E001C0990F6A95EAF781
:1005B00063E0369527956A95E1F7220F331F220FE6
:1005C000331FFA01E20FF31F40E050E0682F70E0A4
:1005D0008191DF019B01042E02C0369527950A9474
:1005E000E2F7217021952827292328272E934F5F92
:1005F0005F4F4430510561F708959C01982F977023
:1006000083E0369527958A95E1F7220F331F220F55
:10061000331FFB01E20FF31F40E050E080E0219127
:1006200030E0092E02C0369527950A94E2F7217032
:100630003327042E01C0220F0A94EAF7822B4F5F62
:100640005F4F4430510559F70895282F862F943075
:1006500068F4243050F434E0939FB0011124620F09
:10066000711D40E952E00E94D10208959C5F9230D2
:10067000E0F7622F70E04CE852E0F5CF282F94307D
:1006800068F4843090F434E0939FC001112460E951
:1006900072E0820F911D0E94FD0208959C5F9230CE
:1006A00020F46CE872E090E0F6CF80E0089580914D
:1006B000CB029091CA02981301C008958F5F877092
:1006C000FACF9091C102809589238093C102282F8F
:1006D000277021110DC0891759F09091C80292FF1F
:1006E00007C08695869586950E94BF021092C1022A
:1006F00008958091BA029091C902892B5091BB0252
:10070000511591F090911201913021F49091C7020E
:1007100097FD0BC096E026EE31E040E0915048F4A2
:1007200041111092BB02852B08959EE12EEE31E01F
:10073000F4CFF90161919F01611581F34F5FEECF15
:10074000982F90958091BA0289238093BA020895D8
:10075000E62F7430D0F4643008F03BC0843008F0E9
:100760003BC024E0829FC0011124870F911D880F98
:10077000991F880F991FE80FF92FF11DEE0FFF1F2A
:10078000E65DFC4F8591949108957D3F81F4623040
:1007900000F5843008F5F0E0E80FF11DE80FF11DD9
:1007A000EE0FFF1FEE0FFF1FE655FC4FEBCF7C3F18
:1007B00081F4623070F4843078F4F0E0E80FF11DD9
:1007C000E80FF11DEE0FFF1FEE0FFF1FE455FC4F6A
:1007D000D9CF80E090E0089581E0FCCF9C01803E7D
:1007E000910509F448C0D8F48133910509F47DC01E
:1007F00048F48932910509F46DC08A9709F47CC0E8
:10080000C90108958933910551F18238910539F173
:10081000C597B1F78091C70285FFF2CF29C0843E0A
:10082000910509F447C048F4823E910599F1833E51
:100830009105A9F121EE30E0E3CF863E910509F460
:1008400044C0873E9105E1F68091C70283FD61C0F7
:100850009091C80291FF2BC024EE30E0D1CF80915F
:10086000C7028370811152C08091C80283FFC8CF34
:1008700029E230E0C5CF8091C70280FD33C090915E
:10088000C80290FFBDCF23EE30E084FFB9CF20E057
:1008900030E0B6CF8091C70282FDF5CFB1CF809115
:1008A000C70282FD30C09091C80290FD2FC084FF26
:1008B000A7CFEDCF8091C80281FFA2CF8091C70260
:1008C00027EE30E084FDE3CF9BCF8091C70283FD0C
:1008D000F7CF96CF8091C70285FD1EC08091C802D8
:1008E00083FF8ECF29E330E08BCF8091C70286FF54
:1008F00087CF2AE230E084CF8091C70286FF80CF85
:1009000021E330E07DCF22EE30E07ACF20EE30E000
:1009100077CF26EE30E074CF25E330E071CF9091B1
:10092000C70292FF10C041E0282F2471243009F043
:1009300040E031E0282F2871283009F030E04317DB
:1009400011F02CE0822793FF10C041E0282F247182
:10095000243109F040E031E0282F2871283109F0D6
:1009600030E0431711F02CE082273091C80230FFAD
:1009700010C051E0282F2171213009F050E041E0F2
:10098000282F2871283009F040E0541711F029E091
:10099000822731FF10C041E0282F2171213109F059
:1009A00040E031E0282F2871283109F030E043176A
:1009B00011F029E0822794FD877E08951F93CF933D
:1009C000DF930E94EE03EC01811522E5920708F007
:1009D00055C0811540E5940708F0D1C0803E9105CF
:1009E00020F58D3C910508F0A4C0883A910570F47B
:1009F000853A910508F09AC081309105D1F10497AC
:100A0000813A9105B0F1C0E0D0E033C0885A910935
:100A10004B97C8F7C85AD0E0CC0FDD1FCB58DE4F3C
:100A20000990D881C02DD46424C0811550E4950765
:100A3000C0F4C11580E2D80708F0B7C0C83ED105A0
:100A4000C0F0CE019A9581159F41E8F68D2F0E9446
:100A50008F04182FCE0199270E94EE03EC01D12BB1
:100A600008C099270E94EE03CC27DF70C82BD92B32
:100A7000D06ACE01DF91CF911F910895803842E571
:100A80009407C8F5803652E5950708F05BC0C0347E
:100A900082E5D807D0F4C03292E5D90708F04BC000
:100AA0008C2F8695869520E2829FC0011124C37009
:100AB00021E030E0A90102C0440F551FCA95E2F7BA
:100AC000EA01C82BD92BDD68D4CF8C2F869586956B
:100AD000877050E2859FC0011124C37021E030E08F
:100AE000A90102C0440F551FCA95E2F7EA01C82BBD
:100AF000D92BDC68BECF803C52E5950758F48F7146
:100B0000C03AD245A0F590E0982F8827EC01C46F39
:100B1000D06AAFCF805C9245809708F074CFDC2F0D
:100B2000CC27CC27DF71C06FD06AA3CFA497D06445
:100B3000A0CFD0659ECFCF71D0E0DC2FCC27C16F86
:100B4000D06A97CF86958695877020E2829FC001F4
:100B50001124C37021E030E0A90102C0440F551FE9
:100B6000CA95E2F7EA01C82BD92BDA6882CF0E9436
:100B70008F04C82FD0E0DC2FCC27D0627ACF8F71C2
:100B80000E948F0493E0CC0FDD1F9A95E1F7CC27EC
:100B9000DF70282F30E084FF04C050E1859F900172
:100BA0001124C22BD32BD06964CF8D2F8F710E945B
:100BB0008F04182FCE0199270E94EE03EC01D12B50
:100BC000DCCFA0E0B0E0E7EEF5E00C9430238C0140
:100BD000E090BF02F090C0028091BD029091BE02F1
:100BE000E82AF92ACFE0D0E0CC24C394D12CC60166
:100BF0000C2E02C0880F991F0A94E2F78E219F21C4
:100C0000892B49F4219798F7B12C8B2DCDB7DEB7FE
:100C1000E9E00C944C23BC2EB8018C2F0E94A80351
:100C20000E94DE04019771F3F0CF0F931F93CF93CF
:100C3000FC01858100811181811591F0611581F0A0
:100C4000C8010E94E105C82F682FC8010E94250332
:100C5000B8018C2F0E94A803CF911F910F91089586
:100C6000C8010E943E03C82FF3CFCF93DF93D82F44
:100C7000C92F0E94E1056D2F7C2F0E94A8030E94BE
:100C8000DE04DF91CF910895FC0184818115A1F0EC
:100C9000808191810E943506282F92959F70963011
:100CA00099F060F4925F9F70923030F4203FB1F081
:100CB00038F481E0283E38F080E008959A5FF3CF61
:100CC00081E0243FC9F7089591E0213F09F090E0C9
:100CD00081E0283E08F080E0892B089581E00895A6
:100CE00080E008950895CF92DF92EF92FF921F93D4
:100CF000CF93DF93172FE82FF0E0E95DFD4F7111DF
:100D00000CC0E4918E2F7E2F6E2FDF91CF911F911B
:100D1000FF90EF90DF90CF900895E62EF12CC72E34
:100D2000D12CF491EF2F86E0689F90011124CFEF32
:100D3000D0E0C901BE010E94F922AB01EE0CFF1CFC
:100D400065E5649FC001659F900D1124E81AF90ABA
:100D50006E2D660F6E0D7E01EC18FD08FE9DD00114
:100D6000FF9DB00D11248B2F169F70011124EF2CC5
:100D7000FF246E01CE18DF087601FE9D6001FF9D05
:100D8000D00C11247E01E61AF108B701169F7001FC
:100D9000179FF00C1124EF2CFF24CE19DF09FC9FC4
:100DA0007001FD9FF00C11247F2D43305105C1F0DF
:100DB0002C3F334058F441305105B1F042305105D9
:100DC00009F0A2CFEB2F8F2D7F2F9ECF44305105FE
:100DD00071F04630510509F497CF7B2F8D2D94CFBC
:100DE0007D2DEB2F8F2F90CF7F2FED2D8DCFEF2DE2
:100DF0007B2FF8CF8091A902843060F483708460E7
:100E00008093A9028091AC028E3718F08DE7809311
:100E1000AC0208958032B0F383708C61F1CFCF9330
:100E2000DF938091A90280FD0CC0C0E0D0E020E0FB
:100E300040E060E0CE010E9421022196C830D10539
:100E4000B1F70E941D0CDF91CF9108951092A80276
:100E50008091350281110EC081E08093350280912E
:100E6000A902982F9170909334028E7F8093A902EB
:100E70000E940F070895FF920F931F93CF93DF9364
:100E8000EC01F12C00E010E07091AB028091AC021B
:100E90008E3708F08DE76C816F0D0E947306472F27
:100EA000282FC8010E9421020F5F1F4F8FE1F80E0B
:100EB0000830110549F70E940F078C819A8190FF35
:100EC00007C08F5F8C83CDB7DEB7E5E00C9450236D
:100ED0008150F8CF2695E22F26FDE0959E2F9F703A
:100EE00026FD9F5FE695E695E695E670F0E0EB5A05
:100EF000FE4F3181399F302D912D112432953F7055
:100F00009295907F392B9081930F27FD919597FDB6
:100F10009195990F292F3CE0239F212D1124620FD9
:100F200008950E94F5070895E1EBF2E0248130E195
:100F3000230F08F42FEF24838091B90281608093FE
:100F4000B9020895E1EBF2E0248130E1231B08F4BB
:100F500020E024838091B90281608093B9020895D2
:100F600090E06115E9F0815E9E4FFC0180818F3F2A
:100F7000B1F0E82FE295EF70F0E041A18F7021E031
:100F800030E0B90102C0660F771F8A95E2F7CB0106
:100F9000962F9095942391A392A1892B82A30895D3
:100FA000835E9E4FE2CF90E06115A9F0815E9E4F77
:100FB000FC0120812F3F91F0E22FE295EF70E05E7F
:100FC000F0E0808190E02F7002C0959587952A957A
:100FD000E2F781700895835E9E4FEACF80E0089526
:100FE000519A08950E94210208950E942C020895AA
:100FF000282F35EB2303C001112497FF04C080582C
:101000009109892F089580589F4FFBCF80919A02B4
:1010100080FD14C081FD14C082FD16C0809199022C
:10102000811581F08E3180F420E5829FC00111246A
:101030006EE170E00E940D23862F089584E10895EB
:1010400088E2089588E0089580E5089580919A02E5
:1010500080FD17C081FD17C082FD19C080919802E4
:10106000811599F0883298F428E0829FC0011124FC
:1010700068E270E00E940D236115710551F0862F22
:10108000089562E0FCCF64E0FACF61E0F8CF68E059
:10109000F6CF81E00895E0918202F09183023097CB
:1010A00029F00190F081E02D0995089580E00895E0
:1010B000A3E0B0E0EEE5F8E00C9437239C018091CA
:1010C0002A0290912B0282179307A1F030932B02F2
:1010D00020932A02E0918202F0918302309751F02E
:1010E00083E089833B832A830084F185E02DCE0150
:1010F000019609952396E2E00C945323A3E0B0E017
:10110000E4E8F8E00C9437239C0180912802909148
:10111000290282179307A1F0309329022093280215
:10112000E0918202F0918302309751F084E089834C
:101130003B832A830084F185E02DCE010196099539
:101140002396E2E00C94532390911201913091F098
:10115000A6EEB1E0EFEF90E02D91821751F0EF3F56
:1011600019F4211101C0E92F9F5F9630A9F7EF3FD5
:10117000C9F408959091C70297FFEACFE82FE6954A
:10118000E695E695803FA8F7F0E0E451FE4F8770C2
:1011900021E030E001C0220F8A95EAF78281822B9C
:1011A000828308950E2E000CFF0BEC51FE4FF8CFFA
:1011B00090911201913021F49091C70297FD0CC0DB
:1011C000E6EEF1E09191891302C0DF011E9251E039
:1011D000EC3EF507B9F70895E82FE695E695E69514
:1011E000803FC8F7F0E0E451FE4F877021E030E027
:1011F000A90102C0440F551F8A95E2F7CA018095E4
:1012000092818923828308958091110108952FB7D7
:10121000F8948091240290912502A0912602B09129
:1012200027022FBF08950E94070920919D02309147
:101230009E02232B211521F080935D0290935E0284
:1012400020919F023091A002232B211521F0809341
:101250005B0290935C02E0918202F09183023097EE
:1012600049F082E080939B020680F781E02D8BE9B4
:1012700092E009950895611509F44BC0E3E3E80F86
:10128000E33150F4F0E0E85FFB4D0C9421230E9421
:101290000608819580939E020E94130908950E947A
:1012A0000608F8CF0E940608819580939D02F4CF2E
:1012B0000E940608FACF0E94260880939F02ECCF76
:1012C0000E9426088195F9CF0E9426088195809377
:1012D000A002E2CF0E942608FACF815D990B21E09F
:1012E00030E001C0220F8A95EAF780919C02822BA0
:1012F00080939C02D1CF80919A02816080939A0260
:10130000CBCF80919A028260F9CF80919A0284605B
:10131000F5CF40919D028D3C59F480919E0287FF4C
:101320000DC010929E02411559F41092990208C006
:101330008E3C81F480919E0218169CF3411581F039
:1013400080919F029091A002892B8111A5CF1092CC
:101350009802A2CF8F3C41F447FFF0CF10929D023C
:1013600080919E028115E0CF803D19F41416B4F3EC
:10137000E5CF90919F02893D29F41916FCF6109251
:101380009F02DCCF8A3D19F497FFD8CFF8CF909118
:10139000A0028B3D29F497FFD1CF1092A002CECFAF
:1013A0008C3D19F41916CCF3C9CF9FE2980F9830F1
:1013B00090F4815D990B21E030E0B90102C0660F25
:1013C000771F8A95E2F7CB01809590919C02892343
:1013D00080939C02B3CF8D3D31F480919A028E7F31
:1013E00080939A02ABCF8E3D21F480919A028D7F3B
:1013F000F7CF8F3D09F0A2CF80919A028B7FF0CF7B
:101400002FB7F894609124027091250280912602F2
:10141000909127022FBF0895FC019B0180911A0231
:1014200090911B028617970740F0672B29F4809153
:10143000E8008E778093E800C90140E0009741F40E
:10144000411106C08091E80082FF2FC080E008951E
:1014500020913D022115A9F12530A9F12091E80044
:1014600023FD2DC02091E80022FDECCF2091E80063
:1014700020FFE4CF3091F3002091F200009719F0A3
:101480002830310558F041E02830310509F040E0BE
:101490002091E8002E772093E800D0CF419140932F
:1014A000F10001972F5F3F4FE9CF80913D028115F9
:1014B00041F0853041F08091E80083FFC3CF81E0A7
:1014C000089582E0089583E008958091140287FFD3
:1014D00013C08091E80082FF06C08091E8008B77FE
:1014E0008093E800089580913D028111F2CF089524
:1014F00080913D028115D9F38091E80080FFF8CFFB
:101500008091E8008E77ECCF2091E4003091E500E7
:1015100095E6A9012091EC00822F817020FF06C082
:101520008091E80080FF06C080E008952091E800E7
:1015300022FD1AC080913D02811589F0853089F025
:101540008091EB0085FD0FC02091E4003091E50013
:1015500042175307F9F29A95E1F684E0089582E084
:10156000089583E0089581E00895E8EDF0E080813A
:101570008E7F80831092E2001092DA001092E100D8
:10158000A0EEB0E08C9181608C9380818F77808316
:1015900019BCA7EDB0E08C918E7F8C9380818F7EFB
:1015A00080831092130208959091B1029370911567
:1015B00091F0833008F082E0880F880F9091B1029B
:1015C0009370892B8093B102109214018091B9021B
:1015D00081608093B90208958091B10286958695C5
:1015E0008F5F833008F081E00E94D40A08958091D3
:1015F000B102869586958A9509F482E00E94D40A04
:1016000008959091B1029370911559F08093B202B0
:101610006093B3021092B4028091B902816080930A
:10162000B9020895E1EBF2E0818190E062810896D1
:101630000E94010B0895E1EBF2E081816281885004
:10164000990B0E94010B0895E1EBF2E0628120E129
:10165000620F08F46FEF818190E00E94010B089502
:10166000E1EBF2E0628120E1621B08F460E081813D
:1016700090E00E94010B0895E1EBF2E0238130E15C
:10168000230F08F42FEF8181628190E00E94010B0B
:101690000895E1EBF2E0238130E1231B08F420E020
:1016A0008181628190E00E94010B08959FB7F894B8
:1016B0002BE033E0F9012F5F3F4F408158E06BB9D9
:1016C000000000C047FF8BB9440F000000C000C0FD
:1016D00000C08BB900C05A9591F743E02F32340710
:1016E00049F79FBF0895982F9093E900891771F0EB
:1016F0007091EC002091ED005091F00021FD09C0A7
:101700009F5F973089F78093E9000895762F242F03
:1017100050E03091EB003E7F3093EB003091ED00D4
:101720003D7F3093ED003091EB0031603093EB0062
:101730007093EC002093ED005093F0002091EE00A8
:1017400027FDDECF0895A0E0B0E0E9EAFBE00C94CD
:101750003123C8EDD0E088818F7E8883E7EDF0E00B
:1017600080818160808384E082BF81E08093130266
:1017700088818E7F888302EE10E0F801108210923B
:10178000DA0081EEC82ED12CF601108288818F7785
:10179000888388818068888388818F7D888319BC4D
:1017A00010923D021092120210923C02109211020D
:1017B00090EEE92EF12CF70180818B7F8083888168
:1017C0008160888342E060E080E00E94730BF60154
:1017D00080818E7F8083F801808181608083808119
:1017E00088608083F70180818E7F8083888180611B
:1017F0008883CDB7DEB7E8E00C944D23E091CB02AF
:101800009091CA0227E0E91302C080E00895AE2F4C
:10181000B0E02E9FF0011124E453FD4F31813613C7
:1018200006C03081381303C03581341304C0FD0174
:101830003196E770E8CF81E008958BB16BB16460B9
:101840008B7F0E94560B8FE594E00197F1F700C063
:10185000000008958BB16BB162608D7F0E94560BC2
:101860008FE594E00197F1F700C00000089581E052
:101870008093E00080E28093D8001092C9008FE14D
:101880009EE40197F1F700C0000087E090EBDC01D7
:1018900080932F0390933003A0933103B0933203CE
:1018A00088E19CE00FB6F894A895809360000FBE85
:1018B00090936000FFCF0F931F93CF93DF938B0123
:1018C000EA0190913D02943059F58093E9008FEF41
:1018D0009091E80095FD06C095ED9A95F1F700000E
:1018E0008A95B1F78091E80085FF1AC00E94840AAA
:1018F000811111C08091E80085FD06C08091E8004B
:101900008E778093E800F2CFF80181918F01809368
:10191000F100219779F78091E8008E778093E800B5
:10192000DF91CF911F910F910895CF93DF93D82F1F
:10193000C92F48E050E0682F792F81E00E945B0CAE
:1019400088E0ED2FFC2FACE1B2E001900D928A957A
:10195000E1F7DF91CF910895BC0140E250E082E0D1
:101960000E945B0C0895BC0146E050E082E00E94BA
:101970005B0C0895BC0143E050E082E00E945B0CE8
:1019800008959091C80292FB222720F9281779F038
:1019900080FB92F99093C8026091C7027091C802CF
:1019A00084E090E00E94E62382E00E9461030895B3
:1019B000A0E0B0E0EEEDFCE00C9431238901D42FDF
:1019C000C52F6B017C010E94FA06A8016D2F7C2FA8
:1019D00088E090E00E94DA2398014D2F5C2FB60139
:1019E000C70100E20E947923622F83E290E00E9407
:1019F000C823CDB7DEB7E8E00C944D238091AD024B
:101A0000833018F48F5F8093AD022091A90230914A
:101A1000AA024091AB025091AC026091AD0270916C
:101A2000AE028091AF029091B0020E94D80C08954E
:101A30008091AD02811519F081508093AD02209103
:101A4000A9023091AA024091AB025091AC02609180
:101A5000AD027091AE028091AF029091B0020E94EF
:101A6000D80C0895A0E0B0E0E8E3FDE00C9430234A
:101A7000D82F162FC42F022F8091A90280FF43C0B8
:101A8000E82FE695E695F0E0E35AFE4F90819093BB
:101A9000A7028C7F8430E1F5842F4E3708F08DE764
:101AA0006D2F712F0E947306D62EC72EB82E8091EF
:101AB000A90280FF11C0E12CF12C2B2D4C2D6D2D96
:101AC000C7010E9421028FEFE81AF80A88E0E816A1
:101AD000F10499F70E940F07D093AA021093AB026A
:101AE000C093AC02011579F02091A9026091AD027A
:101AF0007091AE023D2F412F5C2F8091AF029091EB
:101B0000B0020E94D80CCDB7DEB7E9E00C944C23AC
:101B1000923011F7D091AA02DFCFE9EAF2E0818199
:101B200021E043816281885F0E94320D0895E9EAD5
:101B3000F2E0818121E04381628188500E94320D70
:101B40000895E9EAF2E0628128E0620F08F46FEF9D
:101B500021E0438181810E94320D0895E9EAF2E09B
:101B6000628128E0621B08F460E021E0438181810A
:101B70000E94320D0895E9EAF2E0438128E0420F25
:101B800008F44FEF21E0628181810E94320D0895B7
:101B9000E9EAF2E0438128E0421B08F440E021E05A
:101BA000628181810E94320D0895809112018130FD
:101BB00059F58091C70287FF27C00E94790380935F
:101BC000ED0140E250E062E672E08CEE91E00E94AE
:101BD000F923892BC1F080E2ECEEF1E0A2E6B2E05D
:101BE00001900D928A95E1F7E0918202F0918302D3
:101BF000309749F086E08093EC010480F581E02D78
:101C00008CEE91E0099508950E9479038093E40198
:101C100048E050E064E872E084EE91E00E94F9232D
:101C2000892B89F388E0E4EEF1E0A4E8B2E00190CA
:101C30000D928A95E1F7E0918202F091830230974C
:101C400011F30280F381E02D84EE91E0DBCFCF939E
:101C5000C82F8115D1F08CEF8C0F813AA0F58091BF
:101C60001201813021F48091C70287FD10C0E6EE99
:101C7000F1E08191C81709F121E0EC3EF207C9F7C4
:101C80008C2F0E94A4080E94D50DCF910895EC2FAF
:101C9000E695E695E695F0E0E451FE4F828190E00E
:101CA0004C2F477021E030E002C0220F331F4A95CD
:101CB000E2F782239323892B19F38C2F0E94D808F3
:101CC0000E94D50DDDCF80E28C0F883068F4C7709C
:101CD00081E090E001C0880FCA95EAF7C091BA028E
:101CE000C82BC093BA02CFCF8BE58C0F833038F46A
:101CF0002C2F2452330BC9010E945808C6CFE8E5A7
:101D0000EC0FEB3150F4F0E0EE0FFF1FE555FE4F06
:101D1000808191810E947E08B8CF83E38C0F83314C
:101D200008F0B3CF61E08C2F0E943B09AECF811544
:101D300081F19CEF980F913A28F40E94D8080E94F4
:101D4000D50D089590E2980F983050F4877091E087
:101D500001C0990F8A95EAF7892F0E94A003EFCF5F
:101D60009BE5980F933028F480E090E00E9458089B
:101D7000089598E5980F9B3128F480E090E00E9448
:101D80007E08089593E3980F933118F460E00E9461
:101D90003B090895811539F09091BA02892B8093FF
:101DA000BA020E94D50D0895811521F00E94A0036A
:101DB0000E94D50D08951092BA02809112018130CF
:101DC00039F58091C70287FF23C0EEEEF1E08EE186
:101DD000DF011D928A95E9F780E090E00E945808A3
:101DE00080E090E00E947E081092C9020E94D50D0A
:101DF00086E0EBE9F2E0DF011D928A95E9F71092A7
:101E000099021092980210929A020E941309089562
:101E1000E6EEF1E086E0DCCF0E94DB0E2FEF84E3FC
:101E20009CE0215080409040E1F700C0000088E134
:101E30009CE00FB6F894A895809360000FBE909335
:101E40006000FFCFAAE2B0E0E8E2FFE00C943623A6
:101E500084E192E0FC0101962091F100208322E0D0
:101E60008C319207B9F780911502893009F45AC074
:101E7000C8F4823009F4B6C0833009F485C08130DB
:101E800091F18091E80083FFEAC080911402909163
:101E900015029A3008F0E3C0E92FF0E0E55EFB4D53
:101EA0000C9421238A3009F48CC08B3051F7809137
:101EB0001402813231F78091180290911902892B16
:101EC00001F78091E800877F8093E8000E94650A0F
:101ED00081E090911602911101C080E0809312017F
:101EE0000E94DB0ECECF80911402813A51F6809190
:101EF000E800877F8093E800809118029091190292
:101F0000892B61F060E080E090E070E00E940C0AB4
:101F10008091E8008B778093E800B3CF68E08CE194
:101F200092E0F3CF80911402813209F0AACF809120
:101F3000180290911902029708F0A3CF8091E8004F
:101F4000877F8093E8008091E80082FF18C090911D
:101F5000F3008091F200029731F48091F10081301A
:101F600011F0863021F48091F1008093110180916D
:101F7000E8008B778093E8000E94650A82CF809109
:101F80003D028111E0CF7DCF80911402813A09F0AA
:101F900078CF8091180290911902892B09F071CFA6
:101FA0008091E800877F8093E8008091E80080FFBF
:101FB000FCCF809112018093F1008091E8008E7730
:101FC000D9CF80911402813209F05BCF8091E80073
:101FD000877F8093E8000E94650A809117028093B2
:101FE00010014FCF80911402813A09F04ACF8091BD
:101FF000E800877F8093E8008091E80080FFFCCFB5
:1020000080911001D8CF803889F0823841F58091D5
:1020100018028F70873018F58093E9008091EB00EB
:1020200085FB882780F91092E90006C080913C0268
:10203000880F90911102892B9091E800977F9093DF
:10204000E8008093F1001092F1008091E8008E7713
:1020500023C0811116C080911602813011F1809148
:10206000E80083FF0AC08091E800877F8093E80042
:102070008091EB0080628093EB00AA96E3E00C94E1
:102080005223823061F780911602811589F01092F7
:10209000E9008091E800877F8093E8000E94650A4C
:1020A000DECF81E0933009F080E080933C02EFCFF7
:1020B000809118028F702FEF280F263080F68093C2
:1020C000E9002091EB0020FFE2CF933031F48091C2
:1020D000EB0080628093EB00DACF9091EB0090618F
:1020E0009093EB0021E030E0A90102C0440F551F9E
:1020F0008A95E2F74093EA001092EA008091EB00A3
:102100008860E8CF8111ABCF109116021F778091C4
:10211000E3008078812B8093E3008091E800877F43
:102120008093E8000E94650A8091E80080FFFCCF60
:102130008091E30080688093E30083E0111101C087
:1021400082E080933D028BCF8058823008F087CFA9
:1021500020911602309117022C3D53E0350799F576
:1021600083E08A838AE289834FB7F894DE0113966D
:1021700020E03EE051E2E32FF0E0509357008491DD
:1021800020FF03C082958F703F5F8F708A30C8F048
:10219000895C90E08D939D932F5F243161F74FBF51
:1021A0008091E800877F8093E8006AE270E0CE01CA
:1021B00001960E940C0A8091E8008B778093E800DA
:1021C0004ECF805DE6CF832F99278330910529F18B
:1021D00060F48130910509F476C0029709F03FCF91
:1021E0008BE390E0E6EAF1E02DC0209118023091F7
:1021F00019028132910509F45AC0829709F02FCF54
:102200002115310509F469C02130310509F027CFC6
:1022100086EB90E0ECEAF0E015C0C9019927213087
:10222000B1F18230910509F43AC0892B09F017CF3A
:10223000E3E2F2E0E4918E2F90E0E3E2F2E0009737
:1022400009F40DCF2091E800277F2093E80020912A
:102250001A0230911B028217930708F49C0140E098
:102260002115310509F03EC041113CC08091E800C4
:1022700082FDA1CF80913D02811509F49CCF85306C
:1022800009F499CF8091E80083FFF0CF94CFE9E083
:10229000F2E0E4918E2F90E0E9E0F2E0D0CFE3EFBE
:1022A000F1E0E4918E2F90E0E3EFF1E0C8CF21154B
:1022B000310571F02130310509F0D1CE89E090E08F
:1022C000E1EDF1E0BFCF82E190E0E1EEF1E0BACFE5
:1022D00089E090E0E8EBF1E0B5CF84E490E0E2E65D
:1022E000F1E0B0CF80913D02811509F464CF8530D3
:1022F00009F461CF8091E80083FD5DCF8091E80013
:1023000082FDB4CF8091E80080FFAACF9091F300C6
:102310008091F2002115310519F08830910550F0B7
:1023200041E0089709F040E08091E8008E778093C3
:10233000E80096CF44914093F10031962150310945
:102340000196E8CF803809F08ACE8091E800877F37
:102350008093E800809112028093F10076CE811183
:102360007ECE10911602123008F079CE8091E800EE
:10237000877F8093E800109312020E94650A11156E
:10238000A9F084E080933D0242E061EC81E00E948C
:10239000730B42E261EC82E00E94730B80913D027C
:1023A000843051F482E08093130159CE8091E30090
:1023B00087FDE7CF81E0E6CF81E0F5CF6091A9020C
:1023C0006695669570E041E050E085E091E00E94FE
:1023D000EC23892B19F481E08093A8020E9407095D
:1023E000909348028093470208959091A90290FF2C
:1023F0003BC08115D1F18830D0F58F73282F220F83
:10240000220F8091A9028370282B2093A9026115C5
:1024100081F03091AA024091AB025091AC026091E0
:10242000AD027091AE028091AF029091B0020E9415
:10243000D80C6091A9026695669570E041E050E085
:1024400085E091E00E94EC23892B99F01092A8027C
:1024500081E080934A0220E04091AC026091AB029F
:102460008091AA020E94320D089581E0C7CF87E0D3
:10247000C5CF0E94DE11ECCF8091A902869586958A
:102480008F5F883008F081E061E00E94F5110895C7
:102490008091A902869586958A9509F487E061E086
:1024A0000E94F51108951092350280913402811531
:1024B00051F08091A90281608093A90260E0869525
:1024C00086950E94F5110E94DE110895A0E0B0E00B
:1024D000ECE6F2E10C9431230E94000A60932C0296
:1024E00070932D0280932E0290932F022091B102BF
:1024F000122F1370111519F0122F16951695309191
:102500001401323009F4D2C080F4311116C0109297
:1025100000016093300270933102809332029093F5
:10252000330281E08093140103C0333009F4C7C043
:10253000CDB7DEB7E8E00C944D2380910401181369
:102540002AC023704091030150E081E02417150652
:1025500009F480E0809302018091B602909101011C
:10256000981739F08093010140E060E080E00E941C
:102570009107113091F0123009F454C0111109C0C3
:1025800080910201811529F040E060E080E00E9426
:10259000910780E01FC081E0DDCF80910001C82F4E
:1025A000CC0FC80F03E00C0FC02E0D3010F09CE0D4
:1025B000C92E6091B2027091B3028091B4020E9460
:1025C0007306F62EE72ED82ED0E0CC15D0F081E0A1
:1025D0000C30F8F6909100019F5F909300018111FB
:1025E00062C082E0809314018091020181115BC07E
:1025F000111509F462C040E060E080E00E9491079C
:1026000097CFFE01EF5DFE4F80A5909101018923D8
:10261000811531F02D2D4E2D6F2DCE010E94F20728
:102620002196D3CF80910001C82FCC0FC80F03E0B3
:102630000C0FE02E0D3010F08CE0E82E3091B5023A
:102640003695369521E0320F08F43FEF4091300285
:102650005091310280E090E0439F812D539F800D87
:10266000911D1124F82ED0E0CE1508F0B0CFFE0158
:10267000EF5DFE4F80A5909101018923811589F0BE
:102680006091B2027091B3028091B4022F2D4C2F51
:102690000E946A070E947306472F282FCE010E94CE
:1026A000F2072196E1CF1111A6CF42CF109304017A
:1026B0002370209303010E942A0C83E033CF809182
:1026C000B902811551F048E050E067E170E081EB1C
:1026D00092E00E94B8231092B902C0903002D090CC
:1026E0003102E0903202F09033020E94000A6C192D
:1026F0007D098E099F09603171058105910508F4F6
:1027000017CF1092140114CFEF92FF920F931F93E3
:10271000CF93DF93C62FD42F122F8115A9F060938A
:10272000A5020E9407099093100280930F02C770C0
:1027300081E001C0880FCA95EAF70E94CA0ECDB7A2
:10274000DEB7E6E00C944F238091A502681335C0F4
:10275000E0900F02F09010020E9407098E199F0965
:10276000883C910550F500E20D0FCD17A9F0C77018
:10277000FF24F3948F2D01C0880FCA95EAF70E94B9
:10278000D40E083048F48D2F877001C0FF0C8A9555
:10279000EAF78F2D0E94CA0E812F0E94270E812FEB
:1027A0000E94970E083058F6D77081E001C0880F5C
:1027B000DA95EAF70E94D40EC2CFC77081E001C05B
:1027C000880FCA95EAF7F6CFA0E0B0E0EAEEF3E1B1
:1027D0000C9431237C01FC018481811509F47AC0B9
:1027E00061E0C7010E941506EC018134FEE79F07F6
:1027F00009F04FC0F7018581811559F18091A1023F
:102800008F5F8770982F853010F090E080E02091E6
:10281000A102287F922B9093A102FFEF8F9FC0010E
:10282000112495958795959587950E9473024091FF
:10283000A1025091A2026091A3027091A40283E1CF
:1028400090E00E94DA238091BF029091C0020E9422
:102850008102F7019581911509F4AFC41092A50288
:102860009E0130572332310508F0B5C484E090E072
:102870000E94B2239093C8028093C702FE01E150E8
:10288000F047E232F10508F041C0EB5DFB4D0C94DE
:102890002123FC01E851FC47E730F105D0F6E95B64
:1028A000FB4D0C94212326E241EE61EEF701858178
:1028B0000E9484138091C1028770811559F0F7013D
:1028C0008581811539F08091C80282FF03C082E0C2
:1028D0000E946103CDB7DEB7E8E00C944D2327E2F8
:1028E00045EE65EEE3CF26E241EE60EEDFCF27E274
:1028F00045EE64EEDBCF26E241EE62EED7CF27E273
:1029000045EE66EED3CF28E241E0EBCF8091C702DF
:1029100081608093C7026091C7027091C80284E011
:1029200090E00E94E6230E94DB0EC4CF8091C80293
:1029300088608093C802EFCF8091C7028260E9CFA0
:102940008091C7028460E5CF8091C7028860E1CFA3
:102950008091C8028160EDCF8091C8028260E9CF8A
:102960008091C7028061D5CF8091C7028062D1CFAC
:102970008091C7028064CDCF0E94DB0E8091C70298
:102980008068C7CF8091C7028C60C3CF8091C80296
:102990008360CFCF8091C7028E7FBBCF8091C8026A
:1029A000877FC7CF8091C7028D7FB3CF8091C70249
:1029B0008B7FAFCF8091C702877FABCF8091C8025A
:1029C0008E7FB7CF8091C8028D7FB3CF8091C70231
:1029D0008F7E9FCF8091C7028F7D9BCF8091C70252
:1029E0008F7B97CF0E94DB0E8091C7028F7791CFAC
:1029F0008091C702837F8DCF8091C8028C7F99CF51
:102A00008091C702992782FF939590FB82F990FBF2
:102A100083F97FCF8091C802982F909590FB80F921
:102A200090FB81F986CF9091C702892F8F7B96FF0B
:102A300080646FCF0E94DB0E9091C702892F97FBB5
:102A400087F9805866CF61E08EE090E00E94C8234D
:102A500062CF60E0F9CF9091C702892F8F7E94FFFB
:102A6000806157CF9091C702892F8E7F90FF816040
:102A700050CF9091C802892F877F93FF886059CFEC
:102A800089E2BBC389E2A4C38272FE01E052F84727
:102A9000EB30F10508F0C2C0E25BFB4D0C94212342
:102AA0008091BA028272FE01E054F847ED30F105E0
:102AB00008F0B4C0E75AFB4D0C9421238091A90281
:102AC00080FF19C0282F2E7F2093A9023091AA02DF
:102AD0004091AB025091AC026091AD027091AE0298
:102AE0008091AF029091B0020E94D80C1092A8027F
:102AF0000E940F07DFCE81608093A90261E0869576
:102B000086950E94F511D6CE811529F00E944812B3
:102B1000D1CE8115D9F30E943C12CCCE811529F07B
:102B20000E94970DC7CE8115D9F30E948D0DC2CE9C
:102B3000811529F00E94AE0DBDCE8115D9F30E94FA
:102B4000A10DB8CE811529F00E94C80DB3CE811514
:102B5000D9F30E94BB0DAECE811529F00E94180D4D
:102B6000A9CE8115D9F30E94FE0CA4CE8091B102AA
:102B70008370811102C0109214018091B1028C7F88
:102B800081608093B1028091B90281608093B90223
:102B900091CE8091B10283708111109214018091C5
:102BA000B1028C7FEECF8091B10291E089278093B2
:102BB000B10210921401E7CF811529F00E94F70AA3
:102BC00079CE8115D9F30E94EC0A74CE811529F0D3
:102BD0000E941B0B6FCE8115D9F30E94120B6ACE97
:102BE000811529F00E94300B65CE8115D9F30E9422
:102BF000240B60CE811529F00E94490B5BCE811514
:102C0000D9F30E943C0B56CE811529F00E94A207F1
:102C100051CE8115D9F30E9494074CCE9E01205EBF
:102C2000324520323105A8F491112AC0CF7181E0DC
:102C300090E09C0102C0220F331FCA95E2F7E90120
:102C4000622F83E090E00E94C823CE010E94A3027D
:102C500031CE9115A9F0CA353CE7D30709F483C0FA
:102C600008F05BC0C1309CE7D90709F47AC0C330D3
:102C7000ECE7DE0709F46FC0C115DC4709F45EC05C
:102C8000F701858100811181811509F470C0C801A7
:102C90000E94E105C82F682FC8010E942503B801D2
:102CA0008C2F0E94A8030E94DE04D82FC92FF701A1
:102CB000D580C680C2948FE0C8228091C1028770FF
:102CC0008115F9F00D2DD114E9F0892F807F803422
:102CD00061F080E28D0F8830A0F0892F807E8032F5
:102CE00021F4D23070F0C11461F08091C80282FFEB
:102CF00008C082E00E9461038091C102877001E0F8
:102D0000811100E0EC2FE295EF70C03C08F095C017
:102D1000F0E0EA59FB4D0C942123CB352CE7D20788
:102D200021F18091C802002482FF0394802DCC35CC
:102D3000DC4709F0A5CF0E94C10CA2CF0E94DB0E98
:102D40008FEF94E3ECE081509040E040E1F700C069
:102D500000000E94370C6FEF7FEF80E090E00E9450
:102D6000E6230E940C0F81E0E6CF80E0E4CFC801AB
:102D70000E943E03C82F93CF1C2F1F70C03110F04C
:102D80001295107FD114B9F0111569F080E28D0F02
:102D9000883010F0D11109C08091BA02812B809344
:102DA000BA020E94D50D8D2F40C08091C902812B9F
:102DB0008093C902F6CF8D2F0E94970E1115E9F16D
:102DC00080E28D0F883010F0D11104C0812F0E9455
:102DD000A00306C010958091C90281238093C90287
:102DE0000E94D50D2AC01C2F1F70C07FC03211F069
:102DF0001295107FD11549F0D13009F468C0D11473
:102E000009F474C0C114B1F1CECF8091C80282FD23
:102E10002DC0D11469F0111539F08091BA02812BBF
:102E20008093BA020E94D50D80E00E94270E05C053
:102E300080E00E94970E1111C9CF011509F4C0C09E
:102E40008091C10280FDBCC0F701158286958695F0
:102E500086950E94AF02C7010E94E4138091C102CF
:102E60008695869586950E94BF02AAC0D11499F0D6
:102E7000C11004C0812F0E94CA0EDFCFF1E0CF1233
:102E8000DCCF8091BB02912F98231917B1F2812BCF
:102E90008093BB02D2CFC110D0CF812F0E94D40E1D
:102EA0009091BB02812F8923811529F0812F809574
:102EB00089238093BB028091BC02912F98239115A6
:102EC00009F4BBCF109518231093BC02B6CFD114D0
:102ED00029F026E0C21608F0B0CFCCCF35E0C316FB
:102EE00008F0ABCF812F0E94D40EA7CFC114D1F32D
:102EF000D93349F48FEF97EEE3E081509040E04002
:102F0000E1F700C000008D2F0E94970E96CF8C2F06
:102F1000869586958370811569F0813009F08DCF93
:102F20008D2F9C2F9370D11002C080E090E00E9402
:102F30007E0883CF8D2F9C2F9370D11002C080E02C
:102F400090E00E94580879CF6D2D8D2F0E943B098B
:102F500074CF8C2F837081115EC0D1102FC04D2F84
:102F6000429546954770440F440F2D2F2F7030E047
:102F7000042E02C0220F331F0A94E2F780E090E093
:102F8000D4FF09C08FE090E002C0880F991F4A95D6
:102F9000E2F780959095C695C695C370C23091F1C1
:102FA000C33069F14091BD025091BE02C13029F198
:102FB000822B932B842395230E94A3020E944B080B
:102FC00060E0C7010E941506F7018581811509F4AB
:102FD00081CC0E94000A6093C3027093C402809364
:102FE000C5029093C6028091C202811509F472CC89
:102FF0001092C2020E9453126DCC242B352B822BCF
:10300000932BDACF822B932B2091BD023091BE02FD
:1030100082279327D1CFD11491F1C0FFCFCF4D2F6D
:10302000429546954770440F440F2D2F2F7030E086
:10303000042E02C0220F331F0A94E2F780E090E0D2
:10304000D4FF09C08FE090E002C0880F991F4A9515
:10305000E2F780959095C695C695C370C230B9F0D9
:10306000C33091F04091BF025091C002C13051F085
:10307000822B932B842395230E94A8029FCF82301A
:1030800070F69CCF242B352B822B932BF5CF822BE4
:10309000932B2091BF023091C00282279327ECCF5F
:1030A000CF70D11439F08C2F0E94AF028D2F0E9467
:1030B000CA0E84CF8D2F0E94D40E8C2F0E94BF0287
:1030C0007DCFD23FB1F170F4D03FC9F0D13F91F044
:1030D000D11409F45EC0C11409F458C08D2F0E94A8
:1030E000270E6CCFD33F61F1D43F91F79091C80286
:1030F00092FD34C08C2F8F71D11401F31EC0D114F6
:10310000A9F0F5E0CF1608F059CFCF7181E090E03B
:103110009C0102C0220F331FCA95E2F7E90180919A
:10312000BF029091C00282279D27A6CF36E0C3162A
:10313000EACF8C2F8F71D110C1CF0E94AF023ECF4A
:1031400080E090E0D11409F497CFCF7181E090E056
:1031500002C0880F991FCA95E2F78ECFD11461F093
:103160008C2F8F7192FFE9CF982F990F990F990F9C
:1031700093609093C102E1CF81E00E94610382E0FD
:10318000C81608F41BCF0E94610318CF8C2F8F71D3
:10319000D4CFC11479F0D93349F49FEFE7EEF3E0CF
:1031A0009150E040F040E1F700C000008D2F0E94F8
:1031B000970E04CF8C2F8F7181CFC631FCE7DF07CC
:1031C00009F06ECC8091A602811509F45BCC85E3F1
:1031D0000E94D80814C08091BA02C6312CE7D207E9
:1031E00009F052CC8A7A91E0811101C090E090936D
:1031F000A602811509F444CC85E30E94A4080E942C
:10320000D50D58CB80910A03803178F48091090361
:10321000811559F0E091CB022091CA02309105034B
:103220004091040357E02E1301C008956E2F70E003
:103230005E9FF0011124DF01A453BD4F14968C91C1
:103240001497811561F111968C911197831327C002
:103250008C91841324C015968C91159781111FC0F1
:1032600012968D919C91A0910603B09107038A1B41
:103270009B0B883C910598F480910A038F708061C4
:1032800080930A03EE52FD4F80818F7080618083AE
:1032900084E093E00E94E4130E9457030895FB0129
:1032A0003196E770C0CFADE0B0E0E9E5F9E10C940C
:1032B0002C238C0186E0F801DE01189601900D9216
:1032C0008A95E1F7F801F580C48084E0882E83E0D8
:1032D000982E70900803711020C0C114D9F0F11419
:1032E00009F41CC1C8010E944406811509F416C1E5
:1032F00087E0F801D40101900D928A95E1F7F1E0A1
:10330000CF1206C080910403909105030E943506F8
:103310000E940219FF24F39454C0E080A280B3807D
:10332000D090090380910603909107039501281B13
:10333000390BD11409F4BAC0283C310508F090C00B
:10334000C11441F390910503C18080910A0380313B
:1033500008F058C0C91214C0909104039E1110C007
:10336000F1104AC08F70806180930A0384E093E07B
:103370000E94E41380910A03F8018683F12C21C096
:10338000F1103AC040E06C2D8E2D0E94FE0B40E003
:103390006C2D8E2D0E94FE0BF82E8111EFCF8885AB
:1033A00099850E943506292F22952F70903470F44C
:1033B0009F702230A0F09115B1F0F8019681903104
:1033C00090F48F2D2D96EDE00C9448232A5F2F70FA
:1033D000223068F0C8010E94E413FD2CF2CF911551
:1033E00011F0811571F3805E883058F3F3CF803F80
:1033F00040F3815F8330F9CF80910A03816080932D
:103400000A03BCCFC91207C0909104039E1103C0E8
:10341000F11409F46CC0C8010E944406811509F436
:103420007DC0F11409F47AC080910A03803278F0EB
:1034300020910403309105033A832983BC82AB8237
:103440007D821E828F83CE0101960E94E41387E065
:10345000F801A4E0B3E001900D928A95E1F758CF0E
:1034600080910A03803150F484E093E00E94E413D9
:1034700087E0F40111928A95E9F780CFC11409F42D
:1034800049CF2091050391812913C5CF9091040361
:103490009E11C1CFF110BFCF8683C8010E94E413F3
:1034A00087E0F40111928A95E9F734CF283C310581
:1034B000F8F6C11409F42ECFF11481F190910503AF
:1034C0008181981321C0809104038E111DC08091C9
:1034D0000A0380FD10C0803170F08683807F803FBA
:1034E00039F08681982F907F905F8F70892B86832B
:1034F000C8010E94E41387E0F801A4E0B3E0019062
:103500000D928A95E1F706CFC8010E944406811109
:103510009ECF80910A03816080930A03C8010E94B4
:10352000E413F8CEABE1B0E0E8E9FAE10C9435231E
:103530004E8B5F8B688F798F8A8F192F9B8F91119C
:103540001092C9021D8A86E0FE017696DE011F9662
:1035500001900D928A95E1F70A8D011561F00B8BB0
:103560001C8B61E0CE010F960E94150661E0CE0132
:103570000F960E9415060B8B1C8B87E0FE013F9671
:10358000DE01189601900D928A95E1F7CE0108961A
:103590000E945319811128C02091CA023091CB0298
:1035A00087E0FE013896DE01119601900D928A9512
:1035B000E1F78C858115C1F0822F90E0019687702C
:1035C000992738171906D9F097E0929FD001112456
:1035D000A453BD4FFE01319601900D929A95E1F7EB
:1035E0008093CA020E94570317E08091CB0290910A
:1035F000CA02891312C06B96E4E00C9451230E9416
:10360000DB0E1092CA021092CB0287E0E4E0F3E0F6
:10361000DF011D928A95E9F7E7CF189FC0011124B9
:1036200084539D4F0E945319811529F38091CB0239
:1036300090E00196877099278093CB02D6CFA6E0C1
:10364000B0E0E5E2FBE10C9435230E9407098C0110
:1036500080916002909161028017910779F0198240
:103660001A820E940709BC0149815A8180E090E0DA
:103670000E94921A10936102009360022696E4E081
:103680000C945123A4E0B0E0E8E4FBE10C942D237A
:10369000FE01319684E0DF011D928A95E9F785E10C
:1036A000E82E81E0F82E8F01B12C9E2EA12ECC2485
:1036B000C394D12CF70181917F018F3FC9F1F89418
:1036C000E82FE295EF70F0E021A18F70A60102C013
:1036D000440F551F8A95E2F7CA01922F982B91A3A8
:1036E00092A18095892382A3789400C0E9E1F1E05A
:1036F00041E0812C20E053E0B51249C0211141C0C6
:1037000088277F9B8395811509F453C080E0882A20
:103710002F5F440F3196243071F7F70182918F3F6C
:1037200011F00E94450280EA8A95F1F7D8018C9247
:10373000B3940F5F1F4FB4E0BB12BCCF44E050E026
:10374000692D7A2D86E392E00E94F923892B99F165
:1037500089819A81AB81BC81809336029093370234
:10376000A0933802B093390281E080930E020E9448
:10377000070990930D0280930C022496ECE00C94C0
:103780004923233021F48FB180958170BCCF3081E3
:103790003F3F09F4BBCFA32FA295AF70A05EB0E06E
:1037A0008C9190E03F7002C0959587953A95E2F72D
:1037B000ECCF842FACCF80910E028115F1F20091F5
:1037C0000C0210910D020E940709801B910B0597B6
:1037D000A0F244E050E066E372E08EE392E00E94E3
:1037E000F923892B81F08091360290913702A091C4
:1037F0003802B091390280933E0290933F02A09329
:103800004002B093410210920E02B7CFCDB7DEB79F
:103810006F970FB6F894DEBF0FBECDBF85B7806837
:1038200085BF85B7806885BF84B7877F84BF0FB6A3
:10383000F894A89580916000886180936000109250
:1038400060000FBE80E890E00FB6F89480936100AE
:10385000909361000FBE81E08093130180E796E0B2
:103860009093E3018093E2010E94B50A0E94A30BAA
:103870008091E20084608093E200789480913D0220
:10388000811599F08091E9001091EC008F701795E7
:1038900011271795182B1092E9008091E80083FDFD
:1038A0000E94220F1F701093E90082E084BD93E014
:1038B00095BD9AEF97BD80936E00E2E5F2E098E047
:1038C000DF011D929A95E9F78093510260E080E054
:1038D0000E94B00761E080E00E94B00760E081E0F4
:1038E0000E94B00761E081E00E94B007EFE8F1E0DC
:1038F0003197F1F700C0000010E0809151021817D5
:1039000008F4DCC081EF0E94450284EF0E9445026A
:1039100085EF0E94450286EF0E94450284E30E94E3
:10392000450286E60E94450287E60E94450286EC33
:103930000E94450284E0EEE3F2E0DF01C82E1D9212
:10394000CA94E9F7E6E3F2E0DF011D928A95E9F710
:1039500083E190E00E94AC236093A1027093A202E5
:103960008093A3029093A4026770BFEF6B9FC00186
:10397000112495958795959587950E94730280E00F
:1039800090E00E94B223853E9E4F09F470C065EE20
:103990007EEF80E090E00E94E62360E082E090E02D
:1039A0000E94C82381E090E09093BE028093BD0204
:1039B00061E083E090E00E94C82360E074E184E06D
:1039C00090E00E94E62360E086E090E00E94C82339
:1039D00060E087E090E00E94C82340E050E0BA0138
:1039E00088E090E00E94DA2360E083E290E00E94A9
:1039F000C82360E08CE090E00E94C82360E08DE086
:103A000090E00E94C82319821A821B821C821D82A8
:103A10001E821F82188648E050E067E170E0CE0108
:103A200001960E94B82340E050E0BA018FE190E097
:103A30000E94DA2340E050E0BA018FE090E00E945B
:103A4000DA231092A1021092A2021092A302109205
:103A5000A40281E08093A10282E10E94730241E00E
:103A600050E060E070E083E190E00E94DA2382E0C1
:103A700090E00E94A4238093420284E090E00E94A0
:103A8000B2239093C8028093C7020E94421BFFEFAB
:103A900006E711E0F15000401040E1F700C00000DF
:103AA0000E94421B80913E0280FF1AC06FEF7FEFA1
:103AB00080E090E00E94E6230E94370C60E0812FB6
:103AC0000E94D307082F61E0812F0E94D307E12FC6
:103AD000F0E0E15BFD4F880F802B80831F5F0DCFEF
:103AE00083E090E00E94A42390E00E94A3028091D2
:103AF000BF029091C0020E9481020E94F00781E003
:103B00008093B90248E050E067E170E081EB92E019
:103B10000E9494231092B9028091B1028430C8F4BB
:103B200085E08093B1021092B2028FEF8093B302CE
:103B30001092B4029FE79093B5028093B60248E0DA
:103B400050E067E170E081EB92E00E94B8231092B0
:103B5000B90280913A0281119BC088E090E00E94F6
:103B6000AC232B013C0183E290E00E94A423282F88
:103B700030E040E050E060E070E080E090E000E2A3
:103B80000E945E23F9017301620100E010E09801D8
:103B9000CD8ADE8AEF8AF88E098F1A8F2B8F3C8FA1
:103BA0002E2F24293D2D3F2B4E295F292093A9023A
:103BB0003093AA024093AB025093AC026093AD02E3
:103BC0007093AE028093AF029093B002243008F05D
:103BD0004DC02DE12093A9022FEF2093AA0220933C
:103BE000AB022DE72093AC021092AD022DE13FEF26
:103BF0004FEF5DE760E00E94D80C88E090E00E9403
:103C0000AC234B015C0183E290E00E94A423282FA7
:103C100030E040E050E060E070E080E090E000E202
:103C20000E945E23F9017501640100E010E0980133
:103C3000CD8ADE8AEF8AF88E098F1A8F2B8F3C8F00
:103C40002E2F28293D2D3F2B4E295F292093A90295
:103C50003093AA024093AB025093AC026093AD0242
:103C60007093AE028093AF029093B0020E94FA0666
:103C70001092A8020E941F028091A90280FF05C035
:103C800060E0869586950E94F51181E080933A0266
:103C900089EA8093800089E08093810086E091E04A
:103CA000909383028093820268E1A62EB12C72E485
:103CB000872E72E0972E66246394CE010196E82E3B
:103CC0009D8F50E1F52E80913D0210E402E1853098
:103CD00009F481C00E94421B03E412E04EE3C42EAB
:103CE00042E0D42ED601F80191918D9122E0E73483
:103CF000F20709F4CDC09817B9F3712CD6015D9085
:103D00006D01F80181918F01851529F1282E252457
:103D1000412C33243394822D83218115A9F04982CB
:103D20007A820E9407099C838B836D8291E0852DA6
:103D30008321811101C090E09E8349815A816B816A
:103D40007C818D810E94921A4394330CF4E04F12CF
:103D5000E2CFF8015292739424E07212CFCF0E9406
:103D6000000A9AC080913D02843059F10E94670296
:103D70000E946B020E946F020E9466120E94260738
:103D800010923B020FB6F894A895A09260000FBE67
:103D90001093600083B7817F846083BF83B78160A5
:103DA00083BF7894889583B78E7F83BF0FB6F894CE
:103DB000A8958091600088618093600010926000F7
:103DC0000FBE0E94421BEEE3F2E08191811178C2A6
:103DD0008E169F06D1F780913D02853009F4C2CF3F
:103DE0000E94DB0E0E944B080E9453120E94670241
:103DF0000E946B020E946F020FEF19E628E101504A
:103E000010402040E1F700C000000E945E023FEF3A
:103E100041EE84E0315040408040E1F700C00000B6
:103E20000E9461029FEFA1EEB4E09150A040B0402B
:103E3000E1F700C000000E946402EFEFF1EE04E041
:103E4000E150F0400040E1F700C000000E9467022E
:103E50001FEF21EE34E0115020403040E1F700C068
:103E600000000E946B024FEF81EE94E041508040D1
:103E70009040E1F700C000000E946F02AFEFB3EC8A
:103E8000E9E0A150B040E040E1F700C0000022CFDF
:103E9000981333CF0E941F1B8091A802811509F44B
:103EA0003EC08091A702E091A902E695E695E81B45
:103EB000E0934902823009F044C0E695F0E0E95D04
:103EC000FC4FE491CE2ED12CDF8ECE8E0BE317E08B
:103ED00080914A02811561F010924A020E940709FE
:103EE000909348028093470210924C0210924B022A
:103EF0000E9407092091470230914802821B930BD0
:103F00008F3F9F4760F4CE8CDF8C2C0D3D1D30938E
:103F100048022093470287E492E0F80109950E9445
:103F2000661280915A02811551F0809154021092CC
:103F30005A0280935502809152028093530200E00E
:103F400052C030EDD32EDE8E07E00F8F02E716E071
:103F5000BFCF61E0802F0E94D307C82E60E0802F82
:103F60000E94D307CC0C8C29202F30E0D901A15B13
:103F7000BD4FEC919E2F93708917A1F1EE0FEE0FBC
:103F8000E82BEC93EF70F0E0EB59FE4F235B3D4FD5
:103F90008081D9019C91890F8C9384300CF453C09B
:103FA000412F50E0BA016F5F7F4F63707727D616BD
:103FB000170679F04E5A5D4F902F9F77FA01948340
:103FC0001F5F137010935402909152029F5F909361
:103FD0005202082E000C990B64E070E00E940D2341
:103FE000F90180830F5FD0905502109154028091A7
:103FF0005102081708F4ADCF90E08CEFD82E2DEFCA
:10400000C22E8091550220915402281709F455C000
:10401000E82FF0E0EA5AFD4F908197FB772470F883
:10402000092F0F778F5F8370809355028091530221
:104030008F5F8093530297FD1BC00987DA860E9429
:10404000070913E01AC08D3F24F6412F50E0BA0152
:104050006F5F7F4F63707727D616170609F4B9CFC5
:104060004E5A5D4F902F9068DA0114969C93A8CF1A
:104070000987CA860E94070912E0BC018B879C87CA
:104080001D876E8649855A85812F91E00E94921A7C
:104090000F87711481F0C88A0E940709BC01898BBF
:1040A0009A8B1B8B1C8A4F855889812F90E00E9428
:1040B000921A91E0A6CFD88AEFCF91110E94000A00
:1040C00086E0EBE9F2E0AE2DBD8D01900D928A9570
:1040D000E1F740909C0270909D0210919E025090DA
:1040E0009F020091A00210929D0210929E021092D7
:1040F0009F021092A002812F8729811509F441C0E7
:10410000C0905D02D0905E020E9407099C012C19AC
:104110003D0990919902911509F4CDC025313105E1
:1041200080F19F3F19F09F5F90939902711459F0AD
:104130000E94060891E017140CF09FEF899F802DD4
:10414000112480939D02111559F00E94060891E0F8
:1041500011160CF09FEF899F802D112480939E02F1
:1041600080919D02811569F0D0909E02D11449F092
:104170000E94F80780939D028D2D0E94F80780937E
:104180009E02802F8529811509F441C0C0905B02F1
:10419000D0905C020E9407099C012C193D09909166
:1041A0009802911509F482C02135310580F19F3FB5
:1041B00019F09F5F90939802511459F00E942608BD
:1041C00091E015140CF09FEF899F802D11248093AE
:1041D0009F02011559F00E94260891E010160CF07C
:1041E0009FEF899F802D11248093A00280919F02D0
:1041F000811569F0D090A002D11449F00E94F8070F
:1042000080939F028D2D0E94F8078093A0028091D9
:104210009C02481219C080919D02811511F08711EE
:1042200013C020919E02211511F012130DC0909120
:10423000A002911511F0091307C030919F023111AE
:1042400003C0822B892B81110E94130986E0EE2D79
:10425000FD8DABE9B2E001900D928A95E1F70E94E5
:104260004B0890915F02891721F080935F020E94B2
:10427000000A8091C202811126CD2090C3023090A5
:10428000C4024090C5025090C6020E94000A621902
:10429000730984099509613A7B4B8D40910508F4B7
:1042A00010CD0E9426076092C2020BCD2B30310543
:1042B00008F07FCFACCF2B30310508F034CF61CF81
:1042C00080913C02811509F486CDF9BC09BD09B481
:1042D00000FEFDCF8091D8008F7D8093D800809123
:1042E000E00082608093E0008091E00081FDFCCFDF
:1042F0000E94DB0E70CD1F921FB61F9211248F9368
:104300009F93AF93BF9380913B02811113C0809123
:10431000240290912502A0912602B0912702419695
:10432000A11DB11D8093240290932502A093260223
:10433000B0932702BF91AF919F918F911F901FBEA5
:104340001F90189578941F921FB61F9211248F9377
:104350009F93AF93BF938091240290912502A091E7
:104360002602B09127020196A11DB11D809324025F
:1043700090932502A0932602B0932702BF91AF919C
:104380009F918F911F901FBE1F9018951F920F92A3
:104390000FB60F9211242F933F934F935F936F9318
:1043A0007F938F939F93AF93BF93EF93FF938091EE
:1043B000E10082FF09C08091E20082FF05C0809188
:1043C000E1008B7F8093E1008091DA0080FF24C0C0
:1043D0008091D80080FF20C08091DA008E7F80938A
:1043E000DA008091D90080FFA9C080E189BD82E117
:1043F00089BD09B400FEFDCF81E080933D0280912C
:104400001302811109C00E94B50A0E94A30B80917A
:10441000E20084608093E2008091E10080FF1AC096
:104420008091E20080FF16C08091E2008E7F809331
:10443000E2008091E20080618093E2008091D800E8
:1044400080628093D80019BC85E080933D0283E0B0
:10445000809313018091E10084FF2FC08091E200DE
:1044600084FF2BC080E189BD82E189BD09B400FED3
:10447000FDCF8091D8008F7D8093D8008091E1009E
:104480008F7E8093E1008091E2008F7E8093E20036
:104490008091E20081608093E20080911202811598
:1044A00009F452C084E080933D0280913D02843043
:1044B00009F052C082E0809313018091E10083FFF4
:1044C0002CC08091E20083FF28C08091E100877FAB
:1044D0008093E10082E080933D021092120280916D
:1044E000E1008E7F8093E1008091E2008E7F8093D7
:1044F000E2008091E20080618093E20042E060E0AF
:1045000080E00E94730B8091F00088608093F0003F
:1045100081E08093130180931201FF91EF91BF918D
:10452000AF919F918F917F916F915F914F913F914B
:104530002F910F900FBE0F901F90189519BC1092DD
:104540003D021092130268CF8091E30087FF02C002
:1045500083E0A9CF81E0A7CF81E0ADCF1F920F927A
:104560000FB60F921124EF92FF920F931F932F9388
:104570003F934F935F936F937F938F939F93AF93EB
:10458000BF93CF93EF93FF9309EE10E0F801808182
:10459000C091EC008F70C795CC27C795C82B1082AF
:1045A00080EFE82EF12CF7018081877F808378945B
:1045B0000E94220FF8011082F701808188608083B9
:1045C000CF70F801C083FF91EF91CF91BF91AF9170
:1045D0009F918F917F916F915F914F913F912F911B
:1045E0001F910F91FF90EF900F900FBE0F901F90B3
:1045F0001895AA1BBB1B51E107C0AA1FBB1FA6171A
:10460000B70710F0A61BB70B881F991F5A95A9F77B
:1046100080959095BC01CD01089597FB072E16F467
:10462000009407D077FD09D00E94F92207FC05D03D
:104630003EF4909581959F4F0895709561957F4FB9
:104640000895EE0FFF1F0590F491E02D09942F922D
:104650003F924F925F926F927F928F929F92AF9212
:10466000BF92CF92DF92EF92FF920F931F93CF935F
:10467000DF93CDB7DEB7CA1BDB0B0FB6F894DEBFF6
:104680000FBECDBF09942A88398848885F846E841C
:104690007D848C849B84AA84B984C884DF80EE8066
:1046A000FD800C811B81AA81B981CE0FD11D0FB66F
:1046B000F894DEBF0FBECDBFED010895002E083087
:1046C00090F0982F872F762F652F542F432F322F5E
:1046D00022270850F4CF220F331F441F551F661F97
:1046E000771F881F991F0A95B2F7002D089597FD2F
:1046F0001094002E083098F00850232F342F452FA7
:10470000562F672F782F892F912DF4CF15949795D9
:1047100087957795679557954795379527950A9586
:10472000AAF71124002D0895DC01CB01FC01F999B1
:10473000FECF06C0F2BDE1BDF89A319600B40D92ED
:1047400041505040B8F70895F999FECF92BD81BD10
:10475000F89A992780B50895A6E1B0E044E050E0CA
:104760000C949623A8E1B0E042E050E00C9496232C
:10477000DC01A40FB51F4150504048F0CB01840F1D
:10478000951F2E910E94C92341505040D0F70895A3
:10479000262FF999FECF92BD81BDF89A019700B4FA
:1047A000021639F01FBA20BD0FB6F894FA9AF99A9A
:1047B0000FBE08950396272F0E94C9230E94C82385
:1047C000252F0E94C923242F0C94C9230196272F3B
:1047D0000E94C9230C94C823FC014150504030F082
:1047E00001900616D1F73197CF01089588279927B0
:1047F0000895FB01DC0104C08D910190801921F422
:1048000041505040C8F7881B990B0895F894FFCF8A
:1048100047094F09520958096D096D096D096D095C
:104820006D096D096D096D095B09600964096A0903
:104830007B0981098509031029102F1029102F10D9
:104840008210A4102F10A211AF11CA143215D21465
:104850009C14A014D614A414DA14E614B0142B1566
:10486000B414EA14B814EE141315BC14F2141A1587
:10487000C214F8140015A814DE14AC14E214C61403
:10488000FC140A15231529159614CE143915731422
:10489000771453146F147B147F1483145E158415DE
:1048A00089158E15931598159D15A215A715AC158C
:1048B000B115B615C915D315DC15E115E615EB15BF
:1048C000F015F515FA15FF1504160916BC16BC16D9
:1048D000F316F3168717A4171D171D17A9175018DD
:0448E00061186118E2
:1048E40000FF00FFFF010409950CAC0CB30CBA0CDB
:1048F4000000010003F1F4F5F6346667C6943096BF
:1049040031FF0A0BFF0908070602030405FF010033
:10491400FF7A406740542D672D852D982D981A7A7B
:104924001A671A541A67077A07040404040404046F
:104934000404040404003131295A1B750A000102DD
:10494400020202020200FF0100010000FFFF00005A
:10495400010001FF00E200E900EA00B500B600B77B
:1049640000CD008301CC008A01920194012102232D
:104974000224022502260227022A02B300B4006F91
:104984000070009F01CB019F02A002E200E900EA4F
:1049940000B500B600B700CD008301CC008A0192B7
:1049A4000194012102230224022502260227022A5D
:1049B40002B300B4006F0070009F01CB019F02A0FE
:0249C4000200EF
:00000001FF
