:100000000C945E020C9496020C9496020C94960248
:100010000C9496020C9496020C9496020C94960200
:100020000C9496020C9496020C94B5280C948D298D
:100030000C946A280C9496020C9496020C949602E6
:100040000C9496020C9496020C9496020C949602D0
:100050000C9496020C9491280C9496020C9496029F
:100060000C9496020C9496020C9496020C949602B0
:100070000C9496020C9496020C9496020C949602A0
:100080000C9496020C9496020C9496020C94960290
:100090000C9496020C9496020C9496020C94960280
:1000A0000C9496020C9496020C9496020501090297
:1000B000A10185020901A1000509190129081500FE
:1000C0002501950875018102050109300931158165
:1000D000257F95027508810609381581257F9501D0
:1000E00075088106050C0A38021581257F95017572
:1000F000088106C0C005010980A101850319012AF4
:10010000B700150126B700950175108100C0050CD8
:100110000901A101850419012AA002150126A002E6
:10012000950175108100C005010906A1018506052C
:100130000719E029E71500250195087501810205D9
:1001400007190029EF1500250195F07501810205B9
:10015000081901290595057501910295017503910D
:1001600001C00660FF0961A1010962150026FF00B8
:100170009520750881020963150026FF00952075FA
:10018000089102C005010906A101050719E029E748
:1001900015002501950875018102950175088101F9
:1001A0000507190029FF150026FF0095067508812F
:1001B000000508190129051500250195057501910E
:1001C00002950175039101C009025B00030100A0C3
:1001D000320904000001030101000921110100019D
:1001E00022440007058103080001090401000203FD
:1001F00000000009211101000122220007058203ED
:100200002000010705030320000109040200010387
:1002100000000009211101000122B6000705840336
:1002200020000112010002000000084C57E3E60024
:10023000010102000114034D006900630072006FA8
:100240000020005000610064000000180357006F98
:100250000072006B0020004C006F007500640065A8
:10026000007200000004030904000029003E0000A1
:10027000002C0C407E1B08E3006800AC00AE00AB15
:100280000020786A00A8000152010001000100016D
:100290000001000100010001000100010001000156
:1002A00000010001000100025201000100010001F3
:1002B0000001000100010001000100010001000136
:1002C00000010001000100035201000100010001D2
:1002D0000001000100010001000100010001000116
:1002E000000100007C037C0052DB00DC00B700B69C
:1002F00000010001000100010001000100010001F6
:1003000000010001000100010000010101010101E3
:1003100001010102020202020202020203030303BC
:10032000030303030404040404040405050505058C
:10033000060606060607070707070808080809094A
:1003400009090A0A0A0B0B0B0C0C0C0D0D0D0E0EF5
:100350000E0F0F0F10101111111212131314141588
:100360001516161717181819191A1A1B1B1C1D1DFC
:100370001E1E1F2020212222232424252626272852
:1003800029292A2B2C2D2D2E2F3031323233343582
:10039000363738393A3B3C3D3E3F40414243444585
:1003A000464748494A4C4D4E4F5051535455565864
:1003B000595A5B5D5E5F616264656668696B6C6D0E
:1003C0006F7072737577787A7B7D7E808283858784
:1003D000888A8C8E8F91939596989A9C9EA0A2A3C2
:1003E000A5A7A9ABADAFB1B3B5B7BABCBEC0C2C4C7
:1003F000C6C9CBCDCFD1D4D6D8DBDDDFE2E4E7E987
:10040000EBEEF0F3F5F8FAFDFF64321400000000A3
:1004100000000000000000000000000000000000DC
:1004200000000000000000000000000000000000CC
:100430007E0F00D4FFFFFFC700000078000000001F
:10044000000000002A2B280000000000000000002F
:100450000000000000000029000000002C1E3420D5
:10046000212224342627252E362D3738271E1F20FB
:100470002122232425263333362E37381F04050640
:100480000708090A0B0C0D0E0F1011121314151684
:100490001718191A1B1C1D2F3130232D3504050682
:1004A0000708090A0B0C0D0E0F1011121314151664
:1004B0001718191A1B1C1D2F3130354C11241FBE63
:1004C000CFEFDAE0DEBFCDBF04B603FE18C08091E7
:1004D000230390912403A0912503B0912603873034
:1004E000904BA740B04B59F4109223031092240371
:1004F0001092250310922603E0E0F8E3099511E03D
:10050000A0E0B1E0E0EEF6E502C005900D92A43B5C
:10051000B107D9F723E0A4EBB1E001C01D92A332EB
:10052000B207E1F70E94FF1F0C94EA2A0C94000026
:10053000529A0895FC01CB013FB7F8948E0F9F1F8C
:10054000E817F90711F43FBF0895519168E02BB9FE
:10055000000000C057FF4BB9550F000000C000C09D
:1005600000C04BB900C06A9591F7EACFF894E82F24
:10057000E295EF70F0E041A18F7021E030E0B90129
:1005800002C0660F771F8A95E2F7CB01962F9095F0
:10059000942391A392A1892B82A378940895269AFB
:1005A0002E9A0895279A2F9A0895259A2D9A08959C
:1005B00026982E982E98089527982F982F9808956A
:1005C00025982D982D98089590E090938B00809316
:1005D0008A0090938D0080938C0090938900809383
:1005E000880008950F931F93CF93C82F811107C0E0
:1005F0000E94D8020E94DC020E94E0021DC0082F67
:1006000010E0C8019595879581708823D1F00E94EC
:10061000CF02C80195958795959587958170882318
:1006200099F00E94D20283E0169507958A95E1F72A
:1006300000FFE2CF0E94D5028C2FCF911F910F9126
:1006400008950E94D802E5CF0E94DC02ECCF80938F
:10065000D70208950E94F2028093D802089521E003
:1006600030E001C0220F8A95EAF78091D802822BF0
:100670000E942A03089521E030E0A90102C0440F3E
:10068000551F8A95E2F7CA0180959091D802892377
:100690000E942A0308959B01677091E001C0990FA1
:1006A0006A95EAF763E0369527956A95E1F7B9010F
:1006B000660F771F260F371FFA01E20FF31F40E086
:1006C00050E0682F70E08191DF0111979B01042EAB
:1006D00002C0369527950A94E2F7217021952827C4
:1006E000292328272C934F5F5F4F4330510559F73B
:1006F00008959C01A82FA77083E0369527958A95C9
:10070000E1F7C901880F991F820F931FFB01E80FC2
:10071000F91F40E050E080E0219130E00A2E02C055
:10072000369527950A94E2F721703327042E01C0ED
:10073000220F0A94EAF7822B4F5F5F4F4330510537
:1007400059F70895282F862F943068F4243050F4F8
:1007500034E0939FB0011124620F711D4DEA52E005
:100760000E944B0308959C5F9230E0F7622F70E087
:100770004AEA52E0F5CF282F943068F4843090F4A0
:1007800034E0939FC00111246DEA72E0820F911D45
:100790000E94790308959C5F923020F46AEA72E027
:1007A00090E0F6CF80E008959091D80221E030E00B
:1007B000F90101C0EE0F8A95EAF7D90102C0AA0F2C
:1007C000BB1F6A95E2F7EA2B01C0220F4A95EAF7B0
:1007D000892F8E23E81305C0892F822B0E942A03BC
:1007E00008952095822F8923F9CF8091E30290917B
:1007F000E202981301C008958F5F8770FACF90913D
:10080000D902809589238093D902282F277021113E
:100810000DC0891759F09091E00292FF07C08695AC
:10082000869586950E943B031092D9020895809187
:10083000D4029091E102892B5091D5025523C1F049
:10084000909112019923A9F09091DF0297FF11C0B6
:100850009DE120EC31E040E0F90160812F5F3F4FE6
:1008600061114F5F9150C0F741111092D502852B55
:10087000089595E028EB31E0EECF982F9095809188
:10088000D40289238093D4020895803E9105D1F14A
:10089000C8F48133910509F47FC048F48932910589
:1008A00009F46FC08A32910509F47DC00895893337
:1008B0009105E1F082389105C9F08533910509F47D
:1008C0005BC00895843E9105D1F148F4823E9105C4
:1008D00031F1833E910541F181EE90E00895863E2D
:1008E0009105C1F1873E9105E1F108952091DF0264
:1008F0002370211165C02091E00223FF14C089E21A
:1009000090E008952091DF0220FD43C03091E00285
:1009100030FF09C024FF4EC080E090E00895209190
:10092000DF0222FDF7CF08952091DF0222FD45C0AE
:100930003091E00230FD44C024FFF5CFEDCF20918F
:10094000E00221FFF0CF8091DF0284FDE5CF87EE4A
:1009500090E008952091DF0223FFE5CF24FDDCCF56
:10096000F6CF2091DF0223FD2EC03091E00231FF4F
:10097000E3CF84EE90E008952091DF0225FFD3CFEE
:10098000BECF2091DF0225FD21C02091E00223FF90
:10099000CACF89E390E008952091DF0226FFC3CFFC
:1009A0008AE290E008952091DF0226FFBCCF81E328
:1009B00090E0089583EE90E0089582EE90E008952F
:1009C00080EE90E0089586EE90E0089585E390E053
:1009D000AACF9091DF0292FF10C041E0282F24712E
:1009E000243009F040E031E0282F2871283009F048
:1009F00030E0431711F02CE0822793FF10C041E054
:100A0000282F2471243109F040E031E0282F28718B
:100A1000283109F030E0431711F02CE082273091A3
:100A2000E00230FF10C051E0282F2171213009F081
:100A300050E041E0282F2871283009F040E0541799
:100A400011F029E0822731FF10C041E0282F2171E9
:100A5000213109F040E031E0282F2871283109F0D8
:100A600030E0431711F029E0822794FD877E089536
:100A70001F93CF93DF930E944504EC01811522E57B
:100A8000920708F053C0811540E5940708F0DDC0D7
:100A9000803E9105F8F48D3C910508F0AEC0883A8F
:100AA000910580F4853A910508F099C0813091054F
:100AB00021F00497813A910550F4CE01DF91CF9156
:100AC0001F910895885A91094B9708F48BC0C0E094
:100AD000D0E0F3CF811550E49507F8F4C11580E21A
:100AE000D80708F0CBC0C83ED10538F3CE019A959F
:100AF00081159F4160F78D2F0E94E904182FCE01C8
:100B000099270E944504212F30E0322F2227E90146
:100B1000CC27DF71C82BD92BD0CF99270E94450451
:100B2000CC27DF70C82BD92BD06AC7CF803842E5DD
:100B30009407C8F5803652E5950708F067C0C034C1
:100B400082E5D807B0F08C2F86958695877020E2D5
:100B5000829FC0011124C37021E030E0A90102C0CE
:100B6000440F551FCA95E2F7EA01C82BD92BDC6860
:100B7000A4CFC03252E5D50708F041C08C2F86952E
:100B8000869520E2829FC0011124C37021E030E0ED
:100B9000A90102C0440F551FCA95E2F7EA01C82B0C
:100BA000D92BDD688ACF803C52E5950760F48F71C0
:100BB000C03AD24508F03FC090E0982F8827EC015A
:100BC000C46FD06A7ACF805C9245809708F07FCF5F
:100BD000DC2FCC27CC27DF71C06FD06A6ECFA497F3
:100BE000D0646BCFC85AD0E0CC0FDD1FC258DE4FA7
:100BF0000990D881C02DD46460CFD0655ECFCF710D
:100C0000D0E0DC2FCC27C16FD06A57CF8695869570
:100C1000877020E2829FC0011124C37021E030E080
:100C2000A90102C0440F551FCA95E2F7EA01C82B7B
:100C3000D92BDA6842CF0E94E904C82FD0E0DC2F1C
:100C4000CC27CC27DF71D06238CF8F710E94E904A6
:100C500065E0D695C7956A95E1F7CF70D0E0DC2FB7
:100C6000CC27282F30E084FF05C054E0220F331F2B
:100C70005A95E1F7C22BD32BD0691FCF8D2F8F71DF
:100C80000E94E904182FCE0199270E944504212FC4
:100C900030E0322F222722273F71282B392BE90100
:100CA000D2CF80E008950895A0E0B0E0EAE5F6E054
:100CB0000C94132AE82FF0E0E75FFC4F711109C094
:100CC000E4918E2F7E2F6E2FCDB7DEB7EAE00C9425
:100CD0002F2A262F30E0C72FD0E0F491EF2F86E0A7
:100CE000829F8001839F100D1124EE24EA94F12C41
:100CF000C801B7010E94D629AB01220F331F65E559
:100D0000649FC001659F900D1124281B390B822F11
:100D1000880F280FC7018C1B9D0BF89FD001F99FEE
:100D2000B00D11248B2F2C9FB0012D9F700D11241D
:100D3000672F77275701A61AB70AFA9D6001FB9D16
:100D4000D00C11247D2D5701A21AB10895012C9FBA
:100D500050012D9FB00C3C9FB00C1124AB2CBB2438
:100D6000EA18FB08FE9DE001FF9DD00D11244330E1
:100D70005105C1F00C3F93E0190750F44130510583
:100D800009F4A1CF4230510589F07E2FED2F9BCF82
:100D90004430510571F046305105B9F3EB2F8D2DDC
:100DA0007F2F91CFED2D7B2F8F2F8DCF7B2F8D2FF1
:100DB0008ACF7D2FEB2FF8CFCF93DF93982F762F0D
:100DC000842FE901692F0E945406798368838A83FE
:100DD000DF91CF9108958091CC02843060F48370CC
:100DE00084608093CC028091CF02873918F086E925
:100DF0008093CF0208958032B0F383708C61F1CF7D
:100E00008091CC0280FD0AC0EFE2F2E011821082F4
:100E10001282339682E0E734F807C1F768E070E0A9
:100E20008FE292E00E94E50B08951092CB02809130
:100E30002E0281110EC081E080932E028091CC029F
:100E4000982F917090932D028E7F8093CC020E94F8
:100E500000070895EF92FF921F93CF93DF93EC0169
:100E60008FE2E82E82E0F82E10E04091CF02473961
:100E700008F046E98C8197016091CE02810F0E94B3
:100E8000DC06115E83E0E80EF11C183F71F70E944A
:100E900000079A818C8190FF08C08F5F8C83DF915F
:100EA000CF911F91FF90EF9008958150F7CF40911F
:100EB00003015091040125E038E0429FC001439FA7
:100EC000900D529F900D1124875E994C90930401D0
:100ED00080930301890F08950E94C8070895962FF3
:100EE0002091C00223702223A1F0882399F083303F
:100EF00098F48F73880F880F2091C0022370822B83
:100F00008093C002109213016091BF02692B60931D
:100F1000BF02089581E0EECF82E0ECCF922F2091C6
:100F2000C0022370222371F08093C1026093C20239
:100F3000473908F046E94093C3022091BF02292BAC
:100F40002093BF020895519A109220020895CF93E2
:100F5000DF93DC01FC01EE0FFF1FEF01CA0FDB1F67
:100F6000C450DE4F8981861306C08881841303C074
:100F70008A81821751F081E080932002EA0FFB1FE3
:100F8000E450FE4F618340832283DF91CF91089527
:100F9000FF920F931F93CF93DF93182F062FF42EFA
:100FA000C0E0D0E02F2D402F612FCE010E94A70777
:100FB0002196CC30D105B1F7CDB7DEB7E5E00C9482
:100FC000342AFA01882311F009950895FB01FCCF1A
:100FD00090E06623E9F0845D9E4FFC0180818F3FA5
:100FE000B1F0E82FE295EF70F0E041A18F7021E0C1
:100FF00030E0B90102C0660F771F8A95E2F7CB0196
:10100000962F9095942391A392A1892B82A3089562
:10101000865D9E4FE2CF90E06623A9F0845D9E4FEF
:10102000FC0120812F3F91F0E22FE295EF70E05E0E
:10103000F0E0808190E02F7002C0959587952A9509
:10104000E2F781700895865D9E4FEACF80E00895B3
:10105000282F35EB2303C001112497FF04C08058CB
:101060009109892F089580589F4FFBCF8091B50239
:1010700080FD14C081FD14C082FD16C08091B402B1
:10108000882381F08E3180F420E5829FC0011124F5
:101090006EE170E00E94EA29862F089584E10895A8
:1010A00088E2089588E0089580E508958091B5026A
:1010B00080FD17C081FD17C082FD19C08091B30269
:1010C000882399F0883298F428E0829FC001112487
:1010D00068E270E00E94EA296115710551F0862FDF
:1010E000089562E0FCCF64E0FACF61E0F8CF68E0F9
:1010F000F6CF81E00895E091A002F091A10230972F
:1011000029F00190F081E02D0995089580E008957F
:10111000A3E0B0E0EEE8F8E00C941B2A9C0180917B
:10112000FA019091FB0182179307A1F03093FB0124
:101130002093FA01E091A002F091A102309751F0C2
:1011400083E089833B832A830084F185E02DCE01EF
:10115000019609952396E2E00C94372AA3E0B0E0CB
:10116000E4EBF8E00C941B2A9C018091F80190912B
:10117000F90182179307A1F03093F9012093F80148
:10118000E091A002F091A102309751F084E08983B0
:101190003B832A830084F185E02DCE0101960995D9
:1011A0002396E2E00C94372A909112019923C1F022
:1011B0009091DF0297FF14C0E82FE695E695E6953B
:1011C000803FF8F4F0E0E254FE4F877021E030E019
:1011D00001C0220F8A95EAF78281822B82830895CB
:1011E000A8EBB1E0EFEF90E02D91821751F0EF3FC7
:1011F00019F4211101C0E92F9F5F9630A9F7EF3F45
:1012000009F408950E2E000CFF0BEA54FE4FE6CFB2
:10121000909112019923E1F09091DF0297FF18C09D
:10122000E82FE695E695E695803FF0F4F0E0E2548D
:10123000FE4F877021E030E0A90102C0440F551F26
:101240008A95E2F7CA018095928189238283089565
:10125000E8EBF1E09191891303C0DF0111971C9233
:1012600051E0EE3BF507B1F708952FB7F894809160
:101270007A0290917B02A0917C02B0917D022FBFF7
:1012800008950E9435092091B8023091B902232BAC
:10129000222321F080936E0290936F022091BA0274
:1012A0003091BB02232B222321F080936C02909378
:1012B0006D02E091A002F091A102309749F082E026
:1012C0008093B6020680F781E02D86EB92E00995C7
:1012D00008952091B8029091BB023091BA02662322
:1012E00009F45AC04091B902242B292B232B222325
:1012F00031F098E09093B40291E09093B3028D3C6A
:1013000041F40E94360881958093B9020E944109F8
:101310000895E2E3E80FE231C8F7F0E0E451F54D5B
:101320000C94FE290E943608EFCF0E943608819562
:101330008093B802EBCF0E943608FACF0E9456087D
:101340008093BA02E3CF0E9456088195F9CF0E949C
:10135000560881958093BB02D9CF0E945608FACFD8
:10136000815D990B21E030E001C0220F8A95EAF7F8
:101370008091B702822B8093B702C8CF8091B502CB
:1013800081608093B502C2CF8091B5028260F9CFAF
:101390008091B5028460F5CF8D3C59F48091B902FB
:1013A00087FF0DC01092B902222359F41092B402A3
:1013B00008C08E3C81F48091B90218169CF3222358
:1013C00081F08091BA029091BB02892B81119ECF4E
:1013D0001092B3029BCF8F3C41F427FFF0CF1092C5
:1013E000B8028091B9028823E0CF803D19F412162B
:1013F000B4F3E5CF893D29F413160CF71092BA0225
:10140000DECF8A3D19F437FFDACFF8CF8B3D29F4D0
:1014100097FFD5CF1092BB02D2CF8C3D19F419168D
:10142000CCF3CDCF9FE2980F983090F4815D990B6B
:1014300041E050E0BA0102C0660F771F8A95E2F7DB
:10144000CB0180959091B70289238093B702B7CFE3
:101450008D3D31F48091B5028E7F8093B502AFCF80
:101460008E3D21F48091B5028D7FF7CF8F3D09F03D
:10147000A6CF8091B5028B7FF0CFA4E0B0E0E3E48B
:10148000FAE00C941B2A8FB7F89420917A023091DD
:101490007B0240917C0250917D0229833A834B83E9
:1014A0005C838FBF69817A818B819C812496E2E085
:1014B0000C94372A9C014FB7F89480917A0290914E
:1014C0007B02A0917C02B0917D024FBF821B930BE7
:1014D00008958091F7010895FC019B018091ED0131
:1014E0009091EE018617970740F0672B29F48091C1
:1014F000E8008E778093E800C90140E0009741F44E
:10150000411106C08091E80082FF2FC080E008955D
:10151000209179022223A9F12530A9F12091E80038
:1015200023FD2DC02091E80022FDECCF2091E800A2
:1015300020FFE4CF3091F3002091F200009719F0E2
:101540002830310558F041E02830310509F040E0FD
:101550002091E8002E772093E800D0CF419140936E
:10156000F10001972F5F3F4FE9CF809179028823E7
:1015700041F0853041F08091E80083FFC3CF81E0E6
:10158000089582E0089583E008958091E70187FF40
:1015900013C08091E80082FF06C08091E8008B773D
:1015A0008093E80004C0809179028111F2CF089500
:1015B000809179028823D9F38091E80080FFF8CFE9
:1015C0008091E8008E77ECCF2091E4003091E50027
:1015D00095E6A9018091EC008170882331F080911B
:1015E000E80080FF06C080E008952091E80022FD19
:1015F0001BC080917902882391F0853091F0809111
:10160000EB0085FD10C02091E4003091E500421709
:10161000530701F391509111DCCF84E0089582E0EB
:10162000089583E0089581E00895E8EDF0E0808179
:101630008E7F80831092E2001092DA001092E10017
:10164000A0EEB0E08C9181608C9380818F77808355
:1016500019BCA7EDB0E08C918E7F8C9380818F7E3A
:1016600080831092E6010895982FE42FE270909302
:10167000E900891308C0762F242F50E0E11111C032
:1016800091E0980FF4CF7091EC002091ED00509113
:10169000F00021FD06C09F5F973049F78093E90075
:1016A00008953091EB003E7F3093EB003091ED00D8
:1016B0003D7F3093ED003091EB0031603093EB00D3
:1016C0007093EC002093ED005093F0002091EE0019
:1016D00027FDE1CF0895A0E0B0E0E1E7FBE00C9446
:1016E000152AC8EDD0E088818F7E8883E7EDF0E091
:1016F00080818160808384E082BF81E08093E60105
:1017000088818E7F888302EE10E0F80110821092AB
:10171000DA0081EEC82ED12CF601108288818F77F5
:10172000888388818068888388818F7D888319BCBD
:10173000109279021092E50110924E021092E4018B
:1017400090EEE92EF12CF70180818B7F80838881D8
:101750008160888342E060E080E00E94340BF60103
:1017600080818E7F8083F801808181608083808189
:1017700088608083F70180818E7F8083888180618B
:101780008883CDB7DEB7E8E00C94312AE091E3021C
:101790009091E20227E0E91302C080E00895AE2FA5
:1017A000B0E02E9FF0011124EC51FD4F3181361332
:1017B00006C03081381303C03581341304C0FD01E5
:1017C0003196E770E8CF81E008954BB12BB12460EA
:1017D0004B7FFB01EE0FFF1F6E0F7F1F0E949A02CF
:1017E0008FE594E00197F1F700C000000895809123
:1017F0002002882391F04BB12BB122604D7F64E22F
:1018000070E08CEF91E00E949A028FE594E00197DE
:10181000F1F700C0000010922002089581E080934B
:10182000E00080E28093D8001092C9008FE19EE42E
:101830000197F1F700C0000087E090EBDC01809396
:10184000230390932403A0932503B093260388E1F8
:101850009CE00FB6F894A895809360000FBE90931B
:101860006000FFCF0F931F93CF93DF93EB018A01AB
:1018700090917902943079F58093E9008FEF9091FF
:10188000E80095FD07C095ED9A95F1F700008150AD
:101890008111F5CF8091E80085FF1DC00E94E40A08
:1018A000811114C08091E80085FD06C08091E80098
:1018B0008E778093E800F2CF88818093F100015009
:1018C00011090115110511F02196ECCF8091E80066
:1018D0008E778093E800DF91CF911F910F9108954B
:1018E000CF93DF93D82FC92F48E050E0682F792F8E
:1018F00081E00E94320C88E0ED2FFC2FAFEEB1E0CA
:1019000001900D928A95E1F7DF91CF910895BC0186
:1019100040E250E084E00E94320C0895BC0146E0B1
:1019200050E084E00E94320C0895BC0143E050E096
:1019300084E00E94320C08959091E00292FB2227ED
:1019400020F9281779F080FB92F99093E0026091DA
:10195000DF027091E00284E090E00E94CA2A82E0F7
:101960000E94FF0308951F93CF93DF93C62F122F7A
:10197000632F9C2F942B982B9430C0F428E0C29FA7
:10198000E001112450E0440F551FC40FD51F20E281
:10199000829FC0011124C80FD91FCE0188960E94D2
:1019A000AC2A612FCE0189960E94AC2ADF91CF919B
:1019B0001F9108951F93CF93DF93962F122F632FBC
:1019C0008430D0F49230C0F428E0829FE0011124EA
:1019D00024E0929FC0011124C80FD91FC855DF4FC2
:1019E000CE01442369F00E94AC2A81E090E0612F8F
:1019F0008C0F9D1F0E94AC2ADF91CF911F910895FB
:101A000002960E94AC2A83E090E0F1CF8F929F92E1
:101A1000BF92CF92DF92EF92FF920F931F93CF93DB
:101A2000DF9309EE12E0E12CF12CC0E04701D0E099
:101A300015C0F601259134914B2D6D2F8C2F0E94EE
:101A4000B30C22E0C20ED11CB39434E0B312F1CF38
:101A500084E0880E911CDF5FD43049F0C401880F08
:101A6000991F9C0127593D4F6901B12CE2CFF80124
:101A70002591349141E060E08C2F0E94DA0CF8014E
:101A800032962591349140E060E08C2F0E94DA0C70
:101A9000F80134962591349141E061E08C2F0E9449
:101AA000DA0CF80136962591349140E061E08C2FF4
:101AB0000E94DA0C085F1F4FCF5F30E1E30EF11C8C
:101AC000C43009F0B3CFDF91CF911F910F91FF90F8
:101AD000EF90DF90CF90BF909F908F900895CF931D
:101AE000DF93C8ECD0E060E0CE010E94AC2A2196E2
:101AF000C11584E0D807B9F7DF91CF910895882305
:101B000081F064E284E290E00E94AC2A65E085E224
:101B100090E00E94AC2A66E286E290E00E94AC2A45
:101B200008956FEF84E290E00E94AC2A6FEF85E2A7
:101B300090E00E94AC2A6FEFEFCF80E00E947F0D13
:101B400060E087E290E00E94AC2A0E94060D0E94AD
:101B50006F0D81E00E947F0D08950F931F93CF9327
:101B6000DF93962F942B982B943018F528E0629FE2
:101B7000E001112450E0440F551FC40FD51F30E27F
:101B8000839FC0011124C80FD91FCE0188960E94DF
:101B9000882A082F10E0102F0027CE0189960E9476
:101BA000882A9801282BC901DF91CF911F910F91AD
:101BB000089580E090E0F8CF0F931F93CF93DF93C9
:101BC000843078F5623068F528E0829F8001112426
:101BD00034E0639FB0011124060F171F08551F4FF3
:101BE000C8014423A1F00E94882AC82FD0E0DC2F2E
:101BF000CC2781E090E0800F911F0E94882A9E01EF
:101C0000282BC901DF91CF911F910F910895029662
:101C10000E94882AC82FD0E0DC2FCC2783E090E0F8
:101C2000EACF80E090E0EECF743048F4982F962B06
:101C3000943060F4462F672F0E94AD0D08957D3FCC
:101C400041F4623018F441E0843050F080E090E0DC
:101C500008957C3FD9F76230C8F78430B8F740E088
:101C60000E94DC0D0895A0E0B0E0E9E3FEE00C94F2
:101C7000162A7C010091D8028091D702082BC3E07C
:101C8000D0E010E0C8010C2E02C0959587950A940B
:101C9000E2F780FD09C02197A8F7D12C8D2DCDB793
:101CA000DEB7E7E00C94322ADC2EB7018C2F0E94BD
:101CB000140E0E943805019771F3F0CF0F931F9314
:101CC000CF93FC01858100811181882391F06623E7
:101CD00081F0C8010E94330EC82F682FC8010E94EE
:101CE000A203B8018C2F0E94140ECF911F910F9167
:101CF0000895C8010E94BB03C82FF3CFCF93DF9391
:101D0000D82FC92F0E94330E6D2F7C2F0E94140EE6
:101D10000E943805DF91CF910895FC0184818823CA
:101D2000A1F0808191810E947E0E282F92959F7054
:101D3000963091F060F4925F9F70923030F481E0C1
:101D4000203F79F030F4283E30F080E004C09A5F04
:101D5000F3CF243FD1F7089581E0283E18F0213FCA
:101D6000F9CF0895089584E290E00E94882A843291
:101D700089F485E290E00E94882A853059F486E251
:101D800090E00E94882A91E0863209F090E0892F45
:101D90008170089580E0FCCF80911201882359F171
:101DA0008091DF0287FF27C00E9417048093BF0144
:101DB00040E250E060E872E08EEB91E00E94DD2AA4
:101DC000892BC1F080E2EEEBF1E0A0E8B2E00190F7
:101DD0000D928A95E1F7E091A002F091A10230976F
:101DE00049F086E08093BE010480F581E02D8EEB02
:101DF00091E0099508950E9417048093B60148E088
:101E000050E062EA72E086EB91E00E94DD2A892BC5
:101E100089F388E0E6EBF1E0A2EAB2E001900D92EE
:101E20008A95E1F7E091A002F091A102309711F3B9
:101E30000280F381E02D86EB91E0DBCFCF93C82FBA
:101E40008823B1F18CEF8C0F813AA0F580911201BB
:101E5000882301F18091DF0287FF1CC0EC2FE695FB
:101E6000E695E695F0E0E254FE4F828190E04C2F3B
:101E7000477021E030E002C0220F331F4A95E2F79D
:101E800082239323892B79F08C2F0E9408090E94CA
:101E9000CC0E09C0E8EBF1E08191C817A9F321E06D
:101EA000EE3BF207C9F78C2F0E94D4080E94CC0E9B
:101EB000CF91089580E28C0F883068F4C77081E07C
:101EC00090E001C0880FCA95EAF7C091D402C82BF0
:101ED000C093D402EBCF8BE58C0F833038F42C2FDA
:101EE0002452330BC9010E948808E2CFE8E5EC0FC9
:101EF000EB3150F4F0E0EE0FFF1FE258FE4F80810F
:101F000091810E94AE08D4CF83E38C0F833180F699
:101F100061E08C2F0E946909CBCF882381F19CEF6F
:101F2000980F913A28F40E9408090E94CC0E089557
:101F300090E2980F983050F4877091E001C0990FAB
:101F40008A95EAF7892F0E943D04EFCF9BE5980F11
:101F5000933028F480E090E00E948808089598E586
:101F6000980F9B3128F480E090E00E94AE0808951D
:101F700093E3980F933118F460E00E946909089583
:101F80001F93CF93DF93182FEB010E941E0F209712
:101F900039F4812F0E948D0FDF91CF911F91089509
:101FA0008FE99FE00197F1F700C000002197EFCF84
:101FB000882339F09091D402892B8093D4020E9417
:101FC000CC0E0895882321F00E943D040E94CC0E7F
:101FD00008950F931F93CF93DF93C62FD42F122F03
:101FE0008823A9F06093C8020E9435099093E2010A
:101FF0008093E101C77081E001C0880FCA95EAF7BC
:102000000E94D80FDF91CF911F910F910895809179
:10201000C802681336C08091E1019091E2010E94EC
:102020005A0A883C910568F5CD130EC060E070E057
:10203000812F0E94C00FD77081E001C0880FDA9510
:10204000EAF70E94E20FDECFC77001E0802F01C0E7
:10205000880FCA95EAF70E94E20F80E28D0F883060
:1020600050F48D2F877001C0000F8A95EAF7802FFA
:102070000E94D80FDBCF60E070E0812F0E94C00F7C
:10208000C1CFC77081E001C0880FCA95EAF7D9CFE8
:102090001092D40280911201882339F18091DF02DD
:1020A00087FF23C0E0ECF1E08EE1DF011D928A950D
:1020B000E9F780E090E00E94880880E090E00E94CC
:1020C000AE081092E1020E94CC0E86E0E6EBF2E050
:1020D000DF011D928A95E9F71092B4021092B302C3
:1020E0001092B5020E9441090895E8EBF1E086E004
:1020F000DCCF0E9448102FEF84E39CE02150804009
:102100009040E1F700C0000088E19CE00FB6F89431
:10211000A895809360000FBE90936000FFCFAAE265
:10212000B0E0E5E9F0E10C941A2A87EE91E0FC01B9
:1021300001962091F100208321E08F3E9207B9F7AC
:102140008091E801893009F456C0C8F4823009F45E
:10215000B3C0833009F482C0813071F18091E8000E
:1021600083FFE7C08091E7019091E8019A3008F081
:10217000E0C0E92FF0E0E250F54D0C94FE298A30E2
:1021800009F489C08B3051F78091E701813231F732
:102190008091EB019091EC01892B01F78091E8008F
:1021A000877F8093E8000E94C50A8091E9018093AF
:1021B00012010E944810D2CF8091E701813A71F656
:1021C0008091E800877F8093E8008091EB019091F7
:1021D000EC01892B61F060E080E090E070E00E940B
:1021E0006C0A8091E8008B778093E800B7CF68E0B5
:1021F0008FEE91E0F3CF8091E701813209F0AECF0D
:102200008091EB019091EC018D7F892B09F0A6CF95
:102210008091E800877F8093E8008091E80082FF4A
:1022200018C09091F3008091F200029731F48091F0
:10223000F100813011F0863021F48091F10080931B
:10224000F7018091E8008B778093E8000E94C50A2F
:1022500085CF809179028111E0CF80CF8091E70115
:10226000813A09F07BCF8091EB019091EC01892BB1
:1022700009F074CF8091E800877F8093E800809117
:10228000E80080FFFCCF809112018093F1008091E3
:10229000E8008E77D9CF8091E701813209F05ECFD7
:1022A0008091E800877F8093E8000E94C50A8091B2
:1022B000EA018093E30152CF8091E701813A09F06E
:1022C0004DCF8091E800877F8093E8008091E800FF
:1022D00080FFFCCF8091E301D8CF803889F082382D
:1022E00041F58091EB018F70873018F58093E900FC
:1022F0008091EB0085FB882780F91092E90006C0E9
:102300008091E40190914E02911182609091E800D9
:10231000977F9093E8008093F1001092F1008091F4
:10232000E8008E7723C0811116C08091E9018130C9
:1023300011F18091E80083FF0AC08091E800877F57
:102340008093E8008091EB0080628093EB00AA9676
:10235000E3E00C94362A823061F78091E90188230A
:1023600089F01092E9008091E800877F8093E8006F
:102370000E94C50ADECF81E0933009F080E08093AF
:102380004E02EFCF8091EB018F702FEF280F263098
:1023900080F68093E9002091EB0020FFE2CF93309C
:1023A00031F48091EB0080628093EB00DACF909162
:1023B000EB0090619093EB0021E030E0A90102C0B6
:1023C000440F551F8A95E2F74093EA001092EA0005
:1023D0008091EB008860E8CF8111ABCF1091E901CB
:1023E0001F778091E3008078812B8093E3008091B8
:1023F000E800877F8093E8000E94C50A8091E8008A
:1024000080FFFCCF8091E30080688093E30083E04D
:10241000111101C082E0809379028BCF8058823005
:1024200008F087CF4091E9015091EA014C3D83E0EB
:10243000580799F583E08A838AE289834FB7F89435
:10244000DE01139620E03EE051E2E32FF0E05093EE
:102450005700849120FF03C082958F703F5F8F707B
:102460008A30C8F0895C90E08D939D932F5F243172
:1024700061F74FBF8091E800877F8093E8006AE2B0
:1024800070E0CE0101960E946C0A8091E8008B7783
:102490008093E8004ECF805DE6CF8091EB01909174
:1024A000EC01252F33272330310509F44AC078F594
:1024B0002130310509F479C08BE590E0E8ECF1E0DA
:1024C0002230310509F035CF2091E800277F209395
:1024D000E8002091ED013091EE018217930708F496
:1024E0009C0140E02115310509F064C0411162C032
:1024F0008091E80082FDC9CF80917902882329F27A
:10250000853019F28091E80083FFF2CFBECF2132EF
:10251000310509F43BC02232310509F00ACF83307E
:10252000910508F006CFFC01EE0FFF1FE25EFE4FA3
:102530000190F081E02D855E9E4FDC018C9190E052
:1025400011C0CA019927413089F082309105B1F05C
:10255000892B09F0EECEE5E6F2E0E4918E2F90E0D3
:10256000E5E6F2E0009709F4E4CEAECFEBE4F2E06A
:10257000E4918E2F90E0EBE4F2E0F4CFE5E3F2E0BB
:10258000E4918E2F90E0E5E3F2E0ECCF833091050B
:1025900008F0CFCEFC01EE0FFF1FEC5DFE4F019067
:1025A000F081E02D89E090E08FCF82E190E0E3E2DE
:1025B000F2E08ACF80917902882309F466CF8530D2
:1025C00009F463CF8091E80083FD5FCF8091E8003C
:1025D00082FD8ECF8091E80080FF84CF9091F30040
:1025E0008091F2002115310519F08830910550F0E5
:1025F00041E0089709F040E08091E8008E778093F1
:10260000E80070CF44914093F10031962150310998
:102610000196E8CF803809F08CCE8091E800877F62
:102620008093E8008091E5018093F10078CE8111DC
:1026300080CE1091E901123008F07BCE8091E80045
:10264000877F8093E8001093E5010E94C50A11235B
:10265000D1F084E08093790242E061EC81E00E9455
:10266000340B42E261EC84E00E94340B42E261EC04
:1026700082E00E94340B42E260EC83E00E94340B63
:102680008091790256CE8091E30087FDE2CF81E010
:10269000E1CFA0E0B0E0EFE4F3E10C94152A89016A
:1026A000D42FC52F6B017C010E94EB06A8016D2F72
:1026B0007C2F88E090E00E94BE2A98014D2F5C2F6D
:1026C000B601C70100E20E945D2A622F83E290E01A
:1026D0000E94AC2ACDB7DEB7E8E00C94312A809195
:1026E000D002833018F48F5F8093D0022091CC0207
:1026F0003091CD024091CE025091CF026091D00234
:102700007091D1028091D2029091D3020E9449131C
:1027100008958091D002882319F081508093D002CF
:102720002091CC023091CD024091CE025091CF0247
:102730006091D0027091D1028091D2029091D30227
:102740000E9449130895A3E0B0E0E9EAF3E10C9494
:10275000172A082FF62E142FE22E8091CC0280FF2C
:1027600040C0E82FE695E695F0E0EE59FE4F9081E7
:102770009093CA028C7F8430C1F5473908F046E94E
:102780009E012F5F3F4F6F2D802F0E94DC068091AE
:10279000CC0280FF0FC08B8199812A81EFE2F2E0A9
:1027A000218390838283339632E0E734F307C1F7C5
:1027B0000E9400070093CD02F092CE021093CF0248
:1027C000EE2079F02091CC026091D0027091D1027C
:1027D000302F4F2D512F8091D2029091D3020E9421
:1027E00049132396E6E00C94332A923019F70091AE
:1027F000CD02E0CFECECF2E0818121E04381628107
:10280000885F0E94A3130895ECECF2E0818121E03F
:102810004381628188500E94A3130895ECECF2E09A
:10282000628128E0620F08F46FEF21E0438181812B
:102830000E94A3130895ECECF2E0628128E0621B91
:1028400008F460E021E0438181810E94A313089590
:10285000ECECF2E0438128E0420F08F44FEF21E076
:10286000628181810E94A3130895ECECF2E0438120
:1028700028E0421B08F440E021E0628181810E944F
:10288000A313089548E050E067E170E080EC92E027
:102890000E949C2A1092BF0208956091CC02669516
:1028A000669570E041E050E085E091E00E94D02A1A
:1028B000892B19F481E08093CB020E943509909313
:1028C00055028093540208959091CC0290FF3BC032
:1028D0008823D1F18830D0F58F73282F220F220F53
:1028E0008091CC028370282B2093CC02662381F048
:1028F0003091CD024091CE025091CF026091D00232
:102900007091D1028091D2029091D3020E9449131A
:102910006091CC026695669570E041E050E085E0FC
:1029200091E00E94D02A892B99F01092CB0281E08D
:102930008093570220E04091CF026091CE028091B7
:10294000CD020E94A313089581E0C7CF87E0C5CFD1
:102950000E944D14ECCF8091CC02869586958F5FB6
:10296000883008F081E061E00E946414089590913D
:10297000CC02969596958FEF890F913009F487E0F8
:1029800061E00E9464140895ECECF2E080818160C3
:10299000808360E0869586950E94641408958091F6
:1029A000CC0280FF09C086958695825C8F73853046
:1029B00018F40E94AB14089561E082E00E94641450
:1029C000089510922E0280912D0281110E94C4144C
:1029D0000E944D140895A8E0B0E0E1EFF4E10C94FA
:1029E0000E2A6C01DC0114968C91882309F4CAC06C
:1029F00061E0C6010E945E0E8C01F601858188238C
:102A000009F46AC19801375720383105C8F00034FD
:102A1000FEE71F0709F069C18091BE02811106C05F
:102A200081E08093BE0282EE0E941E0F0E94350953
:102A30009093BD028093BC028BE20E941E0F91C056
:102A4000003108F08EC08FEF93E00E94882A811138
:102A500088C028ECE22EF12C011153C01A82198291
:102A6000FE01339686E0DF011D928A95E9F7570152
:102A7000BFEFAB1ABB0AC7010E94882A89831A825A
:102A8000882309F46EC0813009F080C087010E5F91
:102A90001F4FC5010E94882A8A83882309F461C0D8
:102AA0009FEF980F9330D8F5E3E0EE0EF11CC801CC
:102AB0000E94882A8B83882309F453C01C828E01CC
:102AC0000F5F1F4FD8018C91882389F2813009F064
:102AD000A0C011968C911197813009F059C058010E
:102AE000B2E0AB0EB11CF801828160E070E0893386
:102AF00011F460E570E00E94C00F85010F5F1F4F69
:102B0000E1CFE11424E0F20661F1C7010E94882AB6
:102B1000D70111967D018111F4CF01509DCF8430F2
:102B2000B9F492E0E92EF12CC8010F5F1F4F0E940B
:102B3000882AE1E0F0E0EC0FFD1FEE0DFF1D808321
:102B4000882379F08C3731F4FE01EE0DFF1D1282DF
:102B50007801B5CFFFEFEF1AFF0A27E0E216F10484
:102B600019F78091D9028770882361F0D6011596F4
:102B70008C91882339F08091E00282FF03C082E0CB
:102B80000E94FF032896EFE00C942A2A750197CF44
:102B9000823049F45801F2E0AF0EB11C12968C91CC
:102BA0000E941E0FAACF833049F45801B2E0AB0E49
:102BB000B11CF80182810E948D0F9FCF843019F0E3
:102BC0000F5F1F4F9BCF12962C910E5F1F4F80E01F
:102BD00090E06AE0A8014F5F5F4F2053330B2A302B
:102BE000310558F0009709F489CFAFE9BFE011979C
:102BF000F1F700C000000197F5CF689FF001699FD1
:102C0000F00D1124C9018E0F9F1FF80121818A0147
:102C1000E1CFE82FF0E0E45CFB4F6490282F26958D
:102C20002695269530E0F901E45DFB4FA49087706E
:102C3000782EB12C082E02C0B594A7940A94E2F71E
:102C4000B1E0AB22BB24F901E45EFB4F8490912CF0
:102C500002C0959487948A95E2F7E1E08E22992448
:102C6000F901E45FFB4F5490A114B104C1F4811445
:102C7000910421F560E070E0862D0E94C00FE52DE3
:102C8000F0E0072C02C0F595E7950A94E2F7E0FF23
:102C900035CF60E070E08CE20E94C00F2FCF81EE54
:102CA0000E941E0F8114910449F460E070E0862DAB
:102CB0000E94C00F81EE0E948D0FE1CF86EE0E9430
:102CC0001E0F60E070E0862D0E94C00F86EE0E940D
:102CD0008D0FAB28A1F2EECF0034FEE71F0709F0FD
:102CE000C6C48BE20E948D0F3CCFF801FE57E9303D
:102CF000F10508F065C0E85FF44D0C94FE29809161
:102D0000C00291E089278093C00210921301809144
:102D1000BF0281608093BF0224CF8091C00286955C
:102D200086958F5F833008F081E061E00E946F0735
:102D300018CF9091C002969596958FEF890F91309C
:102D4000A1F782E0F2CF8091C10290E021E04091B2
:102D5000C3026091C20208960E948E0702CF809142
:102D6000C10221E04091C3026091C2028850990BD8
:102D7000F3CF6091C20220E1620F08F46FEF8091FF
:102D8000C10221E04091C30290E0E6CF6091C2020F
:102D900020E1621B08F460E0F2CF4091C30220E121
:102DA000420F08F44FEF8091C10221E06091C2020E
:102DB000EBCF4091C30220E1421B08F440E0F3CF87
:102DC000F801E851FC47E730F10508F5EF5EF44DF6
:102DD0000C94FE2926E241EE61EE0E94E90FC1CE7D
:102DE00027E245EE65EEF9CF26E241EE60EEF5CF43
:102DF00027E245EE64EEF1CF26E241EE62EEEDCF42
:102E000027E245EE66EEE9CF28E241E0EBCF1092F3
:102E1000C802C80190578397B0F006313CE713070A
:102E200009F052C18091D4028A7A91E0811101C0E7
:102E300090E09093C9028111D5C089E20E94D40824
:102E40000E94CC0E8ECE84E090E00E94962A909351
:102E5000E0028093DF02F801E150F047E232F10531
:102E600020F4E85EF44D0C94FE298091DF0281602D
:102E70008093DF026091DF027091E00284E090E0D5
:102E80000E94CA2A0E9448106CCE8091E00288609D
:102E90008093E002EFCF8091DF028260E9CF8091E2
:102EA000DF028460E5CF8091DF028860E1CF80910E
:102EB000E0028160EDCF8091E0028260E9CF8091F5
:102EC000DF028061D5CF8091DF028062D1CF809117
:102ED000DF028064CDCF0E9448108091DF028068BD
:102EE000C7CF8091DF028C60C3CF8091E002836006
:102EF000CFCF8091DF028E7FBBCF8091E002877FB2
:102F0000C7CF8091DF028D7FB3CF8091DF028B7FAF
:102F1000AFCF8091DF02877FABCF8091E0028E7FC1
:102F2000B7CF8091E0028D7FB3CF8091DF028F7E9B
:102F30009FCF8091DF028F7D9BCF8091DF028F7BBF
:102F400097CF0E9448108091DF028F7791CF8091B8
:102F5000DF02837F8DCF8091E0028C7F99CF8091BB
:102F6000DF0282FB992790F921E0922790FB82F9FA
:102F700090FB83F97DCF8091E002982F909591701E
:102F80008E7F892B90FB81F983CF9091DF02892F6F
:102F90008F7B96FF80646CCF0E9448109091DF0277
:102FA000892F97FB87F9805863CF61E08EE090E02E
:102FB0000E94AC2A5FCF60E0F9CF9091DF02892FA9
:102FC0008F7E94FF806154CF9091DF02892F8E7F96
:102FD00090FF81604DCF9091E002892F877F93FF12
:102FE000886056CF85E32ACF85E352C38091D4020F
:102FF0008272F801E052F847E531F10508F091C01E
:10300000E65CF44D0C94FE298091CC0280FF19C03F
:10301000282F2E7F2093CC023091CD024091CE02FA
:103020005091CF026091D0027091D1028091D20272
:103030009091D3020E9449131092CB020E94000784
:1030400090CD81608093CC0261E0869586950E9448
:10305000641487CD47EB54E16BEA74E10E94E10709
:1030600080CD4BEA54E167EB74E1F8CF44E054E1E2
:103070006AEF73E1F3CF4AEF53E164E074E1EECF1E
:103080004BE154E16EE074E1E9CF4EE054E16BE1D5
:1030900074E1E4CF45E354E168E274E1DFCF48E254
:1030A00054E165E374E1DACF49E853E16FE673E197
:1030B000D5CF4FE653E169E873E1D0CF61E081E01D
:1030C000C6CF0E94CF144DCD07378CE7180709F4FF
:1030D00085C082E008379CE7190709F480C00A35EB
:1030E000ECE71E0709F4A2C008F085C001302CE708
:1030F000120709F499C003303CE7130709F48EC0A6
:1031000001158CE71807C1F40E944810BFEFE4E3F3
:10311000FCE0B150E040F040E1F700C000000E9448
:103120000E0C0737ACE71A0709F461C082E00837D4
:10313000BCE71B0709F45CC0F6018581E080F180E3
:10314000882309F477C0C7010E94330E182F682F17
:10315000C7010E94A203B701812F0E94140E0E9492
:103160003805E82E192FD6011596BC90159716969E
:10317000AC90A2948FE0A8228091D9028770882316
:1031800009F1FB2CBB20F9F0892F807F803469F096
:1031900080E28E0D8830B0F0892F807E803229F455
:1031A000B1E0BE1578F4AA2069F08091E00282FFB8
:1031B00009C082E00E94FF038091D9028770FF243A
:1031C000F3948111F12CE12FE295EF70103C08F09F
:1031D0009AC0F0E0E15BF44D0C94FE2981E00E947E
:1031E0002F0343E062E081E00E94D403BACC81E087
:1031F0000E943B03F6CF0B359CE71907C9F00C354D
:10320000ACE71A0709F098CF8091E00282FB88278B
:1032100080F991E089270E949C0C8ECF6FEF7FEFA1
:1032200080E090E00E94CA2A0E94791081E0F3CFEA
:1032300080E0F1CFC7010E94BB03182F8CCF012F74
:103240000F70103110F00295007FBB20B9F0002301
:1032500069F080E28E0D883010F0E11009C0809195
:10326000D402802B8093D4020E94CC0E8E2D43C0BA
:103270008091E102802B8093E102F6CF8E2D0E9497
:103280008D0F002309F43FC080E28E0D883010F0CE
:10329000E11004C0802F0E943D0406C0009580917B
:1032A000E10280238093E1020E94CC0E2CC0012F0A
:1032B0000F70107F103211F00295007FEE2059F050
:1032C000E1E0EE1609F486C0BB2009F492C0AA2002
:1032D00009F452C0CBCF8091E00282FD49C0BB20EF
:1032E00069F0002339F08091D402802B8093D402BE
:1032F0000E94CC0E80E00E941E0F05C080E00E945C
:103300008D0F0111C7CFFF20B1F08091D90280FD50
:1033100012C0D60115961C928695869586950E94B8
:103320002F03C6010E94EB148091D90286958695E1
:1033300086950E943B0360E0C6010E945E0EF60186
:103340008581882309F41ECC0E943D0A6093DB022C
:103350007093DC028093DD029093DE028091DA02AA
:10336000882309F40FCC1092DA020E94E1140ACCEF
:10337000BB20A1F0A11004C0802F0E94D80FC3CFA2
:10338000F1E0AF12C0CF8091D502902F982309179A
:1033900009F4B9CF802B8093D502B5CFA110B3CF5C
:1033A000802F0E94E20F9091D502802F89238823DD
:1033B00029F0802F809589238093D5028091D602B1
:1033C000902F9823992309F49ECF0095082300930A
:1033D000D60299CFBB2029F025E02A1508F493CF17
:1033E000CBCF34E03A1508F48ECF802F0E94E20F45
:1033F0008ACFAA20D1F389E3E81209C09FEFA7EE94
:10340000B3E09150A040B040E1F700C000008E2D25
:103410000E948D0F78CF812F8695869583708823A3
:1034200069F0813009F06FCF8E2D912F9370B1101C
:1034300002C080E090E00E94AE0865CF8E2D912FF3
:103440009370B11002C080E090E00E9488085BCFCA
:103450006B2D8E2D0E94690956CF812F83708111AB
:1034600037C0B1102AC04E2D429546954770440F83
:10347000440F2E2D2F70042E01C0220F0A94EAF75C
:103480009E2D9071992341F08FE090E001C0880F4C
:103490004A95EAF7982F9095169516951370123065
:1034A00091F0892F822B133031F08091D7021130A7
:1034B00039F0292B82230E9427030E947B0823CF07
:1034C000822B892BF8CF292B8091D7028227F3CF2B
:1034D000BB2069F110FFF1CF4E2D42954695477004
:1034E000440F440F2E2D2F70042E01C0220F0A947A
:1034F000EAF79E2D9071992341F08FE090E001C092
:10350000880F4A95EAF7982F90951695169513709F
:10351000123099F0892F822B133031F08091D8022C
:10352000113041F0292B82230E942A03C6CF82301A
:1035300020F2D2CF822B892BF7CF292B8091D80272
:103540008227F2CF1F70BB2039F0812F0E942F03FA
:103550008E2D0E94D80FB1CF8E2D0E94E20F812FA9
:103560000E943B03AACFE2EFEE16A9F1EE1588F018
:10357000F0EFEF16D9F021EFE21609F443C0BB20BB
:1035800009F462C0AA2009F45CC08E2D0E941E0FAF
:1035900094CF33EFE31631F184EFE81679F1B110EF
:1035A000F1CFA11060C0812F8F71DACFBB2081F0E5
:1035B00094E09A1508F481CF1F7181E090E0012E0C
:1035C00001C0880F0A94EAF79091D8028927ACCFFE
:1035D000A5E0AA16EFCF812F8F71B110C1CF0E9445
:1035E0002F036BCF80E0BB2009F49ECF1F7181E0D9
:1035F000012E01C0880F0A94EAF796CF9091E0025D
:1036000092FD06C0812F8F71BB2009F4A9CFE7CFAF
:10361000BB2061F0812F8F7192FFE1CFB8E08B9FCB
:103620009001112423602093D902D9CF81E00E9418
:10363000FF03E1E0EA1508F040CF82E00E94FF03BB
:103640003CCF812F8F71CBCFAA2009F4ACCFF9E307
:10365000EF1209C02FEF37EE83E021503040804059
:10366000E1F700C000008E2D0E948D0F26CFF801DB
:10367000E851FC47E730F10508F4A8CB06312CE708
:10368000120709F0B3CC8091C9028111ADCC89E257
:103690000E940809D5CB80912203803178F4809173
:1036A0002103882359F0E091E3022091E202309156
:1036B0001D0340911C0357E02E1301C008956E2F87
:1036C00070E05E9FF0011124DF01AC51BD4F1496F4
:1036D0008C911497882361F111968C911197831323
:1036E00027C08C91841324C015968C911597811155
:1036F0001FC012968D919C91A0911E03B0911F0343
:103700008A1B9B0B883C910598F4809122038F7053
:10371000806180932203E651FD4F80818F7080612C
:1037200080838CE193E00E94EB140E94F5030895DE
:10373000FB013196E770C0CFADE0B0E0E2EAFBE11B
:103740000C940F2A8C0186E0F801DE011896019096
:103750000D928A95E1F7F8017080F580A280B38020
:1037600084819CE1892E93E0992E60902003611062
:1037700018C0882399F0FF2009F413C1C8010E94E2
:103780008D0E882309F40DC187E0F801ACE1B3E0A8
:1037900001900D928A95E1F70E944B1BFF24F39450
:1037A00053C0D090210320911E0330911F03A50127
:1037B000421B530BDD2009F4C4C0483C510508F0FE
:1037C0007AC0882359F380911D03C180E0902203C1
:1037D000FFE0FE1508F459C0C81215C080911C0303
:1037E000871111C0F1104BC08E2D8F7080618093B6
:1037F00022038CE193E00E94EB1480912203F801F4
:103800008683F12C21C0F1103AC040E06C2D872D49
:103810000E94C60B40E06C2D872D0E94C60BF82E2F
:103820008111EFCF888599850E947E0E292F2295E0
:103830002F70903470F49F702230A0F09923B1F073
:10384000F8019681903190F48F2D2D96EEE00C9436
:103850002B2A2A5F2F70223068F0C8010E94EB14D7
:10386000FD2CF2CF992311F0882371F3805E88300C
:1038700058F3F3CF803F40F3815F8230F9CF8091DE
:103880002203816080932203BCCFC8123CC0809188
:103890001C03871138C0F11036C0F801E682C80158
:1038A0000E94EB1487E0F801ACE1B3E001900D92C7
:1038B0008A95E1F773CFE0902203FFE0FE1550F008
:1038C0008CE193E00E94EB1487E0F40111928A9559
:1038D000E9F797CF882309F461CF90911D03F80190
:1038E0008181981310C080911C0387110CC0F110C6
:1038F0000AC0E682C8010E94EB1487E0F40111922D
:103900008A95E9F74BCFC8010E948D0E882309F4F0
:1039100048C0FF2009F445C080912203803208F49A
:1039200033CF80911C0390911D039A838983BC82BD
:10393000AB826D821E82EF82CE0101960E94EB1453
:1039400023CF483C510508F0BFCF882309F426CF88
:10395000FF2039F190911D038181981318C0809147
:103960001C03871114C08091220380FD9BCF8031FE
:1039700008F498CF8683807F803F09F490CF8681BA
:10398000982F907F905F8F70892B868388CFC80196
:103990000E948D0E8111F8CE809122038160809368
:1039A0002203C8010E94EB14F9CEABE1B0E0EBEDCD
:1039B000FCE10C941A2A4E8B5F8B688F798F8A8F6B
:1039C0009B8F91111092E1021D8A86E0FE0176968E
:1039D000DE011F9601900D928A95E1F78B8988236D
:1039E00029F061E0CE010F960E945E0E87E0FE0195
:1039F0003F96DE01189601900D928A95E1F7CE016F
:103A000008960E949C1B81112BC087E0FE0138960E
:103A1000DE01119601900D928A95E1F72091E20264
:103A20004091E3028C858823D9F030E0C9010196EA
:103A30008770992750E084179507E9F097E0929FE7
:103A4000D001939FB00D1124AC51BD4FFE013196B2
:103A500001900D929A95E1F78093E2020E94F5039E
:103A600017E08091E3029091E202891312C06B96F5
:103A7000E3E00C94362A0E9448101092E202109261
:103A8000E30287E0ECE1F3E0DF011D928A95E9F7BC
:103A9000E7CF189FC00111248C519D4F0E949C1BA1
:103AA000882329F38091E30290E00196877099279B
:103AB0008093E302D6CFA6E0B0E0E1E6FDE10C940E
:103AC000192A0E9435098C0180917E0290917F0213
:103AD0008017910779F019821A820E943509BC017A
:103AE00049815A8180E090E00E94D51C10937F02AA
:103AF00000937E022696E4E00C94352A8F929F92E2
:103B0000AF92BF92EF92FF920F931F93CF93DF93E9
:103B1000182F80911101811345C02091C00223709C
:103B200030E04091100150E081E02417350709F49E
:103B300080E08170809302018091C5029091010123
:103B4000981739F08093010140E060E080E00E9426
:103B50006C07113049F1123009F465C01111D4C05D
:103B600080910201882309F4D8C040E060E080E041
:103B70000E946C07809100018F5F8093000182E0BA
:103B80008093130180910201882309F4CBC0DF9157
:103B9000CF911F910F91FF90EF90BF90AF909F90AA
:103BA0008F90089581E0C5CF80910001C82FCC0F80
:103BB000C80F03E00C0FA02E0D3010F09CE0A92ED2
:103BC0006091C1027091C2028091C3020E945406AA
:103BD000F62EE72EB82ED0E0CA15A0F081E00C300A
:103BE00008F080E0909100019F5F909300018111A7
:103BF000CECF82E080931301809102018111C7CF63
:103C00001123C3CFFE01E25DFE4F80A5909101011B
:103C10008923882331F02B2D4F2D6E2DCE010E944C
:103C2000A7072196D9CF809100018F5FD82FDD0F94
:103C3000D80F8090290290902A02A0902B02B09079
:103C40002C028091250290912602A0912702B0912A
:103C5000280288159905AA05BB0508F04EC00E94E8
:103C600057079CE0899F70011124EF2CFF0CFF087F
:103C7000F701E25DFE4F80A5909101018923882321
:103C800009F43BC00E94570781FD3AC00E945707C4
:103C9000C82F0E94570720E8829FC00111247FE7A8
:103CA000790F8091C3026C2F0E945406462F672F14
:103CB000282FC7010E94A70730E18091C402282F56
:103CC000230F08F42FEF822F90E060E070E0839FD5
:103CD000612D939F600D711D112484EF91E00E946E
:103CE000D629860E971EA11CB11C809225029092A7
:103CF0002602A0922702B092280281E0DB3070CF2A
:103D000080E070E0C0E0CFCF809100018F5F8093B2
:103D1000000182E0809313013ACF809100018F5F10
:103D20008093000183E0F6CFCF930E943D0A609319
:103D300021027093220280932302909324028091A7
:103D40004D02882301F1C0E080911301823009F413
:103D50004FC008F03EC0811140C010920001809118
:103D6000210290912202A0912302B091240280931B
:103D7000290290932A02A0932B02B0932C0281E097
:103D80008093130128C040916802509169026091AC
:103D90006A0270916B022FB7F89480917A02909129
:103DA0007B02A0917C02B0917D022FBF841B950BFA
:103DB000A60BB70B81369A4EA105B10520F6C0912E
:103DC000C0028C2F8370882309F4BDCFC695C69599
:103DD000BBCF8330C1F0CF9108958C2F0E947E1D00
:103DE000CC23C9F340E060E080E00E946C07F3CF91
:103DF000C09311018091C0028370809310010E94D2
:103E0000F70B83E0BDCF8091BF0281110E94421465
:103E10004091290250912A0260912B0270912C024C
:103E20002FB7F89480917A0290917B02A0917C0246
:103E3000B0917D022FBF841B950BA60BB70B40974B
:103E4000A105B10540F210921301C5CFA4E0B0E086
:103E5000ECE2FFE10C94112A1A8219821C821B8267
:103E60008AE6C82E81E0D82E8E010F5F1F4FB12C3D
:103E70004801EE24E394F12CF60181916F018F3F0C
:103E800009F45AC0F894E82FE295EF70F0E021A110
:103E90008F70A70102C0440F551F8A95E2F7CA012F
:103EA000922F982B91A392A18095892382A3789435
:103EB00000C0E7E1F1E053E0B5121BC08FB187FB12
:103EC000882780F991E08927A12C41E020E0882310
:103ED00029F180E0A82A2F5F440F3196243001F1A8
:103EE00083E0B81209C0233039F48FB18095817016
:103EF000EECFA12C41E020E0308180E03F3F51F344
:103F0000A32FA295AF70A05EB0E08C9190E03F70BF
:103F100002C0959587953A95E2F7E9CF842FDACFDD
:103F2000F601319780818F3F11F00E94B602E0EADE
:103F3000EA95F1F7F801A082B3940F5F1F4FF4E008
:103F4000BF129ACF44E050E0B40187E492E00E94AF
:103F5000DD2A892B59F189819A81AB81BC818093BB
:103F6000470290934802A0934902B0934A0281E02D
:103F70008093E0010E9435099093DF018093DE0178
:103F80008091BE02882371F08091BC029091BD02A5
:103F90000E945A0A813D974028F082EE0E948D0FC0
:103FA0001092BE022496ECE00C942D2A8091E00140
:103FB000882331F38091DE019091DF010E945A0A3B
:103FC0000597F0F244E050E067E472E085E792E0A4
:103FD0000E94DD2A892B81F080914702909148024E
:103FE000A0914902B0914A028093750290937602A3
:103FF000A0937702B09378021092E001C1CFCDB7C1
:10400000DEB7E0970FB6F894DEBF0FBECDBF85B721
:10401000806885BF85B7806885BF84B7877F84BF88
:104020000FB6F894A8958091600088618093600035
:10403000109260000FBE80E890E00FB6F894809375
:104040006100909361000FBE81E596E09093B50109
:104050008093B4010E94150B0E946B0B8091E200CB
:1040600084608093E200789480917902882399F0AB
:104070008091E9001091EC001795112717958F702A
:10408000182B1092E9008091E80083FD0E948F10A8
:104090001F701093E90082E084BD93E095BD9AEF14
:1040A00097BD80936E000E94B30E811102C00E94E2
:1040B0009D0DEFE5F2E088E0DF011D928A95E9F7BA
:1040C00082E080935E0260E080E00E94E80761E0A9
:1040D00080E00E94E80760E081E00E94E80761E07C
:1040E00081E00E94E807EFE8F1E03197F1F700C0C6
:1040F000000010E080915E02181708F4CAC081EF3A
:104100000E94B60284EF0E94B60285EF0E94B602BA
:1041100086EF0E94B60284E30E94B60286E60E9401
:10412000B60287E60E94B60286EC0E94B60284E0E0
:10413000E5E7F2E0DF01282F1D922A95E9F7E7E491
:10414000F2E0DF011D928A95E9F780E090E00E949D
:10415000962A853E9E4F21F40E94B30E811172C0B3
:1041600065EE7EEF80E090E00E94CA2A60E082E087
:1041700090E00E94AC2A81E08093D70261E083E066
:1041800090E00E94AC2A60E074E184E090E00E943C
:10419000CA2A60E086E090E00E94AC2A60E087E0F6
:1041A00090E00E94AC2A40E050E0BA0188E090E044
:1041B0000E94BE2A60E083E290E00E94AC2A60E0A8
:1041C0008CE090E00E94AC2A60E08DE090E00E94DC
:1041D000AC2A19821A821B821C821D821E821F82B7
:1041E000188648E050E067E170E0CE0101960E9439
:1041F0009C2A40E050E0BA018FE190E00E94BE2A84
:1042000080E00E947F0D0E949D0D40E050E0BA01C9
:104210008FE090E00E94BE2A10927102109272020A
:10422000109273021092740281E08093710282E115
:104230000E94E40241E050E060E070E083E190E041
:104240000E94BE2A82E090E00E94882A80934F025A
:1042500084E090E00E94962A9093E0028093DF022F
:104260000E94261FEFEFF6E721E0E150F0402040EA
:10427000E1F700C000000E94261F8091750280FFB8
:104280001AC06FEF7FEF80E090E00E94CA2A0E9480
:104290000E0C60E0812F0E940B08082F61E0812F37
:1042A0000E940B08E12FF0E0E45AFD4F880F802BAD
:1042B00080831F5F1FCF83E090E00E94882A0E94C6
:1042C00027038091D8020E94F2020E94A30781E096
:1042D0008093BF0248E050E067E170E080EC92E03C
:1042E0000E94782A1092BF028091C0028430B8F4F4
:1042F00089E08093C0028091140190911501A091F2
:1043000016018093C1029093C202A093C3028FE76B
:104310008093C4028FEF8093C5020E944214809163
:104320004B02811199C088E090E00E94902A6B01B5
:104330007C0183E290E00E94882A282F30E040E050
:1043400050E060E070E080E090E000E20E94422AED
:10435000F22FA32EB42EB52FA62FE72F970186019B
:1043600040E050E0BA01FC29A12AB22AB32BA42BC9
:10437000E52B862B972BF093CC02A092CD02B09226
:10438000CE02B093CF02A093D002E093D1028093EB
:10439000D2029093D302F43008F04CC02DE2209367
:1043A000CC022FEF2093CD022093CE0226E920935A
:1043B000CF021092D0022DE23FEF4FEF56E960E0BE
:1043C0007E2F0E94491388E090E00E94902A6B01A2
:1043D0007C0183E290E00E94882A282F30E040E0B0
:1043E00050E060E070E080E090E000E20E94422A4D
:1043F0005901B42FA52FF62FE72F9701860140E032
:1044000050E0BA01AC28B12AB22BA32BF42BE52B38
:10441000862B972BA092CC02B092CD02B093CE0205
:10442000A093CF02F093D002E093D1028093D20206
:104430009093D3020E94EB061092CB020E94980246
:104440008091CC0280FF05C060E0869586950E9431
:10445000641481E080934B0289EA8093800089E0B4
:104460008093810083E190E00E94902A6093710222
:1044700070937202809373029093740267704BE49E
:10448000649FC001112495958795959587950E9405
:10449000E40286E091E09093A1028093A00218E1EB
:1044A000C12ED12C7724739422242394CE0101961B
:1044B00009E7A02E02E0B02E382E492E8091790215
:1044C00013E0853009F4A6C00E94261F00E512E023
:1044D000A5E7EA2EA2E0FA2E24E532E0D701F801A2
:1044E00091918D912E173F0709F40FC19817C1F3D1
:1044F000912CD7018D907D01F80181918F01881554
:1045000039F188258DA7612C552453948DA58521DB
:104510008823B1F069829A820E9435099C838B833B
:10452000F1E0FD8391E0852D8821811101C090E0AB
:104530009E8349815A816B817C818D810E94D51C2B
:104540006394550C24E06212E1CFF8013197808228
:10455000939444E09412CDCF0E943D0A6093680288
:104560007093690280936A0290936B02D2C080912B
:104570007902843009F440C00E94D8020E94DC0213
:104580000E94E0020E94941E0E94150780914D0235
:1045900081110DC00E947E1D109211018091C002F8
:1045A0008370809310010E94F70B1093130181E038
:1045B00080934D0210924C0290E40FB6F894A895A7
:1045C000C09260000FBE9093600083B7817F8460CB
:1045D00083BF83B7816083BF7894889583B78E7FCC
:1045E00083BF0FB6F894A89580916000886180938E
:1045F0006000109260000FBE80914E02882351F03F
:104600000E94261FE5E7F2E08191811166C0AE1697
:10461000BF06D1F780917902853009F4A8CF0E94B6
:1046200048100E947B080E94E11410924D020E94E3
:10463000D8020E94DC020E94E002AFEFB9E6E8E196
:10464000A150B040E040E1F700C000000E94CF025E
:10465000FFEF21EE44E0F15020404040E1F700C080
:1046600000000E94D2028FEF91EEA4E081509040B2
:10467000A040E1F700C000000E94D502BFEFE1EECC
:10468000F4E0B150E040F040E1F700C000000E94CB
:10469000D8022FEF41EE84E0215040408040E1F706
:1046A00000C000000E94DC029FEFA1EEB4E0915038
:1046B000A040B040E1F700C000000E94E002EFEF30
:1046C000F3EC29E0E150F0402040E1F700C00000A9
:1046D0008091D8020E94F202F7CE80E189BD82E18A
:1046E00089BD09B400FEFDCF8091D8008F7D8093F5
:1046F000D8008091E00082608093E0008091E0002B
:1047000081FDFCCF0E94481085CF9813F1CE0E9406
:104710005B1D8091CB02882309F43CC08091CA02C2
:10472000E091CC02E695E695E81BE09356028230D4
:1047300009F045C0E695F0E0E75FFB4FE4910E2FEE
:1047400010E0FAE2EF2EF7E0FF2E80915702882367
:1047500061F0109257020E943509909355028093A0
:10476000540210925902109258020E943509209169
:10477000540230915502821B930B8F3F9F4750F498
:10478000200F311F309355022093540284E592E0AC
:10479000F70109950E94941E80916702882351F0C9
:1047A00010926702809161028093620280915F02A1
:1047B0008093600200E074E0E72EF12C56C000ED1B
:1047C00017E0E3E5EE2EE6E0FE2EBFCF61E0802F9E
:1047D0000E940B08882E60E0802F0E940B08880C36
:1047E000882AE02FF0E09F01245A3D4FD9019C9187
:1047F000892F83708816C1F1A92FAA0FAA0F8A2FBB
:104800008829D9018C93A82FAF70B0E0A259BE4F70
:10481000E65AFD4F8C919081890F808384300CF48F
:1048200064C0212F30E0692D70E0A9014F5F5F4F18
:10483000437055276417750781F0215A3D4F902F1B
:104840009F77D90114969C931F5F13701093610298
:1048500090915F029F5F90935F02082E000C990B6E
:10486000B7010E94EA2980830F5F90906202109145
:10487000610280915E02081708F4A8CF90E00CEF67
:1048800043E0E42E5DEFF52E62E0962E8091620209
:1048900020916102281709F45FC0E82FF0E0ED597C
:1048A000FD4F9081192F1F778F5F83708093620275
:1048B000809160028F5F8093600297FD2BC019A3E7
:1048C0000AA30E943509BC018BA39CA3EDA22EA2D2
:1048D00049A15AA183E091E00E94D51C1FA308A71B
:1048E0000E943509282F83E02AC08D3F0CF0B5CFF8
:1048F000212F30E0692D70E0A9014F5F5F4F4370B9
:1049000055276417750709F4A8CF215A3D4F902FFA
:10491000906897CF19A3FAA20E943509BC018BA316
:104920009CA39DA22EA249A15AA182E091E00E94DF
:10493000D51C1FA3F8A60E943509282F82E0622FFC
:10494000792F29A79AA78BA71CA64FA158A590E05D
:104950000E94D51C91E09ACF992351F00E943D0A04
:10496000609368027093690280936A0290936B026D
:1049700086E0E6EBF2E0A32DB42D01900D928A952E
:10498000E1F78090B7020091B8021091B902E0906F
:10499000BA02F090BB021092B8021092B9021092C3
:1049A000BA021092BB02812F802B632C542C8823D7
:1049B00079F080916E0290916F020E945A0A9C01D8
:1049C0008091B402811171C02B30310508F073C0A1
:1049D0008E2D8F29882379F080916C0290916D0241
:1049E0000E945A0A9C018091B30281119DC02B3014
:1049F000310508F09FC08091B702881116C08091E0
:104A0000B802882311F0801310C09091B902992345
:104A100011F091130AC02091BB02211106C0209110
:104A2000BA02211102C0892B81110E94410986E03E
:104A3000E32DF42DA6EBB2E001900D928A95E1F7FB
:104A40000E947B0890917002891721F08093700278
:104A50000E943D0A80917902843009F4A4C08091BB
:104A6000DA0281112BCD4091DB025091DC02609182
:104A7000DD027091DE022FB7F89480917A02909156
:104A80007B02A0917C02B0917D022FBF841B950B0D
:104A9000A60BB70B813A9B4BAD40B10508F40ECD88
:104AA0000E9415077092DA0209CD2531310508F40C
:104AB0008FCF8F3F19F08F5F8093B402002359F09E
:104AC0000E9436089FEF10160CF491E0899F802D0C
:104AD00011248093B802112359F00E94360891E006
:104AE00011160CF09FEF899F802D11248093B9023D
:104AF0008091B802882309F46BCF9090B902992075
:104B000009F466CF0E942808811101C081E08093DA
:104B1000B802892D0E942808882319F08093B902D1
:104B200057CF7092B90254CF2135310508F463CFC5
:104B30008F3F19F08F5F8093B302EE2059F00E94EF
:104B400056089FEF1E140CF491E0899F802D1124CC
:104B50008093BA02FF2059F00E94560891E01F147A
:104B60000CF09FEF899F802D11248093BB028091D0
:104B7000BA02882309F43FCFF090BB02FF2009F46A
:104B80003ACF0E942808811101C081E08093BA02C7
:104B90008F2D0E942808882319F08093BB022BCF09
:104BA0007092BB0228CF83E08093E9008091E800F7
:104BB00082FF55CF8091E80085FD06C08091E80016
:104BC0008B778093E8004BCF0E94E40A30E2E32E1B
:104BD000F12C032D142D8823D9F08091E8008B77D8
:104BE0008093E8008981EFEFE80FE53158F5F0E0B8
:104BF000E55AF44D0C94FE298091F100F801808370
:104C0000F1E0EF1AF108E114F10439F30F5F1F4FDF
:104C10008091E80085FDF0CF8091E8008B7780934C
:104C2000E8000E94E40A882399F3D7CF1A828CE027
:104C30008B831AC08A81833041F138F4813061F06E
:104C40008230D1F08FEF89830FC08430D9F71B8277
:104C50001C821D821E8208C00E943D0A0E94042AF6
:104C60006B837C838D839E8340E250E0632D742DA3
:104C700082E00E94320CF3CE87E290E00E94882A04
:104C80001B821C821D828E83EFCF8B8190E0DE0120
:104C900014968430910544F7FC01FF27EB58FD4F33
:104CA00020812D930196F5CF8A818230B1F0853035
:104CB00049F68091CC0280FF21C08E7F8093CC0288
:104CC0001092CB020E9400078091C00291E08927D8
:104CD0008093C00210921301C7CF8B819C81AD815C
:104CE000BE818DA79EA7AFA7B8ABBC01CD010E9426
:104CF000042A87E290E00E94AC2AB6CF0E94C41436
:104D0000E3CF4C816B818A810E94AD0D9827892762
:104D100098279E838D83A8CF2D813E81322723271C
:104D200032274C816B818A810E94B30C9DCF0E94F7
:104D3000060D9ACF9A81923009F07FC0883009F42D
:104D40003FC0893009F466C08B818330A9F190F4AB
:104D50008130C9F0823009F087CF8C81811125C064
:104D60008091CC028E7F8093CC021092CB020E9465
:104D700000077ACF843009F077CF20E04091CF024E
:104D80006D818C810FC08C81A6E98A9FC00111249E
:104D90006FEF70E00E94D629462F20E06091CE028E
:104DA0008091CD020E94A3135FCF0E94C41460E0E3
:104DB0008C810E94641458CF8C818093D00254CF90
:104DC0008B81833019F160F48130A1F0823009F0D9
:104DD0004BCF8091CC0280FF86C08695869518C007
:104DE000843009F041CF8091CD028C838091CE0236
:104DF0008D833ACF8091CF02BFEF8B9FC0011124EA
:104E000066E970E00E94D6296C832ECF8091D00293
:104E10008C832ACF2091CC023091CD024091CE02DA
:104E20005091CF026091D0027091D1028091D20254
:104E30009091D3020E94491317CF933009F06BC0B1
:104E4000883009F441C0893009F462C08B81833015
:104E5000B9F198F48130D1F0823009F005CF8C811E
:104E60009091C002292F237081111EC02111109230
:104E700013019C7F9093C002F7CE843009F0F4CEEA
:104E80008C8120E04091C3026D810AC04C8126E9EB
:104E9000429F412D11248091C10220E06091C20205
:104EA00090E00E948E07E0CE211102C01092130103
:104EB0009C7F91609093C00260E00E946F07D4CE07
:104EC0008C818093C402D0CE8B818330F1F068F462
:104ED0008130A1F0823009F0C7CE8091C002982FB6
:104EE000937091117ACF80E093CF843009F0BCCEDB
:104EF0008091C1028C838091C2027ACF8091C302DB
:104F0000EFEF8E9FC00111247BCF8091C40280CF30
:104F10000E944214A9CE911195CE8830E9F08930D3
:104F200019F18B81813009F09FCE8C81877090912F
:104F30007102987F982B90937102FBE48F9FC001C0
:104F4000112495958795959587950E94E402809107
:104F5000D8020E94F20288CE8B81813009F084CE83
:104F600080917102877054CF40917102509172020A
:104F7000609173027091740283E190E00E94BE2AF6
:104F800073CE80E18A8370CE83E08A8388E350CE3B
:104F90008A809B809824892498248C817401E80E4F
:104FA000F11C8E010B5F1F4FE814F90409F45CCE6D
:104FB00080E028E3821623E0920628F4C401885397
:104FC0009F4F0E94882AD8018D938D01BFEF8B1AC5
:104FD0009B0AEACF8A809B80982489249824062DF6
:104FE000152DEC80E00EF12EF11C0E151F0509F4B5
:104FF0003BCEE8E38E16E3E09E0640F4D80114961B
:105000006C91C40188539F4F0E94AC2ABFEF8B1A4A
:105010009B0A0F5F1F4FE9CF0E946F0D25CE84E0E2
:10502000B1CF8A809B809824892498248C81740134
:10503000E80EF11C8E010B5F1F4FE814F90409F410
:1050400013CE80E0E0E88E16910420F4C401889627
:105050000E94882AD8018D938D01BFEF8B1A9B0A7D
:10506000ECCFEA80FB80FE24EF24FE24062D152DD4
:105070008C80800E912E911C0815190509F4F4CD31
:10508000E0E8EE16F10438F4D80114966C91C701EB
:1050900088960E94AC2ABFEFEB1AFB0A0F5F1F4FE6
:1050A000EBCF41E08C81811101C040E06B818A81AE
:1050B0000E94DC0D2BCE2D813E8132272327322703
:1050C00041E08C81811101C040E06B818A810E94A6
:1050D000DA0CCACD1F921FB61F9211248F939F9393
:1050E000AF93BF9380914C02811113C080917A02DB
:1050F00090917B02A0917C02B0917D024196A11D0E
:10510000B11D80937A0290937B02A0937C02B093AE
:105110007D02BF91AF919F918F911F901FBE1F90F5
:10512000189578941F921FB61F9211248F939F9306
:10513000AF93BF9380917A0290917B02A0917C0201
:10514000B0917D020196A11DB11D80937A029093CA
:105150007B02A0937C02B0937D02BF91AF919F919F
:105160008F911F901FBE1F9018951F920F920FB620
:105170000F9211242F933F934F935F936F937F93DD
:105180008F939F93AF93BF93EF93FF938091E10031
:1051900082FF09C08091E20082FF05C08091E1009A
:1051A0008B7F8093E1008091DA0080FF24C08091A2
:1051B000D80080FF20C08091DA008E7F8093DA00D3
:1051C0008091D90080FF9BC080E189BD82E189BDCB
:1051D00009B400FEFDCF81E0809379028091E60161
:1051E000811109C00E94150B0E946B0B8091E20097
:1051F00084608093E2008091E10080FF17C080917D
:10520000E20080FF13C08091E2008E7F8093E20075
:105210008091E20080618093E2008091D8008062FA
:105220008093D80019BC85E0809379028091E100D9
:1052300084FF29C08091E20084FF25C080E189BD00
:1052400082E189BD09B400FEFDCF8091D8008F7D39
:105250008093D8008091E1008F7E8093E10080915F
:10526000E2008F7E8093E2008091E2008160809373
:10527000E2008091E501882309F447C084E080932F
:105280007902809179028091E10083FF27C08091AB
:10529000E20083FF23C08091E100877F8093E100DB
:1052A00082E0809379021092E5018091E1008E7F87
:1052B0008093E1008091E2008E7F8093E2008091F4
:1052C000E20080618093E20042E060E080E00E94C2
:1052D000340B8091F00088608093F000FF91EF9193
:1052E000BF91AF919F918F917F916F915F914F91FE
:1052F0003F912F910F900FBE0F901F90189519BCE2
:10530000109279021092E60176CF8091E30087FF38
:1053100002C083E0B4CF81E0B2CF1F920F920FB6EC
:105320000F921124FF920F931F932F933F934F934C
:105330005F936F937F938F939F93AF93BF93CF931D
:10534000DF93EF93FF9309EE10E0F8018081C091A5
:10535000EC00C795CC27C7958F70FC2EF82A1082D9
:10536000C0EFD0E08881877F888378940E948F1077
:10537000F8011082888188608883CF2DCF70C08328
:10538000FF91EF91DF91CF91BF91AF919F918F915D
:105390007F916F915F914F913F912F911F910F914D
:1053A000FF900F900FBE0F901F901895AA1BBB1B6C
:1053B00051E107C0AA1FBB1FA617B70710F0A61B15
:1053C000B70B881F991F5A95A9F780959095BC0136
:1053D000CD01089597FB072E16F4009407D077FDB2
:1053E00009D00E94D62907FC05D03EF490958195FE
:1053F0009F4F0895709561957F4F0895EE0FFF1FA1
:105400000590F491E02D099469279627692778275C
:105410008727782708952F923F924F925F926F923D
:105420007F928F929F92AF92BF92CF92DF92EF9234
:10543000FF920F931F93CF93DF93CDB7DEB7CA1BB5
:10544000DB0B0FB6F894DEBF0FBECDBF09942A88E0
:10545000398848885F846E847D848C849B84AA8488
:10546000B984C884DF80EE80FD800C811B81AA8115
:10547000B981CE0FD11D0FB6F894DEBF0FBECDBFE0
:10548000ED010895002E083090F0982F872F762F89
:10549000652F542F432F322F22270850F4CF220F8D
:1054A000331F441F551F661F771F881F991F0A95BA
:1054B000B2F7002D089597FD1094002E083098F053
:1054C0000850232F342F452F562F672F782F892FE1
:1054D000912DF4CF15949795879577956795579566
:1054E0004795379527950A95AAF71124002D089519
:1054F000DC01CB01FC01F999FECF06C0F2BDE1BD94
:10550000F89A319600B40D9241505040B8F7089582
:10551000F999FECF92BD81BDF89A992780B508957B
:10552000A6E1B0E044E050E00C947A2AA8E1B0E0B3
:1055300042E050E00C947A2ADC01A40FB51F4150E0
:10554000504048F0CB01840F951F2E910E94AD2A48
:1055500041505040D0F70895262FF999FECF92BDC3
:1055600081BDF89A019700B4021639F01FBA20BD28
:105570000FB6F894FA9AF99A0FBE08950396272F5A
:105580000E94AD2A0E94AC2A252F0E94AD2A242F0A
:105590000C94AD2A0196272F0E94AD2A0C94AC2AB8
:1055A000FC014150504030F001900616D1F7319780
:1055B000CF010895882799270895FB01DC0104C0D5
:1055C0008D910190801921F441505040C8F7881BFB
:1055D000990B0895F894FFCF920995099B09B0099A
:1055E000B009B009B009B009B009B009B0099E0905
:1055F000A309A709AD09BE09C409C8096D11931112
:10560000991193119911EC110E1299110A13171394
:105610007F168D169916A316AF16B916C616CD1697
:10562000D916F416F816EA16F016FC160017041729
:105630007917E41781174B174F17851753178917D9
:1056400095175F17DD176317991767179D17C5170C
:105650006B17A117CC177117A717AF1757178D170F
:105660005B1791177517AB17BB17D517DB174517C6
:105670007D17EB1704182A18311836183B184018F4
:1056800045184A184F18541859185E18B115B11515
:105690006118B115B115B115B115B115B1151F19B5
:1056A0001F19571957190B1A281A831983192D1AFC
:1056B000A21AB31AB31A16261A26542681268C2645
:1056C00097269A269A269A2622262226C127C4277A
:1056D000C827EA270C280F281128312851285B28D1
:1056E00000FF00390501690A700C870C8E0C950CBF
:1056F000FFFF010300FFC8346667C64422B6840179
:105700006201AC00DA01F301130294309631FF0A12
:105710000BFF0908070602030405FF0100FF7A409A
:105720006740542D672D852D982D981A7A1A671A7F
:10573000541A67077A0704040404040404040404E4
:1057400004040001020202020202F1F4F5F600FF75
:105750000100010000FFFF0000010001FF00E20066
:10576000E900EA00B500B600B700CD008301CC0027
:105770008A019201940121022302240225022602B9
:1057800027022A02B300B4006F0070009F01CB0112
:045790009F02A002D2
:00000001FF
