:100000000C94E5010C941D020C941D020C941D022D
:100010000C941D020C941D020C941D020C941D02E4
:100020000C941D020C941D020C9419220C940123B3
:100030000C94CE210C941D020C941D020C941D02F4
:100040000C941D020C941D020C941D020C941D02B4
:100050000C941D020C94F5210C941D020C941D02AD
:100060000C941D020C941D020C941D020C941D0294
:100070000C941D020C941D020C941D020C941D0284
:100080000C941D020C941D020C941D020C941D0274
:100090000C941D020C941D020C941D020C941D0264
:1000A0000C941D020C941D020C941D020501090202
:1000B000A10185020901A1000509190129081500FE
:1000C0002501950875018102050109300931158165
:1000D000257F95027508810609381581257F9501D0
:1000E00075088106050C0A38021581257F95017572
:1000F000088106C0C005010980A101850319012AF4
:10010000B700150126B700950175108100C0050CD8
:100110000901A101850419012AA002150126A002E6
:10012000950175108100C005010906A1018506052C
:100130000719E029E71500250195087501810205D9
:1001400007190029EF1500250195F07501810205B9
:10015000081901290595057501910295017503910D
:1001600001C005010906A101050719E029E71500ED
:100170002501950875018102950175088101050722
:10018000190029FF150026FF009506750881000556
:10019000081901290515002501950575019102959C
:1001A0000175039101C009023B00020100A0320960
:1001B0000400000103010100092111010001224492
:1001C0000007058103080001090401000103000084
:1001D0000009211101000122B60007058203200059
:1001E0000112010002000000084C57E3E600010183
:1001F00002000114034D006900630072006F0020CB
:10020000005000610064000000180357006F007286
:10021000006B0020004C006F0075006400650072E8
:1002200000000004030904000101010101010101B2
:100230000102020202020202020203030303030399
:100240000303040404040404040505050505060667
:100250000606060707070707080808080909090925
:100260000A0A0A0B0B0B0C0C0C0D0D0D0E0E0E0FCB
:100270000F0F10101111111212131314141515165B
:10028000161717181819191A1A1B1B1C1D1D1E1ECC
:100290001F2020212222232424252626272829291D
:1002A0002A2B2C2D2D2E2F30313232333435363748
:1002B00038393A3B3C3D3E3F404142434445464746
:1002C00048494A4C4D4E4F50515354555658595A1F
:1002D0005B5D5E5F616264656668696B6C6D6F70C3
:1002E00072737577787A7B7D7E8082838587888A32
:1002F0008C8E8F91939596989A9C9EA0A2A3A5A769
:10030000A9ABADAFB1B3B5B7BABCBEC0C2C4C6C964
:10031000CBCDCFD1D4D6D8DBDDDFE2E4E7E9EBEE1D
:10032000F0F3F5F8FAFDFF643214000029003E00F6
:1003300000002C0C2B081B08E3006800500A4F0A31
:10034000AE0003526A00A80001520100A6000F0887
:1003500001002C0C4E004B001B085009500A4F0A9C
:100360004F0900524E004B000252010001000100F3
:1003700001000100A900AA000100AD00AC00AB0023
:10038000AE0001526A00A800035201004278010049
:100390000100010001000100010001000100017CD9
:1003A00001000252037C007C0052B600B700DC0062
:1003B000DB0001000100010001000100010001005B
:1003C0000100010001000100010011241FBECFEF58
:1003D000DAE0DEBFCDBF04B603FE18C080912E0365
:1003E00090912F03A0913003B09131038730904B4F
:1003F000A740B04B59F410922E0310922F03109285
:10040000300310923103E0E0F8E3099511E0A0E039
:10041000B1E0EAE8F9E402C005900D92AE3DB10703
:10042000D9F723E0AEEDB1E001C01D92AE32B207C4
:10043000E1F70E94381C0C9459240C940000529A45
:100440000895FC01EE0FFF1FE80FF91FE65FFC4F58
:100450006183408322830895FF920F931F93CF936C
:10046000DF93182F062FF42EC0E0D0E02F2D402F61
:10047000612FCE010E9421022196CC30D105B1F727
:10048000CDB7DEB7E5E00C94A323F894E82FE2950E
:10049000EF70F0E041A18F7021E030E0B90102C0BF
:1004A000660F771F8A95E2F7CB01962F90959423DC
:1004B00091A392A1892B82A378940895269A2E9ACB
:1004C0000895279A2F9A0895259A2D9A0895269887
:1004D0002E982E98089527982F982F98089525984C
:1004E0002D982D98089590E090938B0080938A002A
:1004F00090938D0080938C00909389008093880066
:100500000895CF93DF93EC01009781F081FF15C030
:100510000E945E02C2FF14C00E946102C3FF0AC0B3
:100520000E946402CE01DF91CF9108950E9467027C
:100530000E946B020E946F02F5CF0E946702EACF11
:100540000E946B02EBCF9093BD028093BC02089592
:100550000E9481029093BF028093BE02089521E021
:1005600030E002C0220F331F8A95E2F78091BE026D
:100570009091BF02822B932B0E94A802089521E044
:1005800030E002C0220F331F8A95E2F720953095A4
:100590008091BE029091BF02822393230E94A80201
:1005A00008959B01677091E001C0990F6A95EAF781
:1005B00063E0369527956A95E1F7220F331F220FE6
:1005C000331FFA01E20FF31F40E050E0682F70E0A4
:1005D0008191DF019B01042E02C0369527950A9474
:1005E000E2F7217021952827292328272E934F5F92
:1005F0005F4F4430510561F708959C01982F977023
:1006000083E0369527958A95E1F7220F331F220F55
:10061000331FFB01E20FF31F40E050E080E0219127
:1006200030E0092E02C0369527950A94E2F7217032
:100630003327042E01C0220F0A94EAF7822B4F5F62
:100640005F4F4430510559F70895282F862F943075
:1006500068F4243050F434E0939FB0011124620F09
:10066000711D4FE852E00E94D10208959C5F9230C4
:10067000E0F7622F70E04BE852E0F5CF282F94307E
:1006800068F4843090F434E0939FC00111246FE843
:1006900072E0820F911D0E94FD0208959C5F9230CE
:1006A00020F46BE872E090E0F6CF80E0089580914E
:1006B000CA029091C902981301C008958F5F877094
:1006C000FACF9091C002809589238093C002282F91
:1006D000277021110DC0891759F09091C70292FF20
:1006E00007C08695869586950E94BF021092C0022B
:1006F00008958091B9029091C802892B5091BA0255
:10070000511591F090911601913021F49091C6020B
:1007100097FD0BC096E022EE31E040E0915048F4A6
:1007200041111092BA02852B08959EE12AEE31E024
:10073000F4CFF90161919F01611581F34F5FEECF15
:10074000982F90958091B90289238093B9020895DA
:10075000E62F7430D0F4643008F03BC0843008F0E9
:100760003BC024E0829FC0011124870F911D880F98
:10077000991F880F991FE80FF92FF11DEE0FFF1F2A
:10078000E65DFC4F8591949108957D3F81F4623040
:1007900000F5843008F5F0E0E80FF11DE80FF11DD9
:1007A000EE0FFF1FEE0FFF1FE655FC4FEBCF7C3F18
:1007B00081F4623070F4843078F4F0E0E80FF11DD9
:1007C000E80FF11DEE0FFF1FEE0FFF1FE455FC4F6A
:1007D000D9CF80E090E0089581E0FCCF9C01803E7D
:1007E000910509F448C0D8F48133910509F47DC01E
:1007F00048F48932910509F46DC08A9709F47CC0E8
:10080000C90108958933910551F18238910539F173
:10081000C597B1F78091C60285FFF2CF29C0843E0B
:10082000910509F447C048F4823E910599F1833E51
:100830009105A9F121EE30E0E3CF863E910509F460
:1008400044C0873E9105E1F68091C60283FD61C0F8
:100850009091C70291FF2BC024EE30E0D1CF809160
:10086000C6028370811152C08091C70283FFC8CF36
:1008700029E230E0C5CF8091C60280FD33C090915F
:10088000C70290FFBDCF23EE30E084FFB9CF20E058
:1008900030E0B6CF8091C60282FDF5CFB1CF809116
:1008A000C60282FD30C09091C70290FD2FC084FF28
:1008B000A7CFEDCF8091C70281FFA2CF8091C60262
:1008C00027EE30E084FDE3CF9BCF8091C60283FD0D
:1008D000F7CF96CF8091C60285FD1EC08091C702DA
:1008E00083FF8ECF29E330E08BCF8091C60286FF55
:1008F00087CF2AE230E084CF8091C60286FF80CF86
:1009000021E330E07DCF22EE30E07ACF20EE30E000
:1009100077CF26EE30E074CF25E330E071CF9091B1
:10092000C60292FF10C041E0282F2471243009F044
:1009300040E031E0282F2871283009F030E04317DB
:1009400011F02CE0822793FF10C041E0282F247182
:10095000243109F040E031E0282F2871283109F0D6
:1009600030E0431711F02CE082273091C70230FFAE
:1009700010C051E0282F2171213009F050E041E0F2
:10098000282F2871283009F040E0541711F029E091
:10099000822731FF10C041E0282F2171213109F059
:1009A00040E031E0282F2871283109F030E043176A
:1009B00011F029E0822794FD877E08951F93CF933D
:1009C000DF930E94EE03EC01811522E5920708F007
:1009D00055C0811540E5940708F0D1C0803E9105CF
:1009E00020F58D3C910508F0A4C0883A910570F47B
:1009F000853A910508F09AC081309105D1F10497AC
:100A0000813A9105B0F1C0E0D0E033C0885A910935
:100A10004B97C8F7C85AD0E0CC0FDD1FCF58DE4F38
:100A20000990D881C02DD46424C0811550E4950765
:100A3000C0F4C11580E2D80708F0B7C0C83ED105A0
:100A4000C0F0CE019A9581159F41E8F68D2F0E9446
:100A50008F04182FCE0199270E94EE03EC01D12BB1
:100A600008C099270E94EE03CC27DF70C82BD92B32
:100A7000D06ACE01DF91CF911F910895803842E571
:100A80009407C8F5803652E5950708F05BC0C0347E
:100A900082E5D807D0F4C03292E5D90708F04BC000
:100AA0008C2F8695869520E2829FC0011124C37009
:100AB00021E030E0A90102C0440F551FCA95E2F7BA
:100AC000EA01C82BD92BDD68D4CF8C2F869586956B
:100AD000877050E2859FC0011124C37021E030E08F
:100AE000A90102C0440F551FCA95E2F7EA01C82BBD
:100AF000D92BDC68BECF803C52E5950758F48F7146
:100B0000C03AD245A0F590E0982F8827EC01C46F39
:100B1000D06AAFCF805C9245809708F074CFDC2F0D
:100B2000CC27CC27DF71C06FD06AA3CFA497D06445
:100B3000A0CFD0659ECFCF71D0E0DC2FCC27C16F86
:100B4000D06A97CF86958695877020E2829FC001F4
:100B50001124C37021E030E0A90102C0440F551FE9
:100B6000CA95E2F7EA01C82BD92BDA6882CF0E9436
:100B70008F04C82FD0E0DC2FCC27D0627ACF8F71C2
:100B80000E948F0493E0CC0FDD1F9A95E1F7CC27EC
:100B9000DF70282F30E084FF04C050E1859F900172
:100BA0001124C22BD32BD06964CF8D2F8F710E945B
:100BB0008F04182FCE0199270E94EE03EC01D12B50
:100BC000DCCFA0E0B0E0E7EEF5E00C9483238C01ED
:100BD000E090BE02F090BF028091BC029091BD02F5
:100BE000E82AF92ACFE0D0E0CC24C394D12CC60166
:100BF0000C2E02C0880F991F0A94E2F78E219F21C4
:100C0000892B49F4219798F7B12C8B2DCDB7DEB7FE
:100C1000E9E00C949F23BC2EB8018C2F0E94A803FE
:100C20000E94DE04019771F3F0CF0F931F93CF93CF
:100C3000FC01858100811181811591F0611581F0A0
:100C4000C8010E94E105C82F682FC8010E94250332
:100C5000B8018C2F0E94A803CF911F910F91089586
:100C6000C8010E943E03C82FF3CFCF93DF93D82F44
:100C7000C92F0E94E1056D2F7C2F0E94A8030E94BE
:100C8000DE04DF91CF910895FC0184818115A1F0EC
:100C9000808191810E943506282F92959F70963011
:100CA00099F060F4925F9F70923030F4203FB1F081
:100CB00038F481E0283E38F080E008959A5FF3CF61
:100CC00081E0243FC9F7089591E0213F09F090E0C9
:100CD00081E0283E08F080E0892B089581E00895A6
:100CE00080E008950895CF92DF92EF92FF921F93D4
:100CF000CF93DF93172FE82FF0E0E95DFD4F7111DF
:100D00000CC0E4918E2F7E2F6E2FDF91CF911F911B
:100D1000FF90EF90DF90CF900895E62EF12CC72E34
:100D2000D12CF491EF2F86E0689F90011124CFEF32
:100D3000D0E0C901BE010E944C23AB01EE0CFF1CA8
:100D400065E5649FC001659F900D1124E81AF90ABA
:100D50006E2D660F6E0D7E01EC18FD08FE9DD00114
:100D6000FF9DB00D11248B2F169F70011124EF2CC5
:100D7000FF246E01CE18DF087601FE9D6001FF9D05
:100D8000D00C11247E01E61AF108B701169F7001FC
:100D9000179FF00C1124EF2CFF24CE19DF09FC9FC4
:100DA0007001FD9FF00C11247F2D43305105C1F0DF
:100DB0002C3F334058F441305105B1F042305105D9
:100DC00009F0A2CFEB2F8F2D7F2F9ECF44305105FE
:100DD00071F04630510509F497CF7B2F8D2D94CFBC
:100DE0007D2DEB2F8F2F90CF7F2FED2D8DCFEF2DE2
:100DF0007B2FF8CF8091A802843060F483708460E8
:100E00008093A8028091AB02873918F086E980931D
:100E1000AB0208958032B0F383708C61F1CFCF9331
:100E2000DF938091A80280FD0CC0C0E0D0E020E0FC
:100E300040E060E0CE010E9421022196C830D10539
:100E4000B1F70E94010DDF91CF9108951092A70292
:100E500080912F0281110EC081E080932F0280913A
:100E6000A802982F917090932E028E7F8093A802F3
:100E70000E940F070895FF920F931F93CF93DF9364
:100E8000EC01F12C00E010E07091AA028091AB021D
:100E9000873908F086E96C816F0D0E947306472F31
:100EA000282FC8010E9421020F5F1F4F8FE1F80E0B
:100EB0000830110549F70E940F078C819A8190FF35
:100EC00007C08F5F8C83CDB7DEB7E5E00C94A3231A
:100ED0008150F8CF409105015091060125E038E09E
:100EE000429FC001439F900D529F900D1124875E39
:100EF000994C9093060180930501890F08950E94F3
:100F0000E3070895E0EBF2E0248130E1230F08F4D9
:100F10002FEF24838091B80281608093B8020895F6
:100F2000E0EBF2E0248130E1231B08F420E024838D
:100F30008091B80281608093B802089590E06115B5
:100F4000E9F08D5D9E4FFC0180818F3FB1F0E82F6D
:100F5000E295EF70F0E041A18F7021E030E0B9013F
:100F600002C0660F771F8A95E2F7CB01962F909506
:100F7000942391A392A1892B82A308958F5D9E4F04
:100F8000E2CF90E06115A9F08D5D9E4FFC012081BC
:100F90002F3F91F0E22FE295EF70E05EF0E080816C
:100FA00090E02F7002C0959587952A95E2F78170A1
:100FB00008958F5D9E4FEACF80E00895519A08957D
:100FC0000E94210208950E942C020895282F35EBDB
:100FD0002303C001112497FF04C080589109892F71
:100FE000089580589F4FFBCF8091990280FD14C0D7
:100FF00081FD14C082FD16C080919802811581F098
:101000008E3180F420E5829FC00111246EE170E0F2
:101010000E946023862F089584E1089588E2089550
:1010200088E0089580E508958091990280FD17C0B9
:1010300081FD17C082FD19C080919702811599F03A
:10104000883298F428E0829FC001112468E270E0A1
:101050000E9460236115710551F0862F089562E0AA
:10106000FCCF64E0FACF61E0F8CF68E0F6CF81E032
:101070000895E0918102F0918202309729F0019069
:10108000F081E02D0995089580E00895A3E0B0E097
:10109000ECE4F8E00C948A239C0180912202909168
:1010A000230282179307A1F0309323022093220298
:1010B000E0918102F0918202309751F083E08983C0
:1010C0003B832A830084F185E02DCE0101960995AA
:1010D0002396E2E00C94A623A3E0B0E0E2E7F8E078
:1010E0000C948A239C018091200290912102821706
:1010F0009307A1F03093210220932002E091810216
:10110000F0918202309751F084E089833B832A83F7
:101110000084F185E02DCE01019609952396E2E049
:101120000C94A62390911601913091F0A2EEB1E0BB
:10113000EFEF90E02D91821751F0EF3F19F421115C
:1011400001C0E92F9F5F9630A9F7EF3FC9F40895DA
:101150009091C60297FFEACFE82FE695E695E695CF
:10116000803FA8F7F0E0E851FE4F877021E030E0C3
:1011700001C0220F8A95EAF78281822B828308952B
:101180000E2E000CFF0BE052FE4FF8CF909116018F
:10119000913021F49091C60297FD0CC0E2EEF1E08F
:1011A0009191891302C0DF011E9251E0E83EF507DC
:1011B000B9F70895E82FE695E695E695803FC8F7DC
:1011C000F0E0E851FE4F877021E030E0A90102C055
:1011D000440F551F8A95E2F7CA01809592818923B1
:1011E000828308958091150108952FB7F894809116
:1011F0005B0290915C02A0915D02B0915E022FBFF4
:1012000008950E94F50820919C0230919D02232BA5
:10121000211521F0809358029093590220919E024B
:1012200030919F02232B211521F080935602909339
:101230005702E0918102F0918202309749F082E0FA
:1012400080939A020680F781E02D8AE992E0099561
:101250000895611509F44BC0E3E3E80FE33150F45E
:10126000F0E0E55AFB4D0C9474230E94F40781953D
:1012700080939D020E94010908950E94F407F8CF0F
:101280000E94F407819580939C02F4CF0E94F4079A
:10129000FACF0E94140880939E02ECCF0E9414089B
:1012A0008195F9CF0E941408819580939F02E2CF27
:1012B0000E941408FACF815D990B21E030E001C053
:1012C000220F8A95EAF780919B02822B80939B02E2
:1012D000D1CF80919902816080939902CBCF809188
:1012E00099028260F9CF809199028460F5CF409194
:1012F0009C028D3C59F480919D0287FF0DC0109295
:101300009D02411559F41092980208C08E3C81F458
:1013100080919D0218169CF3411581F080919E02E8
:1013200090919F02892B8111A5CF10929702A2CF95
:101330008F3C41F447FFF0CF10929C0280919D02B8
:101340008115E0CF803D19F41416B4F3E5CF9091E8
:101350009E02893D29F41916FCF610929E02DCCFFC
:101360008A3D19F497FFD8CFF8CF90919F028B3D1B
:1013700029F497FFD1CF10929F02CECF8C3D19F464
:101380001916CCF3C9CF9FE2980F983090F4815D85
:10139000990B21E030E0B90102C0660F771F8A95F2
:1013A000E2F7CB01809590919B02892380939B0269
:1013B000B3CF8D3D31F4809199028E7F8093990255
:1013C000ABCF8E3D21F4809199028D7FF7CF8F3D79
:1013D00009F0A2CF809199028B7FF0CF2FB7F894BC
:1013E00060915B0270915C0280915D0290915E025F
:1013F0002FBF08959C014FB7F89480915B029091A4
:101400005C02A0915D02B0915E024FBF821B930B04
:101410000895A0E0B0E0EFE0FAE00C948423182FE8
:101420008091130181132CC09091B0029370209190
:10143000120130E081E09217130609F480E08093F6
:1014400004018091B50290910301981739F08093BF
:10145000030140E060E080E00E947F07113091F0DE
:10146000123009F455C0111109C080910401811591
:1014700029F040E060E080E00E947F0790E01FC01C
:1014800081E0DDCF80910201C82FCC0FC80F03E0AF
:101490000C0FC02E0D3010F08CE0C82E6091B10200
:1014A0007091B2028091B3020E947306F62EE72E6D
:1014B000D82ED0E0CC15D8F091E00C30F8F6809121
:1014C00002018F5F8093020191110CC082E0809332
:1014D000180180910401811105C0111103C083E03E
:1014E00080931801CDB7DEB7E8E00C94A023FE018D
:1014F000EB5DFE4F80A5909103018923811531F0AA
:101500002D2D4E2D6F2DCE010E94E0072196D2CFBA
:10151000C0910201C11122C080912802909129023C
:101520000E94FA094091B40220E431E0241B310901
:101530002817390798F40E946A079CE0899F900158
:101540001124832F880F880B3093000180930101B1
:101550000E94F50890932902809328029C2F990FEE
:101560009C0FD3E0D90FE0900001F0900101E91643
:10157000F10478F18D2FDD3008F08CE0E816F104ED
:1015800040F5F701EB5DFE4F80A5909103018923A3
:101590008115F9F00E946A0781FD1EC00E946A074A
:1015A000C82F0E946A0720E8829FC00111247FE7AC
:1015B000790F8091B3026C2F0E947306472F282F5A
:1015C000C7010E94E0078DE090E0909301018093B5
:1015D000000191E0DC3072CF80E070E0C0E0EBCF42
:1015E000FC019B01809116029091170286179707C4
:1015F00040F0672B29F48091E8008E778093E80013
:10160000C90140E0009741F4411106C08091E80013
:1016100082FF2FC080E00895209138022115A9F1A2
:101620002530A9F12091E80023FD2DC02091E8008C
:1016300022FDECCF2091E80020FFE4CF3091F300B1
:101640002091F200009719F02830310558F041E060
:101650002830310509F040E02091E8002E772093F2
:10166000E800D0CF41914093F10001972F5F3F4FA9
:10167000E9CF80913802811541F0853041F08091A9
:10168000E80083FFC3CF81E0089582E0089583E0FE
:1016900008958091100287FF13C08091E80082FFB7
:1016A00006C08091E8008B778093E80008958091D0
:1016B00038028111F2CF0895809138028115D9F353
:1016C0008091E80080FFF8CF8091E8008E77ECCF22
:1016D0002091E4003091E50095E6A9012091EC000D
:1016E000822F817020FF06C08091E80080FF06C035
:1016F00080E008952091E80022FD1AC08091380210
:10170000811589F0853089F08091EB0085FD0FC04F
:101710002091E4003091E50042175307F9F29A95C1
:10172000E1F684E0089582E0089583E0089581E081
:101730000895E8EDF0E080818E7F80831092E200D2
:101740001092DA001092E100A0EEB0E08C9181607E
:101750008C9380818F77808319BCA7EDB0E08C914A
:101760008E7F8C9380818F7E808310920F020895EC
:101770009091B0029370911591F0833008F082E05F
:10178000880F880F9091B0029370892B8093B002DC
:10179000109218018091B80281608093B802089578
:1017A0008091B002869586958F5F833008F081E046
:1017B0000E94B80B08958091B002869586958A950F
:1017C00009F482E00E94B80B08959091B0029370E2
:1017D000911559F08093B1026093B2021092B30256
:1017E0008091B80281608093B8020895E0EBF2E046
:1017F000818190E0628108960E94E50B0895E0EBFC
:10180000F2E0818162818850990B0E94E50B089576
:10181000E0EBF2E0628120E1620F08F46FEF81817A
:1018200090E00E94E50B0895E0EBF2E0628120E198
:10183000621B08F460E0818190E00E94E50B08954E
:10184000E0EBF2E0238130E1230F08F42FEF8181F8
:10185000628190E00E94E50B0895E0EBF2E02381C5
:1018600030E1231B08F420E08181628190E00E9436
:10187000E50B08959FB7F8942AE033E0F9012F5F54
:101880003F4F408158E06BB9000000C047FF8BB963
:10189000440F000000C000C000C08BB900C05A95C2
:1018A00091F743E02E32340749F79FBF0895982FF0
:1018B0009093E900891771F07091EC002091ED0090
:1018C0005091F00021FD09C09F5F973089F7809308
:1018D000E9000895762F242F50E03091EB003E7FF1
:1018E0003093EB003091ED003D7F3093ED0030916F
:1018F000EB0031603093EB007093EC002093ED002F
:101900005093F0002091EE0027FDDECF0895A0E077
:10191000B0E0EDE8FCE00C948423C8EDD0E08881D1
:101920008F7E8883E7EDF0E080818160808384E0B2
:1019300082BF81E080930F0288818E7F888302EED0
:1019400010E0F80110821092DA0081EEC82ED12C3E
:10195000F601108288818F778883888180688883E8
:1019600088818F7D888319BC1092380210920E02F4
:101970001092370210920D0290EEE92EF12CF70131
:1019800080818B7F808388818160888342E060E0F2
:1019900080E00E94570CF60180818E7F8083F801E1
:1019A000808181608083808188608083F70180816D
:1019B0008E7F8083888180618883CDB7DEB7E8E041
:1019C0000C94A023E091CA029091C90227E0E91388
:1019D00002C080E00895AE2FB0E02E9FF0011124E8
:1019E000E553FD4F3181361306C03081381303C0F3
:1019F0003581341304C0FD013196E770E8CF81E0F2
:101A000008958BB16BB164608B7F0E943A0C8FE5B7
:101A100094E00197F1F700C0000008958BB16BB11D
:101A200062608D7F0E943A0C8FE594E00197F1F798
:101A300000C00000089581E08093E00080E2809380
:101A4000D8001092C9008FE19EE40197F1F700C021
:101A5000000087E090EBDC0180932E0390932F032E
:101A6000A0933003B093310388E19CE00FB6F89463
:101A7000A895809360000FBE90936000FFCF0F93F6
:101A80001F93CF93DF938B01EA019091380294303A
:101A900059F58093E9008FEF9091E80095FD06C01D
:101AA00095ED9A95F1F700008A95B1F78091E800DD
:101AB00085FF1AC00E94680B811111C08091E80057
:101AC00085FD06C08091E8008E778093E800F2CF14
:101AD000F80181918F018093F100219779F780912E
:101AE000E8008E778093E800DF91CF911F910F91EE
:101AF0000895CF93DF93D82FC92F48E050E0682F87
:101B0000792F81E00E943F0D88E0ED2FFC2FA8E1A6
:101B1000B2E001900D928A95E1F7DF91CF9108959F
:101B2000BC0140E250E082E00E943F0D0895BC01FC
:101B300046E050E082E00E943F0D0895BC0143E082
:101B400050E082E00E943F0D08959091C70292FB01
:101B5000222720F9281779F080FB92F99093C70289
:101B60006091C6027091C70284E090E00E9439241F
:101B700082E00E9461030895A0E0B0E0E2ECFDE0A5
:101B80000C9484238901D42FC52F6B017C010E9402
:101B9000FA06A8016D2F7C2F88E090E00E942D248A
:101BA00098014D2F5C2FB601C70100E20E94CC23A3
:101BB000622F83E290E00E941B24CDB7DEB7E8E0FD
:101BC0000C94A0238091AC02833018F48F5F809333
:101BD000AC022091A8023091A9024091AA02509132
:101BE000AB026091AC027091AD028091AE02909117
:101BF000AF020E94BC0D08958091AC02811519F0CE
:101C000081508093AC022091A8023091A9024091AA
:101C1000AA025091AB026091AC027091AD0280912A
:101C2000AE029091AF020E94BC0D0895A0E0B0E01A
:101C3000ECE1FEE00C948323D82F162FC42F022F43
:101C40008091A80280FF43C0E82FE695E695F0E07A
:101C5000E75AFE4F90819093A6028C7F8430E1F585
:101C6000842F473908F086E96D2F712F0E94730683
:101C7000D62EC72EB82E8091A80280FF11C0E12C6D
:101C8000F12C2B2D4C2D6D2DC7010E9421028FEFC1
:101C9000E81AF80A88E0E816F10499F70E940F079D
:101CA000D093A9021093AA02C093AB02011579F058
:101CB0002091A8026091AC027091AD023D2F412F9E
:101CC0005C2F8091AE029091AF020E94BC0DCDB707
:101CD000DEB7E9E00C949F23923011F7D091A9026E
:101CE000DFCFE8EAF2E0818121E043816281885F11
:101CF0000E94160E0895E8EAF2E0818121E0438116
:101D0000628188500E94160E0895E8EAF2E062812E
:101D100028E0620F08F46FEF21E0438181810E9487
:101D2000160E0895E8EAF2E0628128E0621B08F4EA
:101D300060E021E0438181810E94160E0895E8EA67
:101D4000F2E0438128E0420F08F44FEF21E0628186
:101D500081810E94160E0895E8EAF2E0438128E0AE
:101D6000421B08F440E021E0628181810E94160E4E
:101D7000089580911601813059F58091C60287FF40
:101D800027C00E9479038093E90140E250E061E6B8
:101D900072E088EE91E00E944C24892BC1F080E231
:101DA000E8EEF1E0A1E6B2E001900D928A95E1F74C
:101DB000E0918102F0918202309749F086E08093B1
:101DC000E8010480F581E02D88EE91E00995089501
:101DD0000E9479038093E00148E050E063E872E0FC
:101DE00080EE91E00E944C24892B89F388E0E0EE9C
:101DF000F1E0A3E8B2E001900D928A95E1F7E0915D
:101E00008102F0918202309711F30280F381E02D7C
:101E100080EE91E0DBCFCF93C82F8115D1F08CEF0E
:101E20008C0F813AA0F580911601813021F48091C8
:101E3000C60287FD10C0E2EEF1E08191C81709F1FA
:101E400021E0E83EF207C9F78C2F0E9492080E9419
:101E5000B90ECF910895EC2FE695E695E695F0E062
:101E6000E851FE4F828190E04C2F477021E030E036
:101E700002C0220F331F4A95E2F782239323892B56
:101E800019F38C2F0E94C6080E94B90EDDCF80E2A4
:101E90008C0F883068F4C77081E090E001C0880F33
:101EA000CA95EAF7C091B902C82BC093B902CFCF47
:101EB0008BE58C0F833038F42C2F2452330BC9015F
:101EC0000E944608C6CFE8E5EC0FEB3150F4F0E095
:101ED000EE0FFF1FE955FE4F808191810E946C0833
:101EE000B8CF83E38C0F833108F0B3CF61E08C2F40
:101EF0000E942909AECF811581F19CEF980F913A8C
:101F000028F40E94C6080E94B90E089590E2980F26
:101F1000983050F4877091E001C0990F8A95EAF7E4
:101F2000892F0E94A003EFCF9BE5980F933028F4F0
:101F300080E090E00E944608089598E5980F9B3154
:101F400028F480E090E00E946C08089593E3980FD5
:101F5000933118F460E00E9429090895811539F041
:101F60009091B902892B8093B9020E94B90E08950D
:101F7000811521F00E94A0030E94B90E08951092CD
:101F8000B90280911601813039F58091C60287FF30
:101F900023C0EAEEF1E08EE1DF011D928A95E9F7B8
:101FA00080E090E00E94460880E090E00E946C088B
:101FB0001092C8020E94B90E86E0EAE9F2E0DF0161
:101FC0001D928A95E9F7109298021092970210924A
:101FD00099020E9401090895E2EEF1E086E0DCCF6B
:101FE0000E94BF0F2FEF84E39CE02150804090407F
:101FF000E1F700C0000088E19CE00FB6F894A895D6
:10200000809360000FBE90936000FFCFAAE2B0E023
:10201000ECE0F0E10C94892380E192E0FC01019670
:102020002091F100208322E088319207B9F7809156
:102030001102893009F45AC0C8F4823009F4B6C0DC
:10204000833009F485C0813091F18091E80083FFED
:10205000EAC080911002909111029A3008F0E3C01A
:10206000E92FF0E0E259FB4D0C9474238A3009F417
:102070008CC08B3051F780911002813231F7809102
:10208000140290911502892B01F78091E800877F57
:102090008093E8000E94490B81E090911202911117
:1020A00001C080E0809316010E94BF0FCECF8091C7
:1020B0001002813A51F68091E800877F8093E80012
:1020C0008091140290911502892B61F060E080E00C
:1020D00090E070E00E94F00A8091E8008B77809396
:1020E000E800B3CF68E088E192E0F3CF809110027E
:1020F000813209F0AACF80911402909115020297C3
:1021000008F0A3CF8091E800877F8093E80080915A
:10211000E80082FF18C09091F3008091F2000297CE
:1021200031F48091F100813011F0863021F48091FA
:10213000F100809315018091E8008B778093E8008F
:102140000E94490B82CF809138028111E0CF7DCF70
:1021500080911002813A09F078CF80911402909119
:102160001502892B09F071CF8091E800877F809359
:10217000E8008091E80080FFFCCF809116018093F9
:10218000F1008091E8008E77D9CF809110028132E2
:1021900009F05BCF8091E800877F8093E8000E9480
:1021A000490B80911302809314014FCF809110024C
:1021B000813A09F04ACF8091E800877F8093E80058
:1021C0008091E80080FFFCCF80911401D8CF803847
:1021D00089F0823841F5809114028F70873018F5AC
:1021E0008093E9008091EB0085FB882780F91092AD
:1021F000E90006C080913702880F90910D02892B6B
:102200009091E800977F9093E8008093F1001092FE
:10221000F1008091E8008E7723C0811116C0809173
:102220001202813011F18091E80083FF0AC0809191
:10223000E800877F8093E8008091EB0080628093C4
:10224000EB00AA96E3E00C94A523823061F780911D
:102250001202811589F01092E9008091E800877FD1
:102260008093E8000E94490BDECF81E0933009F0B3
:1022700080E080933702EFCF809114028F702FEFB0
:10228000280F263080F68093E9002091EB0020FF94
:10229000E2CF933031F48091EB0080628093EB00C9
:1022A000DACF9091EB0090619093EB0021E030E069
:1022B000A90102C0440F551F8A95E2F74093EA0036
:1022C0001092EA008091EB008860E8CF8111ABCFDB
:1022D000109112021F778091E3008078812B809308
:1022E000E3008091E800877F8093E8000E94490B1B
:1022F0008091E80080FFFCCF8091E30080688093AC
:10230000E30083E0111101C082E0809338028BCF9B
:102310008058823008F087CF20911202309113024A
:102320002C3D53E0350799F583E08A838AE289835F
:102330004FB7F894DE01139620E03EE051E2E32F20
:10234000F0E050935700849120FF03C082958F7076
:102350003F5F8F708A30C8F0895C90E08D939D93C9
:102360002F5F243161F74FBF8091E800877F809312
:10237000E8006AE270E0CE0101960E94F00A8091C6
:10238000E8008B778093E8004ECF805DE6CF832F07
:1023900099278330910529F160F48130910509F482
:1023A00076C0029709F03FCF8BE390E0E6EAF1E0D8
:1023B0002DC020911402309115028132910509F44B
:1023C0005AC0829709F02FCF2115310509F469C051
:1023D0002130310509F027CF86EB90E0ECEAF0E000
:1023E00015C0C90199272130B1F18230910509F456
:1023F0003AC0892B09F017CFE3E2F2E0E4918E2F87
:1024000090E0E3E2F2E0009709F40DCF2091E800BC
:10241000277F2093E800209116023091170282173F
:10242000930708F49C0140E02115310509F03EC0F6
:1024300041113CC08091E80082FDA1CF809138021B
:10244000811509F49CCF853009F499CF8091E8007B
:1024500083FFF0CF94CFE9E0F2E0E4918E2F90E09B
:10246000E9E0F2E0D0CFE3EFF1E0E4918E2F90E0ED
:10247000E3EFF1E0C8CF2115310571F021303105CE
:1024800009F0D1CE89E090E0E1EDF1E0BFCF82E14B
:1024900090E0E1EEF1E0BACF89E090E0E8EBF1E026
:1024A000B5CF84E490E0E2E6F1E0B0CF809138026D
:1024B000811509F464CF853009F461CF8091E8007B
:1024C00083FD5DCF8091E80082FDB4CF8091E8006C
:1024D00080FFAACF9091F3008091F2002115310581
:1024E00019F08830910550F041E0089709F040E07C
:1024F0008091E8008E778093E80096CF44914093D6
:10250000F1003196215031090196E8CF803809F069
:102510008ACE8091E800877F8093E80080910E0248
:102520008093F10076CE81117ECE1091120212308E
:1025300008F079CE8091E800877F8093E8001093BF
:102540000E020E94490B1115A9F084E08093380215
:1025500042E061EC81E00E94570C42E261EC82E0D3
:102560000E94570C80913802843051F482E08093AD
:10257000170159CE8091E30087FDE7CF81E0E6CFD8
:1025800081E0F5CFCF930E94EE096093240270930F
:102590002502809326029093270220913602C0E004
:1025A000211109C02091B002C22FC370C11519F0CA
:1025B000C22FC695C69520911801223001F180F4F2
:1025C000211112C01092020160932A0270932B0213
:1025D00080932C0290932D0281E08093180102C019
:1025E0002330C1F0CF9108958C2F0E94090AC115A4
:1025F000C9F340E060E080E00E947F07F3CFC09322
:1026000013018091B0028370809312010E940E0D1D
:1026100083E0E3CF8091B802811551F048E050E0AB
:1026200067E170E080EB92E00E940B241092B80208
:1026300040912A0250912B0260912C0270912D0240
:102640002FB7F89480915B0290915C02A0915D029B
:10265000B0915E022FBF841B950BA60BB70B409762
:10266000A105B10508F4BECF10921801BBCF60914F
:10267000A8026695669570E041E050E087E091E041
:102680000E943F24892B19F481E08093A7020E94C5
:10269000F508909343028093420208959091A80216
:1026A00090FF3BC08115D1F18830D0F58F73282F72
:1026B000220F220F8091A8028370282B2093A8025A
:1026C000611581F03091A9024091AA025091AB02AC
:1026D0006091AC027091AD028091AE029091AF0218
:1026E0000E94BC0D6091A8026695669570E041E07D
:1026F00050E087E091E00E943F24892B99F01092EE
:10270000A70281E08093450220E04091AB026091F6
:10271000AA028091A9020E94160E089581E0C7CFF7
:1027200087E0C5CF0E943713ECCF8091A802869531
:1027300086958F5F883008F081E061E00E944E133B
:1027400008958091A802869586958A9509F487E078
:1027500061E00E944E13089510922F0280912E0284
:10276000811551F08091A80281608093A80260E0F9
:10277000869586950E944E130E9437130895FF9206
:102780000F931F93CF93DF93C62FD42F122F811552
:10279000A9F06093A4020E94F50890930C02809324
:1027A0000B02C77081E001C0880FCA95EAF70E944A
:1027B000AE0FCDB7DEB7E5E00C94A3238091A40261
:1027C000681333C080910B0290910C020E94FA09A9
:1027D000883C910550F500E20D0FCD17A9F0C770A8
:1027E000FF24F3948F2D01C0880FCA95EAF70E9449
:1027F000B80F083048F48D2F877001C0FF0C8A9500
:10280000EAF78F2D0E94AE0F812F0E940B0F812FB0
:102810000E947B0F083068F6D77081E001C0880FF6
:10282000DA95EAF70E94B80FC4CFC77081E001C003
:10283000880FCA95EAF7F6CFA0E0B0E0E2E2F4E153
:102840000C9484237C01FC018481811509F47AC0F5
:1028500061E0C7010E941506EC018134FEE79F0785
:1028600009F04FC0F7018581811559F18091A002CF
:102870008F5F8770982F853010F090E080E0209176
:10288000A002287F922B9093A002FFEF8F9FC001A0
:10289000112495958795959587950E94730240918F
:1028A000A0025091A1026091A2027091A30283E163
:1028B00090E00E942D248091BE029091BF020E9460
:1028C0008102F7019581911509F4B0C41092A40218
:1028D0009E0130572332310508F0B6C484E090E001
:1028E0000E9405249093C7028093C602FE01E15026
:1028F000F047E232F10508F041C0E858FB4D0C9476
:102900007423FC01E851FC47E730F105D0F6E656A8
:10291000FB4D0C94742326E241EE61EEF7018581B4
:102920000E94BF138091C0028770811559F0F70192
:102930008581811539F08091C70282FF03C082E052
:102940000E946103CDB7DEB7E8E00C94A02327E234
:1029500045EE65EEE3CF26E241EE60EEDFCF27E203
:1029600045EE64EEDBCF26E241EE62EED7CF27E202
:1029700045EE66EED3CF28E241E0EBCF8091C60270
:1029800081608093C6026091C6027091C70284E0A4
:1029900090E00E9439240E94BF0FC4CF8091C702EB
:1029A00088608093C702EFCF8091C6028260E9CF32
:1029B0008091C6028460E5CF8091C6028860E1CF35
:1029C0008091C7028160EDCF8091C7028260E9CF1C
:1029D0008091C6028061D5CF8091C6028062D1CF3E
:1029E0008091C6028064CDCF0E94BF0F8091C60245
:1029F0008068C7CF8091C6028C60C3CF8091C70228
:102A00008360CFCF8091C6028E7FBBCF8091C702FB
:102A1000877FC7CF8091C6028D7FB3CF8091C602DA
:102A20008B7FAFCF8091C602877FABCF8091C702EB
:102A30008E7FB7CF8091C7028D7FB3CF8091C602C2
:102A40008F7E9FCF8091C6028F7D9BCF8091C602E3
:102A50008F7B97CF0E94BF0F8091C6028F7791CF57
:102A60008091C602837F8DCF8091C7028C7F99CFE2
:102A70008091C602992782FF939590FB82F990FB83
:102A800083F97FCF8091C702982F909590FB80F9B2
:102A900090FB81F986CF9091C602892F8F7B96FF9C
:102AA00080646FCF0E94BF0F9091C602892F97FB61
:102AB00087F9805866CF61E08EE090E00E941B2489
:102AC00062CF60E0F9CF9091C602892F8F7E94FF8C
:102AD000806157CF9091C602892F8E7F90FF8160D1
:102AE00050CF9091C702892F877F93FF886059CF7D
:102AF00089E2BCC389E2A5C38272FE01E052F847B5
:102B0000EB30F10508F0C2C0EF55FB4D0C94742377
:102B10008091B9028272FE01E054F847ED30F10570
:102B200008F0B4C0E455FB4D0C9474238091A802C6
:102B300080FF19C0282F2E7F2093A8023091A90270
:102B40004091AA025091AB026091AC027091AD022B
:102B50008091AE029091AF020E94BC0D1092A7022C
:102B60000E940F07DFCE81608093A80261E0869506
:102B700086950E944E13D6CE811529F00E94A1138E
:102B8000D1CE8115D9F30E949513CCCE811529F0B1
:102B90000E947B0EC7CE8115D9F30E94710EC2CE62
:102BA000811529F00E94920EBDCE8115D9F30E94A5
:102BB000850EB8CE811529F00E94AC0EB3CE8115DA
:102BC000D9F30E949F0EAECE811529F00E94FC0D14
:102BD000A9CE8115D9F30E94E20DA4CE8091B00256
:102BE0008370811102C0109218018091B0028C7F15
:102BF00081608093B0028091B80281608093B802B6
:102C000091CE8091B0028370811110921801809151
:102C1000B0028C7FEECF8091B00291E08927809343
:102C2000B00210921801E7CF811529F00E94DB0B4A
:102C300079CE8115D9F30E94D00B74CE811529F07D
:102C40000E94FF0B6FCE8115D9F30E94F60B6ACE5E
:102C5000811529F00E94140C65CE8115D9F30E94CC
:102C6000080C60CE811529F00E942D0C5BCE8115D9
:102C7000D9F30E94200C56CE811529F00E949007AE
:102C800051CE8115D9F30E9482074CCE9E01205E61
:102C9000324520323105A8F491112AC0CF7181E06C
:102CA00090E09C0102C0220F331FCA95E2F7E901B0
:102CB000622F83E090E00E941B24CE010E94A302B9
:102CC00031CE9115A9F0CA353CE7D30709F483C08A
:102CD00008F05BC0C1309CE7D90709F47AC0C33063
:102CE000ECE7DE0709F46FC0C115DC4709F45EC0EC
:102CF000F701858100811181811509F470C0C80137
:102D00000E94E105C82F682FC8010E942503B80161
:102D10008C2F0E94A8030E94DE04D82FC92FF70130
:102D2000D580C680C2948FE0C8228091C00287708F
:102D30008115F9F00D2DD114E9F0892F807F8034B1
:102D400061F080E28D0F8830A0F0892F807E803284
:102D500021F4D23070F0C11461F08091C70282FF7B
:102D600008C082E00E9461038091C002877001E088
:102D7000811100E0EC2FE295EF70C03C08F096C0A6
:102D8000F0E0E754FB4D0C947423CB352CE7D207CD
:102D900021F18091C702002482FF0394802DCC355D
:102DA000DC4709F0A5CF0E94A50DA2CF0E94BF0F5E
:102DB0008FEF94E3ECE081509040E040E1F700C0F9
:102DC00000000E941B0D6FEF7FEF80E090E00E94FB
:102DD00039240E94F00F81E0E6CF80E0E4CFC80103
:102DE0000E943E03C82F93CF1C2F1F70C03110F0DC
:102DF0001295107FD114B9F0111569F080E28D0F92
:102E0000883010F0D11109C08091B902812B8093D4
:102E1000B9020E94B90E8D2F41C08091C802812B4A
:102E20008093C802F6CF8D2F0E947B0F1115F1F110
:102E300080E28D0F883010F0D11104C0812F0E94E4
:102E4000A00306C010958091C80281238093C80218
:102E50000E94B90E2BC01C2F1F70C07FC03211F012
:102E60001295107FD11551F0D13009F485C0D114DD
:102E700009F491C0C11409F451C0CDCF8091C702AB
:102E800082FD48C0D11469F0111539F08091B90262
:102E9000812B8093B9020E94B90E80E00E940B0F33
:102EA00005C080E00E947B0F1111C8CF0115A9F069
:102EB0008091C00280FD11C0F7011582869586952C
:102EC00086950E94AF02C7010E941C148091C00227
:102ED0008695869586950E94BF0260E0C7010E9494
:102EE0001506F7018581811509F42CCD0E94EE09A4
:102EF0006093C2027093C3028093C4029093C50290
:102F00008091C102811509F41DCD1092C1020E9469
:102F1000AC1318CDD114A1F0C11004C0812F0E94B0
:102F2000AE0FC4CFF1E0CF12C1CF8091BA02912F82
:102F30009823191709F4BACF812B8093BA02B6CF20
:102F4000C110B4CF812F0E94B80F9091BA02812F87
:102F50008923811529F0812F809589238093BA02D6
:102F60008091BB02912F9823911509F49FCF109562
:102F700018231093BB029ACFD11429F026E0C21671
:102F800008F094CFCBCF35E0C31608F08FCF812F58
:102F90000E94B80F8BCFC114D1F3D93349F48FEF0E
:102FA00097EEE3E081509040E040E1F700C0000080
:102FB0008D2F0E947B0F7ACF8C2F869586958370FC
:102FC000811569F0813009F071CF8D2F9C2F93709E
:102FD000D11002C080E090E00E946C0867CF8D2F76
:102FE0009C2F9370D11002C080E090E00E944608B0
:102FF0005DCF6D2D8D2F0E94290958CF8C2F8370A6
:10300000811142C0D1102FC04D2F42954695477077
:10301000440F440F2D2F2F7030E0042E02C0220FDA
:10302000331F0A94E2F780E090E0D4FF09C08FE0FC
:1030300090E002C0880F991F4A95E2F7809590951D
:10304000C695C695C370C230B1F0C33089F04091C7
:10305000BC025091BD02C13049F0822B932B8423D6
:1030600095230E94A3020E94390820CF242B352BE0
:10307000822B932BF6CF822B932B2091BC02309185
:10308000BD0282279327EDCFD11491F1C0FFEBCF82
:103090004D2F429546954770440F440F2D2F2F70AA
:1030A00030E0042E02C0220F331F0A94E2F780E0C2
:1030B00090E0D4FF09C08FE090E002C0880F991F14
:1030C0004A95E2F780959095C695C695C370C23033
:1030D000B9F0C33091F04091BE025091BF02C130AF
:1030E00051F0822B932B842395230E94A802BBCFFF
:1030F000823070F6B8CF242B352B822B932BF5CF53
:10310000822B932B2091BE023091BF0282279327FE
:10311000ECCFCF70D11439F08C2F0E94AF028D2FDD
:103120000E94AE0FA0CF8D2F0E94B80F8C2F0E944F
:10313000BF0299CFD23FB1F170F4D03FC9F0D13F77
:1031400091F0D11409F45EC0C11409F458C08D2F58
:103150000E940B0F88CFD33F61F1D43F91F790913C
:10316000C70292FD34C08C2F8F71D11401F31EC0A1
:10317000D114A9F0F5E0CF1608F075CFCF7181E03A
:1031800090E09C0102C0220F331FCA95E2F7E901CB
:103190008091BE029091BF0282279D27A6CF36E084
:1031A000C316EACF8C2F8F71D110C1CF0E94AF020E
:1031B0005ACF80E090E0D11409F497CFCF7181E02D
:1031C00090E002C0880F991FCA95E2F78ECFD11404
:1031D00061F08C2F8F7192FFE9CF982F990F990F83
:1031E000990F93609093C002E1CF81E00E94610348
:1031F00082E0C81608F437CF0E94610334CF8C2FC9
:103200008F71D4CFC11479F0D93349F49FEFE7EE31
:10321000F3E09150E040F040E1F700C000008D2F56
:103220000E947B0F20CF8C2F8F7181CFC631FCE79E
:10323000DF0709F06DCC8091A502811509F45ACC05
:1032400085E30E94C60814C08091B902C6312CE7FC
:10325000D20709F051CC8A7A91E0811101C090E047
:103260009093A502811509F443CC85E30E9492084E
:103270000E94B90E57CB80910903803178F4809178
:103280000803811559F0E091CA022091C9023091DA
:1032900004034091030357E02E1301C008956E2FDD
:1032A00070E05E9FF0011124DF01A553BD4F14961D
:1032B0008C911497811561F111968C91119783135C
:1032C00027C08C91841324C015968C911597811179
:1032D0001FC012968D919C91A0910503B091060399
:1032E0008A1B9B0B883C910598F4809109038F7091
:1032F000806180930903EF52FD4F80818F70806160
:10330000808383E093E00E941C140E945703089579
:10331000FB013196E770C0CFADE0B0E0E2E9F9E142
:103320000C947F238C0186E0F801DE011896019051
:103330000D928A95E1F7F801F580C48083E0882E2C
:1033400083E0982E70900703711020C0C114D9F04B
:10335000F11409F41CC1C8010E944406811509F446
:1033600016C187E0F801D40101900D928A95E1F72A
:10337000F1E0CF1206C080910303909104030E94F4
:1033800035060E943B19FF24F39454C0E080A280CC
:10339000B380D090080380910503909106039501B6
:1033A000281B390BD11409F4BAC0283C310508F0A8
:1033B00090C0C11441F390910403C180809109032E
:1033C000803108F058C0C91214C0909103039E11B7
:1033D00010C0F1104AC08F7080618093090383E0B0
:1033E00093E00E941C1480910903F8018683F12C5C
:1033F00021C0F1103AC040E06C2D8E2D0E94E20CED
:1034000040E06C2D8E2D0E94E20CF82E8111EFCF42
:10341000888599850E943506292F22952F70903432
:1034200070F49F702230A0F09115B1F0F8019681F0
:10343000903190F48F2D2D96EDE00C949B232A5F14
:103440002F70223068F0C8010E941C14FD2CF2CFAE
:10345000911511F0811571F3805E883058F3F3CF28
:10346000803F40F3815F8330F9CF80910903816011
:1034700080930903BCCFC91207C0909103039E112A
:1034800003C0F11409F46CC0C8010E944406811500
:1034900009F47DC0F11409F47AC0809109038032E7
:1034A00078F020910303309104033A832983BC828E
:1034B000AB827D821E828F83CE0101960E941C14F6
:1034C00087E0F801A3E0B3E001900D928A95E1F75F
:1034D00058CF80910903803150F483E093E00E943B
:1034E0001C1487E0F40111928A95E9F780CFC1148A
:1034F00009F449CF2091040391812913C5CF9091FC
:1035000003039E11C1CFF110BFCF8683C8010E9473
:103510001C1487E0F40111928A95E9F734CF283C16
:103520003105F8F6C11409F42ECFF11481F1909110
:1035300004038181981321C0809103038E111DC063
:103540008091090380FD10C0803170F08683807FF8
:10355000803F39F08681982F907F905F8F70892B04
:103560008683C8010E941C1487E0F801A3E0B3E041
:1035700001900D928A95E1F706CFC8010E9444069A
:1035800081119ECF80910903816080930903C80156
:103590000E941C14F8CEABE1B0E0E1EDFAE10C942E
:1035A00088234E8B5F8B688F798F8A8F192F9B8F23
:1035B00091111092C8021D8A86E0FE017696DE0106
:1035C0001F9601900D928A95E1F70A8D011539F049
:1035D0000B8B1C8B61E0CE010F960E9415060B8BA6
:1035E0001C8B87E0FE013F96DE01189601900D923C
:1035F0008A95E1F7CE0108960E948C19811128C0A6
:103600002091C9023091CA0287E0FE013896DE019E
:10361000119601900D928A95E1F78C858115C1F084
:10362000822F90E001968770992738171906D9F0F4
:1036300097E0929FD0011124A553BD4FFE01319612
:1036400001900D929A95E1F78093C9020E94570369
:1036500017E08091CA029091C902891312C06B963B
:10366000E4E00C94A4230E94BF0F1092C9021092B0
:10367000CA0287E0E3E0F3E0DF011D928A95E9F7F3
:10368000E7CF189FC001112485539D4F0E948C19CC
:10369000811529F38091CA0290E0019687709927DD
:1036A0008093CA02D6CFA6E0B0E0E9E5FBE10C9436
:1036B00088230E94F5088C0180915F02909160023E
:1036C0008017910779F019821A820E94F508BC01CF
:1036D00049815A8180E090E00E94CB1A10936002E9
:1036E00000935F022696E4E00C94A423A4E0B0E0EB
:1036F000ECE7FBE10C948023FE01319684E0DF01CE
:103700001D928A95E9F789E1E82E81E0F82E8F0174
:10371000B12C9E2EA12ECC24C394D12CF7018191E3
:103720007F018F3FC9F1F894E82FE295EF70F0E048
:1037300021A18F70A60102C0440F551F8A95E2F7A0
:10374000CA01922F982B91A392A18095892382A3DD
:10375000789400C0EDE1F1E041E0812C20E053E0FD
:10376000B51249C0211141C088277F9B83958115DF
:1037700009F453C080E0882A2F5F440F319624302B
:1037800071F7F70182918F3F11F00E94450280EAA4
:103790008A95F1F7D8018C92B3940F5F1F4FB4E074
:1037A000BB12BCCF44E050E0692D7A2D80E392E05B
:1037B0000E944C24892B99F189819A81AB81BC812B
:1037C0008093300290933102A0933202B09333027F
:1037D00081E080930A020E94F50890930902809389
:1037E00008022496ECE00C949C23233021F48FB142
:1037F00080958170BCCF30813F3F09F4BBCFA32FB0
:10380000A295AF70A05EB0E08C9190E03F7002C0D6
:10381000959587953A95E2F7ECCF842FACCF8091C0
:103820000A028115F1F280910802909109020E942A
:10383000FA090597B0F244E050E060E372E089E3F2
:1038400092E00E944C24892B81F08091300290916B
:103850003102A0913202B0913302809339029093E9
:103860003A02A0933B02B0933C0210920A02B9CFF5
:10387000CDB7DEB7A1970FB6F894DEBF0FBECDBFB0
:1038800085B7806885BF85B7806885BF84B7877F27
:1038900084BF0FB6F894A8958091600088618093EA
:1038A0006000109260000FBE80E890E00FB6F894C0
:1038B00080936100909361000FBE81E080931701B7
:1038C00080E796E09093DF018093DE010E94990BE0
:1038D0000E94870C8091E20084608093E2007894DB
:1038E00080913802811599F08091E9001091EC00E7
:1038F0008F70179511271795182B1092E90080915A
:10390000E80083FD0E9406101F701093E90082E01A
:1039100084BD93E095BD9AEF97BD80936E00EDE472
:10392000F2E098E0DF011D929A95E9F780934C024E
:1039300060E080E00E949E0761E080E00E949E07B8
:1039400060E081E00E949E0761E081E00E949E07A6
:10395000EFE8F1E03197F1F700C0000010E080914E
:103960004C02181708F4DCC081EF0E94450284EF76
:103970000E94450285EF0E94450286EF0E944502A3
:1039800084E30E94450286E60E94450287E60E9483
:10399000450286EC0E94450284E0E9E3F2E0DF01A3
:1039A000C82E1D92CA94E9F7E0E3F2E0DF011D9210
:1039B0008A95E9F783E190E00E94FF236093A002DB
:1039C0007093A1028093A2029093A3026770BFEF4D
:1039D0006B9FC001112495958795959587950E94B9
:1039E000730280E090E00E940524853E9E4F09F41A
:1039F00070C065EE7EEF80E090E00E94392460E0C8
:103A000082E090E00E941B2481E090E09093BD0250
:103A10008093BC0261E083E090E00E941B2460E0A0
:103A200074E184E090E00E94392460E086E090E058
:103A30000E941B2460E087E090E00E941B2440E08D
:103A400050E0BA0188E090E00E942D2460E083E21B
:103A500090E00E941B2460E08CE090E00E941B2418
:103A600060E08DE090E00E941B2419821A821B8284
:103A70001C821D821E821F82188648E050E067E18A
:103A800070E0CE0101960E940B2440E050E0BA01A4
:103A90008FE190E00E942D2440E050E0BA018FE0D9
:103AA00090E00E942D241092A0021092A102109288
:103AB000A2021092A30281E08093A00282E10E9400
:103AC000730241E050E060E070E083E190E00E942A
:103AD0002D2482E090E00E94F72380933D0284E051
:103AE00090E00E9405249093C7028093C6020E9432
:103AF000761BFFEF06E711E0F15000401040E1F7C0
:103B000000C000000E94761B8091390280FF1AC01D
:103B10006FEF7FEF80E090E00E9439240E941B0D40
:103B200060E0812F0E94C107082F61E0812F0E9471
:103B3000C107E12FF0E0E65BFD4F880F802B80830B
:103B40001F5F0DCF83E090E00E94F72390E00E947A
:103B5000A3028091BE029091BF020E9481020E9446
:103B6000DE0781E08093B80248E050E067E170E052
:103B700080EB92E00E94E7231092B8028091B0029D
:103B80008430C8F489E08093B0021092B1028FEFC4
:103B90008093B2021092B3029FE79093B402809395
:103BA000B50248E050E067E170E080EB92E00E94EF
:103BB0000B241092B80280913402811199C088E0E0
:103BC00090E00E94FF232B013C0183E290E00E94E1
:103BD000F723282F30E040E050E060E070E080E024
:103BE00090E000E20E94B123F9017301620100E05C
:103BF00010E09801DE8AEF8AF88E098F1A8F2B8FDA
:103C00003C8F2E2F24293D2D3F2B4E295F292093B9
:103C1000A8023093A9024093AA025093AB0260938A
:103C2000AC027093AD028093AE029093AF02243049
:103C300008F04CC02DE12093A8022FEF2093A90299
:103C40002093AA0226E92093AB021092AC022DE148
:103C50003FEF4FEF56E960E00E94BC0D88E090E036
:103C60000E94FF234B015C0183E290E00E94F72356
:103C7000282F30E040E050E060E070E080E090E02D
:103C800000E20E94B123F9017501640100E010E037
:103C90009801DE8AEF8AF88E098F1A8F2B8F3C8F5E
:103CA0002E2F28293D2D3F2B4E295F292093A80236
:103CB0003093A9024093AA025093AB026093AC02E6
:103CC0007093AD028093AE029093AF020E94FA0609
:103CD0001092A7020E941F028091A80280FF05C0D7
:103CE00060E0869586950E944E1381E080933402B1
:103CF00089EA8093800089E08093810088E091E0E8
:103D00009093820280938102B8E1EB2EF12C1DE3A7
:103D1000C12E12E0D12E01E0CE0101968D8B9D8F38
:103D20008091380210E4F3E0BF2EA2E1AA2E853084
:103D300009F495C00E94761B7EE3A72E72E0B72E91
:103D4000E9E38E2EE2E09E2ED401F50191918D9152
:103D500042E0E234F40709F4E1C09817B9F310E047
:103D6000D4017D904D01F50141905F01471421F18F
:103D70004724612C55245394842D85218115A9F065
:103D800069821A830E94F5089C838B830D8391E0DE
:103D9000872D8521811101C090E09E8349815A8140
:103DA0006B817C818D810E94CB1A6394550CF4E069
:103DB0006F12E2CFF50172921F5F143089F60E94F4
:103DC000EE09B0C080913802843009F43EC00E94F0
:103DD00067020E946B020E946F020E94C2120E9440
:103DE00026078091360281110DC00E94090A1092A7
:103DF00013018091B0028370809312010E940E0D16
:103E0000B092180100933602109235020FB6F89462
:103E1000A895E09260000FBE1093600083B7817F89
:103E2000846083BF83B7816083BF7894889583B7AC
:103E30008E7F83BF0FB6F894A8958091600088614B
:103E400080936000109260000FBE0E94761BE9E331
:103E5000F2E08191811186C2CE16DF06D1F7809102
:103E60003802853009F4AECF0E94BF0F0E94390896
:103E70000E94AC13109236020E9467020E946B02ED
:103E80000E946F023FEF49E688E131504040804098
:103E9000E1F700C000000E945E029FEFA1EEB4E0D7
:103EA0009150A040B040E1F700C000000E946102C4
:103EB000EFEFF1EE14E0E150F0401040E1F700C008
:103EC00000000E9464022FEF31EE44E021503040A8
:103ED0004040E1F700C000000E9467028FEF91EEC2
:103EE000A4E081509040A040E1F700C000000E9493
:103EF0006B02BFEFE1EEF4E0B150E040F040E1F7DB
:103F000000C000000E946F021FEF23EC39E0115047
:103F100020403040E1F700C000000CCF98131FCFC5
:103F20000E94531B8091A702811509F443C0809120
:103F3000A602E091A802E695E695E81BE09344020C
:103F400030ED232E47E0342E52E7A52E56E0B52E55
:103F5000823059F4E695F0E0E95DFC4FE4912E2EB5
:103F6000312C6BE3A62E67E0B62E809145028115B9
:103F700061F0109245020E94F508909343028093ED
:103F8000420210924702109246020E94F5082091C8
:103F9000420230914302821B930B8F3F9F4750F4A4
:103FA000220D331D309343022093420282E492E0BB
:103FB000F50109950E94C21280915502811551F0B8
:103FC00080914F02109255028093500280914D02D1
:103FD00080934E02B12C4AC061E08B2D0E94C10734
:103FE000A82E60E08B2D0E94C107AA0CA82A2B2DB9
:103FF00030E0D901A65BBD4FEC918E2F8370A816DF
:10400000A1F1EE0FEE0FEA29EC93EF70F0E0EF591B
:10401000FE4F285B3D4F8081D9019C91890F8C9385
:1040200084300CF454C0412F50E0BA016F5F7F4FD1
:10403000637077279616170679F0435B5D4F9B2DCB
:104040009F77FA0194831F5F137010934F02909132
:104050004D029F5F90934D02082E000C990B64E077
:1040600070E00E946023F9018083B3949090500225
:1040700010914F0280914C02B81608F4ADCF90E039
:104080008CEFA82E2DEF922E8091500220914F029E
:10409000281709F456C0E82FF0E0EF5AFD4F908141
:1040A00097FB882480F8B92EE894B7F88F5F837067
:1040B0008093500280914E028F5F80934E0297FD55
:1040C0001BC0B986AA860E94F50813E01AC08D3F6E
:1040D0001CF6412F50E0BA016F5F7F4F6370772766
:1040E0009616170609F4B8CF435B5D4F9B2D906879
:1040F000DA0114969C93A7CFB9869A860E94F50898
:1041000012E0BC018B879C871D870E8749855A85E5
:10411000812F91E00E94CB1ABF86811481F0988A8A
:104120000E94F508BC01898B9A8B1B8B1C8A4F85DA
:104130005889812F90E00E94CB1A91E0A5CFA88AE0
:10414000EFCF91110E94EE0986E0EAE9F2E0AD8935
:10415000BD8D01900D928A95E1F780909B02A09011
:104160009C0210919D0290909E02B0909F0210922E
:104170009C0210929D0210929E0210929F02812F2B
:104180008A29811509F442C0809158029091590200
:104190000E94FA098E8F9F8F80919802811509F4F1
:1041A000DBC02E8D3F8D2531310580F18F3F19F019
:1041B0008F5F80939802A11459F00E94F40791E058
:1041C0001A140CF09FEF899F802D112480939C027C
:1041D000111559F00E94F40791E011160CF09FEFB1
:1041E000899F802D112480939D0280919C028115CE
:1041F00069F070909D02711449F00E94E607809367
:104200009C02872D0E94E60780939D028B2D8929B1
:10421000811509F442C080915602909157020E9484
:10422000FA0988A399A380919702811509F48DC09A
:10423000A8A1B9A1A135B10580F18F3F19F08F5F19
:1042400080939702911459F00E94140891E0191478
:104250000CF09FEF899F802D112480939E02B11452
:1042600059F00E94140891E01B140CF09FEF899FF5
:10427000802D112480939F0280919E02811569F008
:1042800090909F02911449F00E94E60780939E024D
:10429000892D0E94E60780939F0280919B028812DD
:1042A00019C080919C02811511F08A1113C02091D0
:1042B0009D02211511F012130DC090919F029115CE
:1042C00011F0B91207C030919E02311103C0822B48
:1042D000892B81110E94010986E0ED89FD8DAAE9F3
:1042E000B2E001900D928A95E1F70E943908909111
:1042F0005A02891721F080935A020E94EE09809198
:10430000C10281110DCD4091C2025091C302609152
:10431000C4027091C5022FB7F89480915B0290910E
:104320005C02A0915D02B0915E022FBF841B950BD1
:10433000A60BB70B813A9B4BAD40B10508F4F0CC0E
:104340000E9426070093C102EBCC28A139A12B3093
:10435000310508F074CFA1CFAE8DBF8D1B9708F04B
:1043600027CF54CF80913702811509F478CD20E111
:1043700029BDA9BC09B400FEFDCF8091D8008F7D76
:104380008093D8008091E00082608093E00080916B
:10439000E00081FDFCCF0E94BF0F61CD1F921FB6D0
:1043A0001F9211248F939F93AF93BF9380913502F7
:1043B000811113C080915B0290915C02A0915D021B
:1043C000B0915E024196A11DB11D80935B02909356
:1043D0005C02A0935D02B0935E02BF91AF919F918A
:1043E0008F911F901FBE1F90189578941F921FB633
:1043F0001F9211248F939F93AF93BF9380915B0281
:1044000090915C02A0915D02B0915E020196A11DA7
:10441000B11D80935B0290935C02A0935D02B09308
:104420005E02BF91AF919F918F911F901FBE1F9011
:1044300018951F920F920FB60F9211242F933F934E
:104440004F935F936F937F938F939F93AF93BF939C
:10445000EF93FF938091E10082FF09C08091E20019
:1044600082FF05C08091E1008B7F8093E100809105
:10447000DA0080FF24C08091D80080FF20C08091A6
:10448000DA008E7F8093DA008091D90080FFA9C086
:1044900080E189BD82E189BD09B400FEFDCF81E0E4
:1044A0008093380280910F02811109C00E94990BFC
:1044B0000E94870C8091E20084608093E2008091EA
:1044C000E10080FF1AC08091E20080FF16C0809159
:1044D000E2008E7F8093E2008091E2008061809311
:1044E000E2008091D80080628093D80019BC85E0FA
:1044F0008093380283E0809317018091E10084FF6C
:104500002FC08091E20084FF2BC080E189BD82E151
:1045100089BD09B400FEFDCF8091D8008F7D8093C6
:10452000D8008091E1008F7E8093E1008091E200CD
:104530008F7E8093E2008091E20081608093E200B0
:1045400080910E02811509F452C084E080933802F4
:1045500080913802843009F052C082E080931701C4
:104560008091E10083FF2CC08091E20083FF28C08E
:104570008091E100877F8093E10082E080933802A0
:1045800010920E028091E1008E7F8093E100809175
:10459000E2008E7F8093E2008091E2008061809350
:1045A000E20042E060E080E00E94570C8091F00061
:1045B00088608093F00081E080931701809316015A
:1045C000FF91EF91BF91AF919F918F917F916F91EB
:1045D0005F914F913F912F910F900FBE0F901F90C1
:1045E000189519BC1092380210920F0268CF809172
:1045F000E30087FF02C083E0A9CF81E0A7CF81E07D
:10460000ADCF1F920F920FB60F921124EF92FF922F
:104610000F931F932F933F934F935F936F937F93CA
:104620008F939F93AF93BF93CF93EF93FF9309EE35
:1046300010E0F8018081C091EC008F70C795CC2705
:10464000C795C82B108280EFE82EF12CF7018081EE
:10465000877F808378940E940610F8011082F7010A
:10466000808188608083CF70F801C083FF91EF91D3
:10467000CF91BF91AF919F918F917F916F915F91FA
:104680004F913F912F911F910F91FF90EF900F90BD
:104690000FBE0F901F901895AA1BBB1B51E107C0BE
:1046A000AA1FBB1FA617B70710F0A61BB70B881FC2
:1046B000991F5A95A9F780959095BC01CD01089551
:1046C00097FB072E16F4009407D077FD09D00E94BF
:1046D0004C2307FC05D03EF4909581959F4F08959B
:1046E000709561957F4F0895EE0FFF1F0590F4912F
:1046F000E02D09942F923F924F925F926F927F929A
:104700008F929F92AF92BF92CF92DF92EF92FF92E1
:104710000F931F93CF93DF93CDB7DEB7CA1BDB0B8D
:104720000FB6F894DEBF0FBECDBF09942A88398832
:1047300048885F846E847D848C849B84AA84B98439
:10474000C884DF80EE80FD800C811B81AA81B98145
:10475000CE0FD11D0FB6F894DEBF0FBECDBFED0159
:104760000895002E083090F0982F872F762F652F10
:10477000542F432F322F22270850F4CF220F331FFC
:10478000441F551F661F771F881F991F0A95B2F790
:10479000002D089597FD1094002E083098F00850D1
:1047A000232F342F452F562F672F782F892F912DA8
:1047B000F4CF159497958795779567955795479575
:1047C000379527950A95AAF71124002D0895DC0145
:1047D000CB01FC01F999FECF06C0F2BDE1BDF89A0C
:1047E000319600B40D9241505040B8F70895F999B0
:1047F000FECF92BD81BDF89A992780B50895A6E1B4
:10480000B0E044E050E00C94E923A8E1B0E042E0DD
:1048100050E00C94E923DC01A40FB51F4150504037
:1048200048F0CB01840F951F2E910E941C2441500B
:104830005040D0F70895262FF999FECF92BD81BD43
:10484000F89A019700B4021639F01FBA20BD0FB6CE
:10485000F894FA9AF99A0FBE08950396272F0E94AA
:104860001C240E941B24252F0E941C24242F0C94FE
:104870001C240196272F0E941C240C941B24FC014D
:104880004150504030F001900616D1F73197CF01DA
:104890000895882799270895FB01DC0104C08D91B4
:1048A0000190801921F441505040C8F7881B990BA2
:1048B0000895F894FFCF35093D09400946095B0981
:1048C0005B095B095B095B095B095B095B094909DA
:1048D0004E095209580969096F097309E7100D114A
:1048E00013110D11131166118811131186129312F1
:1048F00002156A150A15D414D8140E15DC141215F5
:104900001E15E8146315EC142215F01426154B152A
:10491000F4142A155215FA1430153815E01416152A
:10492000E4141A15FE14341542155B156115CE14E6
:1049300006157115AB14AF148B14A714B314B71468
:10494000BB149615BC15C115C615CB15D015D515BC
:10495000DA15DF15E415E915EE1501160B16141618
:1049600019161E16231628162D16321637163C1643
:104970004116F416F4162B172B17DC17F9175617D8
:0A4980005617FE1789189A189A18A6
:10498A000D0000FF00390501F208790D900D970D11
:10499A009E0DFFFF0000010003F1F4F5F63466678F
:1049AA00C694309631FF0A0BFF0908070602030472
:1049BA0005FF0100FF7A406740542D672D852D9829
:1049CA002D981A7A1A671A541A67077A0704040480
:1049DA00040404040404040404000102020202029E
:1049EA000200FF0100010000FFFF0000010001FFBB
:1049FA0000E200E900EA00B500B600B700CD008386
:104A0A0001CC008A01920194012102230224022589
:104A1A0002260227022A02B300B4006F0070009F28
:104A2A0001CB019F02A002E200E900EA00B500B64C
:104A3A0000B700CD008301CC008A019201940121C4
:104A4A0002230224022502260227022A02B300B404
:0E4A5A00006F0070009F01CB019F02A00200C0
:00000001FF
