:10000000E4C100001AC2000018C2000016C20000BD
:1000100014C2000012C2000010C200000EC2000094
:100020000CC200000AC200000C9458200C9440211D
:100030000C940D2002C2000000C20000FEC10000AE
:10004000FCC10000FAC10000F8C10000F6C10000C8
:10005000F4C100000C943420F0C10000EEC1000097
:10006000ECC10000EAC10000E8C10000E6C10000E8
:10007000E4C10000E2C10000E0C10000DEC10000F8
:10008000DCC10000DAC10000D8C10000D6C1000008
:10009000D4C10000D2C10000D0C10000CEC1000018
:1000A000CCC10000CAC10000C8C10000050109029E
:1000B000A10185020901A1000509190129081500FE
:1000C0002501950875018102050109300931158165
:1000D000257F95027508810609381581257F9501D0
:1000E00075088106050C0A38021581257F95017572
:1000F000088106C0C005010980A101850319012AF4
:10010000B700150126B700950175108100C0050CD8
:100110000901A101850419012AA002150126A002E6
:10012000950175108100C005010906A1018506052C
:100130000719E029E71500250195087501810205D9
:1001400007190029EF1500250195F07501810205B9
:10015000081901290595057501910295017503910D
:1001600001C005010906A101050719E029E71500ED
:100170002501950875018102950175088101050722
:10018000190029FF150026FF009506750881000556
:10019000081901290515002501950575019102959C
:1001A0000175039101C009023B00020100A0320960
:1001B0000400000103010100092111010001224492
:1001C0000007058103080001090401000103000084
:1001D0000009211101000122B60007058203200059
:1001E0000112010002000000084C57E3E600010183
:1001F00002000114034D006900630072006F0020CB
:10020000005000610064000000180357006F007286
:10021000006B0020004C006F0075006400650072E8
:1002200000000004030904000101010101010101B2
:100230000102020202020202020203030303030399
:100240000303040404040404040505050505060667
:100250000606060707070707080808080909090925
:100260000A0A0A0B0B0B0C0C0C0D0D0D0E0E0E0FCB
:100270000F0F10101111111212131314141515165B
:10028000161717181819191A1A1B1B1C1D1D1E1ECC
:100290001F2020212222232424252626272829291D
:1002A0002A2B2C2D2D2E2F30313232333435363748
:1002B00038393A3B3C3D3E3F404142434445464746
:1002C00048494A4C4D4E4F50515354555658595A1F
:1002D0005B5D5E5F616264656668696B6C6D6F70C3
:1002E00072737577787A7B7D7E8082838587888A32
:1002F0008C8E8F91939596989A9C9EA0A2A3A5A769
:10030000A9ABADAFB1B3B5B7BABCBEC0C2C4C6C964
:10031000CBCDCFD1D4D6D8DBDDDFE2E4E7E9EBEE1D
:10032000F0F3F5F8FAFDFF643214000029003E00F6
:1003300000002C0C2B081B08E3006800500A4F0A31
:10034000AE0003526A00A80001520100A6000F0887
:1003500001002C0C4E004B001B085009500A4F0A9C
:100360004F0900524E004B000252010001000100F3
:1003700001000100A900AA000100AD00AC00AB0023
:10038000AE0001526A00A800035201004278417E8B
:100390000100010001000100010001000100017CD9
:1003A00001000252037C007C0052B600B700DC0062
:1003B000DB0001000100010001000100010001005B
:1003C0000100010001000100010011241FBECFEF58
:1003D000DAE0DEBFCDBF04B603FE18C08091530340
:1003E00090915403A0915503B09156038730904BE0
:1003F000A740B04B59F4109253031092540310923B
:10040000550310925603E0E0F8E3099511E0A0E0EF
:10041000B1E0E4EFF5E402C005900D92A23EB10711
:10042000D9F723E0A2EEB1E001C01D92A335B207D7
:10043000E1F70E945A1B0C948E22E2CD529A089545
:10044000FC01EE0FFF1FE80FF91FE15DFC4F618318
:10045000408322830895F894E82FE295EF70F0E04E
:1004600041A18F7021E030E0B90102C0660F771F13
:100470008A95E2F7CB01962F9095942391A392A1B0
:10048000892B82A378940895269A2E9A0895279A04
:100490002F9A0895259A2D9A089526982E982E9889
:1004A000089527982F982F98089525982D982D987E
:1004B000089590E090938B0080938A0090938D0034
:1004C00080938C0090938900809388000895CF9347
:1004D000DF93EC01009769F081FF0FC0D5DFC2FF09
:1004E0000EC0D5DFC3FF07C0D5DFCE01DF91CF91AE
:1004F0000895D3DFD6DFD9DFF8CFCFDFF0CFD1DF5C
:10050000F1CF9093E2028093E1020895E0DF9093AF
:10051000E4028093E302089521E030E002C0220F5C
:10052000331F8A95E2F78091E3029091E402822BD7
:10053000932BECCF21E030E002C0220F331F8A95CD
:10054000E2F7209530958091E3029091E4028223B6
:100550009323DCCF9B01677091E001C0990F6A95EE
:10056000EAF763E0369527956A95E1F7220F331F86
:10057000220F331FFA01E20FF31F40E050E0682F13
:1005800070E08191DF019B01042E02C03695279512
:100590000A94E2F7217021952827292328272E93F2
:1005A0004F5F5F4F4430510561F708959C01982FCC
:1005B000977083E0369527958A95E1F7220F331FD0
:1005C000220F331FFB01E20FF31F40E050E080E0F9
:1005D000219130E0092E02C0369527950A94E2F762
:1005E00021703327042E01C0220F0A94EAF7822BD0
:1005F0004F5F5F4F4430510559F70895282F862FDC
:10060000943060F4243048F434E0939FB001112416
:10061000620F711D44EB52E09DCF08959C5F9230B4
:10062000E0F7622F70E040EB52E0F6CF282F9430D5
:1006300058F4843080F434E0939FC001112464EBBB
:1006400072E0820F911DB2CF9C5F923020F460EB7C
:1006500072E090E0F8CF80E008958091EF029091F1
:10066000EE02981301C008958F5F8770FACF9091C2
:10067000E502809589238093E502282F27702111B8
:100680000CC0891751F09091EC0292FF06C086953C
:10069000869586954FDF1092E50208958091DE02DF
:1006A0009091ED02892B5091DF02511591F09091BC
:1006B0001201913021F49091EB0297FD0BC096E06E
:1006C00026EE31E040E0915048F441111092DF02F3
:1006D000852B08959EE12EEE31E0F4CFF901619172
:1006E0009F01611581F34F5FEECF982F9095809118
:1006F000DE0289238093DE020895E62F7430D0F461
:10070000643008F03BC0843008F03BC024E0829F96
:10071000C0011124870F911D880F991F880F991F01
:10072000E80FF92FF11DEE0FFF1FE65DFC4F8591DD
:10073000949108957D3F81F4623000F5843008F58E
:10074000F0E0E80FF11DE80FF11DEE0FFF1FEE0FB7
:10075000FF1FE655FC4FEBCF7C3F81F4623070F415
:10076000843078F4F0E0E80FF11DE80FF11DEE0F92
:10077000FF1FEE0FFF1FE455FC4FD9CF80E090E044
:10078000089581E0FCCF9C01803E910509F448C0AA
:10079000D8F48133910509F47DC048F4893291057C
:1007A00009F46DC08A9709F47CC0C90108958933A2
:1007B000910551F18238910539F1C597B1F78091D2
:1007C000EB0285FFF2CF29C0843E910509F447C0B2
:1007D00048F4823E910599F1833E9105A9F121EEFD
:1007E00030E0E3CF863E910509F444C0873E910591
:1007F000E1F68091EB0283FD61C09091EC0291FFE4
:100800002BC024EE30E0D1CF8091EB0283708111B8
:1008100052C08091EC0283FFC8CF29E230E0C5CFFF
:100820008091EB0280FD33C09091EC0290FFBDCF30
:1008300023EE30E084FFB9CF20E030E0B6CF8091E6
:10084000EB0282FDF5CFB1CF8091EB0282FD30C08B
:100850009091EC0290FD2FC084FFA7CFEDCF809147
:10086000EC0281FFA2CF8091EB0227EE30E084FD05
:10087000E3CF9BCF8091EB0283FDF7CF96CF8091A2
:10088000EB0285FD1EC08091EC0283FF8ECF29E331
:1008900030E08BCF8091EB0286FF87CF2AE230E0F9
:1008A00084CF8091EB0286FF80CF21E330E07DCFC3
:1008B00022EE30E07ACF20EE30E077CF26EE30E047
:1008C00074CF25E330E071CF9091EB0292FF10C01E
:1008D00041E0282F2471243009F040E031E0282F36
:1008E0002871283009F030E0431711F02CE08227FE
:1008F00093FF10C041E0282F2471243109F040E01B
:1009000031E0282F2871283109F030E0431711F029
:100910002CE082273091EC0230FF10C051E0282FEC
:100920002171213009F050E041E0282F2871283052
:1009300009F040E0541711F029E0822731FF10C080
:1009400041E0282F2171213109F040E031E0282FCA
:100950002871283109F030E0431711F029E082278F
:1009600094FD877E08951F93CF93DF930CDFEC01F6
:10097000811522E5920708F052C0811540E59407E1
:1009800008F0CDC0803E910520F58D3C910508F022
:10099000A1C0883A910570F4853A910508F097C096
:1009A00081309105B9F10497813A910598F1C0E041
:1009B000D0E030C0885A91094B97C8F7C85AD0E0A8
:1009C000CC0FDD1FCB58DE4F0990D881C02DD464E9
:1009D00021C0811550E49507B0F4C11580E2D80715
:1009E00008F0B3C0C83ED105A8F0CE019A95811594
:1009F0009F41E8F68D2F68DF182FCE019927C3DEBF
:100A0000EC01D12B07C09927BEDECC27DF70C82BA5
:100A1000D92BD06ACE01DF91CF911F9108958038F4
:100A200042E59407C8F5803652E5950708F05BC0AB
:100A3000C03482E5D807D0F4C03292E5D90708F077
:100A40004BC08C2F8695869520E2829FC001112491
:100A5000C37021E030E0A90102C0440F551FCA95C0
:100A6000E2F7EA01C82BD92BDD68D4CF8C2F86950D
:100A70008695877050E2859FC0011124C37021E0E4
:100A800030E0A90102C0440F551FCA95E2F7EA0100
:100A9000C82BD92BDC68BECF803C52E5950758F4B3
:100AA0008F71C03AD245A0F590E0982F8827EC01CD
:100AB000C46FD06AAFCF805C9245809708F077CF43
:100AC000DC2FCC27CC27DF71C06FD06AA3CFA497CF
:100AD000D064A0CFD0659ECFCF71D0E0DC2FCC27E3
:100AE000C16FD06A97CF86958695877020E2829FE6
:100AF000C0011124C37021E030E0A90102C0440FFD
:100B0000551FCA95E2F7EA01C82BD92BDA6882CFC4
:100B1000DBDEC82FD0E0DC2FCC27D0627BCF8F71FB
:100B2000D3DE93E0CC0FDD1F9A95E1F7CC27DF7081
:100B3000282F30E084FF05C050E1859F90011124EB
:100B40003327C22BD32BD06965CF8D2F8F71BCDE9D
:100B5000182FCE01992717DEEC01D12BDECFA0E0B4
:100B6000B0E0E5EBF5E00C94C1218C01E090E302EC
:100B7000F090E4028091E1029091E202E82AF92AE1
:100B8000CFE0D0E0CC24C394D12CC6010C2E02C0FF
:100B9000880F991F0A94E2F78E219F21892B49F42F
:100BA000219798F7B12C8B2DCDB7DEB7E9E00C94E7
:100BB000DD21BC2EB8018C2FA0DDD5DE019781F39D
:100BC000F2CF0F931F93CF93FC0185810081118198
:100BD000811579F0611569F0C801C1DFC82F682F50
:100BE000C8010CDDB8018C2F88DDCF911F910F91CA
:100BF0000895C8011BDDC82FF5CFCF93DF93D82F01
:100C0000C92FADDF6D2F7C2F78DDADDEDF91CF9169
:100C10000895FC018481811599F080819181EDDF37
:100C2000282F92959F70963099F060F4925F9F7094
:100C3000923030F4203FB1F038F481E0283E38F0B3
:100C400080E008959A5FF3CF81E0243FC9F70895CB
:100C500091E0213F09F090E081E0283E08F080E03B
:100C6000892B089581E0089580E008950895CF923A
:100C7000DF92EF92FF921F93CF93DF93172FE82F0E
:100C8000F0E0E95DFD4F71110CC0E4918E2F7E2FD5
:100C90006E2FDF91CF911F91FF90EF90DF90CF905B
:100CA0000895E62EF12CC72ED12CF491EF2F86E07B
:100CB000689F90011124CFEFD0E0C901BE010E94CE
:100CC0008B21AB01EE0CFF1C65E5649FC001659FA5
:100CD000900D1124E81AF90A6E2D660F6E0D7E0133
:100CE000EC18FD08FE9DD001FF9DB00D11248B2F47
:100CF000169F70011124EF2CFF246E01CE18DF081F
:100D00007601FE9D6001FF9DD00C11247E01E61A44
:100D1000F108B701169F7001179FF00C1124EF2CFA
:100D2000FF24CE19DF09FC9F7001FD9FF00C1124F8
:100D30007F2D43305105C1F02C3F334058F44130F2
:100D40005105B1F04230510509F0A2CFEB2F8F2DA4
:100D50007F2F9ECF4430510571F04630510509F484
:100D600097CF7B2F8D2D94CF7D2DEB2F8F2F90CF75
:100D70007F2FED2D8DCFEF2D7B2FF8CFCF93DF93EE
:100D80008091CD0280FD0BC0C0E0D0E020E040E0CB
:100D900060E0CE0155DB2196C830D105B9F700D50A
:100DA000DF91CF9108951092CC0280915902811168
:100DB0000DC081E0809359028091CD02982F9170EF
:100DC000909358028E7F8093CD02D8CF0895FF92E2
:100DD0000F931F93CF93DF93EC01F12C00E010E011
:100DE0007091CF028091D002873908F086E96C813A
:100DF0006F0D3DDF472F282FC80122DB0F5F1F4FEC
:100E00008FE1F80E0830110559F7B8DF8C819A810F
:100E100090FF07C08F5F8C83CDB7DEB7E5E00C9401
:100E2000E1218150F8CF2695E22F26FDE0959E2FF7
:100E30009F7026FD9F5FE695E695E695E670F0E0EB
:100E4000EB5AFE4F3181399F302D912D112432956F
:100E50003F709295907F392B9081930F27FD91954C
:100E600097FD9195990F292F3CE0239F020E20E0DA
:100E7000211D1124620F08956AC00895E5EDF2E086
:100E8000248130E1230F08F42FEF24838091DD02C9
:100E900081608093DD020895E5EDF2E0248130E188
:100EA000231B08F420E024838091DD02816080937D
:100EB000DD02089590E06115E9F0815E9E4FFC012E
:100EC00080818F3FB1F0E82FE295EF70F0E041A113
:100ED0008F7021E030E0B90102C0660F771F8A955C
:100EE000E2F7CB01962F9095942391A392A1892BA1
:100EF00082A30895835E9E4FE2CF90E06115A9F032
:100F0000815E9E4FFC0120812F3F91F0E22FE29500
:100F1000EF70E05EF0E0808190E02F7002C0959568
:100F200087952A95E2F781700895835E9E4FEACFF8
:100F300080E00895519A0895FC01EE0FFF1FE80F1D
:100F4000F91FE45DFD4F6183408322830895FF9282
:100F50000F931F93CF93DF93182F062FF42EC0E02B
:100F6000D0E02F2D402F612FCE01E6DF2196CC302F
:100F7000D105B9F7CDB7DEB7E5E00C94E121282F14
:100F800035EB2303C001112497FF04C08058910959
:100F9000892F089580589F4FFBCF8091BE0280FD1E
:100FA00014C081FD14C082FD16C08091BD02811560
:100FB00081F08E3180F420E5829FC00111246EE122
:100FC00070E00E949F21862F089584E1089588E2B1
:100FD000089588E0089580E508958091BE0280FD1F
:100FE00017C081FD17C082FD19C08091BC02811518
:100FF00099F0883298F428E0829FC001112468E2B9
:1010000070E00E949F216115710551F0862F0895AF
:1010100062E0FCCF64E0FACF61E0F8CF68E0F6CFA1
:1010200081E00895E091A602F091A702309739F08F
:101030000190F081E02D309711F00995089580E03E
:101040000895A3E0B0E0E7E2F8E00C94C8219C0129
:1010500080912A0290912B0282179307B1F030936E
:101060002B0220932A02E091A602F091A70230976A
:1010700061F00084F185E02D309739F083E08983B9
:101080003B832A83CE01019609952396E2E00C94D6
:10109000E421A3E0B0E0EFE4F8E00C94C8219C0167
:1010A000809128029091290282179307B1F0309322
:1010B000290220932802E091A602F091A70230971E
:1010C00061F00084F185E02D309739F084E0898368
:1010D0003B832A83CE01019609952396E2E00C9486
:1010E000E42190911201913091F0A6EEB1E0EFEF82
:1010F00090E02D91821751F0EF3F19F4211101C0BA
:10110000E92F9F5F9630A9F7EF3FC9F408959091BA
:10111000EB0297FFEACFE82FE695E695E695803F4C
:10112000A8F7F0E0E451FE4F877021E030E001C005
:10113000220F8A95EAF78281822B828308950E2EF0
:10114000000CFF0BEC51FE4FF8CF90911201913043
:1011500021F49091EB0297FD0CC0E6EEF1E0919145
:10116000891302C0DF011E9251E0EC3EF507B9F78A
:101170000895E82FE695E695E695803FC8F7F0E0FC
:10118000E451FE4F877021E030E0A90102C0440F16
:10119000551F8A95E2F7CA0180959281892382833F
:1011A00008958091110108952FB7F8948091240239
:1011B00090912502A0912602B09127022FBF089599
:1011C000F3DF2091C1023091C202232B211521F0BF
:1011D00080938102909382022091C3023091C402D5
:1011E000232B211521F080937F0290938002E091C0
:1011F000A602F091A702309759F00680F781E02D02
:10120000309731F082E08093BF028FEB92E0099536
:101210000895611509F441C0E3E3E80FE33148F4B0
:10122000F0E0E057FD4D0C94B221B7DE819580933C
:10123000C202C6CFB2DEFBCFB0DE81958093C10281
:10124000F8CFABDEFBCFC9DE8093C302F2CFC5DEA1
:101250008195FACFC2DE81958093C402EACFBDDECC
:10126000FBCF815D990B21E030E001C0220F8A9510
:10127000EAF78091C002822B8093C002DACF80917E
:10128000BE0281608093BE02D4CF8091BE02826094
:10129000F9CF8091BE028460F5CF4091C1028D3CB0
:1012A00059F48091C20287FF0DC01092C20241150D
:1012B00059F41092BD0208C08E3C81F48091C202A4
:1012C00018169CF3411581F08091C3029091C402DD
:1012D000892B8111AECF1092BC02ABCF8F3C41F471
:1012E00047FFF0CF1092C1028091C2028115E0CF7A
:1012F000803D19F41416B4F3E5CF9091C302893DF3
:1013000029F41916FCF61092C302DCCF8A3D19F4B9
:1013100097FFD8CFF8CF9091C4028B3D29F497FF67
:10132000D1CF1092C402CECF8C3D19F41916CCF354
:10133000C9CF9FE2980F983090F4815D990B21E01E
:1013400030E0B90102C0660F771F8A95E2F7CB0142
:1013500080959091C00289238093C002B3CF8D3DC8
:1013600031F48091BE028E7F8093BE02ABCF8E3D62
:1013700021F48091BE028D7FF7CF8F3D09F0A2CF7F
:101380008091BE028B7FF0CF2FB7F894609124023A
:101390007091250280912602909127022FBF089517
:1013A000FC019B0180911A0290911B0286179707FE
:1013B00040F0672B29F48091E8008E778093E80055
:1013C000C90140E0009741F4411106C08091E80056
:1013D00082FF2FC080E00895209161022115A9F1BC
:1013E0002530A9F12091E80023FD2DC02091E800CF
:1013F00022FDECCF2091E80020FFE4CF3091F300F4
:101400002091F200009719F02830310558F041E0A2
:101410002830310509F040E02091E8002E77209334
:10142000E800D0CF41914093F10001972F5F3F4FEB
:10143000E9CF80916102811541F0853041F08091C2
:10144000E80083FFC3CF81E0089582E0089583E040
:1014500008958091140287FF13C08091E80082FFF5
:1014600006C08091E8008B778093E8000895809112
:1014700061028111F2CF0895809161028115D9F343
:101480008091E80080FFF8CF8091E8008E77ECCF64
:101490002091E4003091E50095E6A9012091EC004F
:1014A000822F817020FF06C08091E80080FF06C077
:1014B00080E008952091E80022FD1AC08091610229
:1014C000811589F0853089F08091EB0085FD0FC092
:1014D0002091E4003091E50042175307F9F29A9504
:1014E000E1F684E0089582E0089583E0089581E0C4
:1014F0000895E8EDF0E080818E7F80831092E20015
:101500001092DA001092E100A0EEB0E08C918160C0
:101510008C9380818F77808319BCA7EDB0E08C918C
:101520008E7F8C9380818F7E80831092130208952A
:101530009091D5029370911591F0833008F082E07C
:10154000880F880F9091D5029370892B8093D502D4
:10155000109214018091DD0281608093DD02089574
:101560008091D502869586958F5F833008F081E063
:10157000DFCF8091D502869586958A9509F482E021
:10158000D7CF9091D5029370911559F08093D602E0
:101590006093D7021092D8028091DD02816080931F
:1015A000DD020895E5EDF2E0818190E06281089628
:1015B000E8CFE5EDF2E0818162818850990BE1CFBF
:1015C000E5EDF2E0628120E1620F08F46FEF8181C6
:1015D00090E0D7CFE5EDF2E0628120E1621B08F4F4
:1015E00060E0818190E0CDCFE5EDF2E0238130E154
:1015F000230F08F42FEF8181628190E0C2CFE5EDE7
:10160000F2E0238130E1231B08F420E08181628134
:1016100090E0B7CF9C018FB7F894F901B496D90147
:101620002F5F3F4F9C9158E04BB9000000C097FFDF
:101630006BB9990F000000C000C000C06BB900C0BA
:101640005A9591F72E173F0751F78FBF0895982F9E
:101650009093E900891771F07091EC002091ED00F2
:101660005091F00021FD09C09F5F973089F780936A
:10167000E9000895762F242F50E03091EB003E7F53
:101680003093EB003091ED003D7F3093ED003091D1
:10169000EB0031603093EB007093EC002093ED0091
:1016A0005093F0002091EE0027FDDECF0895A0E0DA
:1016B000B0E0EDE5FBE00C94C221C8EDD0E08881FC
:1016C0008F7E8883E7EDF0E080818160808384E015
:1016D00082BF81E08093130288818E7F888302EE2F
:1016E00010E0F80110821092DA0081EEC82ED12CA1
:1016F000F601108288818F7788838881806888834B
:1017000088818F7D888319BC109261021092120229
:10171000109260021092110290EEE92EF12CF70166
:1017200080818B7F808388818160888342E060E054
:1017300080E08DDFF60180818E7F8083F8018081DB
:1017400081608083808188608083F70180818E7FC3
:101750008083888180618883CDB7DEB7E8E00C9410
:10176000DE21E091EF029091EE0227E0E91302C042
:1017700080E00895AE2FB0E02E9FF0011124E051DB
:10178000FD4F3181361306C03081381303C03581D7
:10179000341304C0FD013196E770E8CF81E008956D
:1017A0006BB14BB144606B7F8FE293E033DF8FE529
:1017B00094E00197F1F700C0000008956BB14BB1C0
:1017C00042606D7F8CE292E025DF8FE594E0019727
:1017D000F1F700C00000089581E08093E00080E20E
:1017E0008093D8001092C9008FE19EE40197F1F731
:1017F00000C0000087E090EBDC01809353039093DE
:101800005403A0935503B093560388E19CE00FB6B0
:10181000F894A895809360000FBE90936000FFCF6E
:101820000F931F93CF93DF938B01EA019091610295
:10183000943051F58093E9008FEF9091E80095FD89
:1018400006C095ED9A95F1F700008A95B1F7809161
:10185000E80085FF19C01CDE811111C08091E800ED
:1018600085FD06C08091E8008E778093E800F3CF75
:10187000F80181918F018093F100219779F7809190
:10188000E8008E778093E800DF91CF911F910F9150
:101890000895CF93DF93D82FC92F48E050E0682FE9
:1018A000792F81E0BDDF88E0ED2FFC2FACE1B2E0C5
:1018B00001900D928A95E1F7DF91CF910895BC01D7
:1018C00040E250E082E0ACCFBC0146E050E082E074
:1018D000A7CFBC0143E050E082E0A2CF9091EC02A0
:1018E00092FB222720F9281779F080FB92F9909338
:1018F000EC026091EB027091EC0284E090E00E94B7
:10190000702282E00C94370308950F93CF93DF93F6
:10191000CDECD2E0488159816A817B8188E090E0FA
:101920000E946822288139814A815B816C817D8196
:101930008E819F8100E20E940A22622F83E290E062
:101940000E945622DF91CF910F910895EDECF2E0C5
:101950008DE180838FEF8183828386E98383148284
:10196000CF01D3CF8091D102833018F48F5F809361
:10197000D1028DEC92E0C9CF8091D102811519F08E
:1019800081508093D1028DEC92E0BFCFA0E0B0E017
:10199000ECECFCE00C94C121D82F162FC42F022FA1
:1019A0008091CD0280FF35C0E82FE695E695F0E006
:1019B000E35AFE4F90819093CB028C7F843071F577
:1019C000842F473908F086E96D2F712F50D9D62E14
:1019D000C72EB82E8091CD0280FF10C0E12CF12CD3
:1019E0002B2D4C2D6D2DC7010E9420028FEFE81A80
:1019F000F80A88E0E816F10499F7C0D9D093CE022E
:101A00001093CF02C093D002011519F08DEC92E033
:101A10007CDFCDB7DEB7E9E00C94DD21923071F7C1
:101A2000D091CE02EBCFEDECF2E0818121E0438159
:101A30006281885FABCFEDECF2E0818121E04381F0
:101A400062818850A3CFEDECF2E0628128E0620F62
:101A500008F46FEF21E04381818198CFEDECF2E053
:101A6000628128E0621B08F460E021E0438181810B
:101A70008DCFEDECF2E0438128E0420F08F44FEF08
:101A800021E06281818182CFEDECF2E0438128E0A8
:101A9000421B08F440E021E06281818177CF809190
:101AA0001201813069F58091EB0287FF29C00E9405
:101AB0004E038093ED0140E250E066E872E08CEE68
:101AC00091E00E948122892BD1F080E2ECEEF1E0DE
:101AD000A6E8B2E001900D928A95E1F7E091A602A6
:101AE000F091A702309759F00480F581E02D3097EE
:101AF00031F086E08093EC018CEE91E00995089539
:101B00000E944E038093E40148E050E068EA72E0EE
:101B100084EE91E00E948122892B89F388E0E4EE33
:101B2000F1E0A8EAB2E001900D928A95E1F7E09128
:101B3000A602F091A702309711F30280F381E02D05
:101B40003097E9F284EE91E0D9CFCF93C82F811579
:101B5000C1F08CEF8C0F813A80F5809112018130B9
:101B600021F48091EB0287FD0EC0E6EEF1E0819159
:101B7000C817F9F021E0EC3EF207C9F78C2FB1DA73
:101B80008EDFCF910895EC2FE695E695E695F0E08F
:101B9000E451FE4F828190E04C2F477021E030E00D
:101BA00002C0220F331F4A95E2F782239323892B29
:101BB00029F38C2FCADA73DFE1CF80E28C0F8830F3
:101BC00068F4C77081E090E001C0880FCA95EAF719
:101BD000C091DE02C82BC093DE02D2CF8BE58C0F02
:101BE000833030F42C2F2452330BC9012ADAC9CFA9
:101BF000E8E5EC0FEB3148F4F0E0EE0FFF1FE555A0
:101C0000FE4F8081918145DABCCF83E38C0F833115
:101C100008F0B7CF61E08C2FFCDAB3CF811541F12A
:101C20009CEF980F913A10F490DA39CF90E2980F28
:101C3000983050F4877091E001C0990F8A95EAF7C7
:101C4000892F0E947503F1CF9BE5980F933018F40C
:101C500080E090E0F6C998E5980F9B3118F480E099
:101C600090E017CA93E3980F933110F460E0D1CA63
:101C70000895811531F09091DE02892B8093DE0268
:101C80000ECF0895811519F00E94750308CF0895AD
:101C90001092DE0280911201813011F58091EB02E9
:101CA00087FF1EC0EEEEF1E08EE1DF011D928A9506
:101CB000E9F780E090E0C5D980E090E0EAD91092A1
:101CC000ED02EDDE86E0EFEBF2E0DF011D928A959A
:101CD000E9F71092BD021092BC021092BE0270CAC7
:101CE000E6EEF1E086E0E1CFD3DF2FEF84E39CE086
:101CF000215080409040E1F700C0000088E19CE066
:101D00000FB6F894A895809360000FBE9093600082
:101D1000FFCFAAE2B0E0EFE8FEE00C94C72184E137
:101D200092E0FC0101962091F100208322E08C31A9
:101D30009207B9F780911502893009F457C0C8F4A9
:101D4000823009F4B1C0833009F481C0813081F15F
:101D50008091E80083FFE5C0809114029091150204
:101D60009A3008F0DEC0E92FF0E0ED55FD4D0C94FF
:101D7000B2218A3009F488C08B3051F78091140267
:101D8000813231F78091180290911902892B01F765
:101D90008091E800877F8093E8005BDB81E0909191
:101DA0001602911101C080E08093120171DFD0CF43
:101DB00080911402813A61F68091E800877F8093D8
:101DC000E8008091180290911902892B59F060E087
:101DD00080E090E070E0E4DA8091E8008B77809317
:101DE000E800B6CF68E08CE192E0F4CF8091140275
:101DF000813209F0ADCF80911802909119020297BB
:101E000008F0A6CF8091E800877F8093E80080915A
:101E1000E80082FF17C09091F3008091F2000297D2
:101E200031F48091F100813011F0863021F48091FD
:101E3000F100809311018091E8008B778093E80096
:101E400008DB86CF809161028111E1CF81CF809143
:101E50001402813A09F07CCF809118029091190206
:101E6000892B09F075CF8091E800877F8093E80087
:101E70008091E80080FFFCCF809112018093F100F7
:101E80008091E8008E77DACF80911402813209F0D8
:101E90005FCF8091E800877F8093E800DADA809155
:101EA00017028093100154CF80911402813A09F0F7
:101EB0004FCF8091E800877F8093E8008091E80011
:101EC00080FFFCCF80911001D9CF803889F0823813
:101ED00041F5809118028F70873018F58093E900E2
:101EE0008091EB0085FB882780F91092E90006C0FD
:101EF00080916002880F90911102892B9091E800E7
:101F0000977F9093E8008093F1001092F100809108
:101F1000E8008E7723C0811116C0809116028130AF
:101F200009F18091E80083FF0AC08091E800877F73
:101F30008093E8008091EB0080628093EB00AA968A
:101F4000E3E00C94E321823061F780911602811561
:101F500081F01092E9008091E800877F8093E8008B
:101F600078DADFCF81E0933009F080E0809360027F
:101F7000F0CF809118028F702FEF280F263088F64F
:101F80008093E9002091EB0020FFE3CF933031F400
:101F90008091EB0080628093EB00DBCF9091EB00AF
:101FA00090619093EB0021E030E0A90102C0440F62
:101FB000551F8A95E2F74093EA001092EA0080915B
:101FC000EB008860E8CF8111ACCF109116021F772B
:101FD0008091E3008078812B8093E3008091E8007A
:101FE000877F8093E80035DA8091E80080FFFCCF9E
:101FF0008091E30080688093E30083E0111101C0C9
:1020000082E0809361028DCF8058823008F089CFC2
:1020100020911602309117022C3D53E0350791F5BF
:1020200083E08A838AE289834FB7F894DE011396AE
:1020300020E03EE051E2E32FF0E05093570084911E
:1020400020FF03C082958F703F5F8F708A30C0F091
:10205000895C90E08D939D932F5F243161F74FBF92
:102060008091E800877F8093E8006AE270E0CE010B
:10207000019696D98091E8008B778093E80051CF44
:10208000805DE7CF832F99278330910529F160F494
:102090008130910509F476C0029709F042CF8BE3B5
:1020A00090E0E6EAF1E02DC020911802309119028B
:1020B0008132910509F45AC0829709F032CF211577
:1020C000310509F469C02130310509F02ACF86EBCA
:1020D00090E0ECEAF0E015C0C90199272130B1F198
:1020E0008230910509F43AC0892B09F01ACFE3E256
:1020F000F2E0E4918E2F90E0E3E2F2E0009709F441
:1021000010CF2091E800277F2093E80020911A0249
:1021100030911B028217930708F49C0140E02115BF
:10212000310509F03EC041113CC08091E80082FDBC
:10213000A1CF80916102811509F49CCF853009F40B
:1021400099CF8091E80083FFF0CF94CFE9E0F2E0EF
:10215000E4918E2F90E0E9E0F2E0D0CFE3EFF1E000
:10216000E4918E2F90E0E3EFF1E0C8CF2115310527
:1021700071F02130310509F0D4CE89E090E0E1ED35
:10218000F1E0BFCF82E190E0E1EEF1E0BACF89E08B
:1021900090E0E8EBF1E0B5CF84E490E0E2E6F1E036
:1021A000B0CF80916102811509F464CF853009F4C4
:1021B00061CF8091E80083FD5DCF8091E80082FDD2
:1021C000B4CF8091E80080FFAACF9091F300809176
:1021D000F2002115310519F08830910550F041E0E9
:1021E000089709F040E08091E8008E778093E8003E
:1021F00096CF44914093F1003196215031090196D8
:10220000E8CF803809F08DCE8091E800877F8093F9
:10221000E800809112028093F10079CE811181CE85
:1022200010911602123008F07CCE8091E800877F72
:102230008093E800109312020CD9111599F084E0F4
:102240008093610242E061EC81E001DA42E261ECFC
:1022500082E0FDD980916102843051F482E0809364
:1022600013015FCE8091E30087FDE9CF81E0E8CFE5
:1022700081E0F5CF8F929F92AF92BF92CF92DF9283
:10228000EF92FF920F93CF93DF9388E090E00E944C
:102290003D224B015C01CDECD2E068839982AA8299
:1022A000BB821C821D821E821F8283E290E00E94FC
:1022B0003522282F30E040E050E060E070E080E020
:1022C00090E000E20E94EF21282939294A295B2960
:1022D000288339834A835B836C837D838E839F83CA
:1022E000DF91CF910F91FF90EF90DF90CF90BF9053
:1022F000AF909F908F9008956091CD0266956695FE
:1023000070E041E050E085E091E00E947422892B6A
:1023100019F481E08093CC020E94D40890936C025F
:1023200080936B0208959091CD0290FF2CC081158F
:1023300059F1883058F58F73880F880F9091CD022E
:102340009370892B8093CD02611519F08DEC92E08A
:10235000DCDA6091CD026695669570E041E050E070
:1023600085E091E00E947422892B91F01092CC02BA
:1023700081E080936E0220E04091D0026091CF0214
:102380008091CE0203CB089581E0D6CF87E0D4CFF1
:10239000B3DFEECF8091CD02869586958F5F883032
:1023A00008F081E061E0BFCF8091CD0286958695EF
:1023B0008A9509F487E061E0B6CF109259028091C6
:1023C0005802811549F08091CD0281608093CD0241
:1023D00060E086958695A7DF8FCF48E050E067E103
:1023E00070E085ED92E00E9447221092DD02089590
:1023F000E5EDF2E085E0808311828FEF8283138226
:102400009FE794838583E9CFA0E0B0E0EAE0F2E1C2
:102410000C94C2210E94C40960935002709351022F
:1024200080935202909353022091D502122F137081
:10243000111519F0122F169516953091140132309E
:1024400009F4D5C080F4311116C0109200016093D8
:10245000540270935502809356029093570281E084
:102460008093140103C0333009F4C9C0CDB7DEB77F
:10247000E8E00C94DE218091040118132AC0237037
:102480004091030150E081E02417150609F480E033
:10249000809302018091DA0290910101981739F03E
:1024A0008093010140E060E080E00E943C07113031
:1024B00091F0123009F454C0111109C08091020149
:1024C000811529F040E060E080E00E943C0780E058
:1024D0001FC081E0DDCF80910001C82FCC0FC80F55
:1024E00003E00C0FC02E0D3010F09CE0C92E60915F
:1024F000D6027091D7028091D8020E943706F62E3C
:10250000E72ED82ED0E0CC15D0F081E00C30F8F6D4
:10251000909100019F5F90930001811165C082E05E
:10252000809314018091020181115EC0111509F49C
:1025300064C040E060E080E00E943C0797CFFE016D
:10254000EF5DFE4F80A5909101018923811531F047
:102550002D2D4E2D6F2DCE010E949C072196D3CF9D
:1025600080910001C82FCC0FC80F03E00C0FE02EA4
:102570000D3010F08CE0E82E3091D902369536956A
:1025800021E0320F08F43FEF409154025091550280
:1025900080E090E0439F040E811D539F800D911DAC
:1025A0001124850F911DF82ED0E0CE1508F0ADCF87
:1025B000FE01EF5DFE4F80A59091010189238115F9
:1025C00089F06091D6027091D7028091D8022F2DA8
:1025D0004C2F0E9413070E943706472F282FCE0149
:1025E0000E949C072196E1CF1111A3CF3FCF1093FA
:1025F0000401237020930301E1D883E031CF80915F
:10260000DD028111EADEC0905402D0905502E090C4
:102610005602F09057020E94C4096C197D098E0978
:102620009F09603171058105910508F41FCF109253
:1026300014011CCFEF92FF920F931F93CF93DF9360
:10264000C62FD42F122F8115A1F06093C9020E94CA
:10265000D4089093100280930F02C77081E001C0EC
:10266000880FCA95EAF705DBCDB7DEB7E6E00C9434
:10267000E0218091C902681330C0E0900F02F09011
:1026800010020E94D4088E199F09883C910528F5F4
:1026900000E20D0FCD1799F0C770FF24F3948F2D32
:1026A00001C0880FCA95EAF7EDDA083040F48D2FA3
:1026B000877001C0FF0C8A95EAF78F2DDADA812F37
:1026C00044DA812FABDA083078F6D77081E001C0A8
:1026D000880FDA95EAF7D6DAC7CFC77081E001C074
:1026E000880FCA95EAF7F7CFA0E0B0E0EAE7F3E198
:1026F0000C94C2217C01FC018481811509F479C00C
:1027000061E0C7010E94E105EC018134FEE79F070B
:1027100009F04FC0F7018581811559F18091C502FB
:102720008F5F8770982F853010F090E080E02091C7
:10273000C502287F922B9093C502FFEF8F9FC001A7
:10274000112495958795959587950E9459024091FA
:10275000C5025091C6026091C7027091C80283E120
:1027600090E00E9468228091E3029091E4020E942E
:102770006702F7019581911509F488C41092C90286
:102780009E0130572332310508F08EC484E090E07A
:102790000E9442229093EC028093EB02FE01E150F2
:1027A000F047E232F10508F040C0E355FD4D0C94CE
:1027B000B221FC01E851FC47E730F105D0F6E153C6
:1027C000FD4D0C94B22126E241EE61EEF7018581C8
:1027D00031DF8091E5028770811559F0F70185811D
:1027E000811539F08091EC0282FF03C082E00E94E3
:1027F0003703CDB7DEB7E8E00C94DE2127E245EEE3
:1028000065EEE4CF26E241EE60EEE0CF27E245EE52
:1028100064EEDCCF26E241EE62EED8CF27E245EE51
:1028200066EED4CF28E241E0EBCF8091EB028160ED
:102830008093EB026091EB027091EC0284E090E0F7
:102840000E94702225DAC5CF8091EC0288608093C7
:10285000EC02F0CF8091EB028260EACF8091EB0234
:102860008460E6CF8091EB028860E2CF8091EC0239
:102870008160EDCF8091EC028260E9CF8091EB0224
:102880008061D6CF8091EB028062D2CF8091EB0243
:102890008064CECFFDD98091EB028068C9CF809152
:1028A000EB028C60C5CF8091EC028360D0CF809129
:1028B000EB028E7FBDCF8091EC02877FC8CF8091E5
:1028C000EB028D7FB5CF8091EB028B7FB1CF8091F2
:1028D000EB02877FADCF8091EC028E7FB8CF8091E5
:1028E000EC028D7FB4CF8091EB028F7EA1CF8091DF
:1028F000EB028F7D9DCF8091EB028F7B99CFC8D962
:102900008091EB028F7794CF8091EB02837F90CF01
:102910008091EC028C7F9BCF8091EB02992782FF04
:10292000939590FB82F990FB83F982CF8091EC0222
:10293000982F909590FB80F990FB81F988CF90912A
:10294000EB02892F8F7B96FF806472CFA1D9909183
:10295000EB02892F97FB87F980586ACF61E08EE000
:1029600090E00E94562266CF60E0F9CF9091EB0292
:10297000892F8F7E94FF80615BCF9091EB02892F2E
:102980008E7F90FF816054CF9091EC02892F877FDA
:1029900093FF88605CCF89E299C389E282C3827227
:1029A000FE01E052F847EB30F10508F0ACC0EA5206
:1029B000FD4D0C94B2218091DE028272FE01E05442
:1029C000F847ED30F10508F09EC0EF51FD4D0C9435
:1029D000B2218091CD0280FF0CC08E7F8093CD020A
:1029E0008DEC92E00E94850C1092CC020E94BE06F3
:1029F000F0CE81608093CD0261E08695869593DC70
:102A0000E8CE811521F0D0DCE4CE8115E1F3C2DC03
:102A1000E0CE811521F00FD8DCCE8115E1F303D88B
:102A2000D8CE811521F01AD8D4CE8115E1F30BD878
:102A3000D0CE811521F028D8CCCE8115E1F319D85C
:102A4000C8CE811529F00E94BC0CC3CE8115D9F3E4
:102A50000E94B20CBECE8091D5028370811102C05B
:102A6000109214018091D5028C7F81608093D502F1
:102A70008091DD0281608093DD02ABCE8091D50232
:102A800083708111109214018091D5028C7FEECF5A
:102A90008091D50291E089278093D502109214018C
:102AA000E7CF811529F00E94B90A93CE8115D9F399
:102AB0000E94B00A8ECE811529F00E94D90A89CED3
:102AC0008115D9F30E94D20A84CE811529F00E9483
:102AD000EA0A7FCE8115D9F30E94E00A7ACE8115E9
:102AE00029F00E94FF0A75CE8115D9F30E94F40ADD
:102AF00070CE811529F00E944C076BCE8115D9F359
:102B00000E943E0766CE9E01205E3245203231058E
:102B1000A8F4911126C0CF7181E090E09C0102C021
:102B2000220F331FCA95E2F7E901622F83E090E09C
:102B30000E945622CE010E9481024BCE9115B1F126
:102B4000CB353CE7D30749F1CC358CE7D807E1F02A
:102B500081E0CA35ECE7DE07E9F0C130FCE7DF07CA
:102B600021F1C3302CE7D207D1F0C115DC47F1F4D5
:102B70008FD88FEF94E3ECE081509040E040E1F794
:102B800000C000000E94EC0B8091EC02002482FF48
:102B90000394802D0E946E0C1CCE80E0FBCF6FEF63
:102BA0007FEF80E090E00E9470229ED8F7010081C4
:102BB0001181911509F446C0C8010E94AF05C82FC4
:102BC000682FC8010E94FE02B8018C2F0E947D036D
:102BD0000E94B304D82FC92FF701D580C680C294B4
:102BE0008FE0C8228091E50287708115F9F00D2DE4
:102BF000D114E9F0892F807F803461F080E28D0F5D
:102C00008830A0F0892F807E803221F4D23070F09D
:102C1000C11461F08091EC0282FF08C082E00E9442
:102C200037038091E502877001E0811100E0EC2F0D
:102C3000E295EF70C03C08F06BC0F0E0E251FD4D52
:102C40000C94B221C8010E941603C82FBDCF1C2FBF
:102C50001F70C03110F01295107FD114B9F011150A
:102C600069F080E28D0F883010F0D11109C0809199
:102C7000DE02812B8093DE020E944F0D8D2F40C01B
:102C80008091ED02812B8093ED02F6CF8D2F0E9473
:102C90000E0E1115E9F180E28D0F883010F0D11180
:102CA00004C0812F0E94750306C010958091ED022B
:102CB00081238093ED020E944F0D2AC01C2F1F70AC
:102CC000C07FC03211F01295107FD11549F0D1307C
:102CD00009F467C0D11409F473C0C114A9F1CECFAF
:102CE0008091EC0282FD2CC0D11469F0111539F0ED
:102CF0008091DE02812B8093DE020E944F0D80E0E6
:102D00000E94A50D05C080E00E940E0E1111C9CFD2
:102D1000011509F4BFC08091E50280FDBBC0F70139
:102D200015828695869586950E948C02C701DCDC0B
:102D30008091E5028695869586950E949A02AAC0A2
:102D4000D11499F0C11004C0812F0E94390EE0CF38
:102D5000F1E0CF12DDCF8091DF02912F9823191778
:102D6000B9F2812B8093DF02D3CFC110D1CF812F55
:102D70000E94420E9091DF02812F8923811529F054
:102D8000812F809589238093DF028091E002912F2B
:102D90009823911509F4BCCF109518231093E002E5
:102DA000B7CFD11429F026E0C21608F0B1CFCCCFAE
:102DB00035E0C31608F0ACCF812F0E94420EA8CF99
:102DC000C114D1F3D93349F48FEF97EEE3E081508A
:102DD0009040E040E1F700C000008D2F0E940E0EF1
:102DE00097CF8C2F869586958370811569F08130F9
:102DF00009F08ECF8D2F9C2F9370D11002C080E0F0
:102E000090E00E94490884CF8D2F9C2F9370D110A1
:102E100002C080E090E00E9421087ACF6D2D8D2FB6
:102E20000E94090975CF8C2F837081115DC0D1106C
:102E30002FC04D2F429546954770440F440F2D2FBC
:102E40002F7030E0042E02C0220F331F0A94E2F7E5
:102E500080E090E0D4FF09C08FE090E002C0880FCE
:102E6000991F4A95E2F780959095C695C695C370CF
:102E7000C23089F1C33061F14091E1025091E20228
:102E8000C13021F1822B932B842395230E94810250
:102E90000E94120860E0C7010E94E105F7018581E8
:102EA000811509F4A6CC0E94C4096093E7027093CF
:102EB000E8028093E9029093EA028091E60281158C
:102EC00009F497CC1092E60278DA93CC242B352BB8
:102ED000822B932BDBCF822B932B2091E10230911D
:102EE000E20282279327D2CFD11491F1C0FFD0CF35
:102EF0004D2F429546954770440F440F2D2F2F704C
:102F000030E0042E02C0220F331F0A94E2F780E063
:102F100090E0D4FF09C08FE090E002C0880F991FB5
:102F20004A95E2F780959095C695C695C370C230D4
:102F3000B9F0C33091F04091E3025091E402C13006
:102F400051F0822B932B842395230E948602A0CFDD
:102F5000823070F69DCF242B352B822B932BF5CF0F
:102F6000822B932B2091E3023091E4028227932756
:102F7000ECCFCF70D11439F08C2F0E948C028D2FA2
:102F80000E94390E85CF8D2F0E94420E8C2F0E94F9
:102F90009A027ECFD23FB1F170F4D03FC9F0D13F59
:102FA00091F0D11409F45EC0C11409F458C08D2FFA
:102FB0000E94A50D6DCFD33F61F1D43F91F7909161
:102FC000EC0292FD34C08C2F8F71D11401F31EC01E
:102FD000D114A9F0F5E0CF1608F05ACFCF7181E0F7
:102FE00090E09C0102C0220F331FCA95E2F7E9016D
:102FF0008091E3029091E40282279D27A6CF36E0DC
:10300000C316EACF8C2F8F71D110C1CF0E948C02D2
:103010003FCF80E090E0D11409F497CFCF7181E0E9
:1030200090E002C0880F991FCA95E2F78ECFD114A5
:1030300061F08C2F8F7192FFE9CF982F990F990F24
:10304000990F93609093E502E1CF81E00E943703EE
:1030500082E0C81608F41CCF0E94370319CF8C2FCA
:103060008F71D4CFC11479F0D93349F49FEFE7EED3
:10307000F3E09150E040F040E1F700C000008D2FF8
:103080000E940E0E05CF8C2F8F7181CFC631FCE7C9
:10309000DF0709F090CC8091CA02811509F47DCC3C
:1030A00085E30E94A50814C08091DE02C6312CE79A
:1030B000D20709F074CC8A7A91E0811101C090E0C6
:1030C0009093CA02811509F466CC85E30E947108C9
:1030D0000E944F0D7ECB80912E03803178F4809139
:1030E0002D03811559F0E091EF022091EE0230910D
:1030F00029034091280357E02E1301C008956E2F35
:1031000070E05E9FF0011124DF01A051BD4F1496C5
:103110008C911497811551F111968C91119783130D
:1031200025C08C91841322C015968C91159781111E
:103130001DC012968D919C91A0912A03B0912B03F2
:103140008A1B9B0B883C910588F480912E038F701D
:10315000806180932E03EA50FD4F80818F708061E3
:10316000808388E293E0C0DA0C942D03FB01319652
:10317000E770C2CFADE0B0E0E0ECF8E10C94BD2127
:103180008C0186E0F801DE01189601900D928A9577
:10319000E1F7F801F580C48088E2882E83E0982E5C
:1031A00070902C0371101FC0C114D1F0F11409F4F8
:1031B00015C1C8010E940906811509F40FC187E0F5
:1031C000F801D40101900D928A95E1F7F1E0CF1258
:1031D00006C080912803909129030E94FD057BDFA2
:1031E000FF24F39453C0E080A280B380D0902D03DD
:1031F00080912A0390912B039501281B390BD11440
:1032000009F4B5C0283C310508F08DC0C11441F364
:1032100090912903C18080912E03803108F056C01F
:10322000C91213C0909128039E110FC0F11048C01D
:103230008F70806180932E0388E293E055DA80914D
:103240002E03F8018683F12C21C0F11039C040E033
:103250006C2D8E2D0E94B10B40E06C2D8E2D0E94A6
:10326000B10BF82E8111EFCF888599850E94FD055D
:10327000292F22952F70903470F49F70223098F08F
:103280009115A9F0F8019681903188F48F2D2D9633
:10329000EDE00C94D9212A5F2F70223060F0C80134
:1032A00023DAFD2CF3CF911511F0811579F3805EAF
:1032B000883060F3F4CF803F48F3815F8330F9CFEB
:1032C00080912E03816080932E03BDCFC91207C069
:1032D000909128039E1103C0F11409F469C0C8013C
:1032E0000E940906811509F479C0F11409F476C029
:1032F00080912E03803270F02091280330912903B1
:103300003A832983BC82AB827D821E828F83CE0169
:103310000196EAD987E0F801A8E2B3E001900D92A6
:103320008A95E1F75CCF80912E03803148F488E2E2
:1033300093E0DAD987E0F40111928A95E9F783CF17
:10334000C11409F44DCF2091290391812913C7CFCE
:10335000909128039E11C3CFF110C1CF8683C8017D
:10336000C3D987E0F40111928A95E9F739CF283C57
:10337000310500F7C11409F433CFF11479F19091BC
:1033800029038181981320C0809128038E111CC0CD
:1033900080912E0380FD0FC0803168F08683807F8E
:1033A000803F39F08681982F907F905F8F70892BB6
:1033B0008683C80199D987E0F801A8E2B3E00190BB
:1033C0000D928A95E1F70CCFC8010E940906811180
:1033D000A1CF80912E03816080932E03C80184D9F0
:1033E000FFCEABE1B0E0E6EFF9E1D0C74E8B5F8BEB
:1033F000688F798F8A8F192F9B8F91111092ED0210
:103400001D8A86E0FE017696DE011F9601900D92E0
:103410008A95E1F70A8D011561F00B8B1C8B61E039
:10342000CE010F960E94E10561E0CE010F960E9449
:10343000E1050B8B1C8B87E0FE013F96DE011896A1
:1034400001900D928A95E1F7CE01089693DE8111E5
:1034500028C02091EE023091EF0287E0FE013896FD
:10346000DE01119601900D928A95E1F78C85811508
:10347000C1F0822F90E001968770992738171906BE
:10348000D1F097E0929FD0011124A051BD4FFE01D1
:10349000319601900D929A95E1F78093EE020E9489
:1034A0002D0317E08091EF029091EE02891311C075
:1034B0006B96E4E087C70E94480E1092EE021092CD
:1034C000EF0287E0E8E2F3E0DF011D928A95E9F779
:1034D000E8CF189FC001112480519D4F4BDE81150C
:1034E00039F38091EF0290E00196877099278093DD
:1034F000EF02D8CFA6E0B0E0EFE7FAE147C70E94BD
:10350000D4088C01809184029091850280179107E4
:1035100071F019821A820E94D408BC0149815A8133
:1035200080E090E05EDF109385020093840226968F
:10353000E4E048C7A4E0B0E0EFE9FAE11FC7FE010C
:10354000319684E0DF011D928A95E9F785E1E82E46
:1035500081E0F82E8F01B12C9E2EA12ECC24C39495
:10356000D12CF70181917F018F3FC9F1F894E82FA9
:10357000E295EF70F0E021A18F70A60102C0440F28
:10358000551F8A95E2F7CA01922F982B91A392A119
:103590008095892382A3789400C0E9E1F1E041E0BD
:1035A000812C20E053E0B51247C021113FC088278D
:1035B0007F9B8395811509F451C080E0882A2F5F95
:1035C000440F3196243071F7F70182918F3F11F04B
:1035D0000E942B0280EA8A95F1F7D8018C92B3946D
:1035E0000F5F1F4FB4E0BB12BCCF44E050E0692D29
:1035F0007A2D8AE592E085D7892B91F189819A818C
:10360000AB81BC8180935A0290935B02A0935C02D1
:10361000B0935D0281E080930E020E94D4089093E3
:103620000D0280930C022496ECE0C4C6233021F4F2
:103630008FB180958170BECF30813F3F09F4BDCFFF
:10364000A32FA295AF70A05EB0E08C9190E03F7088
:1036500002C0959587953A95E2F7ECCF842FAECFCF
:1036600080910E028115F9F200910C0210910D0269
:103670000E94D408801B910B0597A8F244E050E00B
:103680006AE572E082E692E03CD7892B81F0809176
:103690005A0290915B02A0915C02B0915D0280930E
:1036A000620290936302A0936402B0936502109249
:1036B0000E02B9CFCDB7DEB765970FB6F894DEBF6F
:1036C0000FBECDBF85B7806885BF85B7806885BFD1
:1036D00084B7877F84BF0FB6F894A8958091600067
:1036E000886180936000109260000FBE80E890E0D7
:1036F0000FB6F89480936100909361000FBE81E053
:103700008093130184E396E09093E3018093E201B8
:103710000E94790A0E94570B8091E2008460809396
:10372000E200789480916102811599F08091E9001E
:103730001091EC008F70179511271795182B109288
:10374000E9008091E80083FD0E94890E1F701093AC
:10375000E90082E084BD93E095BD9AEF97BD809328
:103760006E00E6E7F2E098E0DF011D929A95E9F736
:103770008093750260E080E00E945A0761E080E07B
:103780000E945A0760E081E00E945A0761E081E0F0
:103790000E945A07EFE8F1E03197F1F700C000000E
:1037A00010E080917502181708F49EC081EF0E9406
:1037B0002B0284EF0E942B0285EF0E942B0286EFE2
:1037C0000E942B0284E30E942B0286E60E942B02B9
:1037D00087E60E942B0286EC0E942B0284E0E2E640
:1037E000F2E0DF01282F1D922A95E9F7EAE5F2E0E1
:1037F000DF011D928A95E9F783E190E03ED6609360
:10380000C5027093C6028093C7029093C802677086
:10381000BFEF6B9FC001112495958795959587956E
:103820000E94590280E090E02DD6833E9E4F09F41D
:1038300039C063EE7EEF80E090E052D660E082E037
:1038400090E034D681E090E09093E2028093E10230
:1038500061E083E090E02AD660E074E184E090E0EB
:103860003FD60E94A60C0E94F81140E050E0BA0139
:103870008FE090E02DD61092C5021092C6021092F1
:10388000C7021092C80281E08093C50282E10E94C3
:10389000590241E050E060E070E083E190E018D62A
:1038A0000E94ED1182E090E0E0D58093660284E012
:1038B00090E0E8D59093EC028093EB023BDEFFEFC3
:1038C00026E741E0F15020404040E1F700C0000011
:1038D00031DE8091620280FF19C06FEF7FEF80E0E0
:1038E00090E0FED50E94EC0B60E0812F0E947D07E6
:1038F000082F61E0812F0E947D07E12FF0E0ED5855
:10390000FD4F880F802B80831F5F4BCF83E090E0BB
:10391000ACD590E00E9481028091E3029091E40294
:103920000E9467020E949A0781E08093DD0248E0CE
:1039300050E067E170E085ED92E087D51092DD02FE
:103940008091D502843010F40E94F81180915E02BB
:1039500081112FC08DEC92E00E943A118091CD022E
:10396000843008F091C00E94A60C8DEC92E00E9479
:103970003A118091CD02843008F086C08370846053
:103980008093CD028091D002873918F086E9809328
:10399000D0021092CC020E941E028091CD0280FFC4
:1039A00005C060E0869586950E94931181E0809322
:1039B0005E0289EA8093800089E08093810086E03E
:1039C00091E09093A7028093A60268E1E62EF12C85
:1039D00076E6C72E72E0D72EEBE6AE2EE2E0BE2EE4
:1039E000F4E06F2E712CCE0101968B8B9C8B809115
:1039F000610210E402E1853009F486C09BDD07E630
:103A000012E052E6852E52E0952ED401F8019191F4
:103A10008D91AE16BF0609F4D4C09817C1F3512C8E
:103A2000D4014D904D01F80181918F01841529F148
:103A300084258D8B312C222423948D89822181151C
:103A4000A9F039825A820E94D4089C838B83F1E0CA
:103A5000FD8391E0842D8221811101C090E09E833D
:103A600049815A816B817C818D81BBDC3394220C2E
:103A700024E03212E2CFF8014292539444E054120F
:103A8000CFCF0E94C409A0C08091CD02803208F43B
:103A900079CF83708C6174CF80916102843059F149
:103AA0000E944D020E9451020E9455020E9404127F
:103AB0000E94D30610925F020FB6F894A895E09288
:103AC00060000FBE1093600083B7817F846083BF66
:103AD00083B7816083BF7894889583B78E7F83BFD7
:103AE0000FB6F894A895809160008861809360007B
:103AF000109260000FBE1EDDE2E6F2E081918111BE
:103B000070C2CE16DF06D1F780916102853009F4CC
:103B1000C3CF0E94480E0E9412080E94DD110E942D
:103B20004D020E9451020E9455029FEFA9E6B8E1A2
:103B30009150A040B040E1F700C000000E94440254
:103B4000EFEFF1EE24E0E150F0402040E1F700C05B
:103B500000000E9447024FEF81EE94E04150804008
:103B60009040E1F700C000000E944A02AFEFB1EEC2
:103B7000E4E0A150B040E040E1F700C000000E9446
:103B80004D02FFEF21EE44E0F15020404040E1F7CC
:103B900000C000000E9451028FEF91EEA4E081501E
:103BA0009040A040E1F700C000000E945502BFEF26
:103BB000E3ECF9E0B150E040F040E1F700C0000074
:103BC0001DCF98132CCF96DC8091CC02811509F47F
:103BD00041C08091CB02E091CD02E695E695E81BCD
:103BE000E0936D0200ED17E036E3832E36E0932E6E
:103BF000823059F4E695F0E0E95DFC4FE4910E2F38
:103C000010E047EE842E46E0942E80916E028115DE
:103C100061F010926E020E94D40890936C0280931F
:103C20006B021092700210926F020E94D4082091D1
:103C30006B0230916C02821B930B8F3F9F4750F4B5
:103C4000200F311F30936C0220936B028BE692E0C1
:103C5000F40109950E94041280917E02811551F0B1
:103C60008091780210927E02809379028091760290
:103C70008093770200E048C061E0802F0E947D07BA
:103C8000882E60E0802F0E947D07880C8829202FD5
:103C900030E0D901AD58BD4FEC919E2F937089173C
:103CA00091F1EE0FEE0FE82BEC93EF70F0E0EB5993
:103CB000FE4F2F583D4F8081D9019C91890F8C93E5
:103CC00084300CF451C0412F50E0BA016F5F7F4F38
:103CD000637077279616170679F04A585D4F902F34
:103CE0009F77FA0194831F5F13701093780290916D
:103CF00076029F5F90937602082E000C990BB30119
:103D00001ED3F90180830F5F9090790210917802A1
:103D100080917502081708F4AFCF90E08CEF982ED1
:103D20002DEF822E8091790220917802281709F4D4
:103D300054C0E82FF0E0E658FD4F908197FB5524E2
:103D400050F8092F0F778F5F8370809379028091ED
:103D500077028F5F8093770297FD1BC00F83988651
:103D60000E94D40813E01AC08D3F34F6412F50E072
:103D7000BA016F5F7F4F637077279616170609F4B5
:103D8000BBCF4A585D4F902F9068DA0114969C93F0
:103D9000AACF0F8388860E94D40812E0BC018987CD
:103DA0009A871B87F1E0FC874F815885812F91E02E
:103DB00018DB0D87511479F08E860E94D408BC015F
:103DC0008F87988B198B1A8A4D855E85812F90E09D
:103DD00008DB91E0A7CF9E86F0CF91110E94C40925
:103DE00086E0EFEBF2E0AB89BC8901900D928A95F9
:103DF000E1F73090C0025090C1029090C202409012
:103E0000C3028090C4021092C1021092C2021092AA
:103E1000C3021092C402892D8529811509F441C07D
:103E200000918102109182020E94D4089C01201B03
:103E3000310B9091BD02911509F4CEC025313105A9
:103E400080F19F3F19F09F5F9093BD02511459F08C
:103E50000E94CD0791E015140CF09FEF899F802DF3
:103E600011248093C102911459F00E94CD0791E072
:103E700019140CF09FEF899F802D11248093C202AA
:103E80008091C102811569F01091C202111549F0AB
:103E90000E94BF078093C102812F0E94BF078093B9
:103EA000C202882D8429811509F441C000917F0246
:103EB000109180020E94D4089C01201B310B90912C
:103EC000BC02911509F483C02135310580F19F3F73
:103ED00019F09F5F9093BC02411459F00E94ED07C6
:103EE00091E014140CF09FEF899F802D1124809392
:103EF000C302811459F00E94ED0791E018140CF0F0
:103F00009FEF899F802D11248093C4028091C3026A
:103F1000811569F01091C402111549F00E94BF0784
:103F20008093C302812F0E94BF078093C4028091B7
:103F3000C002381219C08091C102811511F085119B
:103F400013C02091C202211511F092120DC0909160
:103F5000C402911511F0891207C03091C3023111CA
:103F600003C0822B892B81110E94E00886E0EB8937
:103F7000FC89AFEBB2E001900D928A95E1F70E94C7
:103F8000120890918302891721F0809383020E9486
:103F9000C4098091E60281112ACD2090E702309079
:103FA000E8024090E9025090EA020E94C4096219B6
:103FB000730984099509613A7B4B8D40910508F49A
:103FC00016CD0E94D30681E08093E60210CD2B30FF
:103FD000310508F07ECFABCF2B30310508F033CF61
:103FE00060CF80916002811509F48ECD80E189BD9A
:103FF00009BD09B400FEFDCF8091D8008F7D80936C
:10400000D8008091E00082608093E0008091E00021
:1040100081FDFCCF0E94480E77CD1F921FB61F92E4
:1040200011248F939F93AF93BF9380915F0281116F
:1040300013C08091240290912502A0912602B09194
:1040400027024196A11DB11D809324029093250261
:10405000A0932602B0932702BF91AF919F918F91B9
:104060001F901FBE1F90189578941F921FB61F9225
:1040700011248F939F93AF93BF93809124029091CB
:104080002502A0912602B09127020196A11DB11D23
:104090008093240290932502A0932602B0932702D6
:1040A000BF91AF919F918F911F901FBE1F90189548
:1040B0001F920F920FB60F9211242F933F934F939D
:1040C0005F936F937F938F939F93AF93BF93EF9380
:1040D000FF938091E10082FF09C08091E20082FF9E
:1040E00005C08091E1008B7F8093E1008091DA0030
:1040F00080FF24C08091D80080FF20C08091DA002A
:104100008E7F8093DA008091D90080FFA9C080E182
:1041100089BD82E189BD09B400FEFDCF81E08093B5
:10412000610280911302811109C00E94790A0E94E4
:10413000570B8091E20084608093E2008091E1005F
:1041400080FF1AC08091E20080FF16C08091E200DB
:104150008E7F8093E2008091E20080618093E20094
:104160008091D80080628093D80019BC85E080934C
:10417000610283E0809313018091E10084FF2FC0EE
:104180008091E20084FF2BC080E189BD82E189BD7E
:1041900009B400FEFDCF8091D8008F7D8093D800B8
:1041A0008091E1008F7E8093E1008091E2008F7E1C
:1041B0008093E2008091E20081608093E200809130
:1041C0001202811509F452C084E08093610280914B
:1041D0006102843009F052C082E080931301809123
:1041E000E10083FF2CC08091E20083FF28C0809112
:1041F000E100877F8093E10082E08093610210926A
:1042000012028091E1008E7F8093E1008091E200B4
:104210008E7F8093E2008091E20080618093E200D3
:1042200042E060E080E00E94270B8091F00088600F
:104230008093F00081E08093130180931201FF913D
:10424000EF91BF91AF919F918F917F916F915F910E
:104250004F913F912F910F900FBE0F901F90189587
:1042600019BC109261021092130268CF8091E30092
:1042700087FF02C083E0A9CF81E0A7CF81E0ADCF67
:104280001F920F920FB60F921124EF92FF920F938D
:104290001F932F933F934F935F936F937F938F93CE
:1042A0009F93AF93BF93CF93EF93FF9309EE10E0EB
:1042B000F8018081C091EC008F70C795CC27C7951D
:1042C000C82B108280EFE82EF12CF7018081877FC8
:1042D000808378940E94890EF8011082F701808112
:1042E00088608083CF70F801C083FF91EF91CF91F8
:1042F000BF91AF919F918F917F916F915F914F91FE
:104300003F912F911F910F91FF90EF900F900FBE53
:104310000F901F901895AA1BBB1B51E107C0AA1F45
:10432000BB1FA617B70710F0A61BB70B881F991F56
:104330005A95A9F780959095BC01CD01089597FBFA
:10434000072E16F4009406D077FD08D0E4DF07FCB2
:1043500005D03EF4909581959F4F08957095619595
:104360007F4F0895EE0FFF1F0590F491E02D099403
:104370002F923F924F925F926F927F928F929F9275
:10438000AF92BF92CF92DF92EF92FF920F931F9363
:10439000CF93DF93CDB7DEB7CA1BDB0B0FB6F89414
:1043A000DEBF0FBECDBF09942A88398848885F8454
:1043B0006E847D848C849B84AA84B984C884DF80C5
:1043C000EE80FD800C811B81AA81B981CE0FD11DA9
:1043D0000FB6F894DEBF0FBECDBFED010895002EDD
:1043E000083090F0982F872F762F652F542F432F6A
:1043F000322F22270850F4CF220F331F441F551F9E
:10440000661F771F881F991F0A95B2F7002D089520
:1044100097FD1094002E083098F00850232F342F69
:10442000452F562F672F782F892F912DF4CF159474
:1044300097958795779567955795479537952795DC
:104440000A95AAF71124002D0895DC01CB01FC0187
:10445000F999FECF06C0F2BDE1BDF89A319600B4DD
:104460000D9241505040B8F70895F999FECF92BD92
:1044700081BDF89A992780B50895A6E1B0E044E09F
:1044800050E0E5CFA8E1B0E042E050E0E0CFDC0151
:10449000A40FB51F4150504040F0CB01840F951F31
:1044A0002E9105D041505040D8F70895262FF99904
:1044B000FECF92BD81BDF89A019700B4021639F083
:1044C0001FBA20BD0FB6F894FA9AF99A0FBE089554
:1044D0000396272FECDFEADF252FE9DF242FE7CF34
:1044E0000196272FE4DFE2CFFC014150504030F02D
:1044F00001900616D1F73197CF01089588279927A3
:104500000895FB01DC0104C08D910190801921F414
:1045100041505040C8F7881B990B0895F894FFCF7D
:1045200015091A091C092109310931093109310913
:104530003109310931093109230927092A092F09CC
:104540003F0945094909650F8B0F910F8B0F910F9B
:10455000E30F0410910F01110E115714BD145F14D5
:104560002A142E1463143214671473143E14B614F0
:104570004214771446147B149F144A147F14A61413
:104580004F1484148C1436146B143A146F1453148F
:1045900088149614AE14B41424145B14C4140214B6
:1045A0000614E313FE130A140E141214E914011571
:1045B000051509150D151115151519151D152115BB
:1045C00026152B153E154815511556155B1560150A
:1045D00065156A156F15741579157E15271627163A
:1045E0005E165E16F1160E17881688161317B91781
:0445F000CA17CA1705
:1045F40000FF00FFFF01D108490C5F0C640C690C3B
:104604000000010003F1F4F5F6346667C6943096B1
:1046140031FF0A0BFF0908070602030405FF010026
:10462400FF7A406740542D672D852D982D981A7A6E
:104634001A671A541A67077A070404040404040462
:104644000404040404003131295A1B750A000102D0
:10465400020202020200FF0100010000FFFF00004D
:10466400010001FF00E200E900EA00B500B600B76E
:1046740000CD008301CC008A019201940121022320
:104684000224022502260227022A02B300B4006F84
:104694000070009F01CB019F02A002E200E900EA42
:1046A40000B500B600B700CD008301CC008A0192AA
:1046B4000194012102230224022502260227022A50
:1046C40002B300B4006F0070009F01CB019F02A0F1
:0246D4000200E2
:00000001FF
