:100000000C945E020C9496020C9496020C94960248
:100010000C9496020C9496020C9496020C94960200
:100020000C9496020C9496020C9469270C94512817
:100030000C941E270C9496020C9496020C94960233
:100040000C9496020C9496020C9496020C949602D0
:100050000C9496020C9445270C9496020C949602EC
:100060000C9496020C9496020C9496020C949602B0
:100070000C9496020C9496020C9496020C949602A0
:100080000C9496020C9496020C9496020C94960290
:100090000C9496020C9496020C9496020C94960280
:1000A0000C9496020C9496020C9496020501090297
:1000B000A10185020901A1000509190129081500FE
:1000C0002501950875018102050109300931158165
:1000D000257F95027508810609381581257F9501D0
:1000E00075088106050C0A38021581257F95017572
:1000F000088106C0C005010980A101850319012AF4
:10010000B700150126B700950175108100C0050CD8
:100110000901A101850419012AA002150126A002E6
:10012000950175108100C005010906A1018506052C
:100130000719E029E71500250195087501810205D9
:1001400007190029EF1500250195F07501810205B9
:10015000081901290595057501910295017503910D
:1001600001C00660FF0961A1010962150026FF00B8
:100170009520750881020963150026FF00952075FA
:10018000089102C005010906A101050719E029E748
:1001900015002501950875018102950175088101F9
:1001A0000507190029FF150026FF0095067508812F
:1001B000000508190129051500250195057501910E
:1001C00002950175039101C009025B00030100A0C3
:1001D000320904000001030101000921110100019D
:1001E00022440007058103080001090401000203FD
:1001F00000000009211101000122220007058203ED
:100200002000010705030320000109040200010387
:1002100000000009211101000122B6000705840336
:1002200020000112010002000000084C57E3E60024
:10023000010102000114034D006900630072006FA8
:100240000020005000610064000000180357006F98
:100250000072006B0020004C006F007500640065A8
:10026000007200000004030904000029003E0000A1
:10027000002C0C2B081B08E3006800500A4F0AAE44
:100280000003526A00A80001520100A6000F0801F5
:10029000002C0C4E004B001B085009500A4F0A4F0F
:1002A0000900524E004B0002520100010001000102
:1002B000000100A900AA000100AD00AC00AB00AE37
:1002C0000001526A00A800035201004278010001B7
:1002D00000010001000100010001000100017C019A
:1002E000000252037C007C0052B600B700DC00DB49
:1002F00000010001000100010001000100010001F6
:1003000000010001000100010000010101010101E3
:1003100001010102020202020202020203030303BC
:10032000030303030404040404040405050505058C
:10033000060606060607070707070808080809094A
:1003400009090A0A0A0B0B0B0C0C0C0D0D0D0E0EF5
:100350000E0F0F0F10101111111212131314141588
:100360001516161717181819191A1A1B1B1C1D1DFC
:100370001E1E1F2020212222232424252626272852
:1003800029292A2B2C2D2D2E2F3031323233343582
:10039000363738393A3B3C3D3E3F40414243444585
:1003A000464748494A4C4D4E4F5051535455565864
:1003B000595A5B5D5E5F616264656668696B6C6D0E
:1003C0006F7072737577787A7B7D7E808283858784
:1003D000888A8C8E8F91939596989A9C9EA0A2A3C2
:1003E000A5A7A9ABADAFB1B3B5B7BABCBEC0C2C4C7
:1003F000C6C9CBCDCFD1D4D6D8DBDDDFE2E4E7E987
:10040000EBEEF0F3F5F8FAFDFF64321400000000A3
:1004100000000000000000000000000000000000DC
:1004200000000000000000000000000000000000CC
:100430007E0F00D4FFFFFFC700000078000000001F
:10044000000000002A2B280000000000000000002F
:100450000000000000000029000000002C1E3420D5
:10046000212224342627252E362D3738271E1F20FB
:100470002122232425263333362E37381F04050640
:100480000708090A0B0C0D0E0F1011121314151684
:100490001718191A1B1C1D2F3130232D3504050682
:1004A0000708090A0B0C0D0E0F1011121314151664
:1004B0001718191A1B1C1D2F3130354C11241FBE63
:1004C000CFEFDAE0DEBFCDBF04B603FE18C08091E7
:1004D0003F0390914003A0914103B09142038730C4
:1004E000904BA740B04B59F410923F031092400339
:1004F0001092410310924203E0E0F8E3099511E005
:10050000A0E0B1E0E2E6F4E502C005900D92A03F64
:10051000B107D9F723E0A0EFB1E001C01D92AF33DE
:10052000B207E1F70E945A1F0C94B0290C94000006
:10053000529A0895FC01EE0FFF1FE80FF91FE55EC8
:10054000FC4F6183408322830895FF920F931F9392
:10055000CF93DF93182F062FF42EC0E0D0E02F2D7D
:10056000402F612FCE010E949A022196CC30D105F6
:10057000B1F7CDB7DEB7E5E00C94FA28F894E82F90
:10058000E295EF70F0E041A18F7021E030E0B90119
:1005900002C0660F771F8A95E2F7CB01962F9095E0
:1005A000942391A392A1892B82A37894089590E03B
:1005B00090938B0080938A0090938D0080938C00A1
:1005C00090938900809388000895811569F081FFD8
:1005D0000BC0269A2E9A82FF0CC0279A2F9A83FF6F
:1005E0000DC0259A2D9A089526982E982E9881113F
:1005F000F2CF27982F982F988111F1CF25982D9819
:100600002D9808958093CF0208950E94E50280936B
:10061000D002089521E030E001C0220F8A95EAF768
:100620008091D002822B0E940503089521E030E0E2
:10063000A90102C0440F551F8A95E2F7CA018095AF
:100640009091D00289230E94050308959B01677051
:1006500091E001C0990F6A95EAF763E03695279516
:100660006A95E1F7B901660F771F260F371FFA0168
:10067000E20FF31F40E050E0682F70E08191DF014E
:100680009B01042E02C0369527950A94E2F721704B
:1006900021952827292328272E934F5F5F4F43302A
:1006A000510561F708959C01A82FA77083E0369546
:1006B00027958A95E1F7C901880F991F820F931F2B
:1006C000FB01E80FF91F40E050E080E0219130E0AD
:1006D0000A2E02C0369527950A94E2F72170332737
:1006E000042E01C0220F0A94EAF7822B4F5F5F4F5E
:1006F0004330510559F70895282F862F943068F418
:10070000243050F434E0939FB0011124620F711D26
:1007100041EB52E00E94260308959C5F9230E0F77F
:10072000622F70E04EEA52E0F5CF282F943068F443
:10073000843090F434E0939FC001112461EB72E0A7
:10074000820F911D0E94530308959C5F923020F404
:100750006EEA72E090E0F6CF80E008959091D002CA
:1007600021E030E0F90101C0EE0F8A95EAF7D901E6
:1007700002C0AA0FBB1F6A95E2F7EA2B01C0220F45
:100780004A95EAF7892F8E23E81305C0892F822B1B
:100790000E94050308952095822F8923F9CF809127
:1007A000DB029091DA02981301C008958F5F877081
:1007B000FACF9091D102809589238093D102282F7E
:1007C000277021110DC0891759F09091D80292FF1E
:1007D00007C08695869586950E9416031092D102D1
:1007E00008958091CC029091D902892B5091CD022D
:1007F000511591F090911701913021F49091D70209
:1008000097FD0BC096E024EF31E040E0915048F4B2
:1008100041111092CD02852B08959EE12CEF31E01D
:10082000F4CFF90161919F01611581F34F5FEECF24
:10083000982F90958091CC0289238093CC020895C3
:100840009C01803E910509F448C0D8F4813391059C
:1008500009F47DC048F48932910509F46DC08A9786
:1008600009F47CC0C90108958933910551F182389A
:10087000910539F1C597B1F78091D70285FFF2CF85
:1008800029C0843E910509F447C048F4823E910591
:1008900099F1833E9105A9F121EE30E0E3CF863E48
:1008A000910509F444C0873E9105E1F68091D70295
:1008B00083FD61C09091D80291FF2BC024EE30E0FF
:1008C000D1CF8091D7028370811152C08091D8021C
:1008D00083FFC8CF29E230E0C5CF8091D70280FDE9
:1008E00033C09091D80290FFBDCF23EE30E084FF5B
:1008F000B9CF20E030E0B6CF8091D70282FDF5CFAE
:10090000B1CF8091D70282FD30C09091D80290FD86
:100910002FC084FFA7CFEDCF8091D80281FFA2CF57
:100920008091D70227EE30E084FDE3CF9BCF80910A
:10093000D70283FDF7CF96CF8091D70285FD1EC0E9
:100940008091D80283FF8ECF29E330E08BCF809156
:10095000D70286FF87CF2AE230E084CF8091D7028A
:1009600086FF80CF21E330E07DCF22EE30E07ACFEA
:1009700020EE30E077CF26EE30E074CF25E330E094
:1009800071CF9091D70292FF10C041E0282F2471BF
:10099000243009F040E031E0282F2871283009F098
:1009A00030E0431711F02CE0822793FF10C041E0A4
:1009B000282F2471243109F040E031E0282F2871DC
:1009C000283109F030E0431711F02CE082273091F4
:1009D000D80230FF10C051E0282F2171213009F0DA
:1009E00050E041E0282F2871283009F040E05417EA
:1009F00011F029E0822731FF10C041E0282F21713A
:100A0000213109F040E031E0282F2871283109F028
:100A100030E0431711F029E0822794FD877E089586
:100A20001F93CF93DF930E942004EC01811522E5F0
:100A3000920708F055C0811540E5940708F0D1C031
:100A4000803E910520F58D3C910508F0A4C0883AC0
:100A5000910570F4853A910508F09AC081309105AE
:100A6000D1F10497813A9105B0F1C0E0D0E033C0F4
:100A7000885A91094B97C8F7C85AD0E0CC0FDD1FB0
:100A8000CD57DE4F0990D881C02DD46424C0811584
:100A900050E49507C0F4C11580E2D80708F0B7C04C
:100AA000C83ED105C0F0CE019A9581159F41E8F668
:100AB0008D2F0E94C104182FCE0199270E94200477
:100AC000EC01D12B08C099270E942004CC27DF70AD
:100AD000C82BD92BD06ACE01DF91CF911F910895F9
:100AE000803842E59407C8F5803652E5950708F04E
:100AF0005BC0C03482E5D807D0F4C03292E5D90794
:100B000008F04BC08C2F8695869520E2829FC0010D
:100B10001124C37021E030E0A90102C0440F551F29
:100B2000CA95E2F7EA01C82BD92BDD68D4CF8C2F08
:100B300086958695877050E2859FC0011124C37009
:100B400021E030E0A90102C0440F551FCA95E2F729
:100B5000EA01C82BD92BDC68BECF803C52E5950753
:100B600058F48F71C03AD245A0F590E0982F8827AD
:100B7000EC01C46FD06AAFCF805C9245809708F0DB
:100B800074CFDC2FCC27CC27DF71C06FD06AA3CF06
:100B9000A497D064A0CFD0659ECFCF71D0E0DC2FDA
:100BA000CC27C16FD06A97CF86958695877020E253
:100BB000829FC0011124C37021E030E0A90102C06E
:100BC000440F551FCA95E2F7EA01C82BD92BDA6802
:100BD00082CF0E94C104C82FD0E0DC2FCC27D06286
:100BE0007ACF8F710E94C10493E0CC0FDD1F9A95DC
:100BF000E1F7CC27DF70282F30E084FF04C050E1FC
:100C0000859F90011124C22BD32BD06964CF8D2FE7
:100C10008F710E94C104182FCE0199270E942004D1
:100C2000EC01D12BDCCF80E008950895CF92DF92C4
:100C3000EF92FF921F93CF93DF93172FE82FF0E0EF
:100C4000E75FFC4F71110CC0E4918E2F7E2F6E2F49
:100C5000DF91CF911F91FF90EF90DF90CF9008959B
:100C6000E62EF12CC72ED12CF491EF2F86E0689F51
:100C700090011124CFEFD0E0C901BE010E949C2851
:100C8000AB01EE0CFF1C65E5649FC001659F900DF4
:100C90001124E81AF90A6E2D660F6E0D7E01EC180C
:100CA000FD08FE9DD001FF9DB00D11248B2F169FD6
:100CB00070011124EF2CFF246E01CE18DF0876019D
:100CC000FE9D6001FF9DD00C11247E01E61AF10803
:100CD000B701169F7001179FF00C1124EF2CFF2411
:100CE000CE19DF09FC9F7001FD9FF00C11247F2DB0
:100CF00043305105C1F02C3F334058F44130510589
:100D0000B1F04230510509F0A2CFEB2F8F2D7F2F8C
:100D10009ECF4430510571F04630510509F497CF0C
:100D20007B2F8D2D94CF7D2DEB2F8F2F90CF7F2F6D
:100D3000ED2D8DCFEF2D7B2FF8CF8091C402843025
:100D400060F4837084608093C4028091C702873905
:100D500018F086E98093C70208958032B0F383705B
:100D60008C61F1CFCF93DF938091C40280FD0CC0E2
:100D7000C0E0D0E020E040E060E0CE010E949A02B6
:100D80002196C830D105B1F70E94DE0CDF91CF91DA
:100D900008951092C3028091410281110EC081E03A
:100DA000809341028091C402982F917090934002E9
:100DB0008E7F8093C4020E94B2060895FF920F9323
:100DC0001F93CF93DF93EC01F12C00E010E07091C2
:100DD000C6028091C702873908F086E96C816F0DE1
:100DE0000E941606472F282FC8010E949A020F5F03
:100DF0001F4F8FE1F80E0830110549F70E94B20627
:100E00008C819A8190FF07C08F5F8C83CDB7DEB74E
:100E1000E5E00C94FA288150F8CF409105015091FB
:100E2000060125E038E0429FC001439F900D529F8C
:100E3000900D1124875E994C9093060180930501D3
:100E4000890F089590914602982B90934602089539
:100E50000E9442080895E1E7F2E0908121E09227A4
:100E60009083109212010E942207089580917102CE
:100E70008370811102C010921201809171028C7FE7
:100E80008160809371020895809171028370811155
:100E900010921201809171028C7F809371020895EB
:100EA000982F862F209171022370211589F09115BA
:100EB00081F0933080F49F73990F990F2091710204
:100EC0002370922B90937102109212010E942207BC
:100ED000089591E0F1CF92E0EFCF80917102869575
:100EE00086958F5F833008F081E061E00E945007B3
:100EF000089580917102869586958A9509F482E01D
:100F000061E00E9450070895982F822F209171026E
:100F10002370211559F09093720260937302473940
:100F200008F046E9409374020E9422070895E1E721
:100F3000F2E0818190E021E04381628108960E9485
:100F400084070895E1E7F2E0818121E04381628135
:100F50008850990B0E9484070895E1E7F2E06281CE
:100F600020E1620F08F46FEF818121E0438190E07E
:100F70000E9484070895E1E7F2E0628120E1621BAC
:100F800008F460E0818121E0438190E00E948407C1
:100F90000895E1E7F2E0438120E1420F08F44FEFCA
:100FA000818121E0628190E00E9484070895E1E759
:100FB000F2E0438120E1421B08F440E0818121E01E
:100FC000628190E00E9484070895E1E7F2E02481C5
:100FD00030E1230F08F42FEF248381E00E942207E1
:100FE0000895E1E7F2E0248130E1231B08F420E0DA
:100FF000248381E00E942207089590E06115E9F0C2
:101000008B5C9E4FFC0180818F3FB1F0E82FE29511
:10101000EF70F0E041A18F7021E030E0B90102C033
:10102000660F771F8A95E2F7CB01962F9095942350
:1010300091A392A1892B82A308958D5C9E4FE2CF4C
:1010400090E06115A9F08B5C9E4FFC0120812F3F41
:1010500091F0E22FE295EF70E05EF0E0808190E0A9
:101060002F7002C0959587952A95E2F781700895B3
:101070008D5C9E4FEACF80E00895519A08950E94BA
:101080009A0208950E94A5020895282F35EB2303A4
:10109000C001112497FF04C080589109892F089539
:1010A00080589F4FFBCF8091B90280FD14C081FD15
:1010B00014C082FD16C08091B802811581F08E3176
:1010C00080F420E5829FC00111246EE170E00E944F
:1010D000B028862F089584E1089588E2089588E075
:1010E000089580E508958091B90280FD17C081FDC3
:1010F00017C082FD19C08091B702811599F088321E
:1011000098F428E0829FC001112468E270E00E94F8
:10111000B0286115710551F0862F089562E0FCCF6B
:1011200064E0FACF61E0F8CF68E0F6CF81E008959F
:10113000E091A402F091A502309729F00190F0818E
:10114000E02D0995089580E00895A3E0B0E0EBEA72
:10115000F8E00C94E1289C018091340290913502D2
:1011600082179307A1F03093350220933402E09167
:10117000A402F091A502309751F083E089833B836C
:101180002A830084F185E02DCE01019609952396EE
:10119000E2E00C94FD28A3E0B0E0E1EDF8E00C946F
:1011A000E1289C01809132029091330282179307CB
:1011B000A1F03093330220933202E091A402F09127
:1011C000A502309751F084E089833B832A83008411
:1011D000F185E02DCE01019609952396E2E00C946D
:1011E000FD2890911701913091F0A4EFB1E0EFEF5D
:1011F00090E02D91821751F0EF3F19F4211101C0B9
:10120000E92F9F5F9630A9F7EF3FC9F408959091B9
:10121000D70297FFEACFE82FE695E695E695803F5F
:10122000A8F7F0E0E650FE4F877021E030E001C003
:10123000220F8A95EAF78281822B828308950E2EEF
:10124000000CFF0BEE50FE4FF8CF9091170191303C
:1012500021F49091D70297FD0CC0E4EFF1E0919159
:10126000891302C0DF011E9251E0EA3FF507B9F78A
:101270000895E82FE695E695E695803FC8F7F0E0FB
:10128000E650FE4F877021E030E0A90102C0440F14
:10129000551F8A95E2F7CA0180959281892382833E
:1012A00008958091160108952FB7F89480917E02D9
:1012B00090917F02A0918002B09181022FBF08958A
:1012C0000E9454092091BC023091BD02232B2115AC
:1012D00021F080936A0290936B022091BE023091BC
:1012E000BF02232B211521F080936802909369029D
:1012F000E091A402F091A502309749F082E080933A
:10130000BA020680F781E02D8AEB92E009950895F4
:10131000611509F44BC0E3E3E80FE33150F4F0E06A
:10132000EE54F64D0C94C4280E9453088195809386
:10133000BD020E94600908950E945308F8CF0E94E0
:10134000530881958093BC02F4CF0E945308FACFD2
:101350000E9473088093BE02ECCF0E9473088195AF
:10136000F9CF0E94730881958093BF02E2CF0E945B
:101370007308FACF815D990B21E030E001C0220FA4
:101380008A95EAF78091BB02822B8093BB02D1CF72
:101390008091B90281608093B902CBCF8091B9026C
:1013A0008260F9CF8091B9028460F5CF4091BC0290
:1013B0008D3C59F48091BD0287FF0DC01092BD0293
:1013C000411559F41092B80208C08E3C81F4809106
:1013D000BD0218169CF3411581F08091BE029091D8
:1013E000BF02892B8111A5CF1092B702A2CF8F3CEB
:1013F00041F447FFF0CF1092BC028091BD028115ED
:10140000E0CF803D19F41416B4F3E5CF9091BE02FD
:10141000893D29F41916FCF61092BE02DCCF8A3DF4
:1014200019F497FFD8CFF8CF9091BF028B3D29F4E4
:1014300097FFD1CF1092BF02CECF8C3D19F4191671
:10144000CCF3C9CF9FE2980F983090F4815D990B4F
:1014500021E030E0B90102C0660F771F8A95E2F7FC
:10146000CB0180959091BB0289238093BB02B3CFBF
:101470008D3D31F48091B9028E7F8093B902ABCF5C
:101480008E3D21F48091B9028D7FF7CF8F3D09F019
:10149000A2CF8091B9028B7FF0CF2FB7F8946091E3
:1014A0007E0270917F0280918002909181022FBF15
:1014B00008959C014FB7F89480917E0290917F022D
:1014C000A0918002B09181024FBF821B930B0895BF
:1014D000A0E0B0E0EEE6FAE00C94DB28182F809153
:1014E000140181132CC0909171029370209113010B
:1014F00030E081E09217130609F480E08093040144
:101500008091760290910301981739F0809303013E
:1015100040E060E080E00E942807113091F0123036
:1015200009F455C0111109C080910401811529F0F9
:1015300040E060E080E00E94280790E01FC081E06A
:10154000DDCF80910201C82FCC0FC80F03E00C0F34
:10155000C02E0D3010F08CE0C82E60917202709198
:101560007302809174020E941606F62EE72ED82E82
:10157000D0E0CC15D8F091E00C30F8F68091020163
:101580008F5F8093020191110CC082E08093120161
:1015900080910401811105C0111103C083E0809383
:1015A0001201CDB7DEB7E8E00C94F728FE01E95C44
:1015B000FE4F80A5909103018923811531F02D2DD7
:1015C0004E2D6F2DCE010E943F082196D2CFC091A3
:1015D0000201C11122C080913A0290913B020E9407
:1015E000590A4091750220E431E0241B3109281783
:1015F000390798F40E940D079CE0899F90011124FF
:10160000832F880F880B30930001809301010E9483
:10161000540990933B0280933A029C2F990F9C0FA0
:10162000D3E0D90FE0900001F0900101E916F10438
:1016300078F18D2FDD3008F08CE0E816F10440F5EC
:10164000F701E95CFE4F80A5909103018923811584
:10165000F9F00E940D0781FD1EC00E940D07C82FE2
:101660000E940D0720E8829FC00111247FE7790FB7
:10167000809174026C2F0E941606472F282FC701F5
:101680000E943F088DE090E090930101809300015B
:1016900091E0DC3072CF80E070E0C0E0EBCFFC0185
:1016A0009B0180912802909129028617970740F0AC
:1016B000672B29F48091E8008E778093E800C901B8
:1016C00040E0009741F4411106C08091E80082FF9C
:1016D0002FC080E0089520917D022115A9F12530C9
:1016E000A9F12091E80023FD2DC02091E80022FD02
:1016F000ECCF2091E80020FFE4CF3091F30020915F
:10170000F200009719F02830310558F041E02830F8
:10171000310509F040E02091E8002E772093E800A1
:10172000D0CF41914093F10001972F5F3F4FE9CF18
:1017300080917D02811541F0853041F08091E80073
:1017400083FFC3CF81E0089582E0089583E0089588
:101750008091220287FF13C08091E80082FF06C0BB
:101760008091E8008B778093E800089580917D0256
:101770008111F2CF089580917D028115D9F3809176
:10178000E80080FFF8CF8091E8008E77ECCF2091C1
:10179000E4003091E50095E6A9012091EC00822F4C
:1017A000817020FF06C08091E80080FF06C080E0C5
:1017B00008952091E80022FD1AC080917D028115D4
:1017C00089F0853089F08091EB0085FD0FC0209174
:1017D000E4003091E50042175307F9F29A95E1F6DB
:1017E00084E0089582E0089583E0089581E00895FB
:1017F000E8EDF0E080818E7F80831092E20010920D
:10180000DA001092E100A0EEB0E08C9181608C9340
:1018100080818F77808319BCA7EDB0E08C918E7F9B
:101820008C9380818F7E80831092210208959FB7D0
:10183000F8942BE133E0F9012F5F3F4F408158E0EE
:101840006BB9000000C047FF8BB9440F000000C017
:1018500000C000C08BB900C05A9591F743E02F3308
:10186000340749F79FBF0895982F9093E90089178F
:1018700071F07091EC002091ED005091F00021FD8D
:1018800009C09F5F973089F78093E9000895762F0C
:10189000242F50E03091EB003E7F3093EB003091ED
:1018A000ED003D7F3093ED003091EB0031603093DF
:1018B000EB007093EC002093ED005093F00020912A
:1018C000EE0027FDDECF0895A0E0B0E0EAE6FCE000
:1018D0000C94DB28C8EDD0E088818F7E8883E7ED0B
:1018E000F0E080818160808384E082BF81E080932A
:1018F000210288818E7F888302EE10E0F801108239
:101900001092DA0081EEC82ED12CF6011082888167
:101910008F77888388818068888388818F7D88839A
:1019200019BC10927D021092200210924A0210926D
:101930001F0290EEE92EF12CF70180818B7F8083CE
:1019400088818160888342E060E080E00E94340CFE
:10195000F60180818E7F8083F801808181608083A1
:10196000808188608083F70180818E7F8083888179
:1019700080618883CDB7DEB7E8E00C94F728E0916A
:10198000DB029091DA0227E0E91302C080E00895BB
:10199000AE2FB0E02E9FF0011124E452FD4F3181B3
:1019A000361306C03081381303C03581341304C0A8
:1019B000FD013196E770E8CF81E008958BB16BB1FE
:1019C00064608B7F0E94170C8FE594E00197F1F71C
:1019D00000C0000008958BB16BB162608D7F0E94E2
:1019E000170C8FE594E00197F1F700C0000008950F
:1019F00081E08093E00080E28093D8001092C900DB
:101A00008FE19EE40197F1F700C0000087E090EBC2
:101A1000DC0180933F0390934003A0934103B09374
:101A2000420388E19CE00FB6F894A895809360008B
:101A30000FBE90936000FFCF0F931F93CF93DF9360
:101A40008B01EA0190917D02943059F58093E90071
:101A50008FEF9091E80095FD06C095ED9A95F1F70E
:101A600000008A95B1F78091E80085FF1AC00E94B6
:101A7000C70B811111C08091E80085FD06C08091DF
:101A8000E8008E778093E800F2CFF80181918F0112
:101A90008093F100219779F78091E8008E77809309
:101AA000E800DF91CF911F910F910895CF93DF93BD
:101AB000D82FC92F48E050E0682F792F81E00E948D
:101AC0001C0D88E0ED2FFC2FAAE2B2E001900D92F0
:101AD0008A95E1F7DF91CF910895BC0140E250E093
:101AE00084E00E941C0D0895BC0146E050E084E0B3
:101AF0000E941C0D0895BC0143E050E084E00E9468
:101B00001C0D08959091D80292FB222720F92817E6
:101B100079F080FB92F99093D8026091D70270918E
:101B2000D80284E090E00E94902982E00E94D903CC
:101B300008951F93CF93DF93C62F122F632F9C2FEF
:101B4000942B982B9430B8F428E0C29FE001112424
:101B5000C40FD11DC40FD11D20E2829FC0011124EA
:101B6000C80FD91FCE0188960E947229612FCE011D
:101B700089960E947229DF91CF911F9108950F934A
:101B80001F93CF93DF93962F142F022F632F843050
:101B900018F5923008F528E0829FE001112434E026
:101BA000939FC0011124C80FD91FC855DF4F81E092
:101BB00084279E01280F311D280F311DC9010E9465
:101BC000722981E090E0111102C083E090E0602F63
:101BD0008C0F9D1F0E947229DF91CF911F910F9151
:101BE00008958F929F92BF92CF92DF92EF92FF92D1
:101BF0000F931F93CF93DF9309EE12E0E12CF12CAA
:101C0000C0E04701D0E015C0F601259134914B2D7D
:101C10006D2F8C2F0E94990D22E0C20ED11CB3941F
:101C200034E0B312F1CF84E0880E911CDF5FD43032
:101C300049F0C401880F991F9C0127593D4F690144
:101C4000B12CE2CFF8012591349141E060E08C2F76
:101C50000E94BF0DF80132962591349140E060E07A
:101C60008C2F0E94BF0DF80134962591349141E0EC
:101C700061E08C2F0E94BF0DF801369625913491BA
:101C800040E061E08C2F0E94BF0D085F1F4FCF5FC7
:101C900030E1E30EF11CC43009F0B3CFDF91CF91F6
:101CA0001F910F91FF90EF90DF90CF90BF909F908A
:101CB0008F900895CF93DF93C8ECD0E060E0CE0121
:101CC0000E9472292196C11584E0D807B9F7DF91E7
:101CD000CF910895CF93C82F64E2811101C06FEFB7
:101CE00084E290E00E94722962E1C11101C06FEFAD
:101CF00085E290E00E94722961E2C11101C06FEF9C
:101D000086E290E00E947229CF91089580E00E94BF
:101D10006A0E60E087E290E00E9472290E94F10D55
:101D20000E945A0E81E00E946A0E08950F931F933D
:101D3000CF93DF93962F942B982B943010F528E0B7
:101D4000629FE0011124C40FD11DC40FD11D30E2E8
:101D5000839FC0011124C80FD91FCE0188960E940D
:101D60004E29082F10E0102F0027CE0189960E94DF
:101D70004E299801282BC901DF91CF911F910F9116
:101D8000089580E090E0F8CFFF920F931F93CF93D8
:101D9000DF93F42E843070F5623060F528E0829F86
:101DA000E001112434E0639FB0011124C60FD71F56
:101DB000C855DF4F81E084279E01280F311D280F71
:101DC000311DC9010E944E29082F10E0102F002755
:101DD00081E090E0F11002C083E090E08C0F9D1F45
:101DE0000E944E299801282BC901CDB7DEB7E5E046
:101DF0000C94FA2880E090E0F8CF743048F4982FE3
:101E0000962B943060F4462F672F0E94960E08950B
:101E10007D3F41F4623018F441E0843050F080E0BE
:101E200090E008957C3FD9F76230C8F78430B8F766
:101E300040E00E94C40E0895A0E0B0E0E2E2FFE0BE
:101E40000C94DC287C010091D0028091CF02082BF9
:101E5000C3E0D0E010E0C8010C2E02C09595879534
:101E60000A94E2F780FD09C02197A8F7D12C8D2DA7
:101E7000CDB7DEB7E7E00C94F828DC2EB7018C2F45
:101E80000E94FD0E0E941005019771F3F0CF0F9391
:101E90001F93CF93FC01858100811181811591F001
:101EA000611581F0C8010E941C0FC82F682FC8015E
:101EB0000E947C03B8018C2F0E94FD0ECF911F91D0
:101EC0000F910895C8010E949503C82FF3CFCF93B7
:101ED000DF93D82FC92F0E941C0F6D2F7C2F0E94DB
:101EE000FD0E0E941005DF91CF910895FC018481C1
:101EF0008115A1F0808191810E94670F282F929512
:101F00009F70963099F060F4925F9F70923030F439
:101F1000203FB1F038F481E0283E38F080E00895A9
:101F20009A5FF3CF81E0243FC9F7089591E0213F04
:101F300009F090E081E0283E08F080E0892B0895C8
:101F400081E0089584E290E00E944E29843289F471
:101F500085E290E00E944E29823159F486E290E0B9
:101F60000E944E2991E0813209F090E0892F817022
:101F7000089580E0FCCF80911701813059F5809160
:101F8000D70287FF27C00E94F1038093FB0140E244
:101F900050E064E872E08AEF91E00E94A329892B67
:101FA000C1F080E2EAEFF1E0A4E8B2E001900D9226
:101FB0008A95E1F7E091A402F091A502309749F0EB
:101FC00086E08093FA010480F581E02D8AEF91E0AC
:101FD000099508950E94F1038093F20148E050E0D2
:101FE00066EA72E082EF91E00E94A329892B89F3CF
:101FF00088E0E2EFF1E0A6EAB2E001900D928A9566
:10200000E1F7E091A402F091A502309711F302806C
:10201000F381E02D82EF91E0DBCFCF93C82F8115C4
:10202000D1F08CEF8C0F813AA0F5809117018130AF
:1020300021F48091D70287FD10C0E4EFF1E0819197
:10204000C81709F121E0EA3FF207C9F78C2F0E9477
:10205000F1080E94BB0FCF910895EC2FE695E6950D
:10206000E695F0E0E650FE4F828190E04C2F4770FD
:1020700021E030E002C0220F331F4A95E2F78223AD
:102080009323892B19F38C2F0E9425090E94BB0FE3
:10209000DDCF80E28C0F883068F4C77081E090E07B
:1020A00001C0880FCA95EAF7C091CC02C82BC09333
:1020B000CC02CFCF8BE58C0F833038F42C2F2452F9
:1020C000330BC9010E94A508C6CFE8E5EC0FEB3140
:1020D00050F4F0E0EE0FFF1FE754FE4F8081918136
:1020E0000E94CB08B8CF83E38C0F833108F0B3CFC5
:1020F00061E08C2F0E948809AECF811581F19CEFA1
:10210000980F913A28F40E9425090E94BB0F089568
:1021100090E2980F983050F4877091E001C0990FC9
:102120008A95EAF7892F0E941804EFCF9BE5980F54
:10213000933028F480E090E00E94A508089598E587
:10214000980F9B3128F480E090E00E94CB0808951E
:1021500093E3980F933118F460E00E948809089582
:102160000F931F93CF93C82F8B010E940D10011561
:10217000110539F48C2F0E947D10CF911F910F9182
:1021800008958FE99FE00197F1F700C0000001502A
:102190001109EDCF811539F09091CC02892B8093F4
:1021A000CC020E94BB0F0895811521F00E941804F3
:1021B0000E94BB0F0895FF920F931F93CF93DF935D
:1021C000C62FD42F122F8115A9F06093C0020E9450
:1021D000540990931E0280931D02C77081E001C0D4
:1021E000880FCA95EAF70E94CA10CDB7DEB7E5E0BE
:1021F0000C94FA288091C002681332C080911D02AD
:1022000090911E020E94590A883C910548F500E20F
:102210000D0FCD17A9F0C770FF24F3948F2D01C0C7
:10222000880FCA95EAF70E94D410083048F48D2F21
:10223000877001C0FF0C8A95EAF78F2D0E94CA10A3
:1022400060E070E0812F0E94B010083070F6D77007
:1022500081E001C0880FDA95EAF70E94D410C5CF5B
:10226000C77081E001C0880FCA95EAF7F6CF1092D7
:10227000CC0280911701813039F58091D70287FF18
:1022800023C0ECEFF1E08EE1DF011D928A95E9F7C2
:1022900080E090E00E94A50880E090E00E94CB08DA
:1022A0001092D9020E94BB0F86E0EAEBF2E0DF0158
:1022B0001D928A95E9F71092B8021092B702109217
:1022C000B9020E9460090895E4EFF1E086E0DCCFF6
:1022D0000E9437112FEF84E39CE021508040904012
:1022E000E1F700C0000088E19CE00FB6F894A895E3
:1022F000809360000FBE90936000FFCFAAE2B0E031
:10230000E4E8F1E10C94E02882E292E0FC0101961D
:102310002091F100208322E08A329207B9F7809160
:102320002302893009F45AC0C8F4823009F4B7C0D6
:10233000833009F486C0813091F18091E80083FFF9
:10234000EBC080912202909123029A3008F0E4C001
:10235000E92FF0E0EB53F64D0C94C4288A3009F4D1
:102360008DC08B3051F780912202813231F78091FC
:10237000260290912702892B01F78091E800877F40
:102380008093E8000E94A80B81E0909124029111B3
:1023900001C080E0809317010E943711CECF809159
:1023A0002202813A51F68091E800877F8093E8000D
:1023B0008091260290912702892B61F060E080E0F5
:1023C00090E070E00E944F0B8091E8008B77809343
:1023D000E800B3CF68E08AE292E0F3CF8091220276
:1023E000813209F0AACF80912602909127028D7F39
:1023F000892B09F0A2CF8091E800877F8093E800C5
:102400008091E80082FF18C09091F3008091F20063
:10241000029731F48091F100813011F0863021F47F
:102420008091F100809316018091E8008B77809372
:10243000E8000E94A80B81CF80917D028111E0CF3E
:102440007CCF80912202813A09F077CF80912602D9
:1024500090912702892B09F070CF8091E800877F47
:102460008093E8008091E80080FFFCCF8091170105
:102470008093F1008091E8008E77D9CF809122027D
:10248000813209F05ACF8091E800877F8093E8007D
:102490000E94A80B80912502809315014ECF809158
:1024A0002202813A09F049CF8091E800877F80932A
:1024B000E8008091E80080FFFCCF80911501D8CF23
:1024C000803889F0823841F5809126028F708730FC
:1024D00018F58093E9008091EB0085FB882780F94F
:1024E0001092E90006C080914A02880F90911F0265
:1024F000892B9091E800977F9093E8008093F100FA
:102500001092F1008091E8008E7723C0811116C0EF
:1025100080912402813011F18091E80083FF0AC08C
:102520008091E800877F8093E8008091EB008062D3
:102530008093EB00AA96E3E00C94FC28823061F7CC
:1025400080912402811589F01092E9008091E800C1
:10255000877F8093E8000E94A80BDECF81E0933054
:1025600009F080E080934A02EFCF809126028F70BD
:102570002FEF280F263080F68093E9002091EB00A2
:1025800020FFE2CF933031F48091EB0080628093A2
:10259000EB00DACF9091EB0090619093EB0021E09B
:1025A00030E0A90102C0440F551F8A95E2F740931D
:1025B000EA001092EA008091EB008860E8CF811178
:1025C000ABCF109124021F778091E3008078812B9C
:1025D0008093E3008091E800877F8093E8000E9469
:1025E000A80B8091E80080FFFCCF8091E300806819
:1025F0008093E30083E0111101C082E080937D02AB
:102600008BCF8058823008F087CF80912402909140
:1026100025028C3D53E0950799F583E08A838AE291
:1026200089834FB7F894DE01139620E03EE051E233
:10263000E32FF0E050935700849120FF03C0829570
:102640008F703F5F8F708A30C8F0895C90E08D9307
:102650009D932F5F243161F74FBF8091E800877F02
:102660008093E8006AE270E0CE0101960E944F0B71
:102670008091E8008B778093E8004ECF805DE6CFB5
:10268000292F33272330310509F44EC078F5213046
:10269000310509F47DC08BE590E0E8ECF1E02230F3
:1026A000310509F039CF2091E800277F2093E80019
:1026B00020912802309129028217930708F49C0187
:1026C00040E02115310509F068C0411166C08091D4
:1026D000E80082FDCDCF80917D02811549F28530E1
:1026E00039F28091E80083FFF2CFC2CF80912602B9
:1026F000909127022132310509F43BC02232310585
:1027000009F00ACF8330910508F006CFFC01EE0FE7
:10271000FF1FE95DFE4F0190F081E02D8C5D9E4F23
:10272000DC018C9190E011C09C013327813089F04D
:1027300022303105B1F0232B09F0EECEE5E6F2E0D0
:10274000E4918E2F90E0E5E6F2E0009709F4E4CE04
:10275000AACFEBE4F2E0E4918E2F90E0EBE4F2E01C
:10276000F4CFE5E3F2E0E4918E2F90E0E5E3F2E0D0
:10277000ECCF8330910508F0CFCEFC01EE0FFF1FA8
:10278000E35DFE4F0190F081E02D89E090E08BCF7A
:1027900082E190E0E3E2F2E086CF80917D02811554
:1027A00009F466CF853009F463CF8091E80083FD9A
:1027B0005FCF8091E80082FD8ACF8091E80080FFA2
:1027C00080CF9091F3008091F2002115310519F02E
:1027D0008830910550F041E0089709F040E0809181
:1027E000E8008E778093E8006CCF44914093F1002D
:1027F0003196215031090196E8CF803809F08CCE0E
:102800008091E800877F8093E80080912002809388
:10281000F10078CE811180CE10912402123008F0A0
:102820007BCE8091E800877F8093E80010932002A0
:102830000E94A80B1115F9F084E080937D0242E01C
:1028400061EC81E00E94340C42E261EC84E00E9481
:10285000340C42E261EC82E00E94340C42E260EC13
:1028600083E00E94340C80917D02843051F482E038
:102870008093180151CE8091E30087FDDDCF81E088
:10288000DCCF81E0F5CFA0E0B0E0E9E4F4E10C9426
:10289000DB288901D42FC52F6B017C010E949D0686
:1028A000A8016D2F7C2F88E090E00E948429980178
:1028B0004D2F5C2FB601C70100E20E942329622F31
:1028C00083E290E00E947229CDB7DEB7E8E00C9475
:1028D000F7288091C802833018F48F5F8093C80274
:1028E0002091C4023091C5024091C6025091C702A6
:1028F0006091C8027091C9028091CA029091CB0286
:102900000E94431408958091C802811519F08150E6
:102910008093C8022091C4023091C5024091C60242
:102920005091C7026091C8027091C9028091CA0299
:102930009091CB020E9443140895A0E0B0E0E3EA36
:10294000F4E10C94DA28D82F162FC42F022F80918F
:10295000C40280FF43C0E82FE695E695F0E0E55914
:10296000FE4F90819093C2028C7F8430E1F5842FDA
:10297000473908F086E96D2F712F0E941606D62E72
:10298000C72EB82E8091C40280FF11C0E12CF12C1B
:102990002B2D4C2D6D2DC7010E949A028FEFE81A46
:1029A000F80A88E0E816F10499F70E94B206D0937D
:1029B000C5021093C602C093C702011579F0209199
:1029C000C4026091C8027091C9023D2F412F5C2F53
:1029D0008091CA029091CB020E944314CDB7DEB71A
:1029E000E9E00C94F628923011F7D091C502DFCFC0
:1029F000E4ECF2E0818121E043816281885F0E9402
:102A00009D140895E4ECF2E0818121E0438162812C
:102A100088500E949D140895E4ECF2E0628128E061
:102A2000620F08F46FEF21E0438181810E949D14C1
:102A30000895E4ECF2E0628128E0621B08F460E0B3
:102A400021E0438181810E949D140895E4ECF2E02D
:102A5000438128E0420F08F44FEF21E06281818139
:102A60000E949D140895E4ECF2E0438128E0421BAB
:102A700008F440E021E0628181810E949D14089564
:102A800048E050E067E170E081E792E00E9462294F
:102A9000109246020895CF930E944D0A6093360229
:102AA00070933702809338029093390280914902E3
:102AB000811501F1C0E080911201823009F44FC00C
:102AC00008F03EC0811140C0109202018091360290
:102AD00090913702A0913802B091390280933C0264
:102AE00090933D02A0933E02B0933F0281E0809319
:102AF000120128C040916402509165026091660203
:102B0000709167022FB7F89480917E0290917F02B6
:102B1000A0918002B09181022FBF841B950BA60B60
:102B2000B70B81369A4EA105B10520F6C09171020E
:102B30008C2F8370811509F4BDCFC695C695BBCF88
:102B40008330C1F0CF9108958C2F0E94680AC1157F
:102B5000C9F340E060E080E00E942807F3CFC09313
:102B60001401809171028370809313010E94EB0C19
:102B700083E0BDCF8091460281110E9440154091B3
:102B80003C0250913D0260913E0270913F022FB78E
:102B9000F89480917E0290917F02A0918002B09182
:102BA00081022FBF841B950BA60BB70B4097A10585
:102BB000B10540F210921201C5CF6091C402669532
:102BC000669570E041E050E087E091E00E94962930
:102BD000892B19F481E08093C3020E9454099093D9
:102BE00051028093500208959091C40290FF3BC01F
:102BF0008115D1F18830D0F58F73282F220F220F45
:102C00008091C4028370282B2093C402611581F047
:102C10003091C5024091C6025091C7026091C8022E
:102C20007091C9028091CA029091CB020E94431414
:102C30006091C4026695669570E041E050E087E0DF
:102C400091E00E949629892B99F01092C30281E0AD
:102C50008093530220E04091C7026091C6028091A8
:102C6000C5020E949D14089581E0C7CF87E0C5CFBB
:102C70000E94DD15ECCF8091C402869586958F5F0A
:102C8000883008F081E061E00E94F4150895809199
:102C9000C402869586958A9509F487E061E00E94D2
:102CA000F4150895E4ECF2E080818160808360E0B7
:102CB000869586950E94F4150895109241028091A0
:102CC000400281110E9452160E94DD150895A8E06D
:102CD000B0E0EDE6F6E10C94D1285C01FC018481C2
:102CE000811509F4A9C061E0C5010E94470F8C015C
:102CF000F5018581811509F440C1980137572038C5
:102D0000310508F0C0C5003108F086C08FEF93E0B0
:102D10000E944E29811180C048ECE42EF12C011153
:102D20004FC0CE0101964C0188E0F40111928A95C2
:102D3000E9F73AE0332E87010F5F1F4FC7010E946A
:102D40004E2989831A82811509F466C0813009F001
:102D500077C06701F2E0CF0ED11CC8010E944E2956
:102D60008A83811509F458C09FEF980F9330B8F506
:102D700023E0E20EF11CC6010E944E298B838115CF
:102D800009F44AC01C828401F8012081211599F2BE
:102D9000213009F096C08181813009F053C068016B
:102DA000F2E0CF0ED11CF801828160E5893309F091
:102DB00060E070E00E94B01086010F5F1F4FE4CF0B
:102DC000E114F4E0FF0641F1C7010E944E2997018A
:102DD0002F5F3F4F79018111F3CF0150A0CF843095
:102DE000A1F402E010E0C6013FEFC31AD30A0E942B
:102DF0004E29F401E00FF11F8083811569F08C37B3
:102E000031F4FE01E00FF11F12827601BCCF0F5F9B
:102E10001F4F0730110539F78091D1028770811556
:102E200059F0F5018581811539F08091D80282FF32
:102E300003C082E00E94D9032896E2E10C94ED28B9
:102E40007801A1CF823049F46801F2E0CF0ED11CA5
:102E5000F80182810E940D10AFCF833049F46801E0
:102E6000F2E0CF0ED11CF80182810E947D10A4CF28
:102E7000843019F00F5F1F4FA0CF22810E5F1F4FCC
:102E800080E090E0A8014F5F5F4F2053330B2A3062
:102E9000310558F0009709F490CFEFE9FFE0319742
:102EA000F1F700C000000197F5CF389EB001399EC0
:102EB000700D1124C901860F971FF80121818A0125
:102EC000E1CFE22FF0E0E45CFB4F2490822F869567
:102ED0008695869590E0FC01E45DFB4FE4912770B8
:102EE000F0E0022E02C0F595E7950A94E2F7E17052
:102EF0004E2E5524FC01E45EFB4FE491F0E0022EDF
:102F000002C0F595E7950A94E2F7E1706E2E7724FA
:102F1000FC01E45FFB4FC490D12C02C0D594C79450
:102F20002A95E2F7C0FACC24DD24C0F841145104FC
:102F300019F081EE0E940D106114710419F086EEF3
:102F40000E940D1060E070E0822D0E94B0106114AC
:102F5000710419F086EE0E947D104114510419F09D
:102F600081EE0E947D10C114D10409F426CF60E0E7
:102F700070E08CE20E94B01020CFF801E851FC47CD
:102F8000E730F10508F05AC4E153F64D0C94C4281B
:102F900026E241EE61EE0E94DB103ECF27E245EED5
:102FA00065EEF9CF26E241EE60EEF5CF27E245EE81
:102FB00064EEF1CF26E241EE62EEEDCF27E245EE80
:102FC00066EEE9CF28E241E0EBCF8091D702816045
:102FD0008093D7026091D7027091D80284E090E08C
:102FE0000E9490290E94371117CF8091D8028860E3
:102FF0008093D802EFCF8091D7028260E9CF809191
:10300000D7028460E5CF8091D7028860E1CF8091BC
:10301000D8028160EDCF8091D8028260E9CF8091A3
:10302000D7028061D5CF8091D7028062D1CF8091C5
:10303000D7028064CDCF0E9437118091D70280687B
:10304000C7CF8091D7028C60C3CF8091D8028360B4
:10305000CFCF8091D7028E7FBBCF8091D802877F60
:10306000C7CF8091D7028D7FB3CF8091D7028B7F5E
:10307000AFCF8091D702877FABCF8091D8028E7F70
:10308000B7CF8091D8028D7FB3CF8091D7028F7E4A
:103090009FCF8091D7028F7D9BCF8091D7028F7B6E
:1030A00097CF0E9437118091D7028F7791CF80916F
:1030B000D702837F8DCF8091D8028C7F99CF80916A
:1030C000D702992782FF939590FB82F990FB83F9B1
:1030D0007FCF8091D802982F909590FB80F990FB3C
:1030E00081F986CF9091D702892F8F7B96FF8064DC
:1030F0006FCF0E9437119091D702892F97FB87F9E4
:10310000805866CF61E08EE090E00E94722962CF25
:1031100060E0F9CF9091D702892F8F7E94FF806174
:1031200057CF9091D702892F8E7F90FF816050CF2B
:103130009091D802892F877F93FF886059CF89E2C9
:1031400088C39091CC029272F801E054F847ED30B8
:10315000F10508F0A8C0EA52F64D0C94C42892720A
:10316000F801E052F847EB30F10508F09CC0ED5152
:10317000F64D0C94C4288091C40280FF1CC0282FF7
:103180002E7F2093C4023091C5024091C602509117
:10319000C7026091C8027091C9028091CA029091E1
:1031A000CB020E9443141092C3020E94B20681E037
:1031B0000E942B0731CE81608093C40261E0869526
:1031C00086950E94F415F3CF911539F00E944716A9
:1031D0000E94790721CE9115C9F30E943B160E94E7
:1031E0006D071ACE911539F00E9402150E94A207B0
:1031F00013CE9115C9F30E94F8140E9497070CCEC4
:10320000911539F00E9419150E94BB0705CE911542
:10321000C9F30E940C150E94AD07FECD911539F03F
:103220000E9433150E94D707F7CD9115C9F30E946C
:1032300026150E94C907F0CD911539F00E9483141C
:103240000E94F107E9CD9115C9F30E9469140E940B
:10325000E507E2CD0E94360781E00E942207DCCD1F
:103260000E944407F9CF911509F4B9CFB1CF91115C
:10327000B6CFAECF911509F4C0CFB8CF9111BDCF65
:10328000B5CF911541F2C0CF9111C5CFBDCF9115EA
:1032900081F2C8CF9111CDCFC5CF9115C1F2D0CF5A
:1032A0009111D5CFCDCF0737FCE71F07F9F00837CD
:1032B0002CE7120751F19801205E3245203231058A
:1032C00050F581113FC00F7181E090E0FC0102C018
:1032D000EE0FFF1F0A95E2F78F016E2F83E090E05B
:1032E0000E947229802F0E94020396CD811549F019
:1032F00081E00E940A0343E062E081E00E94AE03A5
:103300008BCD81E00E941603F6CF811511F082E08B
:10331000F0CF82E0F7CF8115A9F00A35FCE71F074F
:1033200009F483C008F05BC001303CE7130709F4DF
:103330007AC003308CE7180709F46FC001151C47E9
:1033400009F45EC0F5018581E080F180811509F402
:1033500070C0C7010E941C0F182F682FC7010E9460
:103360007C03B701812F0E94FD0E0E9410058C0185
:10337000F501D580C680C2942FE0C2228091D1028F
:103380008770811501F1ED2CD114F1F0812F807F30
:10339000803461F080E2800F8830A8F0812F807E39
:1033A000803221F4023078F0C11469F08091D802A3
:1033B00082FF09C082E00E94D9038091D102877008
:1033C000EE24E3948111E12CE12FE295EF70103CA3
:1033D00008F09BC0F0E0E251F64D0C94C4280B3588
:1033E000ECE71E0721F18091D802002482FF0394AC
:1033F000802D0C351C4709F0A5CF0E94820DA2CF6D
:103400000E9437112FEF34E38CE021503040804090
:10341000E1F700C000000E94F80C6FEF7FEF80E042
:1034200090E00E9490290E94681181E0E6CF80E040
:10343000E4CFC7010E949503182F93CFF12FFF709F
:10344000FF2E103118F0F29490EFF922D114B9F058
:10345000F11469F080E2800F883010F0011109C08A
:103460008091CC028F298093CC020E94BB0F802FC9
:1034700044C08091D9028F298093D902F6CF802F42
:103480000E947D10F11409F440C080E2800F883062
:1034900010F0011104C08F2D0E94180406C0F09492
:1034A0008091D9028F218093D9020E94BB0F2DC039
:1034B000212F2F70F22E107F103219F0F29480EF2E
:1034C000F822011551F0013009F485C0D11409F436
:1034D00091C0C11409F451C0CACF8091D80282FDB5
:1034E00048C0D11469F0F11439F08091CC028F29D1
:1034F0008093CC020E94BB0F80E00E940D1005C09B
:1035000080E00E947D10F110C6CFE114A9F08091F7
:10351000D10280FD11C0F5011582869586958695AC
:103520000E940A03C5010E9467168091D102869508
:10353000869586950E94160360E0C5010E94470F9C
:10354000F5018581811509F477CC0E944D0A6093BD
:10355000D3027093D4028093D5029093D6028091C7
:10356000D202811509F468CC1092D2020E945D1635
:1035700063CCD114A1F0C11004C08F2D0E94CA10D9
:10358000C4CF31E0C312C1CF8091CD029F2D9823CB
:10359000F91609F4BACF8F298093CD02B6CFC110A6
:1035A000B4CF8F2D0E94D4109091CD028F2D8923FE
:1035B000811529F08F2D809589238093CD028091EC
:1035C000CE029F2D9823911509F49FCFF094F822F5
:1035D000F092CE029ACFD11429F086E0C81608F0F6
:1035E00094CFCBCF95E0C91608F08FCF8F2D0E94D6
:1035F000D4108BCFC114D1F3093349F4EFEFF7EEB8
:1036000023E0E150F0402040E1F700C00000802FAF
:103610000E947D107ACF812F8695869583708115C3
:1036200061F0813009F071CFC8019370D11002C0F0
:1036300080E090E00E94CB0868CFC8019370D11061
:1036400002C080E090E00E94A5085FCF6D2D802F22
:103650000E9488095ACF812F8370811134C0D11004
:1036600027C0402F429546954770440F440F802F46
:103670008F70042E01C0880F0A94EAF7202F207162
:1036800004FF07C02FE030E001C0220F4A95EAF79F
:103690002095169516951370123081F0133061F055
:1036A0003091CF02113039F0822B83230E94020324
:1036B0000E9498082ACF832B822BF8CF822B9091DF
:1036C000CF028927F3CFD11451F110FFF1CF402F52
:1036D000429546954770440F440F802F8F70042EFB
:1036E00001C0880F0A94EAF7202F207104FF07C059
:1036F0002FE030E001C0220F4A95EAF72095169599
:1037000016951370123089F0133069F03091D002A1
:10371000113041F0822B83230E940503C9CF8230F0
:10372000B0F6C6CF832B822BF7CF822B9091D0029D
:103730008927F2CF1F70D11439F0812F0E940A031C
:10374000802F0E94CA10B4CF802F0E94D410812FE6
:103750000E941603ADCF023F71F170F4003FC9F033
:10376000013F91F0D11409F455C0C11409F44FC0C0
:10377000802F0E940D109CCF033F21F1043F91F751
:103780009091D80292FD2AC0812F8F71D11401F33C
:1037900016C0D11469F035E0C31608F089CF1F7147
:1037A00081E090E0012E01C0880F0A94EAF7BECFB5
:1037B00086E0C816F2CF812F8F71D110C9CF0E9439
:1037C0000A0376CF80E0D11409F4A6CF1F7181E0FF
:1037D000012E01C0880F0A94EAF79ECFD11461F040
:1037E000812F8F7192FFEBCF982F990F990F990F1F
:1037F00093609093D102E3CF81E00E94D90392E0DD
:10380000C91608F455CF82E00E94D90351CF812F09
:103810008F71D5CFC11479F0093349F4EFEFF7EE8A
:1038200023E0E150F0402040E1F700C00000802F8D
:103830000E947D103DCF812F8F718ACF0631FCE72A
:103840001F0709F07ECC8091C102811509F477CC65
:1038500085E30E94250914C09091CC0206312CE723
:10386000120709F07CCC9A7A81E0911101C080E0C6
:103870008093C10285E3911101C089E20E94F108A1
:103880000E94BB0FC9CAF801E851FC47E730F105B7
:1038900008F47ACB1092C0029801305723323105D8
:1038A000D8F684E090E00E945C299093D80280933F
:1038B000D702F801E150F047E232F10508F085CB7C
:1038C000E650F64D0C94C42880911A03803178F4A8
:1038D00080911903811559F0E091DB022091DA0201
:1038E000309115034091140357E02E1301C0089541
:1038F0006E2F70E05E9FF0011124DF01A452BD4FD6
:1039000014968C911497811561F111968C911197F1
:10391000831327C08C91841324C015968C9115971E
:1039200081111FC012968D919C91A0911603B091A8
:1039300017038A1B9B0B883C910598F480911A030E
:103940008F70806180931A03EE51FD4F80818F70DC
:103950008061808384E193E00E9467160E94CF0318
:103960000895FB013196E770C0CFADE0B0E0EBEB1E
:10397000FCE10C94D5288C0186E0F801DE01189654
:1039800001900D928A95E1F7F801F580848194E128
:10399000892E93E0992E60901803611018C081154C
:1039A00099F0F11409F415C1C8010E94760F811530
:1039B00009F40FC187E0F801A4E1B3E001900D9292
:1039C0008A95E1F70E94641CFF24F39456C070802E
:1039D000A280B380D0901903209116033091170371
:1039E000A501421B530BD11409F4C3C0483C510537
:1039F00008F079C0811541F380911503C180E090F2
:103A00001A0350E1E51608F059C0C81215C080919C
:103A10001403871111C0F1104BC08E2D8F7080617F
:103A200080931A0384E193E00E94671680911A0341
:103A3000F8018683F12C21C0F1103AC040E06C2DD2
:103A4000872D0E94BF0C40E06C2D872D0E94BF0C7B
:103A5000F82E8111EFCF888599850E94670F292F55
:103A600022952F70903470F49F702230A0F0911541
:103A7000B1F0F8019681903190F48F2D2D96EEE003
:103A80000C94F1282A5F2F70223068F0C8010E9440
:103A90006716FD2CF2CF911511F0811571F3805E40
:103AA000883058F3F3CF803F40F3815F8330F9CF04
:103AB00080911A03816080931A03BCCFC8123BC067
:103AC00080911403871137C0F11035C0E682C80118
:103AD0000E94671687E0F801A4E1B3E001900D921F
:103AE0008A95E1F771CFE0901A03F0E1EF1650F4F8
:103AF00084E193E00E94671687E0F40111928A95B1
:103B0000E9F798CF811509F45FCF90911503F8017B
:103B10008181981310C08091140387110CC0F1109B
:103B20000AC0E682C8010E94671687E0F40111927C
:103B30008A95E9F749CFC8010E94760F811509F4EB
:103B400048C0F11409F445C080911A03803208F48A
:103B500031CF80911403909115039A838983BC829D
:103B6000AB826D821E82EF82CE0101960E946716A3
:103B700021CF483C510508F0BFCF811509F424CF6F
:103B8000F11439F1909115038181981318C0809137
:103B90001403871114C080911A0380FD9BCF8031DC
:103BA00008F498CF8683807F803F09F490CF868188
:103BB000982F907F905F8F70892B868388CFC80164
:103BC0000E94760F8111F6CE80911A038160809356
:103BD0001A03C8010E946716F7CEABE1B0E0E3EF2D
:103BE000FDE10C94DF284E8B5F8B688F798F8A8F75
:103BF000192F9B8F91111092D9021D8A86E0FE0128
:103C00007696DE011F9601900D928A95E1F70A8D56
:103C1000011539F00B8B1C8B61E0CE010F960E94D1
:103C2000470F0B8B1C8B87E0FE013F96DE01189639
:103C300001900D928A95E1F7CE0108960E94B51C7D
:103C4000811128C02091DA023091DB0287E0FE0169
:103C50003896DE01119601900D928A95E1F78C85D8
:103C60008115C1F0822F90E001968770992738174F
:103C70001906D9F097E0929FD0011124A452BD4FAC
:103C8000FE01319601900D929A95E1F78093DA0248
:103C90000E94CF0317E08091DB029091DA02891332
:103CA00012C06B96E4E00C94FB280E94371110922E
:103CB000DA021092DB0287E0E4E1F3E0DF011D921B
:103CC0008A95E9F7E7CF189FC001112484529D4FD0
:103CD0000E94B51C811529F38091DB0290E00196CA
:103CE000877099278093DB02D6CFA6E0B0E0EBE7A0
:103CF000FEE10C94DF280E9454098C01809182021D
:103D0000909183028017910779F019821A820E949C
:103D10005409BC0149815A8180E090E00E94ED1D68
:103D200010938302009382022696E4E00C94FB2811
:103D3000A4E0B0E0EEE9FEE10C94D728FE01319654
:103D400084E0DF011D928A95E9F78CE1E82E81E09D
:103D5000F82E8F01B12C9E2EA12ECC24C394D12CF1
:103D6000F70181917F018F3FC9F1F894E82FE29527
:103D7000EF70F0E021A18F70A60102C0440F551F23
:103D80008A95E2F7CA01922F982B91A392A1809570
:103D9000892382A3789400C0E0E2F1E041E0812C25
:103DA00020E053E0B51249C0211141C088277F9B14
:103DB0008395811509F453C080E0882A2F5F440F52
:103DC0003196243071F7F70182918F3F11F00E94F4
:103DD000BE0280EA8A95F1F7D8018C92B3940F5F06
:103DE0001F4FB4E0BB12BCCF44E050E0692D7A2DE8
:103DF00082E492E00E94A329892B99F189819A811A
:103E0000AB81BC818093420290934302A093440211
:103E1000B093450281E080931C020E945409909364
:103E20001B0280931A022496ECE00C94F3282330B2
:103E300021F48FB180958170BCCF30813F3F09F470
:103E4000BBCFA32FA295AF70A05EB0E08C9190E0A5
:103E50003F7002C0959587953A95E2F7ECCF842F95
:103E6000ACCF80911C028115F1F280911A029091E1
:103E70001B020E94590A0597B0F244E050E062E448
:103E800072E089E792E00E94A329892B81F080915A
:103E9000420290914302A0914402B0914502809366
:103EA000790290937A02A0937B02B0937C021092E5
:103EB0001C02B9CFCDB7DEB7EC970FB6F894DEBFD2
:103EC0000FBECDBF85B7806885BF85B7806885BFC9
:103ED00084B7877F84BF0FB6F894A895809160005F
:103EE000886180936000109260000FBE80E890E0CF
:103EF0000FB6F89480936100909361000FBE81E04B
:103F00008093180183E196E09093F1018093F00192
:103F10000E94F80B0E94640C8091E2008460809300
:103F2000E200789480917D02811599F08091E900FA
:103F30001091EC008F70179511271795182B109280
:103F4000E9008091E80083FD0E947E111F701093AC
:103F5000E90082E084BD93E095BD9AEF97BD809320
:103F60006E000E94A20F811102C00E94860EEBE536
:103F7000F2E088E0DF011D928A95E9F782E0809304
:103F80005A0260E080E00E94FD0761E080E00E944C
:103F9000FD0760E081E00E94FD0761E081E00E9492
:103FA000FD07EFE8F1E03197F1F700C0000010E005
:103FB00080915A02181708F4CAC081EF0E94BE020D
:103FC00084EF0E94BE0285EF0E94BE0286EF0E942F
:103FD000BE0284E30E94BE0286E60E94BE0287E61D
:103FE0000E94BE0286EC0E94BE0284E0E9E7F2E095
:103FF000DF01282E1D922A94E9F7E2E4F2E0DF01C6
:104000001D928A95E9F780E090E00E945C29853E48
:104010009E4F21F40E94A20F811172C065EE7EEFC7
:1040200080E090E00E94902960E082E090E00E94B1
:10403000722981E08093CF0261E083E090E00E94EA
:10404000722960E074E184E090E00E94902960E0D1
:1040500086E090E00E94722960E087E090E00E9494
:10406000722940E050E0BA0188E090E00E94842983
:1040700060E083E290E00E94722960E08CE090E0D2
:104080000E94722960E08DE090E00E9472291982FE
:104090001A821B821C821D821E821F82188648E0A3
:1040A00050E067E170E0CE0101960E94622940E095
:1040B00050E0BA018FE190E00E94842980E00E94E4
:1040C0006A0E0E94860E40E050E0BA018FE090E058
:1040D0000E94842910926D0210926E0210926F025B
:1040E0001092700281E080936D0282E10E94D702FB
:1040F00041E050E060E070E083E190E00E948429BC
:1041000082E090E00E944E2980934B0284E090E090
:104110000E945C299093D8028093D7020E94981E37
:10412000EFEFF6E721E0E150F0402040E1F700C07A
:1041300000000E94981E8091790280FF1AC06FEFE4
:104140007FEF80E090E00E9490290E94F80C60E0F0
:10415000812F0E942008082F61E0812F0E942008F3
:10416000E12FF0E0E85AFD4F880F802B80831F5F1E
:104170001FCF83E090E00E944E290E9402038091AD
:10418000D0020E94E5020E943D0881E08093460231
:1041900048E050E067E170E081E792E00E943E294C
:1041A00010924602809171028430B8F489E08093C5
:1041B00071028091190190911A01A0911B018093C5
:1041C000720290937302A09374028FE7809375023A
:1041D0008FEF809376020E944015809147028111F3
:1041E0008AC088E090E00E9456296DA77EA78FA71D
:1041F00098AB83E290E00E944E29282F30E040E007
:1042000050E060E070E080E090E000E20E94082969
:104210002DA43EA44FA458A85201410122293929B6
:104220004A295B292093C4023093C5024093C602F9
:104230005093C7026093C8027093C9028093CA0268
:104240009093CB02243008F044C02DE22093C402A6
:104250002FEF2093C5022093C60226E92093C702C0
:104260001092C8022DE23FEF4FEF56E960E00E9446
:10427000431488E090E00E94562969AB7AAB8BAB7F
:104280009CAB83E290E00E944E29282F30E040E072
:1042900050E060E070E080E090E00E94082929A8EA
:1042A0003AA84BA85CA852014101222939294A2980
:1042B0005B292093C4023093C5024093C6025093F9
:1042C000C7026093C8027093C9028093CA02909398
:1042D000CB020E949D061092C3020E949802809118
:1042E000C40280FF05C060E0869586950E94F415A3
:1042F00081E08093470289EA8093800089E080937F
:10430000810083E190E00E94562960936D027093D2
:104310006E0280936F029093700267702BE4629F2D
:10432000C001112495958795959587950E94D70290
:1043300088E091E09093A5028093A402DD24D394B9
:10434000CE010196F82EE92EF0E1CF2E80917D026C
:1043500010E403E0E2E1BE2E853009F49BC00E9428
:10436000981E0CE412E079E7472E72E0572ED20136
:10437000F80191918D9122E0E035F20709F49CC09B
:104380009817B9F3B12CD201AD902D01F8013190FD
:104390008F013A1421F13A24912C88248394832D9F
:1043A00088218115A9F09982BA820E9454099C83C0
:1043B0008B83DD8291E08A2D8821811101C090E0FC
:1043C0009E8349815A816B817C818D810E94ED1D84
:1043D0009394880CF4E09F12E2CFF801A292B39478
:1043E00064E0262EB210CFCF0E944D0A6093640283
:1043F00070936502809366029093670261C080911A
:104400007D02843009F43AC00E944B150E94C9060F
:104410008091490281110DC00E94680A1092140116
:10442000809171028370809313010E94EB0C0093C2
:104430001201D09249021092480288E190E00FB632
:10444000F894A895809360000FBE1093600083B726
:10445000817F846083BF83B7816083BF78948895B0
:1044600083B78E7F83BF0FB6F894A89580916000C4
:10447000886180936000109260000FBE0E94981EB9
:10448000E9E7F2E081918111BEC4ADE7B2E0AE1779
:10449000BF07C1F780917D02853009F4B0CF0E943B
:1044A00037110E9498080E945D161092490280916F
:1044B000D0020E94E50253CF981364CF0E94751E6C
:1044C0008091C302811509F43EC08091C202E0913F
:1044D000C402E695E695E81BE0935202823009F0AB
:1044E00044C0E695F0E0E75FFB4FE4914E2E512C7F
:1044F0005EAA4DAA0EED16E080915302811561F07F
:10450000109253020E9454099093510280935002DA
:1045100010925502109254020E94540920915002A8
:1045200030915102821B930B8F3F9F4760F42DA85F
:104530003EA8220D331D309351022093500280E596
:1045400092E0F80109950E944B1580916302811554
:1045500051F080915D021092630280935E0280911F
:104560005B0280935C0200E052C050ED552E5DAAC4
:1045700027E02EAB05E116E0BFCF61E0802F0E945F
:104580002008B82E60E0802F0E942008BB0CB82ABB
:10459000202F30E0D901A85ABD4FEC918E2F8370A7
:1045A000B816A1F1EE0FEE0FEB29EC93EF70F0E0EF
:1045B000ED58FE4F2A5A3D4F8081D9019C91890FB9
:1045C0008C9384300CF453C0412F50E0BA016F5FDC
:1045D0007F4F63707727A616170679F0455A5D4F0F
:1045E000902F9F77FA0194831F5F137010935D02E1
:1045F00090915B029F5F90935B02082E000C990BD9
:1046000064E070E00E94B028F90180830F5FA09001
:104610005E0210915D0280915A02081708F4ADCF36
:1046200090E03CEFB32E4DEFA42E80915E022091DE
:104630005D02281709F455C0E82FF0E0E15AFD4F5C
:10464000908197FB992490F8092F0F778F5F8370E3
:1046500080935E0280915C028F5F80935C0297FD85
:104660001BC009A3BAA20E94540913E01AC08D3FCF
:1046700024F6412F50E0BA016F5F7F4F63707727B8
:10468000A616170609F4B9CF455A5D4F902F9068CA
:10469000DA0114969C93A8CF09A3AAA20E945409F8
:1046A00012E0BC018BA39CA31DA3DEA249A15AA1C9
:1046B000812F91E00E94ED1D0FA3911481F0A8A617
:1046C0000E945409BC0189A79AA71BA71CA64FA149
:1046D00058A5812F90E00E94ED1D91E0A6CFB8A6CD
:1046E000EFCF911551F00E944D0A609364027093D0
:1046F0006502809366029093670286E0EAEBF2E03F
:10470000AF2DBE2D01900D928A95E1F79090BB02DE
:10471000B090BC021091BD02A090BE020091BF02F9
:104720001092BC021092BD021092BE021092BF0203
:10473000812F8B296F2C7E2C811509F442C080912A
:104740006A0290916B020E94590A8FAB98AF8091D8
:10475000B802811509F451C32FA938AD25313105AF
:1047600080F18F3F19F08F5F8093B802B11459F038
:104770000E94530891E01B140CF09FEF899F802D3D
:1047800011248093BC02111559F00E94530891E046
:1047900011160CF09FEF899F802D11248093BD028C
:1047A0008091BC02811569F08090BD02811449F0AE
:1047B0000E9445088093BC02882D0E944508809382
:1047C000BD028A2D802B811509F442C080916802B8
:1047D000909169020E94590A8BAF9CAF8091B702F9
:1047E000ABADBCAD811509F404C3A135B10580F1B1
:1047F0008F3F19F08F5F8093B702A11459F00E9488
:10480000730891E01A140CF09FEF899F802D1124FA
:104810008093BE02011559F00E94730891E01016B2
:104820000CF09FEF899F802D11248093BF0280910F
:10483000BE02811569F0A090BF02A11449F00E9448
:1048400045088093BE028A2D0E9445088093BF02CE
:104850008091BB02891119C08091BC02811511F0B1
:104860008B1113C02091BD02211511F021130DC031
:104870009091BF02911511F0901307C03091BE02C4
:10488000311103C0822B892B81110E94600986E0BF
:10489000EF2DFE2DAAEBB2E001900D928A95E1F783
:1048A0000E94980890916C02891721F080936C0205
:1048B0000E944D0A80917D02843031F18091D202B4
:1048C000811144CD4091D3025091D4026091D50220
:1048D0007091D6022FB7F89480917E0290917F025A
:1048E000A0918002B09181022FBF841B950BA60B73
:1048F000B70B813A9B4BAD40B10508F425CD0E9422
:10490000C906D092D20220CD83E08093E900809145
:10491000E80082FFD3CF8091E80090E085FF05C0DA
:104920000E94C70B811599F091E08091E8008B7788
:104930008093E800911509F4C1CF8981EFEFE80F6A
:10494000E53170F5F0E0E45EF54D0C94C42800E22A
:1049500010E0F9AEEAAE8091E80085FD0AC08091D2
:10496000E8008B778093E8000E94C70B811599F3CC
:10497000DBCF8091F100E9ADFAAD8193FAAFE9AFF9
:104980000150104041F7D0CF1A828CE08B831AC0BF
:104990008A81833041F138F4813061F08230D1F086
:1049A0008FEF89830FC08430D9F71B821C821D8250
:1049B0001E8208C00E944D0A0E94CA286B837C8315
:1049C0008D839E8340E250E06F2D7E2D82E00E9419
:1049D0001C0D74CF87E290E00E944E291B821C823E
:1049E0001D828E83EFCF8B8190E0FE013496843060
:1049F000910544F7DC01A758BD4F2C9121930196F6
:104A0000F6CF8A81823089F0853051F68091C402D8
:104A100080FF16C08E7F8093C4021092C3020E9452
:104A2000B20680E00E942B07CDCF6B817C818D8107
:104A30009E810E94CA2887E290E00E947229C2CF1C
:104A40000E945216EECF4C816B818A810E94960E95
:104A50009827892798279E838D83B4CF2D813E8107
:104A60003227232732274C816B818A810E94990D3E
:104A7000A9CF0E94F10DA6CF9A81923009F07FC094
:104A8000883009F43FC0893009F466C08B818330D7
:104A9000A9F190F48130C9F0823009F093CF8C8174
:104AA000811125C08091C4028E7F8093C402109230
:104AB000C3020E94B20686CF843009F083CF20E083
:104AC0004091C7026D818C810FC08C81F6E98F9F68
:104AD000C00111246FEF70E00E949C28462F20E057
:104AE0006091C6028091C5020E949D146BCF0E9406
:104AF000521660E08C810E94F41564CF8C81809303
:104B0000C80260CF8B81833019F160F48130A1F04D
:104B1000823009F057CF8091C40280FF7BC0869518
:104B2000869518C0843009F04DCF8091C5028C83E2
:104B30008091C6028D8346CF8091C7022FEF829F5E
:104B4000C001112466E970E00E949C286C833ACF72
:104B50008091C8028C8336CF2091C4023091C50267
:104B60004091C6025091C7026091C8027091C9027B
:104B70008091CA029091CB020E94431423CF9330BC
:104B800009F060C08830B9F1893009F458C08B81D0
:104B9000833051F158F4813091F0823009F012CF16
:104BA0008C8181111AC00E9444070CCF843009F017
:104BB00009CF8C8120E0409174026D810AC04C8144
:104BC00026E9429F412D11248091720220E06091DC
:104BD000730290E00E948407F5CE0E94360760E0E1
:104BE0008C810E945007EECE8C818093750280E00C
:104BF0000E942207E7CE8B818330F1F068F4813088
:104C0000A1F0823009F0DECE80917102982F93706E
:104C1000911185CF80E09ECF843009F0D3CE809172
:104C200072028C838091730285CF809174023FEF72
:104C3000839FC001112486CF809175028BCF0E9483
:104C40004015C0CE9111ACCE8830E9F0893019F111
:104C50008B81813009F0B6CE8C81877090916D0286
:104C6000987F982B90936D024BE4849FC001112490
:104C700095958795959587950E94D7028091D0024A
:104C80000E94E5029FCE8B81813009F09BCE8091FE
:104C90006D0287705FCF40916D0250916E026091FE
:104CA0006F027091700283E190E00E9484298ACEA5
:104CB00080E18A8387CE83E08A8388E367CE0A8196
:104CC0001B811027012710278C814801880E911C19
:104CD0005E0185E0A80EB11C0815190509F472CE15
:104CE00080E0083393E0190728F4C80188539F4FE8
:104CF0000E944E29D5018D935D010F5F1F4FECCFB0
:104D00000A811B8110270127102753018C81430141
:104D1000880E911CA814B90409F454CE0833B3E0EA
:104D20001B0738F4F5016481C80188539F4F0E9426
:104D300072290F5F1F4FFFEFAF1ABF0AEBCF0E9420
:104D40005A0E40CE84E0B5CF0A811B81102701277F
:104D500010278C814801880E911C5E0125E0A20E6F
:104D6000B11C0815190509F42DCE80E00038110595
:104D700020F4C80188960E944E29D5018D935D01CB
:104D80000F5F1F4FEECF0A811B81102701271027CD
:104D900053018C814301880E911C8A149B0409F4F1
:104DA00011CE0038110530F4F5016481C8018896F0
:104DB0000E9472290F5F1F4FFFEFAF1ABF0AEDCF9E
:104DC00041E08C81811101C040E06B818A810E94A9
:104DD000C40E3ECE2D813E8132272327322741E06B
:104DE0008C81811101C040E06B818A810E94BF0DDE
:104DF000E9CD1B9708F0FECC2BCDEFA9F8AD3B9782
:104E000008F0B1CCDECC80914A02811509F442CB86
:104E1000C9BCB9BC09B400FEFDCF8091D8008F7D1C
:104E20008093D8008091E00082608093E0008091C0
:104E3000E00081FDFCCF0E9437112CCB1F921FB6E2
:104E40001F9211248F939F93AF93BF938091480239
:104E5000811113C080917E0290917F02A091800207
:104E6000B09181024196A11DB11D80937E02909365
:104E70007F02A0938002B0938102BF91AF919F9176
:104E80008F911F901FBE1F90189578941F921FB688
:104E90001F9211248F939F93AF93BF9380917E02B3
:104EA00090917F02A0918002B09181020196A11D94
:104EB000B11D80937E0290937F02A0938002B093F5
:104EC0008102BF91AF919F918F911F901FBE1F9044
:104ED00018951F920F920FB60F9211242F933F93A4
:104EE0004F935F936F937F938F939F93AF93BF93F2
:104EF000EF93FF938091E10082FF09C08091E2006F
:104F000082FF05C08091E1008B7F8093E10080915A
:104F1000DA0080FF24C08091D80080FF20C08091FB
:104F2000DA008E7F8093DA008091D90080FFA9C0DB
:104F300080E189BD82E189BD09B400FEFDCF81E039
:104F400080937D0280912102811109C00E94F80B9B
:104F50000E94640C8091E20084608093E200809162
:104F6000E10080FF1AC08091E20080FF16C08091AE
:104F7000E2008E7F8093E2008091E2008061809366
:104F8000E2008091D80080628093D80019BC85E04F
:104F900080937D0283E0809318018091E10084FF7B
:104FA0002FC08091E20084FF2BC080E189BD82E1A7
:104FB00089BD09B400FEFDCF8091D8008F7D80931C
:104FC000D8008091E1008F7E8093E1008091E20023
:104FD0008F7E8093E2008091E20081608093E20006
:104FE00080912002811509F452C084E080937D02F3
:104FF00080917D02843009F052C082E080931801D4
:105000008091E10083FF2CC08091E20083FF28C0E3
:105010008091E100877F8093E10082E080937D02B0
:10502000109220028091E1008E7F8093E1008091B8
:10503000E2008E7F8093E2008091E20080618093A5
:10504000E20042E060E080E00E94340C8091F000D9
:1050500088608093F00081E08093180180931701AD
:10506000FF91EF91BF91AF919F918F917F916F9140
:105070005F914F913F912F910F900FBE0F901F9016
:10508000189519BC10927D021092210268CF809170
:10509000E30087FF02C083E0A9CF81E0A7CF81E0D2
:1050A000ADCF1F920F920FB60F921124EF92FF9285
:1050B0000F931F932F933F934F935F936F937F9320
:1050C0008F939F93AF93BF93CF93EF93FF9309EE8B
:1050D00010E0F8018081C091EC008F70C795CC275B
:1050E000C795C82B108280EFE82EF12CF701808144
:1050F000877F808378940E947E11F8011082F701E7
:10510000808188608083CF70F801C083FF91EF9128
:10511000CF91BF91AF919F918F917F916F915F914F
:105120004F913F912F911F910F91FF90EF900F9012
:105130000FBE0F901F901895AA1BBB1B51E107C013
:10514000AA1FBB1FA617B70710F0A61BB70B881F17
:10515000991F5A95A9F780959095BC01CD010895A6
:1051600097FB072E16F4009407D077FD09D00E9414
:105170009C2807FC05D03EF4909581959F4F08959B
:10518000709561957F4F0895EE0FFF1F0590F49184
:10519000E02D09946927962769277827872778279C
:1051A00008952F923F924F925F926F927F928F92CB
:1051B0009F92AF92BF92CF92DF92EF92FF920F93A6
:1051C0001F93CF93DF93CDB7DEB7CA1BDB0B0FB6B0
:1051D000F894DEBF0FBECDBF09942A88398848886D
:1051E0005F846E847D848C849B84AA84B984C88403
:1051F000DF80EE80FD800C811B81AA81B981CE0FFA
:10520000D11D0FB6F894DEBF0FBECDBFED010895DE
:10521000002E083090F0982F872F762F652F542F6F
:10522000432F322F22270850F4CF220F331F441F61
:10523000551F661F771F881F991F0A95B2F7002D0B
:10524000089597FD1094002E083098F00850232FF1
:10525000342F452F562F672F782F892F912DF4CF7C
:1052600015949795879577956795579547953795B1
:1052700027950A95AAF71124002D0895DC01CB018A
:10528000FC01F999FECF06C0F2BDE1BDF89A319656
:1052900000B40D9241505040B8F70895F999FECFEF
:1052A00092BD81BDF89A992780B50895A6E1B0E036
:1052B00044E050E00C944029A8E1B0E042E050E026
:1052C0000C944029DC01A40FB51F4150504048F018
:1052D000CB01840F951F2E910E947329415050409D
:1052E000D0F70895262FF999FECF92BD81BDF89A87
:1052F000019700B4021639F01FBA20BD0FB6F8941A
:10530000FA9AF99A0FBE08950396272F0E947329DF
:105310000E947229252F0E947329242F0C9473292F
:105320000196272F0E9473290C947229FC01415089
:10533000504030F001900616D1F73197CF01089513
:10534000882799270895FB01DC0104C08D91019005
:10535000801921F441505040C8F7881B990B0895DB
:10536000F894FFCF94099C099F09A509BA09BA09C5
:10537000BA09BA09BA09BA09BA09BA09A809AD0934
:10538000B109B709C809CE09D209601286128C1278
:1053900086128C12DF1201138C12FD130A14D2171D
:1053A000D617C817CE17DA17DE17E2172A193019E1
:1053B000D718331937193A193E19411944194719A1
:1053C0004A194D195019BB18E418EB18F218F918BE
:1053D000001907190E1915191C1923191E1A1E1A5E
:1053E000581A581A0B1B261B851A851A2B1B9A1B39
:1053F000AB1BAB1B291891183118FB17FF17351879
:105400000318391845180F188A181318491817184F
:105410004D1872181B1851187918211857185F1851
:1054200007183D180B18411825185B1869188218C1
:105430008818F5172D189818C424C8240125232589
:105440002E2539253C253C253C25D024D024582622
:105450005B265F2680269F26A226A426C326E0265A
:02546000EA263A
:105462000D0000FF003905015109560D6D0D740D37
:105472007B0D03FFFF0000010000FFC8F1F4F5F609
:10548200346667C64422B684016201AC00DA01F3D5
:1054920001130294309631FF0A0BFF090807060236
:1054A200030405FF0100FF7A406740542D672D85F4
:1054B2002D982D981A7A1A671A541A67077A0704D0
:1054C20004040404040404040404040001020202A7
:1054D20002020200FF0100010000FFFF00000100C4
:1054E20001FF00E200E900EA00B500B600B700CD16
:1054F200008301CC008A019201940121022302243B
:10550200022502260227022A02B300B4006F0070AD
:10551200009F01CB019F02A002E200E900EA00B570
:1055220000B600B700CD008301CC008A019201943D
:10553200012102230224022502260227022A02B3A3
:1055420000B4006F0070009F01CB019F02A0020017
:00000001FF
