:100000000C945E020C9496020C9496020C94960248
:100010000C9496020C9496020C9496020C94960200
:100020000C9496020C9496020C944F280C94372949
:100030000C9404280C9496020C9496020C9496024C
:100040000C9496020C9496020C9496020C949602D0
:100050000C9496020C942B280C9496020C94960205
:100060000C9496020C9496020C9496020C949602B0
:100070000C9496020C9496020C9496020C949602A0
:100080000C9496020C9496020C9496020C94960290
:100090000C9496020C9496020C9496020C94960280
:1000A0000C9496020C9496020C9496020501090297
:1000B000A10185020901A1000509190129081500FE
:1000C0002501950875018102050109300931158165
:1000D000257F95027508810609381581257F9501D0
:1000E00075088106050C0A38021581257F95017572
:1000F000088106C0C005010980A101850319012AF4
:10010000B700150126B700950175108100C0050CD8
:100110000901A101850419012AA002150126A002E6
:10012000950175108100C005010906A1018506052C
:100130000719E029E71500250195087501810205D9
:1001400007190029EF1500250195F07501810205B9
:10015000081901290595057501910295017503910D
:1001600001C00660FF0961A1010962150026FF00B8
:100170009520750881020963150026FF00952075FA
:10018000089102C005010906A101050719E029E748
:1001900015002501950875018102950175088101F9
:1001A0000507190029FF150026FF0095067508812F
:1001B000000508190129051500250195057501910E
:1001C00002950175039101C009025B00030100A0C3
:1001D000320904000001030101000921110100019D
:1001E00022440007058103080001090401000203FD
:1001F00000000009211101000122220007058203ED
:100200002000010705030320000109040200010387
:1002100000000009211101000122B6000705840336
:1002200020000112010002000000084C57E3E60024
:10023000010102000114034D006900630072006FA8
:100240000020005000610064000000180357006F98
:100250000072006B0020004C006F007500640065A8
:10026000007200000004030904000029003E0000A1
:10027000002C0C2B081B08E3006800500A4F0AAE44
:100280000003526A00A80001520100A6000F0801F5
:10029000002C0C4E004B001B085009500A4F0A4F0F
:1002A0000900524E004B0002520100010001000102
:1002B000000100A900AA000100AD00AC00AB00AE37
:1002C0000001526A00A800035201004278010001B7
:1002D00000010001000100010001000100017C019A
:1002E000000252037C007C0052B600B700DC00DB49
:1002F00000010001000100010001000100010001F6
:1003000000010001000100010000010101010101E3
:1003100001010102020202020202020203030303BC
:10032000030303030404040404040405050505058C
:10033000060606060607070707070808080809094A
:1003400009090A0A0A0B0B0B0C0C0C0D0D0D0E0EF5
:100350000E0F0F0F10101111111212131314141588
:100360001516161717181819191A1A1B1B1C1D1DFC
:100370001E1E1F2020212222232424252626272852
:1003800029292A2B2C2D2D2E2F3031323233343582
:10039000363738393A3B3C3D3E3F40414243444585
:1003A000464748494A4C4D4E4F5051535455565864
:1003B000595A5B5D5E5F616264656668696B6C6D0E
:1003C0006F7072737577787A7B7D7E808283858784
:1003D000888A8C8E8F91939596989A9C9EA0A2A3C2
:1003E000A5A7A9ABADAFB1B3B5B7BABCBEC0C2C4C7
:1003F000C6C9CBCDCFD1D4D6D8DBDDDFE2E4E7E987
:10040000EBEEF0F3F5F8FAFDFF64321400000000A3
:1004100000000000000000000000000000000000DC
:1004200000000000000000000000000000000000CC
:100430007E0F00D4FFFFFFC700000078000000001F
:10044000000000002A2B280000000000000000002F
:100450000000000000000029000000002C1E3420D5
:10046000212224342627252E362D3738271E1F20FB
:100470002122232425263333362E37381F04050640
:100480000708090A0B0C0D0E0F1011121314151684
:100490001718191A1B1C1D2F3130232D3504050682
:1004A0000708090A0B0C0D0E0F1011121314151664
:1004B0001718191A1B1C1D2F3130354C11241FBE63
:1004C000CFEFDAE0DEBFCDBF04B603FE18C08091E7
:1004D000090390910A03A0910B03B0910C0387309C
:1004E000904BA740B04B59F41092090310920A03A5
:1004F00010920B0310920C03E0E0F8E3099511E071
:10050000A0E0B1E0EAE2F6E502C005900D92AA3B58
:10051000B107D9F723E0AAEBB1E001C01D92A930E1
:10052000B207E1F70E94F61F0C94942A0C94000085
:10053000529A0895FC01EE0FFF1FE80FF91FEB51CF
:10054000FD4F6183408322830895FF920F931F9391
:10055000CF93DF93182F062FF42EC0E0D0E02F2D7D
:10056000402F612FCE010E949A022196CC30D105F6
:10057000B1F7CDB7DEB7E5E00C94DE29F894E82FAB
:10058000E295EF70F0E041A18F7021E030E0B90119
:1005900002C0660F771F8A95E2F7CB01962F9095E0
:1005A000942391A392A1892B82A37894089590E03B
:1005B00090938B0080938A0090938D0080938C00A1
:1005C00090938900809388000895882369F081FFC3
:1005D0000BC0269A2E9A82FF0CC0279A2F9A83FF6F
:1005E0000DC0259A2D9A089526982E982E9881113F
:1005F000F2CF27982F982F988111F1CF25982D9819
:100600002D9808958093990208950E94E5028093A1
:100610009A02089521E030E001C0220F8A95EAF79E
:1006200080919A02822B0E940503089521E030E018
:10063000A90102C0440F551F8A95E2F7CA018095AF
:1006400090919A0289230E94050308959B01677087
:1006500091E001C0990F6A95EAF763E03695279516
:100660006A95E1F7B901660F771F260F371FFA0168
:10067000E20FF31F40E050E0682F70E08191DF014E
:1006800011979B01042E02C0369527950A94E2F734
:10069000217021952827292328272C934F5F5F4F0E
:1006A0004330510559F708959C01A82FA77083E0A6
:1006B000369527958A95E1F7C901880F991F820F12
:1006C000931FFB01E80FF91F40E050E080E021910B
:1006D00030E00A2E02C0369527950A94E2F7217081
:1006E0003327042E01C0220F0A94EAF7822B4F5FB2
:1006F0005F4F4330510559F70895282F862F9430C6
:1007000068F4243050F434E0939FB0011124620F58
:10071000711D4BE752E00E94260308959C5F9230C2
:10072000E0F7622F70E048E752E0F5CF282F9430D1
:1007300068F4843090F434E0939FC00111246BE797
:1007400072E0820F911D0E94540308959C5F9230C5
:1007500020F468E772E090E0F6CF80E00895909191
:100760009A0221E030E0F90101C0EE0F8A95EAF724
:10077000D90102C0AA0FBB1F6A95E2F7EA2B01C09C
:10078000220F4A95EAF7892F8E23E81305C0892F97
:10079000822B0E94050308952095822F8923F9CF8B
:1007A0008091A5029091A402981301C008958F5FD3
:1007B0008770FACF90919B028095892380939B024A
:1007C000282F277021110DC0891759F09091A2028E
:1007D00092FF07C08695869586950E941603109213
:1007E0009B020895809196029091A302892B5091CB
:1007F00097025523C1F0909117019130A9F490917F
:10080000A10297FF11C09DE126EC31E040E0F90123
:1008100060812F5F3F4F61114F5F9150C0F74111D1
:1008200010929702852B089595E02EEB31E0EECFE4
:10083000982F90958091960289238093960208952F
:10084000803E9105D1F1C8F48133910509F47FC050
:1008500048F48932910509F46FC08A32910509F490
:100860007DC0089589339105E1F082389105C9F082
:100870008533910509F45BC00895843E9105D1F15B
:1008800048F4823E910531F1833E910541F181EEBC
:1008900090E00895863E9105C1F1873E9105E1F112
:1008A00008952091A1022370211165C02091A20218
:1008B00023FF14C089E290E008952091A10220FD59
:1008C00043C03091A20230FF09C024FF4EC080E037
:1008D00090E008952091A10222FDF7CF0895209184
:1008E000A10222FD45C03091A20230FD44C024FF88
:1008F000F5CFEDCF2091A20221FFF0CF8091A10290
:1009000084FDE5CF87EE90E008952091A10223FFBA
:10091000E5CF24FDDCCFF6CF2091A10223FD2EC030
:100920003091A20231FFE3CF84EE90E00895209150
:10093000A10225FFD3CFBECF2091A10225FD21C06A
:100940002091A20223FFCACF89E390E0089520916D
:10095000A10226FFC3CF8AE290E008952091A10270
:1009600026FFBCCF81E390E0089583EE90E00895E8
:1009700082EE90E0089580EE90E0089586EE90E09B
:10098000089585E390E0AACF9091A10292FF10C054
:1009900041E0282F2471243009F040E031E0282F75
:1009A0002871283009F030E0431711F02CE082273D
:1009B00093FF10C041E0282F2471243109F040E05A
:1009C00031E0282F2871283109F030E0431711F069
:1009D0002CE082273091A20230FF10C051E0282F76
:1009E0002171213009F050E041E0282F2871283092
:1009F00009F040E0541711F029E0822731FF10C0C0
:100A000041E0282F2171213109F040E031E0282F09
:100A10002871283109F030E0431711F029E08227CE
:100A200094FD877E08951F93CF93DF930E94200447
:100A3000EC01811522E5920708F053C0811540E5CD
:100A4000940708F0DDC0803E9105F8F48D3C9105D7
:100A500008F0AEC0883A910580F4853A910508F017
:100A600099C08130910521F00497813A910550F4A5
:100A7000CE01DF91CF911F910895885A91094B972C
:100A800008F48BC0C0E0D0E0F3CF811550E49507A7
:100A9000F8F4C11580E2D80708F0CBC0C83ED105F4
:100AA00038F3CE019A9581159F4160F78D2F0E94F2
:100AB000C404182FCE0199270E942004212F30E072
:100AC000322F2227E901CC27DF71C82BD92BD0CFB9
:100AD00099270E942004CC27DF70C82BD92BD06A1D
:100AE000C7CF803842E59407C8F5803652E59507B0
:100AF00008F067C0C03482E5D807B0F08C2F869527
:100B00008695877020E2829FC0011124C37021E086
:100B100030E0A90102C0440F551FCA95E2F7EA016F
:100B2000C82BD92BDC68A4CFC03252E5D50708F01A
:100B300041C08C2F8695869520E2829FC0011124AA
:100B4000C37021E030E0A90102C0440F551FCA95CF
:100B5000E2F7EA01C82BD92BDD688ACF803C52E549
:100B6000950760F48F71C03AD24508F03FC090E01D
:100B7000982F8827EC01C46FD06A7ACF805C9245A9
:100B8000809708F07FCFDC2FCC27CC27DF71C06F98
:100B9000D06A6ECFA497D0646BCFC85AD0E0CC0F88
:100BA000DD1FCD57DE4F0990D881C02DD46460CFB2
:100BB000D0655ECFCF71D0E0DC2FCC27C16FD06A7B
:100BC00057CF86958695877020E2829FC0011124B9
:100BD000C37021E030E0A90102C0440F551FCA953F
:100BE000E2F7EA01C82BD92BDA6842CF0E94C4048D
:100BF000C82FD0E0DC2FCC27CC27DF71D06238CFD4
:100C00008F710E94C40465E0D695C7956A95E1F797
:100C1000CF70D0E0DC2FCC27282F30E084FF05C038
:100C200054E0220F331F5A95E1F7C22BD32BD06922
:100C30001FCF8D2F8F710E94C404182FCE019927CA
:100C40000E942004212F30E0322F222722273F71DB
:100C5000282B392BE901D2CF80E008950895A0E038
:100C6000B0E0E5E3F6E00C94BF29E82FF0E0E75FA1
:100C7000FC4F711109C0E4918E2F7E2F6E2FCDB7DE
:100C8000DEB7E8E00C94DB29262F30E0C72FD0E058
:100C9000F491EF2F86E0829F8001839F100D112435
:100CA000EE24EA94F12CC801B7010E948029AB011F
:100CB000220F331F65E5649FC001659F900D1124CD
:100CC000281B390B822F880F280FC7018C1B9D0B07
:100CD000F89FD001F99FB00D11248B2F2C9FB001EC
:100CE0002D9F700D1124672F77276701C61AD70A29
:100CF000B601F69F6001F79FD00C1124B701621B6B
:100D000071099B012C9FB0012D9F700D3C9F700DB0
:100D10001124672F77279701261B370BF29FE001DD
:100D2000F39FD00D11247D2F43305105C9F00C3FA6
:100D300093E0190758F441305105B1F042305105A4
:100D400009F09CCFEB2F8D2F7F2F98CF443051058A
:100D500071F04630510509F491CF7B2F8D2D8ECF48
:100D60007D2DEB2F8F2F8ACF7F2FED2D87CFED2F6E
:100D70007B2FF8CF80918E02843060F48370846082
:100D800080938E0280919102873918F086E98093D2
:100D9000910208958032B0F383708C61F1CFCF93CC
:100DA000DF9380918E0280FD0CC0C0E0D0E020E097
:100DB00040E060E0CE010E949A022196C830D10541
:100DC000B1F70E943C0DDF91CF91089510928D02F2
:100DD00080910B0281110EC081E080930B02809103
:100DE0008E02982F917090930A028E7F80938E02CC
:100DF0000E94CF060895FF920F931F93CF93DF9326
:100E0000EC01F12C00E010E07091900280919102D1
:100E1000873908F086E96C816F0D0E942F06472FF5
:100E2000282FC8010E949A020F5F1F4F8FE1F80E12
:100E30000830110549F70E94CF069A818C8190FFF6
:100E400007C08F5F8C83CDB7DEB7E5E00C94DE2959
:100E50008150F8CF409105015091060125E038E01E
:100E6000429FC001439F900D529F900D1124875EB9
:100E7000994C9093060180930501890F08959091F4
:100E80001002982B9093100208950E946108089513
:100E9000EBE3F2E0908121E092279083109212011F
:100EA0000E943F07089580913B028370811102C028
:100EB0001092120180913B028C7F816080933B02F3
:100EC000089580913B0283708111109212018091EC
:100ED0003B028C7F80933B020895982F862F2091B0
:100EE0003B022370222389F0992381F0933080F410
:100EF0009F73990F990F20913B022370922B90932F
:100F00003B02109212010E943F07089591E0F1CF39
:100F100092E0EFCF80913B02869586958F5F83307C
:100F200008F081E061E00E946D07089590913B0216
:100F3000969596958FEF890F913009F482E061E0E4
:100F40000E946D070895982F822F20913B022370F5
:100F5000222359F090933C0260933D02473908F0F8
:100F600046E940933E020E943F070895EBE3F2E01A
:100F7000818190E021E04381628108960E94A3076D
:100F80000895EBE3F2E0818121E0438162818850A2
:100F9000990B0E94A3070895EBE3F2E0628120E140
:100FA000620F08F46FEF818121E0438190E00E949D
:100FB000A3070895EBE3F2E0628120E1621B08F4ED
:100FC00060E0818121E0438190E00E94A3070895C1
:100FD000EBE3F2E0438120E1420F08F44FEF81811F
:100FE00021E0628190E00E94A3070895EBE3F2E024
:100FF000438120E1421B08F440E0818121E06281CD
:1010000090E00E94A3070895EBE3F2E0248130E131
:10101000230F08F42FEF248381E00E943F070895F7
:10102000EBE3F2E0248130E1231B08F420E0248389
:1010300081E00E943F07089590E06623E9F08F5C0D
:101040009E4FFC0180818F3FB1F0E82FE295EF7059
:10105000F0E041A18F7021E030E0B90102C0660FDD
:10106000771F8A95E2F7CB01962F9095942391A351
:1010700092A1892B82A30895815D9E4FE2CF90E0DB
:101080006623A9F08F5C9E4FFC0120812F3F91F0D9
:10109000E22FE295EF70E05EF0E0808190E02F704B
:1010A00002C0959587952A95E2F781700895815D34
:1010B0009E4FEACF80E00895519A08950E949A02C7
:1010C00008950E94A5020895282F35EB2303C0013F
:1010D000112497FF04C080589109892F08958058E2
:1010E0009F4FFBCF8091830280FD14C081FD14C00F
:1010F00082FD16C080918202882381F08E3180F4B7
:1011000020E5829FC00111246EE170E00E949429C5
:10111000862F089584E1089588E2089588E008956F
:1011200080E508958091830280FD17C081FD17C07E
:1011300082FD19C080918102882399F0883298F449
:1011400028E0829FC001112468E270E00E94942987
:101150006115710551F0862F089562E0FCCF64E0BF
:10116000FACF61E0F8CF68E0F6CF81E00895E09132
:101170006E02F0916F02309729F00190F081E02D1E
:101180000995089580E00895A3E0B0E0EAECF8E066
:101190000C94C5299C018091FE019091FF0182175A
:1011A0009307A1F03093FF012093FE01E0916E02BE
:1011B000F0916F02309751F083E089833B832A835B
:1011C0000084F185E02DCE01019609952396E2E099
:1011D0000C94E129A3E0B0E0E0EFF8E00C94C5291D
:1011E0009C018091FC019091FD0182179307A1F071
:1011F0003093FD012093FC01E0916E02F0916F02AB
:10120000309751F084E089833B832A830084F18501
:10121000E02DCE01019609952396E2E00C94E12998
:10122000909117019130C1F49091A10297FF14C0E1
:10123000E82FE695E695E695803FF8F4F0E0EC536C
:10124000FE4F877021E030E001C0220F8A95EAF757
:101250008281822B82830895AEEBB1E0EFEF90E0C4
:101260002D91821751F0EF3F19F4211101C0E92FA0
:101270009F5F9630A9F7EF3F09F408950E2E000CFA
:10128000FF0BE454FE4FE6CF909117019130E1F44B
:101290009091A10297FF18C0E82FE695E695E69594
:1012A000803FF0F4F0E0EC53FE4F877021E030E037
:1012B000A90102C0440F551F8A95E2F7CA01809523
:1012C0009281892382830895EEEBF1E09191891355
:1012D00003C0DF0111971C9251E0E43CF507B1F720
:1012E00008958091160108952FB7F89480914802CF
:1012F00090914902A0914A02B0914B022FBF0895EC
:101300000E9474092091860230918702232B2223A8
:1013100021F080933402909335022091880230911D
:101320008902232B222321F08093320290933302EF
:10133000E0916E02F0916F02309749F082E0809365
:1013400084020680F781E02D84E892E009950895F3
:10135000662309F44BC0E3E3E80FE33150F4F0E017
:10136000EA56F54D0C94A8290E9472088195809345
:1013700087020E94800908950E947208F8CF0E9497
:101380007208819580938602F4CF0E947208FACF8A
:101390000E94920880938802ECCF0E949208819567
:1013A000F9CF0E949208819580938902E2CF0E9432
:1013B0009208FACF815D990B21E030E001C0220F45
:1013C0008A95EAF780918502822B80938502D1CF9E
:1013D00080918302816080938302CBCF80918302CE
:1013E0008260F9CF809183028460F5CF40918602BC
:1013F0008D3C59F48091870287FF0DC010928702BF
:10140000442359F41092820208C08E3C81F48091EA
:10141000870218169CF3442381F0809188029091F2
:101420008902892B8111A5CF10928102A2CF8F3C16
:1014300041F447FFF0CF1092860280918702882303
:10144000E0CF803D19F41416B4F3E5CF90918802F3
:10145000893D29F41916FCF610928802DCCF8A3DEA
:1014600019F497FFD8CFF8CF909189028B3D29F4DA
:1014700097FFD1CF10928902CECF8C3D19F4191667
:10148000CCF3C9CF9FE2980F983090F4815D990B0F
:1014900021E030E0B90102C0660F771F8A95E2F7BC
:1014A000CB01809590918502892380938502B3CFEB
:1014B0008D3D31F4809183028E7F80938302ABCF88
:1014C0008E3D21F4809183028D7FF7CF8F3D09F00F
:1014D000A2CF809183028B7FF0CFA4E0B0E0E3E75E
:1014E000FAE00C94C5298FB7F89420914802309106
:1014F000490240914A0250914B0229833A834B831F
:101500005C838FBF69817A818B819C812496E2E024
:101510000C94E1299C014FB7F89480914802909176
:101520004902A0914A02B0914B024FBF821B930B1C
:101530000895A0E0B0E0EFE9FAE00C94BF29182F7D
:101540008091140181133FC020913B02237030E051
:101550004091130150E081E02417350709F480E041
:10156000817080930401809140029091030198174B
:1015700039F08093030140E060E080E00E9445077D
:10158000113019F1123009F45FC01111CFC08091F0
:101590000401882309F4D3C040E060E080E00E94A9
:1015A0004507809102018F5F8093020182E0809362
:1015B000120180910401882309F4C6C0CDB7DEB7BB
:1015C000E8E00C94DB2981E0CBCF80910201C82FA9
:1015D000CC0FC80F03E00C0FC02E0D3010F08CE0C4
:1015E000C82E60913C0270913D0280913E020E94A3
:1015F0002F06F62EE72ED82ED0E0CC15A0F081E0F5
:101600000C3008F080E0909102019F5F90930201FE
:101610008111D4CF82E08093120180910401811165
:10162000CDCF1123C9CFFE01ED5CFE4F80A5909177
:1016300003018923882331F02D2D4E2D6F2DCE01EE
:101640000E945E082196D9CF90910201992391F0D2
:10165000892F880F890F03E0080FC0910001D091F6
:10166000010190E0C817D90750F2802F0D30B8F073
:101670008CE015C080910402909105020E948A0AB4
:1016800040913F0220E431E0241B3109281739073B
:10169000A8F1C0910001D091010103E083E090E046
:1016A000C817D90708F0ABCFFE01ED5CFE4F80A54F
:1016B000909103018923882309F4A1CF0E942A076E
:1016C00081FD30C00E942A07F82E0E942A0720E8D8
:1016D000829FC00111247FE7790F80913E026F2D18
:1016E0000E942F06472F282FCE010E945E088DE012
:1016F00090E0909301018093000181CF0E942A071E
:101700002CE0829FC0011124892F880F880B9093B1
:101710000001809301010E94740990930502809357
:101720000402B7CF80E070E0F12CD9CF80910201A4
:101730008F5F8093020182E0809312013FCF8091FE
:1017400002018F5F8093020183E0F6CFFC019B01D1
:101750008091F2019091F3018617970740F0672B73
:1017600029F48091E8008E778093E800C90140E079
:10177000009741F4411106C08091E80082FF2FC01C
:1017800080E00895209147022223A9F12530A9F194
:101790002091E80023FD2DC02091E80022FDECCF30
:1017A0002091E80020FFE4CF3091F3002091F20077
:1017B000009719F02830310558F041E02830310504
:1017C00009F040E02091E8002E772093E800D0CF88
:1017D00041914093F10001972F5F3F4FE9CF8091F6
:1017E0004702882341F0853041F08091E80083FF73
:1017F000C3CF81E0089582E0089583E00895809149
:10180000EC0187FF13C08091E80082FF06C0809141
:10181000E8008B778093E80004C080914702811133
:10182000F2CF0895809147028823D9F38091E80090
:1018300080FFF8CF8091E8008E77ECCF2091E40014
:101840003091E50095E6A9018091EC008170882334
:1018500031F08091E80080FF06C080E0089520917B
:10186000E80022FD1BC080914702882391F085305B
:1018700091F08091EB0085FD10C02091E400309143
:10188000E5004217530701F391509111DCCF84E03A
:10189000089582E0089583E0089581E00895E8EDD9
:1018A000F0E080818E7F80831092E2001092DA0057
:1018B0001092E100A0EEB0E08C9181608C93808169
:1018C0008F77808319BCA7EDB0E08C918E7F8C93CD
:1018D00080818F7E80831092EB0108959FB7F894EA
:1018E00025EE32E0F9012F5F3F4F408158E06BB9A0
:1018F000000000C047FF8BB9440F000000C000C0CB
:1019000000C08BB900C05A9591F743E029303407E5
:1019100049F79FBF0895982FE42FE2709093E90054
:10192000891308C0762F242F50E0E11111C091E0F7
:10193000980FF4CF7091EC002091ED005091F000E1
:1019400021FD06C09F5F973049F78093E900089515
:101950003091EB003E7F3093EB003091ED003D7F06
:101960003093ED003091EB0031603093EB007093D9
:10197000EC002093ED005093F0002091EE0027FD45
:10198000E1CF0895A0E0B0E0E8ECFCE00C94BF29C2
:10199000C8EDD0E088818F7E8883E7EDF0E080811C
:1019A0008160808384E082BF81E08093EB01888145
:1019B0008E7F888302EE10E0F80110821092DA0028
:1019C00081EEC82ED12CF601108288818F77888312
:1019D00088818068888388818F7D888319BC109274
:1019E00047021092EA01109214021092E90190EE5F
:1019F000E92EF12CF70180818B7F808388818160C3
:101A0000888342E060E080E00E948B0CF6018081D8
:101A10008E7F8083F80180818160808380818860EF
:101A20008083F70180818E7F8083888180618883B5
:101A3000CDB7DEB7E8E00C94DB29E091A5029091E8
:101A4000A40227E0E91302C080E00895AE2FB0E0C1
:101A50002E9FF0011124EA55FD4F3181361306C047
:101A60003081381303C03581341304C0FD01319631
:101A7000E770E8CF81E008958BB16BB164608B7F34
:101A80000E946E0C8FE594E00197F1F700C0000012
:101A900008958BB16BB162608D7F0E946E0C8FE5F3
:101AA00094E00197F1F700C00000089581E0809371
:101AB000E00080E28093D8001092C9008FE19EE49C
:101AC0000197F1F700C0000087E090EBDC01809304
:101AD000090390930A03A0930B03B0930C0388E1CE
:101AE0009CE00FB6F894A895809360000FBE909389
:101AF0006000FFCF0F931F93CF93DF93EB018A0119
:101B000090914702943079F58093E9008FEF90919E
:101B1000E80095FD07C095ED9A95F1F7000081501A
:101B20008111F5CF8091E80085FF1DC00E941E0C39
:101B3000811114C08091E80085FD06C08091E80005
:101B40008E778093E800F2CF88818093F100015076
:101B500011090115110511F02196ECCF8091E800D3
:101B60008E778093E800DF91CF911F910F910895B8
:101B7000CF93DF93D82FC92F48E050E0682F792FFB
:101B800081E00E947A0D88E0ED2FFC2FA4EFB1E0F8
:101B900001900D928A95E1F7DF91CF910895BC01F4
:101BA00040E250E084E00E947A0D0895BC0146E0D6
:101BB00050E084E00E947A0D0895BC0143E050E0BB
:101BC00084E00E947A0D08959091A20292FB222750
:101BD00020F9281779F080FB92F99093A202609186
:101BE000A1027091A20284E090E00E94742A82E037
:101BF0000E94DA0308951F93CF93DF93C62F122F0D
:101C0000632F9C2F942B982B9430C0F428E0C29F14
:101C1000E001112450E0440F551FC40FD51F20E2EE
:101C2000829FC0011124C80FD91FCE0188960E943F
:101C3000562A612FCE0189960E94562ADF91CF91B4
:101C40001F9108951F93CF93DF93962F122F632F29
:101C50008430D0F49230C0F428E0829FE001112457
:101C600024E0929FC0011124C80FD91FC855DF4F2F
:101C7000CE01442369F00E94562A81E090E0612F52
:101C80008C0F9D1F0E94562ADF91CF911F910895BE
:101C900002960E94562A83E090E0F1CF8F929F92A5
:101CA000BF92CF92DF92EF92FF920F931F93CF9349
:101CB000DF9309EE12E0E12CF12CC0E04701D0E007
:101CC00015C0F601259134914B2D6D2F8C2F0E945C
:101CD000FB0D22E0C20ED11CB39434E0B312F1CF5D
:101CE00084E0880E911CDF5FD43049F0C401880F76
:101CF000991F9C0127593D4F6901B12CE2CFF80192
:101D00002591349141E060E08C2F0E94220EF80171
:101D100032962591349140E060E08C2F0E94220E93
:101D2000F80134962591349141E061E08C2F0E94B6
:101D3000220EF80136962591349140E061E08C2F17
:101D40000E94220E085F1F4FCF5F30E1E30EF11CAF
:101D5000C43009F0B3CFDF91CF911F910F91FF9065
:101D6000EF90DF90CF90BF909F908F900895CF938A
:101D7000DF93C8ECD0E060E0CE010E94562A2196A5
:101D8000C11584E0D807B9F7DF91CF910895882372
:101D900081F064E284E290E00E94562A62E185E2EA
:101DA00090E00E94562A61E286E290E00E94562A64
:101DB00008956FEF84E290E00E94562A6FEF85E26B
:101DC00090E00E94562A6FEFEFCF80E00E94C70E8E
:101DD00060E087E290E00E94562A0E944E0E0E9428
:101DE000B70E81E00E94C70E08950F931F93CF9303
:101DF000DF93962F942B982B943018F528E0629F50
:101E0000E001112450E0440F551FC40FD51F30E2EC
:101E1000839FC0011124C80FD91FCE0188960E944C
:101E2000322A082F10E0102F0027CE0189960E9439
:101E3000322A9801282BC901DF91CF911F910F9170
:101E4000089580E090E0F8CF0F931F93CF93DF9336
:101E5000843078F5623068F528E0829F8001112493
:101E600034E0639FB0011124060F171F08551F4F60
:101E7000C8014423A1F00E94322AC82FD0E0DC2FF1
:101E8000CC2781E090E0800F911F0E94322A9E01B2
:101E9000282BC901DF91CF911F910F9108950296D0
:101EA0000E94322AC82FD0E0DC2FCC2783E090E0BC
:101EB000EACF80E090E0EECF743048F4982F962B74
:101EC000943060F4462F672F0E94F50E08957D3FF1
:101ED00041F4623018F441E0843050F080E090E04A
:101EE00008957C3FD9F76230C8F78430B8F740E0F6
:101EF0000E94240F0895A0E0B0E0E1E8FFE00C9418
:101F0000C0297C0100919A0280919902082BC3E0BC
:101F1000D0E010E0C8010C2E02C0959587950A9478
:101F2000E2F780FD09C02197A8F7D12C8D2DCDB700
:101F3000DEB7E7E00C94DC29DC2EB7018C2F0E9481
:101F40005C0F0E941305019771F3F0CF0F931F935D
:101F5000CF93FC01858100811181882391F0662354
:101F600081F0C8010E947B0FC82F682FC8010E9412
:101F70007D03B8018C2F0E945C0FCF911F910F91B0
:101F80000895C8010E949603C82FF3CFCF93DF9323
:101F9000D82FC92F0E947B0F6D2F7C2F0E945C0FC2
:101FA0000E941305DF91CF910895FC01848188235D
:101FB000A1F0808191810E94C60F282F92959F7079
:101FC000963091F060F4925F9F70923030F481E02F
:101FD000203F79F030F4283E30F080E004C09A5F72
:101FE000F3CF243FD1F7089581E0283E18F0213F38
:101FF000F9CF0895089584E290E00E94322A843255
:1020000089F485E290E00E94322A823159F486E216
:1020100090E00E94322A91E0813209F090E0892F0D
:102020008170089580E0FCCF80911701813059F5CF
:102030008091A10287FF27C00E94F2038093C5010F
:1020400040E250E06EE472E084EC91E00E94872A66
:10205000892BC1F080E2E4ECF1E0AEE4B2E0019063
:102060000D928A95E1F7E0916E02F0916F02309740
:1020700049F086E08093C4010480F581E02D84EC72
:1020800091E0099508950E94F2038093BC0148E015
:1020900050E060E772E08CEB91E00E94872A892B88
:1020A00089F388E0ECEBF1E0A0E7B2E001900D925B
:1020B0008A95E1F7E0916E02F0916F02309711F38B
:1020C0000280F381E02D8CEB91E0DBCFCF93C82F22
:1020D0008823B1F18CEF8C0F813AA0F58091170124
:1020E000813001F58091A10287FF1CC0EC2FE6959D
:1020F000E695E695F0E0EC53FE4F828190E04C2FA0
:10210000477021E030E002C0220F331F4A95E2F70A
:1021100082239323892B79F08C2F0E9444090E94FB
:10212000141009C0EEEBF1E08191C817A9F321E08A
:10213000E43CF207C9F78C2F0E9410090E9414108A
:10214000CF91089580E28C0F883068F4C77081E0E9
:1021500090E001C0880FCA95EAF7C0919602C82B9B
:10216000C0939602EBCF8BE58C0F833038F42C2F85
:102170002452330BC9010E94C408E2CFE8E5EC0FFA
:10218000EB3150F4F0E0EE0FFF1FED57FE4F808172
:1021900091810E94EA08D4CF83E38C0F833180F6CB
:1021A00061E08C2F0E94A809CBCF882381F19CEF9E
:1021B000980F913A28F40E9444090E94141008953F
:1021C00090E2980F983050F4877091E001C0990F19
:1021D0008A95EAF7892F0E941804EFCF9BE5980FA4
:1021E000933028F480E090E00E94C408089598E5B8
:1021F000980F9B3128F480E090E00E94EA0808954F
:1022000093E3980F933118F460E00E94A8090895B1
:102210001F93CF93DF93182FEB010E946610209736
:1022200039F4812F0E94D510DF91CF911F9108952D
:102230008FE99FE00197F1F700C000002197EFCFF1
:10224000882339F090919602892B809396020E9400
:1022500014100895882321F00E9418040E9414107D
:1022600008950F931F93CF93DF93C62FD42F122F70
:102270008823A9F060938A020E9474099093E80170
:102280008093E701C77081E001C0880FCA95EAF723
:102290000E942011DF91CF911F910F91089580919D
:1022A0008A02681336C08091E7019091E8010E948C
:1022B0008A0A883C910568F5CD130EC060E070E095
:1022C000812F0E940811D77081E001C0880FDA9534
:1022D000EAF70E942A11DECFC77001E0802F01C00B
:1022E000880FCA95EAF70E942A1180E28D0F883084
:1022F00050F48D2F877001C0000F8A95EAF7802F68
:102300000E942011DBCF60E070E0812F0E94081155
:10231000C1CFC77081E001C0880FCA95EAF7D9CF55
:102320001092960280911701813039F58091A102B7
:1023300087FF23C0E6ECF1E08EE1DF011D928A9574
:10234000E9F780E090E00E94C40880E090E00E94FD
:10235000EA081092A3020E94141086E0E4E8F2E07A
:10236000DF011D928A95E9F7109282021092810294
:10237000109283020E9480090895EEEBF1E086E05E
:10238000DCCF0E9490112FEF84E39CE0215080402D
:102390009040E1F700C0000088E19CE00FB6F8949F
:1023A000A895809360000FBE90936000FFCFAAE2D3
:1023B000B0E0EDEDF1E10C94C4298CEE91E0FC016C
:1023C00001962091F100208321E0843F9207B9F724
:1023D0008091ED01893009F45AC0C8F4823009F4C3
:1023E000B7C0833009F486C0813091F18091E80054
:1023F00083FFEBC08091EC019091ED019A3008F0E1
:10240000E4C0E92FF0E0E755F54D0C94A8298A3097
:1024100009F48DC08B3051F78091EC01813231F796
:102420008091F0019091F101892B01F78091E800F2
:10243000877F8093E8000E94FF0B81E09091EE017E
:10244000911101C080E0809317010E949011CECFBE
:102450008091EC01813A51F68091E800877F80936A
:10246000E8008091F0019091F101892B61F060E02A
:1024700080E090E070E00E94A60B8091E8008B77EE
:102480008093E800B3CF68E084EF91E0F3CF8091D0
:10249000EC01813209F0AACF8091F0019091F10115
:1024A0008D7F892B09F0A2CF8091E800877F8093F0
:1024B000E8008091E80082FF18C09091F3008091BD
:1024C000F200029731F48091F100813011F08630F2
:1024D00021F48091F100809316018091E8008B77C0
:1024E0008093E8000E94FF0B81CF80914702811109
:1024F000E0CF7CCF8091EC01813A09F077CF8091D9
:10250000F0019091F101892B09F070CF8091E800E2
:10251000877F8093E8008091E80080FFFCCF809166
:1025200017018093F1008091E8008E77D9CF8091D8
:10253000EC01813209F05ACF8091E800877F8093C7
:10254000E8000E94FF0B8091EF01809315014ECFB0
:102550008091EC01813A09F049CF8091E800877FB2
:102560008093E8008091E80080FFFCCF8091150106
:10257000D8CF803889F0823841F58091F0018F7092
:10258000873018F58093E9008091EB0085FB882760
:1025900080F91092E90006C08091E901909114023F
:1025A000911182609091E800977F9093E80080936A
:1025B000F1001092F1008091E8008E7723C0811124
:1025C00016C08091EE01813011F18091E80083FF07
:1025D0000AC08091E800877F8093E8008091EB003B
:1025E00080628093EB00AA96E3E00C94E0298230AD
:1025F00061F78091EE01882389F01092E9008091C3
:10260000E800877F8093E8000E94FF0BDECF81E027
:10261000933009F080E080931402EFCF8091F001B5
:102620008F702FEF280F263080F68093E9002091DD
:10263000EB0020FFE2CF933031F48091EB00806219
:102640008093EB00DACF9091EB0090619093EB00D8
:1026500021E030E0A90102C0440F551F8A95E2F73E
:102660004093EA001092EA008091EB008860E8CF86
:102670008111ABCF1091EE011F778091E30080783C
:10268000812B8093E3008091E800877F8093E800AE
:102690000E94FF0B8091E80080FFFCCF8091E30057
:1026A00080688093E30083E0111101C082E0809391
:1026B00047028BCF8058823008F087CF4091EE01DF
:1026C0005091EF014C3D83E0580799F583E08A83F0
:1026D0008AE289834FB7F894DE01139620E03EE04A
:1026E00051E2E32FF0E050935700849120FF03C0A4
:1026F00082958F703F5F8F708A30C8F0895C90E060
:102700008D939D932F5F243161F74FBF8091E80037
:10271000877F8093E8006AE270E0CE0101960E9414
:10272000A60B8091E8008B778093E8004ECF805D08
:10273000E6CF8091F0019091F101252F33272330CE
:10274000310509F44AC078F52130310509F479C022
:102750008BE590E0E8ECF1E02230310509F035CF6F
:102760002091E800277F2093E8002091F20130912A
:10277000F3018217930708F49C0140E0211531050D
:1027800009F064C0411162C08091E80082FDC9CFA8
:1027900080914702882329F2853019F28091E80060
:1027A00083FFF2CFBECF2132310509F43BC0223284
:1027B000310509F00ACF8330910508F006CFFC01FE
:1027C000EE0FFF1FED5DFE4F0190F081E02D805E6A
:1027D0009E4FDC018C9190E011C0CA0199274130D5
:1027E00089F082309105B1F0892B09F0EECEE5E653
:1027F000F2E0E4918E2F90E0E5E6F2E0009709F434
:10280000E4CEAECFEBE4F2E0E4918E2F90E0EBE487
:10281000F2E0F4CFE5E3F2E0E4918E2F90E0E5E31F
:10282000F2E0ECCF8330910508F0CFCEFC01EE0F43
:10283000FF1FE75DFE4F0190F081E02D89E090E001
:102840008FCF82E190E0E3E2F2E08ACF809147020D
:10285000882309F466CF853009F463CF8091E800BE
:1028600083FD5FCF8091E80082FD8ECF8091E800EC
:1028700080FF84CF9091F3008091F2002115310503
:1028800019F08830910550F041E0089709F040E0D8
:102890008091E8008E778093E80070CF4491409358
:1028A000F1003196215031090196E8CF803809F0C6
:1028B0008CCE8091E800877F8093E8008091EA01C8
:1028C0008093F10078CE811180CE1091EE0112300C
:1028D00008F07BCE8091E800877F8093E80010931A
:1028E000EA010E94FF0B1123F9F084E08093470274
:1028F00042E061EC81E00E948B0C42E261EC84E0FA
:102900000E948B0C42E261EC82E00E948B0C42E25E
:1029100060EC83E00E948B0C80914702843051F47C
:1029200082E08093180151CE8091E30087FDDDCFD6
:1029300081E0DCCF81E0F5CFA0E0B0E0E2EAF4E1B5
:102940000C94BF298901D42FC52F6B017C010E94F3
:10295000BA06A8016D2F7C2F88E090E00E94682ABB
:1029600098014D2F5C2FB601C70100E20E94072A93
:10297000622F83E290E00E94562ACDB7DEB7E8E0EE
:102980000C94DB2980919202833018F48F5F80933E
:10299000920220918E0230918F02409190025091CC
:1029A00091026091920270919302809194029091B1
:1029B00095020E949C14089580919202882319F038
:1029C00081508093920220918E0230918F0240912B
:1029D00090025091910260919202709193028091C5
:1029E0009402909195020E949C140895A0E0B0E09A
:1029F000ECEFF4E10C94BE29D82F162FC42F022F30
:102A000080918E0280FF43C0E82FE695E695F0E0C6
:102A1000E959FE4F908190938C028C7F8430E1F5D0
:102A2000842F473908F086E96D2F712F0E942F06F9
:102A3000D62EC72EB82E80918E0280FF11C0E12CB9
:102A4000F12C2B2D4C2D6D2DC7010E949A028FEF7A
:102A5000E81AF80A88E0E816F10499F70E94CF0610
:102A6000D0938F0210939002C0939102002379F0CB
:102A700020918E0260919202709193023D2F412F1E
:102A80005C2F80919402909195020E949C14CDB786
:102A9000DEB7E9E00C94DA29923011F7D0918F0279
:102AA000DFCFEEE8F2E0818121E043816281885F3F
:102AB0000E94F6140895EEE8F2E0818121E043815E
:102AC000628188500E94F6140895EEE8F2E0628177
:102AD00028E0620F08F46FEF21E0438181810E94BA
:102AE000F6140895EEE8F2E0628128E0621B08F433
:102AF00060E021E0438181810E94F6140895EEE8B0
:102B0000F2E0438128E0420F08F44FEF21E06281B8
:102B100081810E94F6140895EEE8F2E0438128E0F6
:102B2000421B08F440E021E0628181810E94F6149A
:102B3000089548E050E067E170E08BE392E00E9486
:102B4000462A109210020895CF930E946D0A609356
:102B5000000270930102809302029093030280911D
:102B60001302882301F1C0E080911201823009F440
:102B70004FC008F03EC0811140C010920201809108
:102B8000000290910102A0910202B0910302809391
:102B9000060290930702A0930802B093090281E015
:102BA0008093120128C040912E0250912F02609113
:102BB0003002709131022FB7F894809148029091C1
:102BC0004902A0914A02B0914B022FBF841B950B82
:102BD000A60BB70B81369A4EA105B10520F6C09120
:102BE0003B028C2F8370882309F4BDCFC695C69510
:102BF000BBCF8330C1F0CF9108958C2F0E94990AEA
:102C0000CC23C9F340E060E080E00E944507F3CFA9
:102C1000C093140180913B028370809313010E9442
:102C2000490D83E0BDCF8091100281110E9499155A
:102C300040910602509107026091080270910902CA
:102C40002FB7F8948091480290914902A0914A02CE
:102C5000B0914B022FBF841B950BA60BB70B40976F
:102C6000A105B10540F210921201C5CF60918E020C
:102C70006695669570E041E050E087E091E00E9443
:102C80007A2A892B19F481E080938D020E947409BD
:102C900090931B0280931A02089590918E0290FFE8
:102CA0003BC08823D1F18830D0F58F73282F220FB5
:102CB000220F80918E028370282B20938E02662330
:102CC00081F030918F024091900250919102609179
:102CD00092027091930280919402909195020E94C9
:102CE0009C1460918E026695669570E041E050E01C
:102CF00087E091E00E947A2A892B99F010928D0248
:102D000081E080931D0220E0409191026091900249
:102D100080918F020E94F614089581E0C7CF87E06A
:102D2000C5CF0E943616ECCF80918E02869586958F
:102D30008F5F883008F081E061E00E944D160895B1
:102D400090918E02969596958FEF890F913009F4A8
:102D500087E061E00E944D160895EEE8F2E0808180
:102D60008160808360E0869586950E944D16089567
:102D700010920B0280910A0281110E94AD160E94EE
:102D800036160895A8E0B0E0E8ECF6E10C94B82916
:102D90007C01DC0114968C91882309F4B3C061E0B6
:102DA000C7010E94A60F8C01F7018581882309F4D1
:102DB000F8C5980137572038310508F0FDC50031B6
:102DC00008F08FC08FEF93E00E94322A811189C0F2
:102DD00028ECC22ED12C011153C01A821982FE0197
:102DE000339686E0DF011D928A95E9F75601BFEF21
:102DF000AB1ABB0AC6010E94322A89831A82882331
:102E000009F46FC0813009F081C086010E5F1F4F49
:102E1000C5010E94322A8A83882309F462C09FEF89
:102E2000980F9330E0F5E3E0CE0ED11CC8010E946C
:102E3000322A8B83882309F454C01C828E010F5FD1
:102E40001F4FD8018C91882389F2813009F0A1C0ED
:102E500011968C911197813009F05AC05801B2E057
:102E6000AB0EB11CF801828160E070E0893311F48F
:102E700060E570E00E94081185010F5F1F4FE1CFF0
:102E8000C114F4E0DF0669F1C6010E94322A9601FE
:102E90002F5F3F4F69018111F3CF01509CCF8430E8
:102EA000B9F492E0C92ED12CC8010F5F1F4F0E94C8
:102EB000322AE1E0F0E0EC0FFD1FEC0DFD1D8083F8
:102EC000882379F08C3731F4FE01EC0DFD1D128260
:102ED0006801B4CFFFEFCF1ADF0A27E0C216D10492
:102EE00019F780919B028770882361F0D7011596AE
:102EF0008C91882339F08091A20282FF03C082E086
:102F00000E94DA032896EFE00C94D429650196CF4D
:102F1000823049F45801F2E0AF0EB11C12968C9148
:102F20000E946610A9CF833049F45801B2E0AB0E7D
:102F3000B11CF80182810E94D5109ECF843019F017
:102F40000F5F1F4F9ACF12962C910E5F1F4F80E09C
:102F500090E06AE0A8014F5F5F4F2053330B2A30A7
:102F6000310558F0009709F488CFAFE9BFE0119719
:102F7000F1F700C000000197F5CF689FF001699F4D
:102F8000F00D1124C9018E0F9F1FF80121818A01C4
:102F9000E1CFE82FF0E0E45CFB4F6490282F26950A
:102FA0002695269530E0F901E45DFB4FA4908770EB
:102FB000782EB12C082E02C0B594A7940A94E2F79B
:102FC000B1E0AB22BB24F901E45EFB4F8490912C6D
:102FD00002C0959487948A95E2F7E1E08E229924C5
:102FE000F901E45FFB4F5490A114B104C1F48114C2
:102FF000910421F560E070E0862D0E940811E52D16
:10300000F0E0072C02C0F595E7950A94E2F7E0FF9F
:1030100034CF60E070E08CE20E9408112ECF81EE88
:103020000E9466108114910449F460E070E0862DDE
:103030000E94081181EE0E94D510E1CF86EE0E9419
:10304000661060E070E0862D0E94081186EE0E94F6
:10305000D510AB28A1F2EECF26E241EE61EE0E9440
:1030600031113FCF27E245EE65EEF9CF26E241EE82
:1030700060EEF5CF27E245EE64EEF1CF26E241EEB9
:1030800062EEEDCF27E245EE66EEE9CF28E241E0C1
:10309000EBCF0631FCE71F0709F059C180918B0285
:1030A0008111D8C089E20E944409CFC08091A10259
:1030B00081608093A1026091A1027091A20284E0DC
:1030C00090E00E94742A0E9490110BCF8091A2027E
:1030D00088608093A202EFCF8091A1028260E9CF45
:1030E0008091A1028460E5CF8091A1028860E1CF48
:1030F0008091A2028160EDCF8091A2028260E9CF2F
:103100008091A1028061D5CF8091A1028062D1CF50
:103110008091A1028064CDCF0E9490118091A10284
:103120008068C7CF8091A1028C60C3CF8091A2023A
:103130008360CFCF8091A1028E7FBBCF8091A2020E
:10314000877FC7CF8091A1028D7FB3CF8091A102ED
:103150008B7FAFCF8091A102877FABCF8091A202FE
:103160008E7FB7CF8091A2028D7FB3CF8091A102D5
:103170008F7E9FCF8091A1028F7D9BCF8091A102F6
:103180008F7B97CF0E9490118091A1028F7791CF72
:103190008091A102837F8DCF8091A2028C7F99CFF5
:1031A0008091A10282FB992790F921E0922790FB60
:1031B00082F990FB83F97DCF8091A202982F9095A0
:1031C00091708E7F892B90FB81F983CF9091A10222
:1031D000892F8F7B96FF80646CCF0E949011909115
:1031E000A102892F97FB87F9805863CF61E08EE0B9
:1031F00090E00E94562A5FCF60E0F9CF9091A10243
:10320000892F8F7E94FF806154CF9091A102892FE6
:103210008E7F90FF81604DCF9091A202892F877F92
:1032200093FF886056CF8091960206312CE71207F3
:1032300099F48A7A91E0811101C090E090938B0219
:10324000882331F085E30E9410090E94141049CEB2
:1032500089E2F9CF85E327CF8272F801E052F8477F
:10326000EB30F10508F0ACC0ED54F54D0C94A829F5
:1032700080918E0280FF1CC0282F2E7F20938E020B
:1032800030918F0240919002509191026091920290
:103290007091930280919402909195020E949C14E7
:1032A00010928D020E94CF0681E00E94480719CE3D
:1032B000816080938E0261E0869586950E944D160E
:1032C000F3CF882339F00E94A0160E94960709CEFA
:1032D0008823C9F30E9494160E948A0702CE88238D
:1032E00039F00E945B150E94C107FBCD8823C9F30A
:1032F0000E9451150E94B607F4CD882339F00E9430
:1033000072150E94DA07EDCD8823C9F30E94651576
:103310000E94CC07E6CD882339F00E948C150E94CC
:10332000F607DFCD8823C9F30E947F150E94E807C6
:10333000D8CD882339F00E94DC140E941008D1CD2A
:103340008823C9F30E94C2140E940408CACD809148
:1033500096028272F801E054F847ED30F10508F06A
:10336000A6C0E254F54D0C94A8290E94530781E0B1
:103370000E943F07B6CD0E946107F9CF882309F468
:10338000ABCFA3CF8111A8CFA0CF882309F4B2CFB0
:10339000AACF8111AFCFA7CF882309F4B9CFB1CF7E
:1033A0008111B6CFAECF882309F4C0CFB8CF811139
:1033B000BDCFB5CF882341F2C0CF8111C5CFBDCFDE
:1033C00007373CE7130709F494C008378CE7180760
:1033D00009F49CC0C801805E92458097B0F00A3520
:1033E000FCE71F0709F4BCC008F092C001303CE7BD
:1033F000130709F4B3C003308CE7180709F4A8C019
:1034000001159CE7190709F496C0F7018581C08072
:10341000D180882309F4A8C0C6010E947B0F182F11
:10342000682FC6010E947D03B601812F0E945C0FA8
:103430000E941305C82E192FD7011596BC90159719
:103440001696AC90A2948FE0A82280919B02877080
:10345000882309F1DB2CBB20F9F0892F807F803491
:1034600069F080E28C0D8830B0F0892F807E803248
:1034700029F4B1E0BC1578F4AA2069F08091A20289
:1034800082FF09C082E00E94DA0380919B0287706C
:10349000DD24D3948111D12CE12FE295EF70103C03
:1034A00008F0CBC0F0E0E553F54D0C94A8290737A0
:1034B0009CE7190739F182E00837ACE71A0719F1E0
:1034C000C801805E9245809708F09FCF0F7181E020
:1034D00090E0FC0102C0EE0FFF1F0A95E2F78F019A
:1034E0006E2F83E090E00E94562A802F0E940203F4
:1034F000F8CC81E00E940A0343E062E081E00E9490
:10350000AF03EFCC81E00E941603F6CF82E0F2CF4A
:103510000B35ACE71A0731F10C35BCE71B0709F096
:1035200074CF8091A20282FB882780F991E08927DD
:103530000E94E40D6ACF0E949011EFEFF4E32CE0BB
:10354000E150F0402040E1F700C000000E94560D1D
:103550006FEF7FEF80E090E00E94742A0E94C1111B
:1035600081E0E6CF80E0E4CFC6010E949603182FE9
:103570005BCF012F0F70103110F00295007FBB2040
:10358000B9F0002369F080E28C0D883010F0C11092
:1035900009C080919602802B809396020E9414109D
:1035A0008C2D43C08091A302802B8093A302F6CF81
:1035B0008C2D0E94D510002309F43FC080E28C0DB1
:1035C000883010F0C11004C0802F0E94180406C07B
:1035D00000958091A30280238093A3020E9414107F
:1035E0002CC0012F0F70107F103211F00295007F58
:1035F000CC2059F0E1E0CE1609F486C0BB2009F4D6
:1036000092C0AA2009F452C0CBCF8091A20282FDC1
:1036100049C0BB2069F0002339F080919602802BCD
:10362000809396020E94141080E00E94661005C0EC
:1036300080E00E94D5100111C7CFDD20B1F080914C
:103640009B0280FD12C0D70115961C928695869527
:1036500086950E940A03C7010E94C21680919B02B0
:103660008695869586950E94160360E0C7010E94A4
:10367000A60FF7018581882309F444CC0E946D0AC6
:1036800060939D0270939E0280939F029093A0028C
:1036900080919C02882309F435CC10929C020E94F0
:1036A000B81630CCBB20A1F0A11004C0802F0E941E
:1036B0002011C3CFF1E0AF12C0CF80919702902FBD
:1036C0009823091709F4B9CF802B80939702B5CFBF
:1036D000A110B3CF802F0E942A1190919702802FC2
:1036E0008923882329F0802F80958923809397024E
:1036F00080919802902F9823992309F49ECF0095EA
:1037000008230093980299CFBB2029F025E02A15C1
:1037100008F493CFCBCF34E03A1508F48ECF802F46
:103720000E942A118ACFAA20D1F389E3C81209C0C6
:103730009FEFA7EEB3E09150A040B040E1F700C08A
:1037400000008C2D0E94D51078CF812F869586950C
:103750008370882369F0813009F06FCF8C2D912F11
:103760009370B11002C080E090E00E94EA0865CF3B
:103770008C2D912F9370B11002C080E090E00E94D8
:10378000C4085BCF6B2D8C2D0E94A80956CF812FCA
:103790008370811137C0B1102AC04C2D42954695D7
:1037A0004770440F440F2C2D2F70042E01C0220FA0
:1037B0000A94EAF79C2D9071992341F08FE090E0F4
:1037C00001C0880F4A95EAF7982F9095169516959F
:1037D0001370123091F0892F822B133031F08091C9
:1037E0009902113039F0292B82230E9402030E9492
:1037F000B70823CF822B892BF8CF292B80919902F0
:103800008227F3CFBB2069F110FFF1CF4C2D4295F9
:1038100046954770440F440F2C2D2F70042E01C085
:10382000220F0A94EAF79C2D9071992341F08FE0C2
:1038300090E001C0880F4A95EAF7982F9095169569
:1038400016951370123099F0892F822B133031F0B6
:1038500080919A02113041F0292B82230E940503A6
:10386000C6CF823020F2D2CF822B892BF7CF292BE3
:1038700080919A028227F2CF1F70BB2039F0812FEE
:103880000E940A038C2D0E942011B1CF8C2D0E9422
:103890002A11812F0E941603AACFE2EFCE16A9F1BA
:1038A000EC1588F0F0EFCF16D9F021EFC21609F42D
:1038B00043C0BB2009F462C0AA2009F45CC08C2D6F
:1038C0000E94661094CF33EFC31631F184EFC8160F
:1038D00079F1B110F1CFA11060C0812F8F71DACFD3
:1038E000BB2081F094E09A1508F481CF1F7181E02C
:1038F00090E0012E01C0880F0A94EAF790919A0295
:103900008927ACCFA5E0AA16EFCF812F8F71B11018
:10391000C1CF0E940A036BCF80E0BB2009F49ECF89
:103920001F7181E0012E01C0880F0A94EAF796CF3B
:103930009091A20292FD06C0812F8F71BB2009F4E5
:10394000A9CFE7CFBB2061F0812F8F7192FFE1CF2C
:10395000B8E08B9F90011124236020939B02D9CF64
:1039600081E00E94DA03E1E0EA1508F040CF82E04E
:103970000E94DA033CCF812F8F71CBCFAA2009F4AC
:10398000ACCFF9E3CF1209C02FEF37EE83E021501F
:1039900030408040E1F700C000008C2D0E94D5101F
:1039A00026CFF801E851FC47E730F10508F071CB6C
:1039B000E952F54D0C94A829F801E851FC47E7308D
:1039C000F105B0F310928A02C8019057839708F06E
:1039D0002ACC84E090E00E94402A9093A202809337
:1039E000A102F801E150F047E232F10508F05ECBA8
:1039F000E252F54D0C94A8298091E402803178F4CC
:103A00008091E302882359F0E091A5022091A4025D
:103A10003091DF024091DE0257E02E1301C008957D
:103A20006E2F70E05E9FF0011124DF01AA55BD4F9B
:103A300014968C911497882361F111968C911197AB
:103A4000831327C08C91841324C015968C911597ED
:103A500081111FC012968D919C91A091E002B091AE
:103A6000E1028A1B9B0B883C910598F48091E4024B
:103A70008F7080618093E402E455FD4F80818F70E8
:103A8000806180838EED92E00E94C2160E94D00376
:103A90000895FB013196E770C0CFADE0B0E0E3E5FB
:103AA000FDE10C94B9298C0186E0F801DE0118963D
:103AB00001900D928A95E1F7F8017080F580A2805F
:103AC000B38084819EED892E92E0992E6090E2026F
:103AD000611018C0882399F0FF2009F413C1C801B0
:103AE0000E94D50F882309F40DC187E0F801AEEDDF
:103AF000B2E001900D928A95E1F70E94FC1CFF2430
:103B0000F39453C0D090E3022091E0023091E1029F
:103B1000A501421B530BDD2009F4C4C0483C5105EC
:103B200008F07AC0882359F38091DF02C180E090C9
:103B3000E402FFE0FE1508F459C0C81215C08091D8
:103B4000DE02871111C0F1104BC08E2D8F70806185
:103B50008093E4028EED92E00E94C2168091E4020E
:103B6000F8018683F12C21C0F1103AC040E06C2DA1
:103B7000872D0E941D0D40E06C2D872D0E941D0D8C
:103B8000F82E8111EFCF888599850E94C60F292FC5
:103B900022952F70903470F49F702230A0F09923FA
:103BA000B1F0F8019681903190F48F2D2D96EEE0D2
:103BB0000C94D5292A5F2F70223068F0C8010E942A
:103BC000C216FD2CF2CF992311F0882371F3805E89
:103BD000883058F3F3CF803F40F3815F8230F9CFD4
:103BE0008091E40281608093E402BCCFC8123CC0A3
:103BF0008091DE02871138C0F11036C0F801E682EC
:103C0000C8010E94C21687E0F801AEEDB2E0019053
:103C10000D928A95E1F773CFE090E402FFE0FE1584
:103C200050F08EED92E00E94C21687E0F4011192EE
:103C30008A95E9F797CF882309F461CF9091DF0245
:103C4000F8018181981310C08091DE0287110CC0A9
:103C5000F1100AC0E682C8010E94C21687E0F40192
:103C600011928A95E9F74BCFC8010E94D50F88239E
:103C700009F448C0FF2009F445C08091E402803275
:103C800008F433CF8091DE029091DF029A8389831A
:103C9000BC82AB826D821E82EF82CE0101960E94B1
:103CA000C21623CF483C510508F0BFCF882309F442
:103CB00026CFFF2039F19091DF028181981318C03F
:103CC0008091DE02871114C08091E40280FD9BCFB9
:103CD000803108F498CF8683807F803F09F490CFAD
:103CE0008681982F907F905F8F70892B868388CFF5
:103CF000C8010E94D50F8111F8CE8091E402816045
:103D00008093E402C8010E94C216F9CEABE1B0E094
:103D1000ECE8FEE10C94C4294E8B5F8B688F798FA1
:103D20008A8F9B8F91111092A3021D8A86E0FE015B
:103D30007696DE011F9601900D928A95E1F78B89A8
:103D4000882329F061E0CE010F960E94A60F87E03C
:103D5000FE013F96DE01189601900D928A95E1F7DB
:103D6000CE0108960E944D1D81112BC087E0FE01F7
:103D70003896DE01119601900D928A95E1F7209117
:103D8000A4024091A5028C858823D9F030E0C901B6
:103D900001968770992750E084179507E9F097E01E
:103DA000929FD001939FB00D1124AA55BD4FFE01E3
:103DB000319601900D929A95E1F78093A4020E94AA
:103DC000D00317E08091A5029091A402891312C03C
:103DD0006B96E3E00C94E0290E9490111092A402EB
:103DE0001092A50287E0EEEDF2E0DF011D928A95C8
:103DF000E9F7E7CF189FC00111248A559D4F0E9413
:103E00004D1D882329F38091A50290E001968770CB
:103E100099278093A502D6CFA6E0B0E0E2E1FFE1CA
:103E20000C94C3290E9474098C0180914C029091DA
:103E30004D028017910779F019821A820E94740945
:103E4000BC0149815A8180E090E00E94861E109357
:103E50004D0200934C022696E4E00C94DF29A4E086
:103E6000B0E0E5E3FFE10C94BB291A8219821C82C1
:103E70001B828FE6C82E81E0D82E8E010F5F1F4F68
:103E8000B12C4801EE24E394F12CF60181916F01ED
:103E90008F3F09F45AC0F894E82FE295EF70F0E0F4
:103EA00021A18F70A70102C0440F551F8A95E2F728
:103EB000CA01922F982B91A392A18095892382A366
:103EC000789400C0ECE1F1E053E0B5121BC08FB173
:103ED00087FB882780F991E08927A12C41E020E029
:103EE000882329F180E0A82A2F5F440F31962430DF
:103EF00001F183E0B81209C0233039F48FB1809505
:103F00008170EECFA12C41E020E0308180E03F3F86
:103F100051F3A32FA295AF70A05EB0E08C9190E01A
:103F20003F7002C0959587953A95E2F7E9CF842FC7
:103F3000DACFF601319780818F3F11F00E94BE02E7
:103F4000E0EAEA95F1F7F801A082B3940F5F1F4F02
:103F5000F4E0BF129ACF44E050E0B4018CE092E06C
:103F60000E94872A892BC9F089819A81AB81BC8103
:103F700080930C0290930D02A0930E02B0930F0257
:103F800081E08093E6010E9474099093E50180939B
:103F9000E4012496ECE00C94D7298091E601882373
:103FA000C1F38091E4019091E5010E948A0A05978E
:103FB00080F344E050E06CE072E083E492E00E9421
:103FC000872A892B81F080910C0290910D02A0919B
:103FD0000E02B0910F028093430290934402A0938B
:103FE0004502B09346021092E601D3CFCDB7DEB7BB
:103FF000E0970FB6F894DEBF0FBECDBF85B78068DF
:1040000085BF85B7806885BF84B7877F84BF0FB6BB
:10401000F894A89580916000886180936000109268
:1040200060000FBE80E890E00FB6F89480936100C6
:10403000909361000FBE81E0809318018CE296E0BE
:104040009093BB018093BA010E944F0C0E94C20C56
:104050008091E20084608093E2007894809147022E
:10406000882399F08091E9001091EC0017951127B1
:1040700017958F70182B1092E9008091E80083FD4E
:104080000E94D7111F701093E90082E084BD93E075
:1040900095BD9AEF97BD80936E000E94FB0F811132
:1040A00002C00E94E50EE5E2F2E088E0DF011D9229
:1040B0008A95E9F782E08093240260E080E00E9424
:1040C0001C0861E080E00E941C0860E081E00E9422
:1040D0001C0861E081E00E941C08EFE8F1E03197E4
:1040E000F1F700C0000010E080912402181708F4D6
:1040F000CAC081EF0E94BE0284EF0E94BE0285EF1B
:104100000E94BE0286EF0E94BE0284E30E94BE02AD
:1041100086E60E94BE0287E60E94BE0286EC0E94EE
:10412000BE0284E0E3E4F2E0DF01282F1D922A952D
:10413000E9F7ECE0F2E0DF011D928A95E9F780E013
:1041400090E00E94402A853E9E4F21F40E94FB0F82
:10415000811172C065EE7EEF80E090E00E94742ACB
:1041600060E082E090E00E94562A81E0809399020C
:1041700061E083E090E00E94562A60E074E184E010
:1041800090E00E94742A60E086E090E00E94562A47
:1041900060E087E090E00E94562A40E050E0BA01DB
:1041A00088E090E00E94682A60E083E290E00E944C
:1041B000562A60E08CE090E00E94562A60E08DE094
:1041C00090E00E94562A19821A821B821C821D824C
:1041D0001E821F82188648E050E067E170E0CE0141
:1041E00001960E94462A40E050E0BA018FE190E03B
:1041F0000E94682A80E00E94C70E0E94E50E40E0FF
:1042000050E0BA018FE090E00E94682A10923702D5
:10421000109238021092390210923A0281E0809393
:10422000370282E10E94D70241E050E060E070E096
:1042300083E190E00E94682A82E090E00E94322AA6
:104240008093150284E090E00E94402A9093A2029D
:104250008093A1020E942F1FEFEFF6E721E0E150CB
:10426000F0402040E1F700C000000E942F1F809125
:10427000430280FF1AC06FEF7FEF80E090E00E9462
:10428000742A0E94560D60E0812F0E943F08082F7B
:1042900061E0812F0E943F08E12FF0E0EE5DFD4FCD
:1042A000880F802B80831F5F1FCF83E090E00E94E8
:1042B000322A0E94020380919A020E94E5020E9423
:1042C0005C0881E08093100248E050E067E170E014
:1042D0008BE392E00E94222A1092100280913B020E
:1042E0008430B8F489E080933B0280911901909169
:1042F0001A01A0911B0180933C0290933D02A09370
:104300003E028FE780933F028FEF809340020E942E
:10431000991580911102811199C088E090E00E9466
:104320003A2A6B017C0183E290E00E94322A282F16
:1043300030E040E050E060E070E080E090E000E2DB
:104340000E94EC29F22FA32EB42EB52FA62FE72F13
:104350009701860140E050E0BA01FC29A12AB22A67
:10436000B32BA42BE52B862B972BF0938E02A092D8
:104370008F02B0929002B0939102A0939202E093C8
:1043800093028093940290939502F43008F04CC00D
:104390002DE220938E022FEF20938F022093900224
:1043A00026E920939102109292022DE23FEF4FEF07
:1043B00056E960E07E2F0E949C1488E090E00E9405
:1043C0003A2A6B017C0183E290E00E94322A282F76
:1043D00030E040E050E060E070E080E090E000E23B
:1043E0000E94EC295901B42FA52FF62FE72F970132
:1043F000860140E050E0BA01AC28B12AB22BA32BD1
:10440000F42BE52B862B972BA0928E02B0928F0275
:10441000B0939002A0939102F0939202E0939302E2
:1044200080939402909395020E94BA0610928D0296
:104430000E94980280918E0280FF05C060E0869500
:1044400086950E944D1681E08093110289EA80933F
:10445000800089E08093810083E190E00E943A2A05
:1044600060933702709338028093390290933A0236
:1044700067704BE4649FC0011124959587959595CD
:1044800087950E94D70288E091E090936F02809315
:104490006E0268E1A62EB12C77E4872E72E0972E8B
:1044A00011E0CE010196582E092F8091470220E499
:1044B000F22E33E0E32E42E1D42E853009F49AC087
:1044C0000E942F1F86E1E82E82E0F82E93E4C92E89
:1044D00092E0D92ED601F70191918D9122E0EA3137
:1044E000F20709F499C09817B9F3712CD6016D90B1
:1044F0006D01F70181917F01861531F1282E262467
:10450000412C33243394832D82218823A9F04982BE
:104510007A820E9474099C838B831D8391E0832D92
:104520008621811101C090E09E8349815A816B816F
:104530007C818D810E94861E4394330CF4E04F12DF
:10454000E2CFF70131976082739424E07212CECFEC
:104550000E946D0A60932E0270932F0280933002A6
:10456000909331025DC080914702843009F438C0D5
:104570000E94A4150E94E6068091130281110DC0CD
:104580000E94990A1092140180913B0283708093DB
:1045900013010E94490DE092120110931302109230
:1045A00012020FB6F894A895A09260000FBEF09288
:1045B000600083B7817F846083BF83B7816083BFDE
:1045C0007894889583B78E7F83BF0FB6F894A895AB
:1045D00080916000886180936000109260000FBE3F
:1045E0000E942F1FE3E4F2E081918111F1C48E1645
:1045F0009F06D1F780914702853009F4B4CF0E941D
:1046000090110E94B7080E94B81610921302809170
:104610009A020E94E50254CF981367CF0E940C1FA4
:1046200080918D02882309F43CC080918C02E09136
:104630008E02E695E695E81BE0931C02823009F0B5
:1046400042C0E695F0E0E75FFB4FE491EE2EF12CDF
:10465000BBEFCB2EB6E0DB2E80911D02882361F0EC
:1046600010921D020E94740990931B0280931A02FB
:1046700010921F0210921E020E94740920911A02C9
:1046800030911B02821B930B8F3F9F4750F42E0DDE
:104690003F1D30931B0220931A028AE192E0F6013B
:1046A00009950E94A41580912D02882351F0109243
:1046B0002D02809127028093280280912502809309
:1046C0002602E12C59C0E0EDEE2EF7E0FF2EAEE21F
:1046D000CA2EA6E0DA2EC0CF61E08E2D0E943F08E0
:1046E000C82E60E08E2D0E943F08CC0C8C29EE2D48
:1046F000F0E09F012E5D3D4FD9014C91942F9370B6
:104700008917C9F1A42FAA0FAA0F8A2BD9018C935C
:10471000A82FAF70B0E0AD58BE4FE05EFD4F8C915A
:104720009081890F808384300CF468C04F2D50E055
:104730002D2D30E0BA016F5F7F4F6370772726170A
:10474000370789F04B5D5D4F9E2D9F77DA011496F8
:104750009C9391E09F0D9370909327029091250276
:104760009F5F90932502082E000C990B64E070E087
:104770000E9494298083E394D0902802F09027022D
:1047800080912402E81608F4A7CF90E04CEFE42EC5
:1047900053E0C52E6DEFD62E72E0772E8091280261
:1047A00020912702281709F460C0E82FF0E0E75DA8
:1047B000FD4F9081F92EE894F7F88F5F8370809316
:1047C0002802809126028F5F8093260297FD2BC0DE
:1047D000F9A2EAA20E947409BC018BA39CA3CDA2FA
:1047E0001EA349A15AA183E091E00E94861EFFA268
:1047F000E8A60E947409282F83E02AC08D3F0CF0A0
:10480000B2CF4F2D50E02D2D30E0BA016F5F7F4FBA
:10481000637077272617370709F4A5CF4B5D5D4FE7
:104820009E2D906893CFF9A2DAA20E947409BC0170
:104830008BA39CA37DA21EA349A15AA182E091E073
:104840000E94861EFFA2D8A60E947409282F82E02B
:10485000622F792F29A79AA78BA71CA64FA158A52D
:1048600090E00E94861E91E099CF992351F00E941A
:104870006D0A60932E0270932F0280933002909302
:10488000310286E0E4E8F2E0A52DB02F01900D9210
:104890008A95E1F730908502E0908602F0908702D9
:1048A00060908802709089021092860210928702AE
:1048B00010928802109289028F2D8E29D52CC02E3D
:1048C000882379F080913402909135020E948A0AFF
:1048D0009C0180918202811171C02B30310508F05A
:1048E00073C0862D8729882379F0809132029091B8
:1048F00033020E948A0A9C018091810281119DC02D
:104900002B30310508F09FC080918502831116C0BD
:1049100080918602882311F08E1110C09091870239
:10492000992311F09F110AC020918902211106C01C
:1049300020918802211102C0892B81110E948009D7
:1049400086E0E52DF02FA4E8B2E001900D928A9563
:10495000E1F70E94B70890913602891721F0809301
:1049600036020E946D0A80914702843009F4A4C087
:1049700080919C02811199CD40919D0250919E029F
:1049800060919F027091A0022FB7F8948091480225
:1049900090914902A0914A02B0914B022FBF841B13
:1049A000950BA60BB70B813A9B4BAD40B10508F4B4
:1049B0007CCD0E94E60610939C0277CD253131050F
:1049C00008F48FCF8F3F19F08F5F80938202EE2023
:1049D00059F00E9472089FEF1E140CF491E0899F19
:1049E000802D112480938602FF2059F00E947208C6
:1049F00091E01F140CF09FEF899F802D112480936C
:104A0000870280918602882309F46BCF4090870249
:104A1000442009F466CF0E946408811101C081E03E
:104A200080938602842D0E946408882319F0809365
:104A3000870257CF1093870254CF2135310508F4F0
:104A400063CF8F3F19F08F5F80938102662059F00A
:104A50000E9492089FEF16140CF491E0899F802D1C
:104A6000112480938802772059F00E94920891E0E7
:104A700017140CF09FEF899F802D112480938902D9
:104A800080918802882309F43FCF709089027720B3
:104A900009F43ACF0E946408811101C081E080933B
:104AA0008802872D0E946408882319F08093890268
:104AB0002BCF1093890228CF83E08093E900809167
:104AC000E80082FF55CF8091E80085FD06C0809107
:104AD000E8008B778093E8004BCF0E941E0C30E2F9
:104AE000632E712CE52CF02E8823E1F08091E800F4
:104AF0008B778093E8008981EFEFE80FE53160F56F
:104B0000F0E0E050F54D0C94A8298091F100F701F8
:104B10008083F1E06F1A71086114710439F32FEF8B
:104B2000E21AF20A8091E80085FDEFCF8091E8005B
:104B30008B778093E8000E941E0C882399F3D6CFD0
:104B40001A828CE08B831AC08A81833041F138F459
:104B5000813061F08230D1F08FEF89830FC08430D3
:104B6000D9F71B821C821D821E8208C00E946D0A1A
:104B70000E94AE296B837C838D839E8340E250E04C
:104B8000652D702F82E00E947A0DF2CE87E290E0D0
:104B90000E94322A1B821C821D828E83EFCF8B8162
:104BA00090E0DE0114968430910544F7FC01FF2764
:104BB000ED5BFD4F20812D930196F5CF8A818230E8
:104BC00089F0853049F680918E0280FF1CC08E7F6F
:104BD00080938E0210928D020E94CF0680E00E9488
:104BE0004807CCCF8B819C81AD81BE818DA79EA7CC
:104BF000AFA7B8ABBC01CD010E94AE2987E290E01F
:104C00000E94562ABBCF0E94AD16E8CF4C816B8123
:104C10008A810E94F50E9827892798279E838D8385
:104C2000ADCF2D813E813227232732274C816B81E6
:104C30008A810E94FB0DA2CF0E944E0E9FCF9A81C7
:104C4000923009F07FC0883009F43FC0893009F400
:104C500066C08B818330A9F190F48130C9F0823035
:104C600009F08CCF8C81811125C080918E028E7FBE
:104C700080938E0210928D020E94CF067FCF8430E7
:104C800009F07CCF20E0409191026D818C810FC0B2
:104C90008C81A6E98A9FC00111246FEF70E00E9409
:104CA0008029462F20E06091900280918F020E941F
:104CB000F61464CF0E94AD1660E08C810E944D1600
:104CC0005DCF8C818093920259CF8B81833019F113
:104CD00060F48130A1F0823009F050CF80918E02D3
:104CE00080FF7BC08695869518C0843009F046CF3A
:104CF00080918F028C83809190028D833FCF809131
:104D00009102BFEF8B9FC001112466E970E00E9401
:104D100080296C8333CF809192028C832FCF209196
:104D20008E0230918F0240919002509191026091D9
:104D300092027091930280919402909195020E9448
:104D40009C141CCF933009F060C08830B9F18930D1
:104D500009F458C08B81833051F158F4813091F0BF
:104D6000823009F00BCF8C8181111AC00E9461073B
:104D700005CF843009F002CF8C8120E040913E02C3
:104D80006D810AC04C8126E9429F412D11248091FA
:104D90003C0220E060913D0290E00E94A307EECE2D
:104DA0000E94530760E08C810E946D07E7CE8C81E2
:104DB00080933F0280E00E943F07E0CE8B818330EA
:104DC000F1F068F48130A1F0823009F0D7CE809103
:104DD0003B02982F9370911185CF80E09ECF843055
:104DE00009F0CCCE80913C028C8380913D0285CF2E
:104DF00080913E02EFEF8E9FC001112486CF8091FB
:104E00003F028BCF0E949915B9CE9111A5CE883063
:104E1000E9F0893019F18B81813009F0AFCE8C81B6
:104E2000877090913702987F982B90933702FBE41C
:104E30008F9FC001112495958795959587950E9420
:104E4000D70280919A020E94E50298CE8B81813030
:104E500009F094CE8091370287705FCF409137027E
:104E6000509138026091390270913A0283E190E0EA
:104E70000E94682A83CE80E18A8380CE83E08A8381
:104E800088E360CE6A807B807624672476248C81D8
:104E90006301C80ED11C7E0125E0E20EF11C6C14EA
:104EA0007D0409F46BCE80E048E3641643E07406A9
:104EB00028F4C30188539F4F0E94322AD7018D9353
:104EC0007D01BFEF6B1A7B0AEACF6A807B80762474
:104ED00067247624ED2CFC2CCC80CE0CDF2CD11C4E
:104EE000EC14FD0409F44ACEE8E36E16E3E07E0616
:104EF00040F4D70114966C91C30188539F4F0E94D0
:104F0000562ABFEF6B1A7B0AEFEFEE1AFE0AE8CFC4
:104F10000E94B70E33CE84E0AFCF6A807B807624C8
:104F2000672476248C816301C80ED11C7E01F5E0D4
:104F3000EF0EF11CC614D70409F420CE80E020E85F
:104F40006216710420F4C30188960E94322AD701A8
:104F50008D937D01BFEF6B1A7B0AECCF6A807B805B
:104F6000762467247624ED2CFC2CCC80CE0CDF2C10
:104F7000D11CCE14DF0409F401CEE0E86E167104F2
:104F800038F4D70114966C91C30188960E94562A72
:104F9000BFEF6B1A7B0AEFEFEE1AFE0AEACF41E091
:104FA0008C81811101C040E06B818A810E94240FB5
:104FB00032CE2D813E8132272327322741E08C815A
:104FC000811101C040E06B818A810E94220ED6CD02
:104FD00080911402882309F40DCB80E189BDD9BCEE
:104FE00009B400FEFDCF8091D8008F7D8093D8005A
:104FF0008091E00082608093E0008091E00081FD7C
:10500000FCCF0E949011F6CA1F921FB61F92112466
:105010008F939F93AF93BF9380911202811113C01E
:105020008091480290914902A0914A02B0914B02AE
:105030004196A11DB11D8093480290934902A0930F
:105040004A02B0934B02BF91AF919F918F911F90F5
:105050001FBE1F90189578941F921FB61F9211249F
:105060008F939F93AF93BF93809148029091490291
:10507000A0914A02B0914B020196A11DB11D8093EF
:10508000480290934902A0934A02B0934B02BF9109
:10509000AF919F918F911F901FBE1F9018951F92E7
:1050A0000F920FB60F9211242F933F934F935F935C
:1050B0006F937F938F939F93AF93BF93EF93FF93E0
:1050C0008091E10082FF09C08091E20082FF05C06B
:1050D0008091E1008B7F8093E1008091DA0080FF76
:1050E00024C08091D80080FF20C08091DA008E7F9C
:1050F0008093DA008091D90080FFA9C080E189BD4A
:1051000082E189BD09B400FEFDCF81E080934702B2
:105110008091EB01811109C00E944F0C0E94C20CCA
:105120008091E20084608093E2008091E10080FF42
:105130001AC08091E20080FF16C08091E2008E7F4D
:105140008093E2008091E20080618093E200809190
:10515000D80080628093D80019BC85E08093470214
:1051600083E0809318018091E10084FF2FC080913B
:10517000E20084FF2BC080E189BD82E189BD09B4D2
:1051800000FEFDCF8091D8008F7D8093D800809164
:10519000E1008F7E8093E1008091E2008F7E80931A
:1051A000E2008091E20081608093E2008091EA0158
:1051B000882309F452C084E080934702809147021B
:1051C000843009F052C082E0809318018091E100A0
:1051D00083FF2CC08091E20083FF28C08091E10012
:1051E000877F8093E10082E0809347021092EA017A
:1051F0008091E1008E7F8093E1008091E2008E7FBC
:105200008093E2008091E20080618093E20042E0BE
:1052100060E080E00E948B0C8091F00088608093B9
:10522000F00081E08093180180931701FF91EF91C6
:10523000BF91AF919F918F917F916F915F914F91AE
:105240003F912F910F900FBE0F901F90189519BC92
:10525000109247021092EB0168CF8091E30087FF24
:1052600002C083E0A9CF81E0A7CF81E0ADCF1F923C
:105270000F920FB60F921124FF920F931F932F934B
:105280003F934F935F936F937F938F939F93AF93CE
:10529000BF93CF93DF93EF93FF9309EE10E0F801F4
:1052A0008081C091EC00C795CC27C7958F70FC2EEC
:1052B000F82A1082C0EFD0E08881877F88837894B5
:1052C0000E94D711F8011082888188608883CF2DD1
:1052D000CF70C083FF91EF91DF91CF91BF91AF91DC
:1052E0009F918F917F916F915F914F913F912F91FE
:1052F0001F910F91FF900F900FBE0F901F90189568
:10530000AA1BBB1B51E107C0AA1FBB1FA617B707EB
:1053100010F0A61BB70B881F991F5A95A9F7809507
:105320009095BC01CD01089597FB072E16F40094CB
:1053300007D077FD09D00E94802907FC05D03EF4F4
:10534000909581959F4F0895709561957F4F089531
:10535000EE0FFF1F0590F491E02D09946927962721
:10536000692778278727782708952F923F924F92B1
:105370005F926F927F928F929F92AF92BF92CF92E5
:10538000DF92EF92FF920F931F93CF93DF93CDB7EE
:10539000DEB7CA1BDB0B0FB6F894DEBF0FBECDBF66
:1053A00009942A88398848885F846E847D848C8437
:1053B0009B84AA84B984C884DF80EE80FD800C8140
:1053C0001B81AA81B981CE0FD11D0FB6F894DEBF23
:1053D0000FBECDBFED010895002E083090F0982F3C
:1053E000872F762F652F542F432F322F22270850D7
:1053F000F4CF220F331F441F551F661F771F881FCE
:10540000991F0A95B2F7002D089597FD1094002E6C
:10541000083098F00850232F342F452F562F672F30
:10542000782F892F912DF4CF15949795879577959F
:10543000679557954795379527950A95AAF71124AB
:10544000002D0895DC01CB01FC01F999FECF06C0C7
:10545000F2BDE1BDF89A319600B40D924150504032
:10546000B8F70895F999FECF92BD81BDF89A9927B2
:1054700080B50895A6E1B0E044E050E00C94242A01
:10548000A8E1B0E042E050E00C94242ADC01A40F33
:10549000B51F4150504048F0CB01840F951F2E910D
:1054A0000E94572A41505040D0F70895262FF9996D
:1054B000FECF92BD81BDF89A019700B4021639F073
:1054C0001FBA20BD0FB6F894FA9AF99A0FBE089544
:1054D0000396272F0E94572A0E94562A252F0E94A2
:1054E000572A242F0C94572A0196272F0E94572AB7
:1054F0000C94562AFC014150504030F001900616A1
:10550000D1F73197CF010895882799270895FB0196
:10551000DC0104C08D910190801921F4415050406C
:10552000C8F7881B990B0895F894FFCFB409BC09FC
:10553000BF09C509DA09DA09DA09DA09DA09DA0983
:10554000DA09DA09C809CD09D109D709E809EE094C
:10555000F209B912DF12E512DF12E51238135A13FD
:10556000E512561463143819611968196F19761900
:105570007D1984198B1992199919A019B519BB199C
:105580005419BE19C219C519C919CC19D019D31982
:10559000D719DA19DD19B91AB91AF11AF11AA51BB6
:1055A000C21B1D1B1D1BC71B3C1C4D1C4D1C361854
:1055B0003A182C1832183E18421846189A1805192D
:1055C000A2186C187018A6187418AA18B6188018A3
:1055D000FE188418BA188818BE18E6188C18C21855
:1055E000ED189218C818D0187818AE187C18B21890
:1055F0009618CC18DC18F618FC1866189E180C19AA
:10560000A025A425DE25062611261C261F261F26DA
:105610001F26AC25AC253B273E2742276527882738
:0A5620008B278D27AE27CF27D9274F
:10562A000D0000FF003905017109B80DCF0DD60D27
:10563A00DD0D03FFFF0000010000FFC8346667C6E6
:10564A004422B684016201AC00DA01F30113029428
:10565A00309631FF0A0BFF0908070602030405FF0B
:10566A000100FF7A406740542D672D852D982D98AB
:10567A001A7A1A671A541A67077A07040404040480
:10568A00040404040404040001020202020202F1F6
:10569A00F4F5F600FF0100010000FFFF0000010021
:1056AA0001FF00E200E900EA00B500B600B700CD4C
:1056BA00008301CC008A0192019401210223022471
:1056CA00022502260227022A02B300B4006F0070E4
:0A56DA00009F01CB019F02A0020017
:00000001FF
