:10000000E4C100001AC2000018C2000016C20000BD
:1000100014C2000012C2000010C200000EC2000094
:100020000CC200000AC200000C9455200C943D2123
:100030000C940A2002C2000000C20000FEC10000B1
:10004000FCC10000FAC10000F8C10000F6C10000C8
:10005000F4C100000C943120F0C10000EEC100009A
:10006000ECC10000EAC10000E8C10000E6C10000E8
:10007000E4C10000E2C10000E0C10000DEC10000F8
:10008000DCC10000DAC10000D8C10000D6C1000008
:10009000D4C10000D2C10000D0C10000CEC1000018
:1000A000CCC10000CAC10000C8C10000050109029E
:1000B000A10185020901A1000509190129081500FE
:1000C0002501950875018102050109300931158165
:1000D000257F95027508810609381581257F9501D0
:1000E00075088106050C0A38021581257F95017572
:1000F000088106C0C005010980A101850319012AF4
:10010000B700150126B700950175108100C0050CD8
:100110000901A101850419012AA002150126A002E6
:10012000950175108100C005010906A1018506052C
:100130000719E029E71500250195087501810205D9
:1001400007190029EF1500250195F07501810205B9
:10015000081901290595057501910295017503910D
:1001600001C005010906A101050719E029E71500ED
:100170002501950875018102950175088101050722
:10018000190029FF150026FF009506750881000556
:10019000081901290515002501950575019102959C
:1001A0000175039101C009023B00020100A0320960
:1001B0000400000103010100092111010001224492
:1001C0000007058103080001090401000103000084
:1001D0000009211101000122B60007058203200059
:1001E0000112010002000000084C57E3E600010183
:1001F00002000114034D006900630072006F0020CB
:10020000005000610064000000180357006F007286
:10021000006B0020004C006F0075006400650072E8
:1002200000000004030904000101010101010101B2
:100230000102020202020202020203030303030399
:100240000303040404040404040505050505060667
:100250000606060707070707080808080909090925
:100260000A0A0A0B0B0B0C0C0C0D0D0D0E0E0E0FCB
:100270000F0F10101111111212131314141515165B
:10028000161717181819191A1A1B1B1C1D1D1E1ECC
:100290001F2020212222232424252626272829291D
:1002A0002A2B2C2D2D2E2F30313232333435363748
:1002B00038393A3B3C3D3E3F404142434445464746
:1002C00048494A4C4D4E4F50515354555658595A1F
:1002D0005B5D5E5F616264656668696B6C6D6F70C3
:1002E00072737577787A7B7D7E8082838587888A32
:1002F0008C8E8F91939596989A9C9EA0A2A3A5A769
:10030000A9ABADAFB1B3B5B7BABCBEC0C2C4C6C964
:10031000CBCDCFD1D4D6D8DBDDDFE2E4E7E9EBEE1D
:10032000F0F3F5F8FAFDFF643214000029003E00F6
:1003300000002C0C2B081B08E3006800500A4F0A31
:10034000AE0003526A00A80001520100A6000F0887
:1003500001002C0C4E004B001B085009500A4F0A9C
:100360004F0900524E004B000252010001000100F3
:1003700001000100A900AA000100AD00AC00AB0023
:10038000AE0001526A00A800035201004278417E8B
:100390000100010001000100010001000100017CD9
:1003A00001000252037C007C0052B600B700DC0062
:1003B000DB0001000100010001000100010001005B
:1003C0000100010001000100010011241FBECFEF58
:1003D000DAE0DEBFCDBF04B603FE18C080912F0364
:1003E00090913003A0913103B09132038730904B4C
:1003F000A740B04B59F410922F0310923003109283
:10040000310310923203E0E0F8E3099511E0A0E037
:10041000B1E0EEEEF5E402C005900D92A23EB10708
:10042000D9F723E0A2EEB1E001C01D92AF32B207CE
:10043000E1F70E94571B0C948B22E2CD529A08954B
:10044000FC01EE0FFF1FE80FF91FE55FFC4F618312
:10045000408322830895FF920F931F93CF93DF93DE
:10046000182F062FF42EC0E0D0E02F2D402F612F43
:10047000CE01E6DF2196CC30D105B9F7CDB7DEB796
:10048000E5E00C94DE21F894E82FE295EF70F0E0BF
:1004900041A18F7021E030E0B90102C0660F771FE3
:1004A0008A95E2F7CB01962F9095942391A392A180
:1004B000892B82A378940895269A2E9A0895279AD4
:1004C0002F9A0895259A2D9A089526982E982E9859
:1004D000089527982F982F98089525982D982D984E
:1004E000089590E090938B0080938A0090938D0004
:1004F00080938C0090938900809388000895CF9317
:10050000DF93EC01009769F081FF0FC0D5DFC2FFD8
:100510000EC0D5DFC3FF07C0D5DFCE01DF91CF917D
:100520000895D3DFD6DFD9DFF8CFCFDFF0CFD1DF2B
:10053000F1CF9093BE028093BD020895E0DF9093C7
:10054000C0028093BF02089521E030E002C0220F74
:10055000331F8A95E2F78091BF029091C002822BEF
:10056000932BECCF21E030E002C0220F331F8A959D
:10057000E2F7209530958091BF029091C0028223CE
:100580009323DCCF9B01677091E001C0990F6A95BE
:10059000EAF763E0369527956A95E1F7220F331F56
:1005A000220F331FFA01E20FF31F40E050E0682FE3
:1005B00070E08191DF019B01042E02C036952795E2
:1005C0000A94E2F7217021952827292328272E93C2
:1005D0004F5F5F4F4430510561F708959C01982F9C
:1005E000977083E0369527958A95E1F7220F331FA0
:1005F000220F331FFB01E20FF31F40E050E080E0C9
:10060000219130E0092E02C0369527950A94E2F731
:1006100021703327042E01C0220F0A94EAF7822B9F
:100620004F5F5F4F4430510559F70895282F862FAB
:10063000943060F4243048F434E0939FB0011124E6
:10064000620F711D40E952E09DCF08959C5F92308A
:10065000E0F7622F70E04CE852E0F6CF282F94309C
:1006600058F4843080F434E0939FC001112460E991
:1006700072E0820F911DB2CF9C5F923020F46CE843
:1006800072E090E0F8CF80E008958091CB029091E5
:10069000CA02981301C008958F5F8770FACF9091B6
:1006A000C102809589238093C102282F27702111D0
:1006B0000CC0891751F09091C80292FF06C0869530
:1006C000869586954FDF1092C10208958091BA02F7
:1006D0009091C902892B5091BB02511591F09091D4
:1006E0001201913021F49091C70297FD0BC096E062
:1006F00026EE31E040E0915048F441111092BB02E7
:10070000852B08959EE12EEE31E0F4CFF901619141
:100710009F01611581F34F5FEECF982F90958091E7
:10072000BA0289238093BA020895E62F7430D0F478
:10073000643008F03BC0843008F03BC024E0829F66
:10074000C0011124870F911D880F991F880F991FD1
:10075000E80FF92FF11DEE0FFF1FE65DFC4F8591AD
:10076000949108957D3F81F4623000F5843008F55E
:10077000F0E0E80FF11DE80FF11DEE0FFF1FEE0F87
:10078000FF1FE655FC4FEBCF7C3F81F4623070F4E5
:10079000843078F4F0E0E80FF11DE80FF11DEE0F62
:1007A000FF1FEE0FFF1FE455FC4FD9CF80E090E014
:1007B000089581E0FCCF9C01803E910509F448C07A
:1007C000D8F48133910509F47DC048F4893291054C
:1007D00009F46DC08A9709F47CC0C9010895893372
:1007E000910551F18238910539F1C597B1F78091A2
:1007F000C70285FFF2CF29C0843E910509F447C0A6
:1008000048F4823E910599F1833E9105A9F121EECC
:1008100030E0E3CF863E910509F444C0873E910560
:10082000E1F68091C70283FD61C09091C80291FFFB
:100830002BC024EE30E0D1CF8091C70283708111AC
:1008400052C08091C80283FFC8CF29E230E0C5CFF3
:100850008091C70280FD33C09091C80290FFBDCF48
:1008600023EE30E084FFB9CF20E030E0B6CF8091B6
:10087000C70282FDF5CFB1CF8091C70282FD30C0A3
:100880009091C80290FD2FC084FFA7CFEDCF80913B
:10089000C80281FFA2CF8091C70227EE30E084FD1D
:1008A000E3CF9BCF8091C70283FDF7CF96CF809196
:1008B000C70285FD1EC08091C80283FF8ECF29E349
:1008C00030E08BCF8091C70286FF87CF2AE230E0ED
:1008D00084CF8091C70286FF80CF21E330E07DCFB7
:1008E00022EE30E07ACF20EE30E077CF26EE30E017
:1008F00074CF25E330E071CF9091C70292FF10C012
:1009000041E0282F2471243009F040E031E0282F05
:100910002871283009F030E0431711F02CE08227CD
:1009200093FF10C041E0282F2471243109F040E0EA
:1009300031E0282F2871283109F030E0431711F0F9
:100940002CE082273091C80230FF10C051E0282FE0
:100950002171213009F050E041E0282F2871283022
:1009600009F040E0541711F029E0822731FF10C050
:1009700041E0282F2171213109F040E031E0282F9A
:100980002871283109F030E0431711F029E082275F
:1009900094FD877E08951F93CF93DF930CDFEC01C6
:1009A000811522E5920708F052C0811540E59407B1
:1009B00008F0CDC0803E910520F58D3C910508F0F2
:1009C000A1C0883A910570F4853A910508F097C066
:1009D00081309105B9F10497813A910598F1C0E011
:1009E000D0E030C0885A91094B97C8F7C85AD0E078
:1009F000CC0FDD1FCB58DE4F0990D881C02DD464B9
:100A000021C0811550E49507B0F4C11580E2D807E4
:100A100008F0B3C0C83ED105A8F0CE019A95811563
:100A20009F41E8F68D2F68DF182FCE019927C3DE8E
:100A3000EC01D12B07C09927BEDECC27DF70C82B75
:100A4000D92BD06ACE01DF91CF911F9108958038C4
:100A500042E59407C8F5803652E5950708F05BC07B
:100A6000C03482E5D807D0F4C03292E5D90708F047
:100A70004BC08C2F8695869520E2829FC001112461
:100A8000C37021E030E0A90102C0440F551FCA9590
:100A9000E2F7EA01C82BD92BDD68D4CF8C2F8695DD
:100AA0008695877050E2859FC0011124C37021E0B4
:100AB00030E0A90102C0440F551FCA95E2F7EA01D0
:100AC000C82BD92BDC68BECF803C52E5950758F483
:100AD0008F71C03AD245A0F590E0982F8827EC019D
:100AE000C46FD06AAFCF805C9245809708F077CF13
:100AF000DC2FCC27CC27DF71C06FD06AA3CFA4979F
:100B0000D064A0CFD0659ECFCF71D0E0DC2FCC27B2
:100B1000C16FD06A97CF86958695877020E2829FB5
:100B2000C0011124C37021E030E0A90102C0440FCC
:100B3000551FCA95E2F7EA01C82BD92BDA6882CF94
:100B4000DBDEC82FD0E0DC2FCC27D0627BCF8F71CB
:100B5000D3DE93E0CC0FDD1F9A95E1F7CC27DF7051
:100B6000282F30E084FF05C050E1859F90011124BB
:100B70003327C22BD32BD06965CF8D2F8F71BCDE6D
:100B8000182FCE01992717DEEC01D12BDECFA0E084
:100B9000B0E0EDECF5E00C94BE218C01E090BF02DA
:100BA000F090C0028091BD029091BE02E82AF92A1D
:100BB000CFE0D0E0CC24C394D12CC6010C2E02C0CF
:100BC000880F991F0A94E2F78E219F21892B49F4FF
:100BD000219798F7B12C8B2DCDB7DEB7E9E00C94B7
:100BE000DA21BC2EB8018C2FA0DDD5DE019781F370
:100BF000F2CF0F931F93CF93FC0185810081118168
:100C0000811579F0611569F0C801C1DFC82F682F1F
:100C1000C8010CDDB8018C2F88DDCF911F910F9199
:100C20000895C8011BDDC82FF5CFCF93DF93D82FD0
:100C3000C92FADDF6D2F7C2F78DDADDEDF91CF9139
:100C40000895FC018481811599F080819181EDDF07
:100C5000282F92959F70963099F060F4925F9F7064
:100C6000923030F4203FB1F038F481E0283E38F083
:100C700080E008959A5FF3CF81E0243FC9F708959B
:100C800091E0213F09F090E081E0283E08F080E00B
:100C9000892B089581E0089580E008950895CF920A
:100CA000DF92EF92FF921F93CF93DF93172FE82FDE
:100CB000F0E0E95DFD4F71110CC0E4918E2F7E2FA5
:100CC0006E2FDF91CF911F91FF90EF90DF90CF902B
:100CD0000895E62EF12CC72ED12CF491EF2F86E04B
:100CE000689F90011124CFEFD0E0C901BE010E949E
:100CF0008821AB01EE0CFF1C65E5649FC001659F78
:100D0000900D1124E81AF90A6E2D660F6E0D7E0102
:100D1000EC18FD08FE9DD001FF9DB00D11248B2F16
:100D2000169F70011124EF2CFF246E01CE18DF08EE
:100D30007601FE9D6001FF9DD00C11247E01E61A14
:100D4000F108B701169F7001179FF00C1124EF2CCA
:100D5000FF24CE19DF09FC9F7001FD9FF00C1124C8
:100D60007F2D43305105C1F02C3F334058F44130C2
:100D70005105B1F04230510509F0A2CFEB2F8F2D74
:100D80007F2F9ECF4430510571F04630510509F454
:100D900097CF7B2F8D2D94CF7D2DEB2F8F2F90CF45
:100DA0007F2FED2D8DCFEF2D7B2FF8CFCF93DF93BE
:100DB0008091A90280FD0BC0C0E0D0E020E040E0BF
:100DC00060E0CE013DDB2196C830D105B9F7E1D412
:100DD000DF91CF9108951092A80280913502811180
:100DE0000DC081E0809335028091A902982F917007
:100DF000909334028E7F8093A902D8CF0895FF92FA
:100E00000F931F93CF93DF93EC01F12C00E010E0E0
:100E10007091AB028091AC02873908F086E96C8151
:100E20006F0D3DDF472F282FC8010ADB0F5F1F4FD3
:100E30008FE1F80E0830110559F7B8DF8C819A81DF
:100E400090FF07C08F5F8C83CDB7DEB7E5E00C94D1
:100E5000DE218150F8CF2695E22F26FDE0959E2FCA
:100E60009F7026FD9F5FE695E695E695E670F0E0BB
:100E7000EB5AFE4F3181399F302D912D112432953F
:100E80003F709295907F392B9081930F27FD91951C
:100E900097FD9195990F292F3CE0239F020E20E0AA
:100EA000211D1124620F089561C00895E1EBF2E065
:100EB000248130E1230F08F42FEF24838091B902BD
:100EC00081608093B9020895E1EBF2E0248130E182
:100ED000231B08F420E024838091B9028160809371
:100EE000B902089590E06115E9F0815E9E4FFC0122
:100EF00080818F3FB1F0E82FE295EF70F0E041A1E3
:100F00008F7021E030E0B90102C0660F771F8A952B
:100F1000E2F7CB01962F9095942391A392A1892B70
:100F200082A30895835E9E4FE2CF90E06115A9F001
:100F3000815E9E4FFC0120812F3F91F0E22FE295D0
:100F4000EF70E05EF0E0808190E02F7002C0959538
:100F500087952A95E2F781700895835E9E4FEACFC8
:100F600080E00895519A08956BCA089574CA08954F
:100F7000282F35EB2303C001112497FF04C08058AC
:100F80009109892F089580589F4FFBCF80919A0235
:100F900080FD14C081FD14C082FD16C080919902AD
:100FA000811581F08E3180F420E5829FC0011124EB
:100FB0006EE170E00E949C21862F089584E10895DF
:100FC00088E2089588E0089580E5089580919A0266
:100FD00080FD17C081FD17C082FD19C08091980265
:100FE000811599F0883298F428E0829FC00111247D
:100FF00068E270E00E949C216115710551F0862F16
:10100000089562E0FCCF64E0FACF61E0F8CF68E0D9
:10101000F6CF81E00895E0918202F091830230974B
:1010200039F00190F081E02D309711F00995089585
:1010300080E00895A3E0B0E0E0E2F8E00C94C52180
:101040009C0180912A0290912B0282179307B1F0A4
:1010500030932B0220932A02E0918202F0918302C6
:10106000309761F00084F185E02D309739F083E00E
:1010700089833B832A83CE01019609952396E2E07A
:101080000C94E121A3E0B0E0E8E4F8E00C94C52181
:101090009C01809128029091290282179307B1F058
:1010A0003093290220932802E0918202F09183027A
:1010B000309761F00084F185E02D309739F084E0BD
:1010C00089833B832A83CE01019609952396E2E02A
:1010D0000C94E12190911201913091F0A6EEB1E0D3
:1010E000EFEF90E02D91821751F0EF3F19F42111AD
:1010F00001C0E92F9F5F9630A9F7EF3FC9F408952B
:101100009091C70297FFEACFE82FE695E695E6951E
:10111000803FA8F7F0E0E451FE4F877021E030E017
:1011200001C0220F8A95EAF78281822B828308957B
:101130000E2E000CFF0BEC51FE4FF8CF90911201D8
:10114000913021F49091C70297FD0CC0E6EEF1E0DA
:101150009191891302C0DF011E9251E0EC3EF50728
:10116000B9F70895E82FE695E695E695803FC8F72C
:10117000F0E0E451FE4F877021E030E0A90102C0A9
:10118000440F551F8A95E2F7CA0180959281892301
:10119000828308958091110108952FB7F89480916A
:1011A000240290912502A0912602B09127022FBF20
:1011B0000895F3DF20919D0230919E02232B21158B
:1011C00021F080935D0290935E0220919F02309106
:1011D000A002232B211521F080935B0290935C02E7
:1011E000E0918202F0918302309759F00680F781F6
:1011F000E02D309731F082E080939B028BE992E002
:1012000009950895611509F441C0E3E3E80FE3315E
:1012100048F4F0E0E357FD4D0C94AF21B7DE819523
:1012200080939E02C6CFB2DEFBCFB0DE8195809365
:101230009D02F8CFABDEFBCFC9DE80939F02F2CFD9
:10124000C5DE8195FACFC2DE81958093A002EACFF8
:10125000BDDEFBCF815D990B21E030E001C0220FA4
:101260008A95EAF780919C02822B80939C02DACFC8
:1012700080919A02816080939A02D4CF80919A02E1
:101280008260F9CF80919A028460F5CF40919D02EF
:101290008D3C59F480919E0287FF0DC010929E02F2
:1012A000411559F41092990208C08E3C81F4809146
:1012B0009E0218169CF3411581F080919F02909137
:1012C000A002892B8111AECF10929802ABCF8F3C38
:1012D00041F447FFF0CF10929D0280919E0281154C
:1012E000E0CF803D19F41416B4F3E5CF90919F023E
:1012F000893D29F41916FCF610929F02DCCF8A3D35
:1013000019F497FFD8CFF8CF9091A0028B3D29F424
:1013100097FFD1CF1092A002CECF8C3D19F41916B1
:10132000CCF3C9CF9FE2980F983090F4815D990B70
:1013300021E030E0B90102C0660F771F8A95E2F71D
:10134000CB01809590919C02892380939C02B3CF1E
:101350008D3D31F480919A028E7F80939A02ABCFBB
:101360008E3D21F480919A028D7FF7CF8F3D09F059
:10137000A2CF80919A028B7FF0CF2FB7F894609123
:1013800024027091250280912602909127022FBF9E
:101390000895FC019B0180911A0290911B0286170F
:1013A000970740F0672B29F48091E8008E778093AF
:1013B000E800C90140E0009741F4411106C0809166
:1013C000E80082FF2FC080E0089520913D022115A2
:1013D000A9F12530A9F12091E80023FD2DC020912D
:1013E000E80022FDECCF2091E80020FFE4CF30910F
:1013F000F3002091F200009719F02830310558F0E1
:1014000041E02830310509F040E02091E8002E77D6
:101410002093E800D0CF41914093F10001972F5FD6
:101420003F4FE9CF80913D02811541F0853041F079
:101430008091E80083FFC3CF81E0089582E00895A2
:1014400083E008958091140287FF13C08091E80023
:1014500082FF06C08091E8008B778093E8000895B2
:1014600080913D028111F2CF089580913D02811556
:10147000D9F38091E80080FFF8CF8091E8008E7763
:10148000ECCF2091E4003091E50095E6A901209190
:10149000EC00822F817020FF06C08091E80080FF61
:1014A00006C080E008952091E80022FD1AC08091D6
:1014B0003D02811589F0853089F08091EB0085FD32
:1014C0000FC02091E4003091E50042175307F9F274
:1014D0009A95E1F684E0089582E0089583E0089506
:1014E00081E00895E8EDF0E080818E7F80831092A6
:1014F000E2001092DA001092E100A0EEB0E08C91D0
:1015000081608C9380818F77808319BCA7EDB0E0D8
:101510008C918E7F8C9380818F7E808310921302BA
:1015200008959091B1029370911591F0833008F075
:1015300082E0880F880F9091B1029370892B80937D
:10154000B102109214018091B90281608093B902B6
:1015500008958091B102869586958F5F833008F05B
:1015600081E0DFCF8091B102869586958A9509F456
:1015700082E0D7CF9091B1029370911559F080938A
:10158000B2026093B3021092B4028091B9028160FA
:101590008093B9020895E1EBF2E0818190E06281ED
:1015A0000896E8CFE1EBF2E0818162818850990BE7
:1015B000E1CFE1EBF2E0628120E1620F08F46FEF2E
:1015C000818190E0D7CFE1EBF2E0628120E1621B04
:1015D00008F460E0818190E0CDCFE1EBF2E023817F
:1015E00030E1230F08F42FEF8181628190E0C2CFB8
:1015F000E1EBF2E0238130E1231B08F420E081815C
:10160000628190E0B7CF9FB7F8942BE033E0F90107
:101610002F5F3F4F408158E06BB9000000C047FF8B
:101620008BB9440F000000C000C000C08BB900C0DF
:101630005A9591F743E02F32340749F79FBF089539
:10164000982F9093E900891771F07091EC00209128
:10165000ED005091F00021FD09C09F5F973089F7A0
:101660008093E9000895762F242F50E03091EB000D
:101670003E7F3093EB003091ED003D7F3093ED00E5
:101680003091EB0031603093EB007093EC002093CD
:10169000ED005093F0002091EE0027FDDECF08957D
:1016A000A0E0B0E0E6E5FBE00C94BF21C8EDD0E09F
:1016B00088818F7E8883E7EDF0E080818160808380
:1016C00084E082BF81E08093130288818E7F8883CB
:1016D00002EE10E0F80110821092DA0081EEC82EBE
:1016E000D12CF601108288818F7788838881806869
:1016F000888388818F7D888319BC10923D02109267
:10170000120210923C021092110290EEE92EF12C7E
:10171000F70180818B7F808388818160888342E0AC
:1017200060E080E08DDFF60180818E7F8083F801AC
:10173000808181608083808188608083F7018081DF
:101740008E7F8083888180618883CDB7DEB7E8E0B3
:101750000C94DB21E091CB029091CA0227E0E913BF
:1017600002C080E00895AE2FB0E02E9FF00111245A
:10177000E453FD4F3181361306C03081381303C066
:101780003581341304C0FD013196E770E8CF81E064
:1017900008958BB16BB164608B7F35DF8FE594E08A
:1017A0000197F1F700C0000008958BB16BB1626042
:1017B0008D7F29DF8FE594E00197F1F700C00000ED
:1017C000089581E08093E00080E28093D800109239
:1017D000C9008FE19EE40197F1F700C0000087E0A7
:1017E00090EBDC0180932F0390933003A09331039F
:1017F000B093320388E19CE00FB6F894A8958093EB
:1018000060000FBE90936000FFCF0F931F93CF93A4
:10181000DF938B01EA0190913D02943051F5809362
:10182000E9008FEF9091E80095FD06C095ED9A953F
:10183000F1F700008A95B1F78091E80085FF19C0A3
:1018400020DE811111C08091E80085FD06C08091E5
:10185000E8008E778093E800F3CFF80181918F0143
:101860008093F100219779F78091E8008E7780933B
:10187000E800DF91CF911F910F910895CF93DF93EF
:10188000D82FC92F48E050E0682F792F81E0BDDFC5
:1018900088E0ED2FFC2FACE1B2E001900D928A952B
:1018A000E1F7DF91CF910895BC0140E250E082E082
:1018B000ACCFBC0146E050E082E0A7CFBC0143E0E2
:1018C00050E082E0A2CF9091C80292FB222720F93B
:1018D000281779F080FB92F99093C8026091C702B3
:1018E0007091C80284E090E00E946D2282E00C9426
:1018F0004F0308950F93CF93DF93C9EAD2E0488155
:1019000059816A817B8188E090E00E94652228816C
:1019100039814A815B816C817D818E819F8100E26A
:101920000E940722622F83E290E00E945322DF91FF
:10193000CF910F910895E9EAF2E08DE180838FEF76
:101940008183828386E983831482CF01D3CF809100
:10195000AD02833018F48F5F8093AD0289EA92E084
:10196000C9CF8091AD02811519F081508093AD02ED
:1019700089EA92E0BFCFA0E0B0E0E1ECFCE00C949B
:10198000BE21D82F162FC42F022F8091A90280FFCD
:1019900035C0E82FE695E695F0E0E35AFE4F9081DA
:1019A0009093A7028C7F843071F5842F473908F01B
:1019B00086E96D2F712F73D9D62EC72EB82E809140
:1019C000A90280FF10C0E12CF12C2B2D4C2D6D2D88
:1019D000C7010E9420028FEFE81AF80A88E0E81693
:1019E000F10499F7E3D9D093AA021093AB02C09304
:1019F000AC02011519F089EA92E07CDFCDB7DEB7C1
:101A0000E9E00C94DA21923071F7D091AA02EBCF81
:101A1000E9EAF2E0818121E043816281885FABCF16
:101A2000E9EAF2E0818121E0438162818850A3CF1D
:101A3000E9EAF2E0628128E0620F08F46FEF21E04A
:101A40004381818198CFE9EAF2E0628128E0621B5C
:101A500008F460E021E0438181818DCFE9EAF2E082
:101A6000438128E0420F08F44FEF21E06281818139
:101A700082CFE9EAF2E0438128E0421B08F440E02B
:101A800021E06281818177CF80911201813069F5F7
:101A90008091C70287FF29C00E9466038093ED01F1
:101AA00040E250E062E672E08CEE91E00E947E221D
:101AB000892BD1F080E2ECEEF1E0A2E6B2E00190F9
:101AC0000D928A95E1F7E0918202F09183023097BE
:101AD00059F00480F581E02D309731F086E0809355
:101AE000EC018CEE91E0099508950E9466038093C5
:101AF000E40148E050E064E872E084EE91E00E9486
:101B00007E22892B89F388E0E4EEF1E0A4E8B2E0DC
:101B100001900D928A95E1F7E0918202F0918302A3
:101B2000309711F30280F381E02D3097E9F284EED3
:101B300091E0D9CFCF93C82F8115C1F08CEF8C0FD6
:101B4000813A80F580911201813021F48091C702A1
:101B500087FD0EC0E6EEF1E08191C817F9F021E0B3
:101B6000EC3EF207C9F78C2FB5DA8EDFCF910895DE
:101B7000EC2FE695E695E695F0E0E451FE4F828184
:101B800090E04C2F477021E030E002C0220F331F5D
:101B90004A95E2F782239323892B29F38C2FCEDAFF
:101BA00073DFE1CF80E28C0F883068F4C77081E08A
:101BB00090E001C0880FCA95EAF7C091BA02C82B1D
:101BC000C093BA02D2CF8BE58C0F833030F42C2F28
:101BD0002452330BC9012EDAC9CFE8E5EC0FEB3103
:101BE00048F4F0E0EE0FFF1FE555FE4F8081918134
:101BF00049DABCCF83E38C0F833108F0B7CF61E0C3
:101C00008C2F00DBB3CF811541F19CEF980F913AF7
:101C100010F494DA39CF90E2980F983050F487702E
:101C200091E001C0990F8A95EAF7892F0E948D03F0
:101C3000F1CF9BE5980F933018F480E090E0FAC95B
:101C400098E5980F9B3118F480E090E01BCA93E36D
:101C5000980F933110F460E0D5CA0895811531F0E2
:101C60009091BA02892B8093BA020ECF0895811504
:101C700019F00E948D0308CF08951092BA02809146
:101C80001201813011F58091C70287FF1EC0EEEE70
:101C9000F1E08EE1DF011D928A95E9F780E090E0A6
:101CA000C9D980E090E0EED91092C902EDDE86E05D
:101CB000EBE9F2E0DF011D928A95E9F710929902B3
:101CC0001092980210929A0274CAE6EEF1E086E051
:101CD000E1CFD3DF2FEF84E39CE0215080409040A0
:101CE000E1F700C0000088E19CE00FB6F894A895E9
:101CF000809360000FBE90936000FFCFAAE2B0E037
:101D0000E4E8FEE00C94C42184E192E0FC01019639
:101D10002091F100208322E08C319207B9F7809165
:101D20001502893009F457C0C8F4823009F4B1C0F3
:101D3000833009F481C0813081F18091E80083FF14
:101D4000E5C080911402909115029A3008F0DEC02F
:101D5000E92FF0E0E056FD4D0C94AF218A3009F4F4
:101D600088C08B3051F780911402813231F7809115
:101D7000180290911902892B01F78091E800877F62
:101D80008093E8005FDB81E090911602911101C021
:101D900080E08093120171DFD0CF80911402813AEC
:101DA00061F68091E800877F8093E80080911802B7
:101DB00090911902892B59F060E080E090E070E08A
:101DC000E8DA8091E8008B778093E800B6CF68E08E
:101DD0008CE192E0F4CF80911402813209F0ADCF12
:101DE0008091180290911902029708F0A6CF809175
:101DF000E800877F8093E8008091E80082FF17C0A9
:101E00009091F3008091F200029731F48091F100FB
:101E1000813011F0863021F48091F100809311011E
:101E20008091E8008B778093E8000CDB86CF80916F
:101E30003D028111E1CF81CF80911402813A09F0F6
:101E40007CCF8091180290911902892B09F075CFEF
:101E50008091E800877F8093E8008091E80080FF10
:101E6000FCCF809112018093F1008091E8008E7781
:101E7000DACF80911402813209F05FCF8091E800BF
:101E8000877F8093E800DEDA80911702809310014B
:101E900054CF80911402813A09F04FCF8091E8002D
:101EA000877F8093E8008091E80080FFFCCF8091DD
:101EB0001001D9CF803889F0823841F5809118021D
:101EC0008F70873018F58093E9008091EB0085FBD7
:101ED000882780F91092E90006C080913C02880FA3
:101EE00090911102892B9091E800977F9093E800E0
:101EF0008093F1001092F1008091E8008E7723C06A
:101F0000811116C080911602813009F18091E8009C
:101F100083FF0AC08091E800877F8093E80080916A
:101F2000EB0080628093EB00AA96E3E00C94E02142
:101F3000823061F780911602811581F01092E900DC
:101F40008091E800877F8093E8007CDADFCF81E032
:101F5000933009F080E080933C02F0CF809118022A
:101F60008F702FEF280F263088F68093E90020919C
:101F7000EB0020FFE3CF933031F48091EB008062DF
:101F80008093EB00DBCF9091EB0090619093EB009E
:101F900021E030E0A90102C0440F551F8A95E2F705
:101FA0004093EA001092EA008091EB008860E8CF4D
:101FB0008111ACCF109116021F778091E3008078D9
:101FC000812B8093E3008091E800877F8093E80075
:101FD00039DA8091E80080FFFCCF8091E3008068CF
:101FE0008093E30083E0111101C082E080933D0201
:101FF0008DCF8058823008F089CF20911602309121
:1020000017022C3D53E0350791F583E08A838AE27D
:1020100089834FB7F894DE01139620E03EE051E249
:10202000E32FF0E050935700849120FF03C0829586
:102030008F703F5F8F708A30C0F0895C90E08D9325
:102040009D932F5F243161F74FBF8091E800877F18
:102050008093E8006AE270E0CE0101969AD98091FF
:10206000E8008B778093E80051CF805DE7CF832F26
:1020700099278330910529F160F48130910509F4A5
:1020800076C0029709F042CF8BE390E0E6EAF1E0F8
:102090002DC020911802309119028132910509F466
:1020A0005AC0829709F032CF2115310509F469C071
:1020B0002130310509F02ACF86EB90E0ECEAF0E020
:1020C00015C0C90199272130B1F18230910509F479
:1020D0003AC0892B09F01ACFE3E2F2E0E4918E2FA7
:1020E00090E0E3E2F2E0009709F410CF2091E800DD
:1020F000277F2093E80020911A0230911B0282175B
:10210000930708F49C0140E02115310509F03EC019
:1021100041113CC08091E80082FDA1CF80913D0239
:10212000811509F49CCF853009F499CF8091E8009E
:1021300083FFF0CF94CFE9E0F2E0E4918E2F90E0BE
:10214000E9E0F2E0D0CFE3EFF1E0E4918E2F90E010
:10215000E3EFF1E0C8CF2115310571F021303105F1
:1021600009F0D4CE89E090E0E1EDF1E0BFCF82E16B
:1021700090E0E1EEF1E0BACF89E090E0E8EBF1E049
:10218000B5CF84E490E0E2E6F1E0B0CF80913D028B
:10219000811509F464CF853009F461CF8091E8009E
:1021A00083FD5DCF8091E80082FDB4CF8091E8008F
:1021B00080FFAACF9091F3008091F20021153105A4
:1021C00019F08830910550F041E0089709F040E09F
:1021D0008091E8008E778093E80096CF44914093F9
:1021E000F1003196215031090196E8CF803809F08D
:1021F0008DCE8091E800877F8093E8008091120265
:102200008093F10079CE811181CE109116021230A7
:1022100008F07CCE8091E800877F8093E8001093DF
:10222000120210D9111599F084E080933D0242E02A
:1022300061EC81E005DA42E261EC82E001DA809152
:102240003D02843051F482E0809313015FCE80918F
:10225000E30087FDE9CF81E0E8CF81E0F5CF8F9201
:102260009F92AF92BF92CF92DF92EF92FF920F9325
:10227000CF93DF9388E090E00E943A224B015C010B
:10228000C9EAD2E068839982AA82BB821C821D823D
:102290001E821F8283E290E00E943222282F30E0CB
:1022A00040E050E060E070E080E090E000E20E94FA
:1022B000EC21282939294A295B29288339834A8333
:1022C0005B836C837D838E839F83DF91CF910F919E
:1022D000FF90EF90DF90CF90BF90AF909F908F9046
:1022E00008956091A9026695669570E041E050E01E
:1022F00085E091E00E947122892B19F481E080939E
:10230000A8020E94CD089093480280934702089546
:102310009091A90290FF2CC0811559F1883058F591
:102320008F73880F880F9091A9029370892B8093E7
:10233000A902611519F089EA92E0DCDA6091A9023C
:102340006695669570E041E050E085E091E00E947E
:102350007122892B91F01092A80281E080934A02A9
:1023600020E04091AC026091AB028091AA0203CBC5
:10237000089581E0D6CF87E0D4CFB3DFEECF809150
:10238000A902869586958F5F883008F081E061E02C
:10239000BFCF8091A902869586958A9509F487E03A
:1023A00061E0B6CF1092350280913402811549F078
:1023B0008091A90281608093A90260E0869586954C
:1023C000A7DF8FCF48E050E067E170E081EB92E05B
:1023D0000E9444221092B9020895E1EBF2E085E0F8
:1023E000808311828FEF828313829FE7948385839A
:1023F000E9CFA0E0B0E0EFEFF1E10C94BF210E9443
:10240000BD0960932C0270932D0280932E0290934D
:102410002F022091B102122F1370111519F0122FF3
:102420001695169530911401323009F4D5C080F418
:10243000311116C010920001609330027093310286
:10244000809332029093330281E08093140103C0A1
:10245000333009F4C9C0CDB7DEB7E8E00C94DB2116
:102460008091040118132AC023704091030150E0A9
:1024700081E02417150609F480E080930201809121
:10248000B60290910101981739F08093010140E064
:1024900060E080E00E945407113091F0123009F49E
:1024A00054C0111109C080910201811529F040E04A
:1024B00060E080E00E94540780E01FC081E0DDCF33
:1024C00080910001C82FCC0FC80F03E00C0FC02E65
:1024D0000D3010F09CE0C92E6091B2027091B302F1
:1024E0008091B4020E944F06F62EE72ED82ED0E03F
:1024F000CC15D0F081E00C30F8F6909100019F5F90
:1025000090930001811165C082E080931401809155
:10251000020181115EC0111509F464C040E060E061
:1025200080E00E94540797CFFE01EF5DFE4F80A52B
:10253000909101018923811531F02D2D4E2D6F2DA4
:10254000CE010E94B4072196D3CF80910001C82FFD
:10255000CC0FC80F03E00C0FE02E0D3010F08CE014
:10256000E82E3091B5023695369521E0320F08F409
:102570003FEF409130025091310280E090E0439F64
:10258000040E811D539F800D911D1124850F911DF7
:10259000F82ED0E0CE1508F0ADCFFE01EF5DFE4F76
:1025A00080A5909101018923811589F06091B20283
:1025B0007091B3028091B4022F2D4C2F0E942B07F3
:1025C0000E944F06472F282FCE010E94B407219664
:1025D000E1CF1111A3CF3FCF1093040123702093BB
:1025E0000301E3D883E031CF8091B9028111EADEA3
:1025F000C0903002D0903102E0903202F09033026D
:102600000E94BD096C197D098E099F096031710511
:102610008105910508F41FCF109214011CCFEF9291
:10262000FF920F931F93CF93DF93C62FD42F122FB8
:102630008115A1F06093A5020E94CD08909310022D
:1026400080930F02C77081E001C0880FCA95EAF736
:1026500005DBCDB7DEB7E6E00C94DD218091A50265
:10266000681330C0E0900F02F09010020E94CD0875
:102670008E199F09883C910528F500E20D0FCD17B2
:1026800099F0C770FF24F3948F2D01C0880FCA956D
:10269000EAF7EDDA083040F48D2F877001C0FF0CA7
:1026A0008A95EAF78F2DDADA812F44DA812FABDAB7
:1026B000083078F6D77081E001C0880FDA95EAF724
:1026C000D6DAC7CFC77081E001C0880FCA95EAF794
:1026D000F7CFA0E0B0E0EFE6F3E10C94BF217C017E
:1026E000FC018481811509F479C061E0C7010E9471
:1026F000F905EC018134FEE79F0709F04FC0F701AF
:102700008581811559F18091A1028F5F8770982F83
:10271000853010F090E080E02091A102287F922B7C
:102720009093A102FFEF8F9FC0011124959587958B
:10273000959587950E9471024091A1025091A20245
:102740006091A3027091A40283E190E00E9465224F
:102750008091BF029091C0020E947F02F701958193
:10276000911509F490C41092A5029E0130572332AE
:10277000310508F096C484E090E00E943F229093D7
:10278000C8028093C702FE01E150F047E232F10532
:1027900008F040C0E655FD4D0C94AF21FC01E85116
:1027A000FC47E730F105D0F6E453FD4D0C94AF2122
:1027B00026E241EE61EEF701858131DF8091C102B1
:1027C0008770811559F0F7018581811539F0809165
:1027D000C80282FF03C082E00E944F03CDB7DEB77C
:1027E000E8E00C94DB2127E245EE65EEE4CF26E23B
:1027F00041EE60EEE0CF27E245EE64EEDCCF26E26C
:1028000041EE62EED8CF27E245EE66EED4CF28E265
:1028100041E0EBCF8091C70281608093C702609155
:10282000C7027091C80284E090E00E946D2225DA10
:10283000C5CF8091C80288608093C802F0CF809194
:10284000C7028260EACF8091C7028460E6CF8091A0
:10285000C7028860E2CF8091C8028160EDCF80918D
:10286000C8028260E9CF8091C7028061D6CF809193
:10287000C7028062D2CF8091C7028064CECFFDD9DB
:102880008091C7028068C9CF8091C7028C60C5CF94
:102890008091C8028360D0CF8091C7028E7FBDCF68
:1028A0008091C802877FC8CF8091C7028D7FB5CF46
:1028B0008091C7028B7FB1CF8091C702877FADCF58
:1028C0008091C8028E7FB8CF8091C8028D7FB4CF2F
:1028D0008091C7028F7EA1CF8091C7028F7D9DCF4F
:1028E0008091C7028F7B99CFC8D98091C7028F771B
:1028F00094CF8091C702837F90CF8091C8028C7F54
:102900009BCF8091C702992782FF939590FB82F914
:1029100090FB83F982CF8091C802982F909590FB0D
:1029200080F990FB81F988CF9091C702892F8F7B26
:1029300096FF806472CFA1D99091C702892F97FB2F
:1029400087F980586ACF61E08EE090E00E945322C0
:1029500066CF60E0F9CF9091C702892F8F7E94FFF8
:1029600080615BCF9091C702892F8E7F90FF81603D
:1029700054CF9091C802892F877F93FF88605CCFE6
:1029800089E2A1C389E28AC38272FE01E052F8475C
:10299000EB30F10508F0ACC0ED52FD4D0C94AF21C9
:1029A0008091BA028272FE01E054F847ED30F105E1
:1029B00008F09EC0E252FD4D0C94AF218091A90217
:1029C00080FF0CC08E7F8093A90289EA92E00E946A
:1029D0007A0C1092A8020E94D606F0CE81608093F5
:1029E000A90261E08695869593DCE8CE811521F0F9
:1029F000D0DCE4CE8115E1F3C2DCE0CE811521F01C
:102A00000FD8DCCE8115E1F303D8D8CE811521F0A3
:102A10001AD8D4CE8115E1F30BD8D0CE811521F090
:102A200028D8CCCE8115E1F319D8C8CE811529F06C
:102A30000E94B10CC3CE8115D9F30E94A70CBECE63
:102A40008091B1028370811102C0109214018091B3
:102A5000B1028C7F81608093B1028091B902816064
:102A60008093B902ABCE8091B10283708111109234
:102A700014018091B1028C7FEECF8091B10291E080
:102A800089278093B10210921401E7CF811529F0B4
:102A90000E94B20A93CE8115D9F30E94A90A8ECE64
:102AA000811529F00E94D20A89CE8115D9F30E949E
:102AB000CB0A84CE811529F00E94E30A7FCE8115CE
:102AC000D9F30E94D90A7ACE811529F00E94F80A1A
:102AD00075CE8115D9F30E94ED0A70CE811529F0CB
:102AE0000E9464076BCE8115D9F30E94560766CE0B
:102AF0009E01205E324520323105A8F491112AC092
:102B0000CF7181E090E09C0102C0220F331FCA9573
:102B1000E2F7E901622F83E090E00E945322CE01A8
:102B20000E9499024BCE9115A9F0CA353CE7D30714
:102B300009F481C008F05BC0C1309CE7D90709F4F3
:102B400079C0C330ECE7DE0709F46EC0C115DC477D
:102B500009F45EC0F701858100811181811509F4B6
:102B60006EC0C8010E94C705C82F682FC8010E9407
:102B70001603B8018C2F0E9495030E94CB04D82F16
:102B8000C92FF701D580C680C2948FE0C8228091FA
:102B9000C10287708115F9F00D2DD114E9F0892F4C
:102BA000807F803461F080E28D0F8830A0F0892F23
:102BB000807E803221F4D23070F0C11461F08091B7
:102BC000C80282FF08C082E00E944F038091C102C8
:102BD000877001E0811100E0EC2FE295EF70C03CBE
:102BE00008F093C0F0E0E551FD4D0C94AF21CB35DA
:102BF0002CE7D20711F18091C802002482FF0394D0
:102C0000802DCC35DC4709F0A5CF0E94630CA2CF04
:102C100034D88FEF94E3ECE081509040E040E1F74E
:102C200000C000000E94E10B6FEF7FEF80E090E0BA
:102C30000E946D224ED881E0E8CF80E0E6CFC80147
:102C40000E942E03C82F95CF1C2F1F70C03110F08B
:102C50001295107FD114B9F0111569F080E28D0F33
:102C6000883010F0D11109C08091BA02812B809375
:102C7000BA020E94440D8D2F40C08091C902812B61
:102C80008093C902F6CF8D2F0E94030E1115E9F132
:102C900080E28D0F883010F0D11104C0812F0E9486
:102CA0008D0306C010958091C90281238093C902CB
:102CB0000E94440D2AC01C2F1F70C07FC03211F02B
:102CC0001295107FD11549F0D13009F467C0D114A5
:102CD00009F473C0C114A9F1CECF8091C80282FD5E
:102CE0002CC0D11469F0111539F08091BA02812BF2
:102CF0008093BA020E94440D80E00E949A0D05C0A4
:102D000080E00E94030E1111C9CF011509F4BFC064
:102D10008091C10280FDBBC0F70115828695869522
:102D200086950E94A402C701D4DC8091C1028695D9
:102D3000869586950E94B202AAC0D11499F0C1105E
:102D400004C0812F0E942E0EE0CFF1E0CF12DDCF24
:102D50008091BB02912F98231917B9F2812B809390
:102D6000BB02D3CFC110D1CF812F0E94370E9091DB
:102D7000BB02812F8923811529F0812F809589231A
:102D80008093BB028091BC02912F9823911509F486
:102D9000BCCF109518231093BC02B7CFD11429F0E3
:102DA00026E0C21608F0B1CFCCCF35E0C31608F04C
:102DB000ACCF812F0E94370EA8CFC114D1F3D933E5
:102DC00049F48FEF97EEE3E081509040E040E1F767
:102DD00000C000008D2F0E94030E97CF8C2F869588
:102DE00086958370811569F0813009F08ECF8D2F23
:102DF0009C2F9370D11002C080E090E00E944208A6
:102E000084CF8D2F9C2F9370D11002C080E090E072
:102E10000E941A087ACF6D2D8D2F0E94020975CF5E
:102E20008C2F837081115DC0D1102FC04D2F429522
:102E300046954770440F440F2D2F2F7030E0042E1D
:102E400002C0220F331F0A94E2F780E090E0D4FF23
:102E500009C08FE090E002C0880F991F4A95E2F701
:102E600080959095C695C695C370C23089F1C330E0
:102E700061F14091BD025091BE02C13021F1822B1F
:102E8000932B842395230E9499020E940B0860E0F3
:102E9000C7010E94F905F7018581811509F49ECCCF
:102EA0000E94BD096093C3027093C4028093C5025F
:102EB0009093C6028091C202811509F48FCC1092C2
:102EC000C20270DA8BCC242B352B822B932BDBCFD9
:102ED000822B932B2091BD023091BE028227932733
:102EE000D2CFD11491F1C0FFD0CF4D2F429546954E
:102EF0004770440F440F2D2F2F7030E0042E02C076
:102F0000220F331F0A94E2F780E090E0D4FF09C05B
:102F10008FE090E002C0880F991F4A95E2F78095F4
:102F20009095C695C695C370C230B9F0C33091F084
:102F30004091BF025091C002C13051F0822B932BBF
:102F4000842395230E949E02A0CF823070F69DCFED
:102F5000242B352B822B932BF5CF822B932B209177
:102F6000BF023091C00282279327ECCFCF70D114DB
:102F700039F08C2F0E94A4028D2F0E942E0E85CF37
:102F80008D2F0E94370E8C2F0E94B2027ECFD23F2F
:102F9000B1F170F4D03FC9F0D13F91F0D11409F4F0
:102FA0005EC0C11409F458C08D2F0E949A0D6DCFD8
:102FB000D33F61F1D43F91F79091C80292FD34C0A4
:102FC0008C2F8F71D11401F31EC0D114A9F0F5E03C
:102FD000CF1608F05ACFCF7181E090E09C0102C07B
:102FE000220F331FCA95E2F7E9018091BF02909149
:102FF000C00282279D27A6CF36E0C316EACF8C2FCA
:103000008F71D110C1CF0E94A4023FCF80E090E029
:10301000D11409F497CFCF7181E090E002C0880FFE
:10302000991FCA95E2F78ECFD11461F08C2F8F7162
:1030300092FFE9CF982F990F990F990F9360909372
:10304000C102E1CF81E00E944F0382E0C81608F47C
:103050001CCF0E944F0319CF8C2F8F71D4CFC11476
:1030600079F0D93349F49FEFE7EEF3E09150E04077
:10307000F040E1F700C000008D2F0E94030E05CF45
:103080008C2F8F7181CFC631FCE7DF0709F088CC28
:103090008091A602811509F475CC85E30E949E08F3
:1030A00014C08091BA02C6312CE7D20709F06CCC6B
:1030B0008A7A91E0811101C090E09093A602811577
:1030C00009F45ECC85E30E946A080E94440D76CB29
:1030D00080910A03803178F480910903811559F0B9
:1030E000E091CB022091CA02309105034091040384
:1030F00057E02E1301C008956E2F70E05E9FF0011F
:103100001124DF01A453BD4F14968C91149781159F
:1031100051F111968C911197831325C08C918413D2
:1031200022C015968C91159781111DC012968D9114
:103130009C91A0910603B09107038A1B9B0B883CCE
:10314000910588F480910A038F70806180930A034F
:10315000EE52FD4F80818F708061808384E093E028
:10316000B8DA0C944503FB013196E770C2CFADE0AD
:10317000B0E0EDEBF8E10C94BA218C0186E0F801A7
:10318000DE01189601900D928A95E1F7F801F5801D
:10319000C48084E0882E83E0982E7090080371101C
:1031A0001FC0C114D1F0F11409F415C1C8010E9467
:1031B0002106811509F40FC187E0F801D4010190BF
:1031C0000D928A95E1F7F1E0CF1206C080910403D9
:1031D000909105030E9415067BDFFF24F39453C0F2
:1031E000E080A280B380D090090380910603909183
:1031F00007039501281B390BD11409F4B5C0283CED
:10320000310508F08DC0C11441F390910503C180D0
:1032100080910A03803108F056C0C91213C0909102
:1032200004039E110FC0F11048C08F70806180931D
:103230000A0384E093E04DDA80910A03F801868363
:10324000F12C21C0F11039C040E06C2D8E2D0E9470
:10325000AA0B40E06C2D8E2D0E94AA0BF82E811136
:10326000EFCF888599850E941506292F22952F700A
:10327000903470F49F70223098F09115A9F0F80105
:103280009681903188F48F2D2D96EDE00C94D62107
:103290002A5F2F70223060F0C8011BDAFD2CF3CFBB
:1032A000911511F0811579F3805E883060F3F4CFC9
:1032B000803F48F3815F8330F9CF80910A038160BA
:1032C00080930A03BDCFC91207C0909104039E11D9
:1032D00003C0F11409F469C0C8010E9421068115D8
:1032E00009F479C0F11409F476C080910A038032A0
:1032F00070F020910403309105033A832983BC8246
:10330000AB827D821E828F83CE010196E2D987E057
:10331000F801A4E0B3E001900D928A95E1F75CCF4B
:1033200080910A03803148F484E093E0D2D987E0A9
:10333000F40111928A95E9F783CFC11409F44DCFB6
:103340002091050391812913C7CF909104039E1109
:10335000C3CFF110C1CF8683C801BBD987E0F40188
:1033600011928A95E9F739CF283C310500F7C1144D
:1033700009F433CFF11479F1909105038181981309
:1033800020C0809104038E111CC080910A0380FD2F
:103390000FC0803168F08683807F803F39F086815E
:1033A000982F907F905F8F70892B8683C80191D969
:1033B00087E0F801A4E0B3E001900D928A95E1F76F
:1033C0000CCFC8010E9421068111A1CF80910A0370
:1033D000816080930A03C8017CD9FFCEABE1B0E0E5
:1033E000E3EFF9E1D0C74E8B5F8B688F798F8A8FBF
:1033F000192F9B8F91111092C9021D8A86E0FE0140
:103400007696DE011F9601900D928A95E1F70A8D5E
:10341000011561F00B8B1C8B61E0CE010F960E94B1
:10342000F90561E0CE010F960E94F9050B8B1C8B0C
:1034300087E0FE013F96DE01189601900D928A9575
:10344000E1F7CE01089693DE811128C02091CA02CF
:103450003091CB0287E0FE013896DE011196019093
:103460000D928A95E1F78C858115C1F0822F90E04D
:1034700001968770992738171906D1F097E0929F27
:10348000D0011124A453BD4FFE01319601900D923D
:103490009A95E1F78093CA020E94450317E0809154
:1034A000CB029091CA02891311C06B96E4E087C7E2
:1034B0000E943D0E1092CA021092CB0287E0E4E017
:1034C000F3E0DF011D928A95E9F7E8CF189FC0016C
:1034D000112484539D4F4BDE811539F38091CB022B
:1034E00090E00196877099278093CB02D8CFA6E011
:1034F000B0E0ECE7FAE147C70E94CD088C0180916B
:103500006002909161028017910771F019821A820E
:103510000E94CD08BC0149815A8180E090E05EDFC5
:1035200010936102009360022696E4E048C7A4E08D
:10353000B0E0ECE9FAE11FC7FE01319684E0DF015B
:103540001D928A95E9F785E1E82E81E0F82E8F013A
:10355000B12C9E2EA12ECC24C394D12CF7018191A5
:103560007F018F3FC9F1F894E82FE295EF70F0E00A
:1035700021A18F70A60102C0440F551F8A95E2F762
:10358000CA01922F982B91A392A18095892382A39F
:10359000789400C0E9E1F1E041E0812C20E053E0C3
:1035A000B51247C021113FC088277F9B83958115A5
:1035B00009F451C080E0882A2F5F440F31962430EF
:1035C00071F7F70182918F3F11F00E94430280EA68
:1035D0008A95F1F7D8018C92B3940F5F1F4FB4E036
:1035E000BB12BCCF44E050E0692D7A2D86E392E017
:1035F00085D7892B91F189819A81AB81BC81809398
:10360000360290933702A0933802B093390281E0DA
:1036100080930E020E94CD0890930D0280930C02BD
:103620002496ECE0C4C6233021F48FB180958170DC
:10363000BECF30813F3F09F4BDCFA32FA295AF701D
:10364000A05EB0E08C9190E03F7002C095958795A8
:103650003A95E2F7ECCF842FAECF80910E02811520
:10366000F9F200910C0210910D020E94CD08801B0E
:10367000910B0597A8F244E050E066E372E08EE318
:1036800092E03CD7892B81F08091360290913702ED
:10369000A0913802B091390280933E0290933F028C
:1036A000A0934002B093410210920E02B9CFCDB761
:1036B000DEB765970FB6F894DEBF0FBECDBF85B7F6
:1036C000806885BF85B7806885BF84B7877F84BFE2
:1036D0000FB6F894A895809160008861809360008F
:1036E000109260000FBE80E890E00FB6F8948093CF
:1036F0006100909361000FBE81E0809313018CE420
:1037000096E09093E3018093E2010E94720A0E9486
:10371000500B8091E20084608093E2007894809165
:103720003D02811599F08091E9001091EC008F70B5
:10373000179511271795182B1092E9008091E80032
:1037400083FD0E947E0E1F701093E90082E084BD0D
:1037500093E095BD9AEF97BD80936E00E2E5F2E0AD
:1037600098E0DF011D929A95E9F78093510260E09D
:1037700080E00E94720761E080E00E94720760E0D2
:1037800081E00E94720761E081E00E947207EFE829
:10379000F1E03197F1F700C0000010E08091510294
:1037A000181708F49EC081EF0E94430284EF0E9424
:1037B000430285EF0E94430286EF0E94430284E3A6
:1037C0000E94430286E60E94430287E60E9443026B
:1037D00086EC0E94430284E0EEE3F2E0DF01282F52
:1037E0001D922A95E9F7E6E3F2E0DF011D928A9542
:1037F000E9F783E190E03ED66093A1027093A202C4
:103800008093A3029093A4026770BFEF6B9FC001E7
:10381000112495958795959587950E94710280E072
:1038200090E02DD6833E9E4F09F439C063EE7EEFC3
:1038300080E090E052D660E082E090E034D681E013
:1038400090E09093BE028093BD0261E083E090E03F
:103850002AD660E074E184E090E03FD60E949B0CA1
:103860000E94ED1140E050E0BA018FE090E02DD6CB
:103870001092A1021092A2021092A3021092A4022E
:1038800081E08093A10282E10E94710241E050E058
:1038900060E070E083E190E018D60E94E21182E0DF
:1038A00090E0E0D58093420284E090E0E8D59093E8
:1038B000C8028093C7023BDEFFEF26E741E0F150EC
:1038C00020404040E1F700C0000031DE80913E0220
:1038D00080FF19C06FEF7FEF80E090E0FED50E947F
:1038E000E10B60E0812F0E949507082F61E0812F96
:1038F0000E949507E12FF0E0E15BFD4F880F802BE0
:1039000080831F5F4BCF83E090E0ACD590E00E94B6
:1039100099028091BF029091C0020E947F020E9492
:10392000B20781E08093B90248E050E067E170E0BF
:1039300081EB92E087D51092B9028091B102843078
:1039400010F40E94ED1180913A0281112FC089EA92
:1039500092E00E942F118091A902843008F091C05A
:103960000E949B0C89EA92E00E942F118091A9028B
:10397000843008F086C0837084608093A9028091AF
:10398000AC02873918F086E98093AC021092A80245
:103990000E941E028091A90280FF05C060E086950A
:1039A00086950E94881181E080933A0289EA80938B
:1039B000800089E08093810086E091E0909383020B
:1039C0008093820268E1E62EF12C72E4C72E72E049
:1039D000D72EE7E4AE2EE2E0BE2EF4E06F2E712C7F
:1039E000CE0101968B8B9C8B80913D0210E402E10D
:1039F000853009F486C09BDD03E412E05EE3852E8A
:103A000052E0952ED401F80191918D91AE16BF062A
:103A100009F4D4C09817C1F3512CD4014D904D0135
:103A2000F80181918F01841529F184258D8B312C2A
:103A3000222423948D8982218115A9F039825A820A
:103A40000E94CD089C838B83F1E0FD8391E0842D5F
:103A50008221811101C090E09E8349815A816B814E
:103A60007C818D81BBDC3394220C24E03212E2CFC6
:103A7000F8014292539444E05412CFCF0E94BD0902
:103A8000A0C08091A902803208F479CF83708C6144
:103A900074CF80913D02843059F10E9465020E94EA
:103AA00069020E946D020E94F9110E94EB061092B9
:103AB0003B020FB6F894A895E09260000FBE1093F9
:103AC000600083B7817F846083BF83B7816083BFD9
:103AD0007894889583B78E7F83BF0FB6F894A895A6
:103AE00080916000886180936000109260000FBE3A
:103AF0001EDDEEE3F2E08191811170C2CE16DF0689
:103B0000D1F780913D02853009F4C3CF0E943D0E6C
:103B10000E940B080E94D2110E9465020E94690255
:103B20000E946D029FEFA9E6B8E19150A040B0401D
:103B3000E1F700C000000E945C02EFEFF1EE24E02C
:103B4000E150F0402040E1F700C000000E945F0219
:103B50004FEF81EE94E0415080409040E1F700C08B
:103B600000000E946202AFEFB1EEE4E0A150B0406D
:103B7000E040E1F700C000000E946502FFEF21EE87
:103B800044E0F15020404040E1F700C000000E94B6
:103B900069028FEF91EEA4E081509040A040E1F7E0
:103BA00000C000000E946D02BFEFE3ECF9E0B150ED
:103BB000E040F040E1F700C000001DCF98132CCF8B
:103BC00096DC8091A802811509F441C08091A7027A
:103BD000E091A902E695E695E81BE093490200ED25
:103BE00017E03EE4832E36E0932E823059F4E695BA
:103BF000F0E0E95DFC4FE4910E2F10E04FEF842ED2
:103C000046E0942E80914A02811561F010924A029A
:103C10000E94CD08909348028093470210924C0274
:103C200010924B020E94CD08209147023091480229
:103C3000821B930B8F3F9F4750F4200F311F30930F
:103C400048022093470287E492E0F40109950E941C
:103C5000F91180915A02811551F08091540210920D
:103C60005A0280935502809152028093530200E0E1
:103C700048C061E0802F0E949507882E60E0802F69
:103C80000E949507880C8829202F30E0D901A15B7C
:103C9000BD4FEC919E2F9370891791F1EE0FEE0FAF
:103CA000E82BEC93EF70F0E0EB59FE4F235B3D4FB8
:103CB0008081D9019C91890F8C9384300CF451C080
:103CC000412F50E0BA016F5F7F4F637077279616E0
:103CD000170679F04E5A5D4F902F9F77FA01948323
:103CE0001F5F137010935402909152029F5F909344
:103CF0005202082E000C990BB3011ED3F9018083E8
:103D00000F5F909055021091540280915102081754
:103D100008F4AFCF90E08CEF982E2DEF822E80919B
:103D2000550220915402281709F454C0E82FF0E0FE
:103D3000EA5AFD4F908197FB552450F8092F0F77D1
:103D40008F5F837080935502809153028F5F8093C1
:103D5000530297FD1BC00F8398860E94CD0813E085
:103D60001AC08D3F34F6412F50E0BA016F5F7F4F8C
:103D7000637077279616170609F4BBCF4E5A5D4F2E
:103D8000902F9068DA0114969C93AACF0F838886AF
:103D90000E94CD0812E0BC0189879A871B87F1E059
:103DA000FC874F815885812F91E018DB0D875114D6
:103DB00079F08E860E94CD08BC018F87988B198B75
:103DC0001A8A4D855E85812F90E008DB91E0A7CFB0
:103DD0009E86F0CF91110E94BD0986E0EBE9F2E0EA
:103DE000AB89BC8901900D928A95E1F730909C02D5
:103DF00050909D0290909E0240909F028090A00261
:103E000010929D0210929E0210929F021092A002A8
:103E1000892D8529811509F441C000915D02109119
:103E20005E020E94CD089C01201B310B90919902EB
:103E3000911509F4CEC02531310580F19F3F19F06D
:103E40009F5F90939902511459F00E94C60791E028
:103E500015140CF09FEF899F802D112480939D02F3
:103E6000911459F00E94C60791E019140CF09FEFCD
:103E7000899F802D112480939E0280919D0281153F
:103E800069F010919E02111549F00E94B8078093C5
:103E90009D02812F0E94B80780939E02882D84295D
:103EA000811509F441C000915B0210915C020E94EF
:103EB000CD089C01201B310B90919802911509F4BB
:103EC00083C02135310580F19F3F19F09F5F9093AA
:103ED0009802411459F00E94E60791E014140CF086
:103EE0009FEF899F802D112480939F02811459F0A8
:103EF0000E94E60791E018140CF09FEF899F802D37
:103F000011248093A00280919F02811569F0109185
:103F1000A002111549F00E94B80780939F02812FDB
:103F20000E94B8078093A00280919C02381219C0A9
:103F300080919D02811511F0851113C020919E0280
:103F4000211511F092120DC09091A002911511F05F
:103F5000891207C030919F02311103C0822B892B37
:103F600081110E94D90886E0EB89FC89ABE9B2E0B7
:103F700001900D928A95E1F70E940B0890915F02E3
:103F8000891721F080935F020E94BD098091C202CF
:103F900081112ACD2090C3023090C4024090C50206
:103FA0005090C6020E94BD096219730984099509DF
:103FB000613A7B4B8D40910508F416CD0E94EB06CB
:103FC00081E08093C20210CD2B30310508F07ECF06
:103FD000ABCF2B30310508F033CF60CF80913C025E
:103FE000811509F48ECD80E189BD09BD09B400FEBB
:103FF000FDCF8091D8008F7D8093D8008091E00024
:1040000082608093E0008091E00081FDFCCF0E94FF
:104010003D0E77CD1F921FB61F9211248F939F9351
:10402000AF93BF9380913B02811113C08091240212
:1040300090912502A0912602B09127024196A11DE0
:10404000B11D8093240290932502A0932602B09381
:104050002702BF91AF919F918F911F901FBE1F901C
:10406000189578941F921FB61F9211248F939F93D7
:10407000AF93BF938091240290912502A0912602D4
:10408000B09127020196A11DB11D80932402909347
:104090002502A0932602B0932702BF91AF919F9172
:1040A0008F911F901FBE1F9018951F920F920FB6F1
:1040B0000F9211242F933F934F935F936F937F93AE
:1040C0008F939F93AF93BF93EF93FF938091E10002
:1040D00082FF09C08091E20082FF05C08091E1006B
:1040E0008B7F8093E1008091DA0080FF24C0809173
:1040F000D80080FF20C08091DA008E7F8093DA00A4
:104100008091D90080FFA9C080E189BD82E189BD8D
:1041100009B400FEFDCF81E080933D02809113023F
:10412000811109C00E94720A0E94500B8091E20026
:1041300084608093E2008091E10080FF1AC080914A
:10414000E20080FF16C08091E2008E7F8093E20043
:104150008091E20080618093E2008091D8008062CB
:104160008093D80019BC85E080933D0283E0809362
:1041700013018091E10084FF2FC08091E20084FF51
:104180002BC080E189BD82E189BD09B400FEFDCF6D
:104190008091D8008F7D8093D8008091E1008F7E40
:1041A0008093E1008091E2008F7E8093E200809115
:1041B000E20081608093E20080911202811509F48F
:1041C00052C084E080933D0280913D02843009F02A
:1041D00052C082E0809313018091E10083FF2CC0E4
:1041E0008091E20083FF28C08091E100877F809367
:1041F000E10082E080933D02109212028091E10082
:104200008E7F8093E1008091E2008E7F8093E200B8
:104210008091E20080618093E20042E060E080E013
:104220000E94200B8091F00088608093F00081E074
:104230008093130180931201FF91EF91BF91AF9191
:104240009F918F917F916F915F914F913F912F91AE
:104250000F900FBE0F901F90189519BC10923D0241
:104260001092130268CF8091E30087FF02C083E0C1
:10427000A9CF81E0A7CF81E0ADCF1F920F920FB6FB
:104280000F921124EF92FF920F931F932F933F935E
:104290004F935F936F937F938F939F93AF93BF934E
:1042A000CF93EF93FF9309EE10E0F8018081C09166
:1042B000EC008F70C795CC27C795C82B108280EF74
:1042C000E82EF12CF7018081877F808378940E940B
:1042D0007E0EF8011082F701808188608083CF70A4
:1042E000F801C083FF91EF91CF91BF91AF919F9162
:1042F0008F917F916F915F914F913F912F911F917E
:104300000F91FF90EF900F900FBE0F901F90189598
:10431000AA1BBB1B51E107C0AA1FBB1FA617B707EB
:1043200010F0A61BB70B881F991F5A95A9F7809507
:104330009095BC01CD01089597FB072E16F40094CB
:1043400006D077FD08D0E4DF07FC05D03EF4909559
:1043500081959F4F0895709561957F4F0895EE0F59
:10436000FF1F0590F491E02D09942F923F924F92F8
:104370005F926F927F928F929F92AF92BF92CF92F5
:10438000DF92EF92FF920F931F93CF93DF93CDB7FE
:10439000DEB7CA1BDB0B0FB6F894DEBF0FBECDBF76
:1043A00009942A88398848885F846E847D848C8447
:1043B0009B84AA84B984C884DF80EE80FD800C8150
:1043C0001B81AA81B981CE0FD11D0FB6F894DEBF33
:1043D0000FBECDBFED010895002E083090F0982F4C
:1043E000872F762F652F542F432F322F22270850E7
:1043F000F4CF220F331F441F551F661F771F881FDE
:10440000991F0A95B2F7002D089597FD1094002E7C
:10441000083098F00850232F342F452F562F672F40
:10442000782F892F912DF4CF1594979587957795AF
:10443000679557954795379527950A95AAF71124BB
:10444000002D0895DC01CB01FC01F999FECF06C0D7
:10445000F2BDE1BDF89A319600B40D924150504042
:10446000B8F70895F999FECF92BD81BDF89A9927C2
:1044700080B50895A6E1B0E044E050E0E5CFA8E1C2
:10448000B0E042E050E0E0CFDC01A40FB51F4150A6
:10449000504040F0CB01840F951F2E9105D0415024
:1044A0005040D8F70895262FF999FECF92BD81BDCF
:1044B000F89A019700B4021639F01FBA20BD0FB662
:1044C000F894FA9AF99A0FBE08950396272FECDF15
:1044D000EADF252FE9DF242FE7CF0196272FE4DF3E
:1044E000E2CFFC014150504030F001900616D1F768
:1044F0003197CF010895882799270895FB01DC01A2
:1045000004C08D910190801921F441505040C8F7AA
:10451000881B990B0895F894FFCF0E09130915090C
:104520001A092A092A092A092A092A092A092A0903
:104530002A091C0920092309280938093E094209CA
:104540005A0F800F860F800F860FD80FF90F860F36
:10455000F61003114C14B21454141F1423145814DD
:1045600027145C1468143314AB1437146C143B1404
:10457000701494143F1474149B144414791481140B
:104580002B1460142F14641448147D148B14A3147A
:10459000A91419145014B914F713FB13D813F313F7
:1045A000FF1303140714DE14F614FA14FE14021594
:1045B00006150A150E15121516151B15201533159F
:1045C0003D1546154B15501555155A155F156415B3
:1045D00069156E157315241624165B165B16EE16F8
:0E45E0000B17851685161017B617C717C717C5
:1045EE0000FF00FFFF01CA083E0C540C590C5E0C74
:1045FE000000010003F1F4F5F6346667C6943096B8
:10460E0031FF0A0BFF0908070602030405FF01002C
:10461E00FF7A406740542D672D852D982D981A7A74
:10462E001A671A541A67077A070404040404040468
:10463E000404040404003131295A1B750A000102D6
:10464E00020202020200FF0100010000FFFF000053
:10465E00010001FF00E200E900EA00B500B600B774
:10466E0000CD008301CC008A019201940121022326
:10467E000224022502260227022A02B300B4006F8A
:10468E000070009F01CB019F02A002E200E900EA48
:10469E0000B500B600B700CD008301CC008A0192B0
:1046AE000194012102230224022502260227022A56
:1046BE0002B300B4006F0070009F01CB019F02A0F7
:0246CE000200E8
:00000001FF
